:040000000C94230336
:10000400080C1E1F1E0C0800000000000000031F47
:100014000000000000031F1F00000000031F1F1F3B
:10002400000000031F1F1F1F0000031F1F1F1F1FAF
:1000340000031F1F1F1F1F1F031F1F1F1F1F1F1F23
:10004400020504040414080000CDAF9682736455BD
:1000540046382E241E1915120F0C0906030010270A
:10006400E80364000A000100001000011000010010
:10007400C8000000A00000000100027A0000000097
:100084000000000000000000110001003100000029
:10009400000000000000000000000000000000005C
:1000A4000500020000000A0000000A002C00050000
:1000B4000700202046656C657A4A6F6F20205049FE
:1000C4002020000020202044454D4F2076332E333D
:1000D4003520202000008300040005000600A30052
:1000E4000200FC020C031C032C033C034C035C03C2
:1000F4006C037C038C039C03AC03BC032048616D3C
:1001040069642028204952414E202920002020449F
:10011400657369676E65642042793A2020000000A7
:100124002052656D61696E696E67205573653A206A
:1001340000000000000000000000000000000000BB
:1001440000000000000000000000000000000000AB
:10015400000000000000000000000000000000009B
:10016400000000000000000000000000000000008B
:10017400000000000000000000000000000000007B
:10018400000000000000000000000000000000006B
:10019400000000000000000000000000000000005B
:1001A400000000000000000000000000000000004B
:1001B400000000000000000000000000000000003B
:1001C400000000000000000000000000000000002B
:1001D400000000000000000000000000000000001B
:1001E400000000000000000000000000000000000B
:1001F40000000000000000000000000000000000FB
:1002040000000000000000000000000000000000EA
:1002140000000000000000000000000000000000DA
:1002240000000000000000000000000000000000CA
:1002340000000000000000000000000000000000BA
:1002440000000000000000000000000000000000AA
:10025400000000000000000000000000000000009A
:10026400000000000000000000000000000000008A
:10027400000000000000000000000000000000007A
:1002840000000000000000000000960000000000D4
:10029400000000005325752044257520462575204F
:1002A4005025750053257520442575462575205025
:1002B40025750020003D2020202020202020202003
:1002C4002020202000204120202020422020202007
:1002D400432020202000202020202044656C6179C8
:1002E4003A00436F696C204572726F7220210025B9
:1002F4007520282B257529004672657175656E6316
:10030400792020202020200050756C7365205769C7
:10031400647468202020200044656C6179202020CA
:100324002020202020202000496E7465672E57204D
:10033400202020202020200047726F756E6420202A
:100344002020202020202000537065656420202078
:10035400202020202020200049726F6E2052656AE0
:1003640065637420202020004261636B4C696768D8
:100374007420202020202000436F6E7472617374F7
:100384002020202020202000566F6C756D652020D1
:100394002020202020202000546F6E652020202063
:1003A400202020202020200050617373776F726416
:1003B400202020202020200041626F7574202020FE
:1003C40020202020202020004F4646004F4E2000B1
:1003D4003C213E002B002B25750025752000204F65
:1003E4006C642050617373776F7264203A005772A3
:1003F4006F6E672050617373776F726420210020E1
:100404004E65772050617373776F7264203A0043AE
:100414006F6E6669726D2050617373776F726400DA
:1004240050617373776F7264204368616E676564AB
:1004340000202020202020202020202020202020D8
:10044400200020204869676820506F77657220215A
:10045400002020205072657373204F4B2021002010
:1004640020202044454D4F20212121003F0042619E
:100474006C616E63696E6720200049443A20202035
:100484002020202020202020202000202020204662
:10049400453A004E4F4E2D46453A002046455252AD
:1004A4004F3A002563257500FF005F20202020209F
:1004B400202020202000212020202020202D2575F0
:1004C4000021202020202020202020200020205334
:1004D400656E73697469766974793A00436F696CFF
:1004E400204572726F72200025752E257500506F9D
:1004F400776572204F66662020004C6F772042613A
:1005040074746572790080C000000000010000006E
:100514002D4E414E00494E4600000A00040074006E
:1005240002004B057E00020019068000010022062D
:1005340082000100230684000100240686000100D5
:1005440025068800010026068A00010027068C0083
:10055400010028068E0001002906900001002B06E8
:10056400920010002E06940001003E06A400010033
:100574003F06A60001004006A80001004106AA00AB
:1005840001004206AC0001005406AE00010055060D
:10059400B00001005606B20001005706B400110075
:1005A4005806B60011006906C80002000004B7022C
:1005B40002000204B702110004047E0402001504C0
:1005C400B702080017048F0408001F0497040800EA
:1005D40027049F0402002F04B70202003104AC0474
:1005E40002003304B70203003504C60202003804D3
:1005F400B7020C003A04AE0403004604C60202002B
:100604004904B7020C004B04C5040C005704C5048C
:1006140002006304B70202006504B7020200670423
:10062400B70202006904B70202006B04B7020200B9
:100634006D04B70204007A060A0504008106100559
:100644000000F894EE27EFBBF1E0F5BFE5BFF8E159
:10065400A895A4B7A77FA4BFF0936000E0936000BF
:10066400EEE1F5E085919591009761F0A591B59142
:1006740005901590BF01F00105900D920197E1F7E7
:10068400FB01F0CFEFEFEDBFE8E0EEBFC0E0D4E058
:100694000C941A10BA93AA93E881F9813697E883E7
:1006A400F983000084E090E00197F1F7E881E170BC
:1006B40021F085E090E00197F1F7E881E27021F004
:1006C4008AE090E00197F1F7E881E47021F084E199
:1006D40090E00197F1F7E881E87021F088E290E07A
:1006E4000197F1F7E881E07121F080E590E001974E
:1006F400F1F7E881E07221F080EA90E00197F1F7E8
:10070400E881E07421F080E491E00197F1F7E88159
:10071400E07821F080E892E00197F1F7E981E17057
:1007240021F080E095E00197F1F7E981E27021F092
:1007340080E09AE00197F1F7E981E47021F080E02C
:1007440094E10197F1F7E981E87021F080E098E203
:100754000197F1F7E981E07121F080E090E50197DC
:10076400F1F7E981E07221F080E090EA0197F1F776
:10077400E981E07441F080E090EA0197F1F780E0CC
:1007840090EA0197F1F722960895E0E0EA93A0E059
:100794000E94C523E0912606E03009F04CC0A091E8
:1007A4002706AA3048F0A0914106AA302CF0E4E6CE
:1007B400F0E04E165F0638F4E3E4F6E0FA93EA93C9
:1007C400E8E9F2E006C0E3E4F6E0FA93EA93E8EA43
:1007D400F2E0FA93EA93E0912706FF27662777274A
:1007E4000E94F628E09141060E9482280E94F62881
:1007F400F201662777270E94F628F40166277727F7
:100804000E94F62880E10E94B4256496A3E4B6E031
:100814000E940A24E0915106E03021F4A0E0B4E003
:100824000E940A24E0915206E03021F4A2E0B4E0F0
:100834000E940A240EC0A0912606A13031F4A0E043
:100844000E94EA23A9EBB2E002C0A9ECB2E00E9444
:1008540019240895E0E4E0937C00E0913F06E03041
:1008640031F0E0E0E093B000E093B10009C0E09122
:100874003E06E03029F0AEE0EA02F001EE58E7BDB2
:100884000E94D623AAEDB2E00E9419242224332424
:10089400E1E0E0931F06A0911F06A131D8F4E09196
:1008A4001F06F0E00F01E759F94FA081B0E0A7FD62
:1008B400BFEFF001E85AF94FE081F0E0E7FDFFEF08
:1008C400EA0FFB1F2E0E3F1EE0911F06EF5FE09321
:1008D4001F06E1CFF1010E947828EC3EADE1FA0752
:1008E40019F0EBE0F0E04F01E1E0F0E71F01EDEF7C
:1008F400FFE7E215F30538F0F101A491AF3F19F4D5
:1009040031961F01F4CFEEEFFFE72E163F0648F4B1
:10091400EDE5F9E0E0934905F0934A05E6E6E09356
:100924002C06E1E0E0931F06A0911F06AF3008F00B
:100934004BC1E0E0E0937A00E0911F06E0932106CA
:10094400EFEFF1E0E819F909E0934305F09344056A
:100954005E9B02C05E9801C05E9AE5E8E0937A006F
:10096400E0917A00E064E0937A00E0917A00E07428
:10097400E1F7A0914305B09144058CDE2A98D40197
:1009840089DE2A9A000085E090E00197F1F7E09172
:100994002106E150E0932106E03039F00000000028
:1009A40085E090E00197F1F7F2CFE0E0E4BDE5BD2A
:1009B400E0917A00E064E0937A00E0917A00E074D8
:1009C400E1F7C0907800D0907900E0917A00E0647B
:1009D400E0937A00E0917A00E074E1F7E091780026
:1009E400F0917900E0933705F0933805E0917A00AF
:1009F400E064E0937A00E0917A00E074E1F7E0913A
:100A04007800F0917900E0933905F0933A05E0918C
:100A14007A00E064E0937A00E0917A00E074E1F710
:100A2400E0917800F0917900E0933B05F0933C0568
:100A3400E0917A00E064E0937A00E0917A00E07457
:100A4400E1F7E0917800F0917900E0933D05F093AF
:100A54003E05E0917A00E064E0937A00E0917A0048
:100A6400E074E1F7E0917800F0917900E0933F05BC
:100A7400F0934005E0917A00E064E0937A00E0911D
:100A84007A00E074E1F7E0917800F0917900E09366
:100A94004105F0934205E3EAE4BDE2E0E5BDE091FF
:100AA4001F06AFE6B4E0F0E0EE0FFF1FEA0FFB1FF6
:100AB400C082D182E0911F06E25FAFE6B4E0F0E0CD
:100AC400EE0FFF1FEA0FFB1FA0913705B091380509
:100AD400A083B183E0911F06E45EAFE6B4E0F0E0EA
:100AE400EE0FFF1FEA0FFB1FA0913905B0913A05E5
:100AF400A083B183E0911F06E65DAFE6B4E0F0E0C9
:100B0400EE0FFF1FEA0FFB1FA0913B05B0913C05C0
:100B1400A083B183E0911F06E85CAFE6B4E0F0E0A7
:100B2400EE0FFF1FEA0FFB1FA0913D05B0913E059C
:100B3400A083B183E0911F06EA5BAFE6B4E0F0E086
:100B4400EE0FFF1FEA0FFB1FA0913F05B091400578
:100B5400A083B183E0911F06EC5AAFE6B4E0F0E065
:100B6400EE0FFF1FEA0FFB1FA0914105B091420554
:100B7400A083B183A0911F06AE3000F5EFE0EA1B1D
:100B8400E0932106000085E090E00197F1F7E09101
:100B94002106E150E0932106E03039F00000000026
:100BA40085E090E00197F1F7F2CFD301A45EB24063
:100BB4000E944C0382E090E00197F1F7E0911F0658
:100BC400EF5FE0931F06B0CEE0E0E0932006E4E0A0
:100BD400E0931F06A0911F06A33608F05CC0E091C5
:100BE4001F06E250AFE6B4E0F0E0EE0FFF1FAE0FD9
:100BF400BF1F0E94EE28DF017F97F0F1FD01E0396D
:100C0400A1E0FA07C8F5E0911F06AFE6B4E0F0E012
:100C1400EE0FFF1FAE0FBF1F0D901C90E0911F063B
:100C2400E150AFE6B4E0F0E0EE0FFF1FAE0FBF1FE0
:100C34000E94EE28D001AE1BBF0B1B97E8F0E09199
:100C44001F06E150AFE6B4E0F0E0EE0FFF1FAE0F79
:100C5400BF1F0D901C90E0911F06E250AFE6B4E078
:100C6400F0E0EE0FFF1FAE0FBF1F0E94EE28D00171
:100C7400AE1BBF0B1B9708F408C0E0911F06E2509F
:100C8400E0932006E4E6E0931F06E0911F06EF5F81
:100C9400E0931F069FCFE0912006E03069F4E1E085
:100CA400E0932806E2E0EA93A1E00E94C523A6EEC1
:100CB400B2E00E9419248EC0A0914B05B0914C055E
:100CC400AB33E5E7BE0720F0A0912906AF3218F454
:100CD400E5E6E0932C06A0914905B0914A05AE30B3
:100CE400E9E0BE0790F4D096AF30E8E0BE0768F0C4
:100CF400A0914905B0914A05E2E00E949528E25985
:100D0400FF40E538A2E0FA0718F0E1E0E0932D0691
:100D1400E0E0E0932806E0912006FF276627772786
:100D24000E942127ADECBCEC8CEC9FE30E94AB2726
:100D3400ADECBCEC8CE690E40E945B27ABE2B6E041
:100D44000E94E826EC93E4E0EA93A1E00E94C52324
:100D5400E3E4F6E0FA93EA93E3EFF2E0FA93EA933A
:100D6400E0912B06FF27662777270E94F628E0915B
:100D740041060E9482280E94F62888E00E94B42539
:100D84002C96A3E4B6E00E940A24AA24BB24E1E042
:100D9400E0931F06A0911F06A53698F4E0911F0664
:100DA400ADE4B5E0F0E0EE0FFF1FAE0FBF1FE0E0D3
:100DB400F0E0ED93FC93E0911F06EF5FE0931F06D4
:100DC400E9CFE0E0E0932A06E0932406E0931B06D3
:100DD400E0931C06AAE8B2E00E949A260E94D62359
:100DE400D4DC0895E0E0EA93A1E00E94C523E0E0AA
:100DF400E0931F06A0911F06A03108F04AC0E0E06E
:100E0400E0932B06AAEFB0E00E949A261D9B43C0F4
:100E1400329903C0E4E0E0932B06339903C0E3E086
:100E2400E0932B06349903C0E2E0E0932B06359956
:100E340003C0E1E0E0932B06E0912B06E030F9F0EB
:100E4400E0911F06F0E0E25DF94FA0912B06A0832C
:100E5400E3E4F6E0FA93EA93E5EAF2E0FA93EA933C
:100E6400E0912B06FF27662777270E94F62884E067
:100E74000E94B4252896A3E4B6E00E940A24E091D7
:100E84002B06E03019F2E0911F06EF5FE0931F0696
:100E9400B1CF1D99FECFE0911F06E0932B06E0939E
:100EA4001F06A0911F06A03168F4E0911F06F0E030
:100EB400E25DF94FA0E0A083E0911F06EF5FE093AD
:100EC4001F06EFCF0895E0E0E0931F06A0911F06F0
:100ED400A031A0F4B0E0A05FBF4F0E941129AE2F53
:100EE400E0911F06F0E0E25DF94FE081EA1731F48A
:100EF400E0911F06EF5FE0931F06E8CFA0911F0665
:100F0400A03111F4E1E001C0E0E00895BA93AA939E
:100F14001A930A93EA81EE0FEE0FEE0FE0640E2FA0
:100F240010E0183068F40A930395ED81FE81319640
:100F3400ED83FE833197A4910E94BD231F5FF1CFFF
:100F44001981088126960895A0915706EAE0EA1BC4
:100F5400E0931F06A63014F0AB300CF00AC0E09109
:100F64001F06D201F0E00E948D28DF01E6E4F0E0E4
:100F74000DC0A0915706E6E0EA1BD201F0E0E7FDC0
:100F8400FFEF0E948D28DF01EEE0F0E00E94A02830
:100F9400E0931D06F0931E06E0911F06A0911D0626
:100FA400B0911E06F0E0AE17BF0738F4E0911F06BB
:100FB400F0E0E0931D06F0931E060895E0914106CB
:100FC4000E9482280E942127A0E0B0E080E29FE3F3
:100FD4000E94AB27A0E0B0E080E09FE30E945B2783
:100FE400ACE2B6E00E94E826EC93E09155060E943C
:100FF40082280E942127A0E0B0E080E29FE30E94C3
:10100400AB27A0E0B0E080E09FE30E945B27DF0114
:10101400CB01E0912C06FF27662777270E94212722
:101024000E945B27ADE2B6E00E94E826EC930895A7
:10103400EF9767978CE3AAE1B0E0E6EEF0E00E9458
:101044004A290E943E2901E030E020E04C825D8282
:10105400FE01369680829182E0914106F0E0E7FD40
:10106400FFEFE887F987E0915506F0E0E7FDFFEF31
:10107400EA87FB87E0915606F0E0E7FDFFEFEC8797
:10108400FD87E0915706F0E0E7FDFFEFEE87FF876D
:10109400E0914206F0E0E7FDFFEFE88BF98BE09189
:1010A4003E06F0E0E7FDFFEFEA8BFB8BE0914006A4
:1010B400F0E0E7FDFFEFEC8BFD8BE0913F06F0E005
:1010C400E7FDFFEFEE8BFF8BE0915406F0E0E7FDC8
:1010D400FFEFE88FF98FA0E1B0E00E941129E13021
:1010E40010F0E53008F003C0E1E0F0E002C0E0E019
:1010F400F0E0EA8FFB8FE0E0EC8FED8FE0913F06AC
:10110400E03031F0E0E0E093B000E093B10009C0DA
:10111400E0913E06E03029F0AEE0EA02F001EE583C
:10112400E7BD0E94D623A4E0B0E00E940D29BF01D0
:101134000F01BD96ED30A8E0FA0780F0F001EF5CF6
:10114400F740ED33A1E0FA0748F4DB01E0914905EB
:10115400F0914A05AE1BBF0B119719F0E2E1E09341
:10116400220622243324E1E0E0931F06A0911F0607
:10117400A131D8F4E0911F06F0E00F01E759F94FCF
:10118400A081B0E0A7FDBFEFF001E85AF94FE0817C
:10119400F0E0E7FDFFEFEA0FFB1F2E0E3F1EE0918C
:1011A4001F06EF5FE0931F06E1CFF101A5E0B0E079
:1011B4000E948D28E736A5E2FA0719F0E3E1E093EF
:1011C4002206A0914B05B0914C05A931E9E7BE0771
:1011D40020F0A0912906A83218F4E4E1E093220655
:1011E400E0911706F0911806A0914905B0914A05BF
:1011F400EA17FB0719F0E5E1E0932206E4E0F0E0EA
:10120400FA93EA93A0E0B0E081DE22243324E1E003
:10121400E0931F06A0911F06A13108F5E0911F0677
:10122400F0E0BF01DE01D896AE0FBF1FEC91F0E0F5
:10123400E7FDFFEF0F01FB01DE01A75BBF4FAE0F20
:10124400BF1FEC91F0E0E7FDFFEFE00DF11D2E0E66
:101254003F1EE0911F06EF5FE0931F06DBCFF10115
:10126400A5E0B0E00E948D28EE34AAE2FA0719F056
:10127400E6E1E0932206329910C0A0912206AC3038
:1012840038F4E0912206EF5FE0932206E1E003C028
:10129400E0E0E0932206E0932306349911C0A09184
:1012A4002206A13038F0E0912206E150E0932206B4
:1012B400E0E004C0ECE0E0932206E1E0E0932306E2
:1012C400329B05C0349B03C0003009F499C0E0E0B0
:1012D400EA93A09123060E94C523A0E00E94EA237A
:1012E400E0E0EA93A0912306E1E0EA1BAE2F0E941E
:1012F400C523A7EBB2E00E941924E0E0E0931F06A7
:10130400A0911F06A23008F07BC0E0912206EA0FEC
:10131400A0912306EA1BE0932B06E1E0EA93A09157
:101324001F060E94C523E0912B06F0E0DE015E96C5
:10133400EE0FFF1FAE0FBF1F0E94EE28DF010E94B9
:101344001924EDE0EA93A0911F060E94C523E091C1
:101354002B06F0E0DE011496EE0FFF1FAE0FBF1F49
:101364002D903C90A0912B06A43041F0A63031F092
:10137400A73021F0A93011F0AB3019F4022C032866
:1013840009F005C0ACECB3E00E94192433C0A0916D
:101394002B06AB3019F4022C032809F405C0A0ED88
:1013A400B3E00E94192426C0A0912B06AC3029F486
:1013B400A4EDB3E00E9419241DC0A0912B06A23015
:1013C40021F4A8EDB3E00E941924E3E4F6E0FA93D3
:1013D400EA93E5EAF2E0FA93EA93F10166277727C4
:1013E4000E94F62884E00E94B4252896A3E4B6E07F
:1013F4000E940A24E0911F06EF5FE0931F0680CF4E
:10140400359B02C03399F9C3EDE0EA93A09123061A
:101414000E94C523359902C0EFEF01C0E1E01E2F01
:10142400E0912206E030B9F5E12FF0E0E7FDFFEFAF
:101434004E0E5F1EE3E2F0E04E165F0618F4E7EE90
:10144400F3E007C0E7EEF3E0E415F50518F4E3E292
:10145400F0E02F01E3E4F6E0FA93EA93E5EAF2E040
:10146400FA93EA93F201662777270E94F62884E02C
:101474000E94B4252896A3E4B6E00E940A24E4E678
:10148400F0E04E165F0620F4A7EBB2E00E941924A8
:101494004C825D82B2C3E13091F5A5E01A02F001FD
:1014A400F0E0E7FDFFEF8E0E9F1EE4E6F0E08E16FF
:1014B4009F0618F4E4EFF1E007C0E4EFF1E0E8156B
:1014C400F90518F4E4E6F0E04F01E3E4F6E0FA93FA
:1014D400EA93E5EAF2E0FA93EA93F40166277727C0
:1014E4000E94F62884E00E94B4252896A3E4B6E07E
:1014F4000E940A24FE013696808291827EC3E230E5
:1015040009F040C0E12FEE0FA0914106EA0FE093ED
:101514004106A0914106A03044F0A33634F4EEE62F
:10152400EA1BA0915506EA173CF4E12FEE0FA091B7
:101534004106AE1BA0934106E3E4F6E0FA93EA9376
:10154400EAEDF3E0FA93EA93E09141060E948228DF
:101554000E94F62884E00E94B4252896A3E4B6E00D
:101564000E940A24A0914106AA3024F4A7EBB2E019
:101574000E941924E0914106F0E0E7FDFFEFE887BF
:10158400F9873BC3E330D1F5E12FEE0FA091550667
:10159400EA0FE0935506A0915506AA3054F0A336FD
:1015A40044F4A0914106EEE6EA1BA0915506EA1721
:1015B4003CF4E12FEE0FA0915506AE1BA093550607
:1015C400E3E4F6E0FA93EA93E5EAF2E0FA93EA93C5
:1015D400E09155060E9482280E94F62884E00E9429
:1015E400B4252896A3E4B6E00E940A24E0915506A7
:1015F400F0E0E7FDFFEFEA87FB87FFC2E43009F084
:1016040040C0E12FA0915606EA0FE0935606A09140
:101614005606A03014F4EAE005C0A0915606AB309B
:101624001CF0E0E0E0935606E0915606E03019F431
:10163400ACECB3E01CC0E3E4F6E0FA93EA93EEED1D
:10164400F3E0FA93EA93E09156060E9482280E94FE
:10165400F62884E00E94B4252896A3E4B6E00E940C
:101664000A24A0915606AA3024F4A7EBB2E00E9403
:101674001924E0915606F0E0E7FDFFEFEC87FD87C3
:10168400BCC2E530B9F5E12FA0915706EA0FE0930B
:101694005706A0915706A13014F0AB302CF0E0911E
:1016A4005706E11BE0935706E3E4F6E0FA93EA9366
:1016B400E5EAF2E0FA93EA93E09157060E94822861
:1016C4000E94F62884E00E94B4252896A3E4B6E09C
:1016D4000E940A24A0915706AA3024F4A7EBB2E092
:1016E4000E941924E0915706F0E0E7FDFFEFEE8732
:1016F400FF8783C2E63009F03EC0E12FA091420685
:10170400EA0FE0934206A0914206A03014F0AF31F4
:101714002CF0E0914206E11BE0934206E091420680
:10172400E03019F4ACECB3E01CC0E3E4F6E0FA9367
:10173400EA93EEEDF3E0FA93EA93E09142060E9415
:1017440082280E94F62884E00E94B4252896A3E407
:10175400B6E00E940A24A0914206AA3024F4A7EB22
:10176400B2E00E941924E0914206F0E0E7FDFFEFA9
:10177400E88BF98B42C2E73009F04BC0E12FA0910E
:101784003E06EA0FE0933E06A0913E06A03014F018
:10179400AB302CF0E0913E06E11BE0933E06A091B5
:1017A4003E06A1303CF0E0913E06AEE0EA02F001D4
:1017B400EE5801C0E0E0E7BDE0913E06E03019F4E8
:1017C400ACECB3E01CC0E3E4F6E0FA93EA93EEED8C
:1017D400F3E0FA93EA93E0913E060E9482280E9485
:1017E400F62884E00E94B4252896A3E4B6E00E947B
:1017F4000A24A0913E06AA3024F4A7EBB2E00E948A
:101804001924E0913E06F0E0E7FDFFEFEA8BFB8B45
:10181400F4C1E83099F5E12FA0914006EA0FE09376
:101824004006A0914006A03014F0A3332CF0E091C0
:101834004006E11BE0934006E0914006EE0FE8BD50
:10184400E3E4F6E0FA93EA93EEEDF3E0FA93EA9335
:10185400E09140060E9482280E94F62884E00E94BB
:10186400B4252896A3E4B6E00E940A24E091400639
:10187400F0E0E7FDFFEFEC8BFD8BBFC1E93009F031
:101884003EC0E12FA0913F06EA0FE0933F06A091EE
:101894003F06A03014F0AB302CF0E0913F06E11B82
:1018A400E0933F06E0913F06E03019F4ACECB3E07E
:1018B4001CC0E3E4F6E0FA93EA93EEEDF3E0FA9366
:1018C400EA93E0913F060E9482280E94F62884E071
:1018D4000E94B4252896A3E4B6E00E940A24A091AD
:1018E4003F06AA3024F4A7EBB2E00E941924E09149
:1018F4003F06F0E0E7FDFFEFEE8BFF8B7EC1EA30A1
:1019040079F5E12FA0915406EA0FE0935406A091D3
:101914005406A13014F0AD302CF0E0915406E11BD4
:10192400E0935406E3E4F6E0FA93EA93EEEDF3E091
:10193400FA93EA93E09154060E9482280E94F628C2
:1019440084E00E94B4252896A3E4B6E00E940A2409
:10195400E0915406F0E0E7FDFFEFE88FF98F4DC109
:10196400EB3009F0B0C0EA8DFB8D3097B1F00E94E6
:10197400D623A2EEB3E00E94192434DAA4DAE030CC
:1019840061F401E00E94D623A2EFB3E00E9419247F
:10199400ACEDB5E00E949A266ECC0E94D623A3E05B
:1019A400B4E00E9419241EDAE0E0E0931F06A0913F
:1019B4001F06A031C0F4E0911F06AFE6B4E0F0E0EA
:1019C400EE0FFF1FAE0FBF1FE0911F06F0E0E25DB8
:1019D400F94FE081F0E0ED93FC93E0911F06EF5F97
:1019E400E0931F06E4CF0E94D623A3E1B4E00E9453
:1019F4001924F8D9E0E0E0931F06A0911F06A03156
:101A0400E0F4E0911F06F0E0E25DF94F0080E09120
:101A14001F06AFE6B4E0F0E0EE0FFF1FAE0FBF1FEE
:101A24000E94EE28A02DB0E0EA17FB0731F4E09104
:101A34001F06EF5FE0931F06E0CFA0911F06A031C1
:101A440009F09FCFE0E0E0931F06A0911F06A031AC
:101A540008F5B0E0A05FBF4F0E941129AE2FE091BE
:101A64001F06F0E0E25DF94FE081EA1769F0A0910A
:101A74001F06B0E0A05FBF4FE0911F06F0E0E25DFB
:101A8400F94FE0810E942529E0911F06EF5FE09362
:101A94001F06DBCF0E94D623A4E2B4E00E941924DF
:101AA400A0E1B0E00E941129E03019F0E1E0F0E09B
:101AB40002C0E0E0F0E0EA8FFB8FACEDB5E00E94FD
:101AC4009A2601E0D8CBEC3009F097C00E94D623C7
:101AD400A8E5B6E00E940A24A9E6B6E00E940A241A
:101AE400AFECB7E00E949A260E94D623DE01A75BE2
:101AF400BF4F0E940A24AAE2B1E00E949A26E0E0C5
:101B0400E0931F06A0911F06A031C0F5E0E0EA9320
:101B1400A1E00E94C523A5E3B4E00E941924A0918A
:101B24001F06EFE0EA1BEA93A1E00E94C523AAE0A6
:101B3400B0E00E949A26E0E0E0932B06E0911F06B5
:101B4400A0912B06EA1780F0E0912B06F0E0DE016D
:101B5400D896AE0FBF1FAC910E94EA23E0912B06EA
:101B6400EF5FE0932B06EACFA4E6B0E00E949A264A
:101B7400E0911F06EF5FE0931F06C4CFE0E0E0931F
:101B84001F06A0911F06A73090F5E1E0E01B0E2F81
:101B9400E9E0EA93A1E00E94C523003039F4A4EC03
:101BA400B2E00E941924A8ECB0E019C0E9E0E09387
:101BB4002B06A0912B06AD3080F4E0912B06F0E0CB
:101BC400DE01D896AE0FBF1FAC910E94EA23E091CC
:101BD4002B06EF5FE0932B06ECCFA4EFB1E00E945D
:101BE4009A26E0911F06EF5FE0931F06CACFA6EE88
:101BF400B3E00E949A2601E03ECB359B02C03399A4
:101C040002C0E1E001C0E0E03E2F003019F0ACE298
:101C1400B1E01EC0329B02C0349902C0A1EE17C0CD
:101C2400A0912206A03021F4303011F0203009F4C4
:101C340002C0AAE00CC0A0912206A13021F43030E9
:101C440011F0203009F402C0A4E601C0A5EAB0E016
:101C54000E949A26303029F0359B02C0339901C086
:101C640001C002C0E1E001C0E0E02E2F00E01D99B8
:101C740067C1F401662777270E942127DF01CB0182
:101C84000E94F025A1E8B4E085EB9FE30E94AB2716
:101C94007F936F93FF93EF93F201662777270E9458
:101CA4002127DF01CB010E94F025AF91BF918F91D5
:101CB4009F910E945B27DF01CB01E0E0F0E068E642
:101CC40071E40E943E2809F008F40CC00E94D62357
:101CD400A6E4B4E00E941924ACEDB5E00E949A2673
:101CE40001E0C9CAA6E0B0E00E941129AE2FE0913C
:101CF4003E06EA1721F0A6E0B0E00E942529A8E0FC
:101D0400B0E00E941129AE2FE0914006EA1721F0BD
:101D1400A8E0B0E00E942529A7E0B0E00E941129C4
:101D2400AE2FE0913F06EA1761F0A7E0B0E00E9411
:101D34002529E03031F0E150A5E0EA02F001E0931A
:101D44002506AAE0B0E00E941129AE2FE0915406C6
:101D5400EA1721F0AAE0B0E00E942529A0E0B0E053
:101D64000E940D294E165F0649F4ADE0B0E00E94D2
:101D74001129AE2FE0915706EA1709F0E5D8ADE036
:101D8400B0E00E941129AE2FE0915706EA1721F026
:101D9400ADE0B0E00E942529AEE0B0E00E94112938
:101DA400AE2FE0914206EA1721F0AEE0B0E00E94C7
:101DB4002529ACE0B0E00E941129AE2FE09156062F
:101DC400EA1721F1ACE0B0E00E942529E6E0E093B7
:101DD4001F06A0911F06A53698F4E0911F06ADE4F6
:101DE400B5E0F0E0EE0FFF1FAE0FBF1FE0E0F0E044
:101DF400ED93FC93E0911F06EF5FE0931F06E9CF9C
:101E0400E5E0E0932A06E0E0E0932406A0E0B0E0F9
:101E14000E940D294E165F06D1F4A2E0B0E00E94A4
:101E24000D298E169F0699F4A9E0B0E00E941129AD
:101E3400AE2FE0914106EA1751F4ABE0B0E00E9406
:101E44001129AE2FE0915506EA1709F463C0A9E001
:101E5400B0E00E941129AE2FE0914106EA1749F43F
:101E6400ABE0B0E00E941129AE2FE0915506EA17CD
:101E7400D9F0A9E0B0E00E941129AE2FE09141060B
:101E8400EA1721F0A9E0B0E00E942529ABE0B0E018
:101E94000E941129AE2FE0915506EA1721F0ABE01C
:101EA400B0E00E9425298AD8A0E0B0E00E940D2964
:101EB4004E165F06C1F0F201A0E0B0E00E941D29B9
:101EC400662777270E942127A0E0B4E284E799E4FB
:101ED4000E94F927A0E0B0E080E09FE30E945B2726
:101EE4000E94E8263F01A2E0B0E00E940D298E1670
:101EF4009F0629F0F401A2E0B0E00E941D29E4E469
:101F0400F0E0FA93EA93A0E0B0E00E9488070E9410
:101F14002C0415C0E0E0E0931B06E0931C06A8EC3B
:101F2400B0E00E949A260E94D623E4E4F0E0FA93FB
:101F3400EA93A0E0B0E00E9488070E94C70301C0B2
:101F44009AC90E944529EF966B960895E3E0E093C1
:101F54001F06E0913F06E03021F1E0912506E09371
:101F6400B300E0911F06E150E0931F06EF5FC1F05C
:101F7400E3E8E093B000E6E0E093B100ABE4B0E066
:101F84000E949A26E0E0E093B000E093B100E09173
:101F94001F06E03021F0ABE4B0E00E949A26E1CFC6
:101FA40023C0E0913E06E030F9F0E0911F06E150D5
:101FB400E0931F06EF5F89F0EFE7E7BDABE4B0E025
:101FC4000E949A26E9EAE7BDE0911F06E03021F07D
:101FD400ABE4B0E00E949A26E8CFE0913E06AEE082
:101FE400EA02F001EE58E7BDE0E0E0931906E09361
:101FF4001A060895A0912706A33088F0E0912706D9
:10200400E250F0E0E45BFF4FA491E0912706F0E09A
:10201400E45BFF4FE4910E940929EA1B0895A09113
:102024002706A13011F4E0E501C0E1E40895089524
:10203400EF97E797D15086E791E0A0E0B0E0E2E2C5
:10204400F1E00E944B2930E020E050E040E0A4E0C1
:10205400B0E00E940D296F01229A2A9AA4E0B0E010
:102064000E940D29309721F0EF3FAFEFFA0779F482
:10207400A0E0B0E00E940D29B39740F0A0E0B0E0EA
:102084000E940D29E83EA3E0FA0708F001C006C04B
:10209400A4E0B0E0EFEDF7E00E941D29A4E0B0E079
:1020A4000E940D29E0934905F0934A05A0E0B0E0B1
:1020B4000E940D29DF01B39728F0FD01E83EA3E05B
:1020C400FA0708F0B3C0A0E0B0E00E940D292F0188
:1020D400A2E0B0E00E940D29E436A0E0FA0720F067
:1020E400E53FA1E0FA0708F005C0A2E0B0E00E94D5
:1020F4000D294F01A6E0B0E00E941129E03014F050
:10210400EB300CF006C0A6E0B0E00E941129E09389
:102114003E06A7E0B0E00E941129E03014F0EB3055
:102124000CF006C0A7E0B0E00E941129E0933F063E
:10213400AFE0B0E00E941129E13010F0E53108F081
:1021440006C0AFE0B0E00E941129E0932706A9E0A1
:10215400B0E00E9411291E2EE0305CF0E3364CF40E
:10216400ABE0B0E00E9411290E2EE0E7E1190E1653
:102174000CF006C0A9E0B0E00E941129E0934106EA
:10218400AAE0B0E00E941129E13014F0ED300CF027
:1021940006C0AAE0B0E00E941129E0935406ABE027
:1021A400B0E00E941129EA306CF0E3365CF40E2EA4
:1021B400A9E0B0E00E941129A0E70E940929EA1BC6
:1021C4000E160CF006C0ABE0B0E00E941129E093BB
:1021D4005506ACE0B0E00E941129E03014F0EB3079
:1021E4000CF006C0ACE0B0E00E941129E093560662
:1021F400ADE0B0E00E941129E13014F0EB300CF0B6
:1022040006C0ADE0B0E00E941129E0935706AEE0AD
:10221400B0E00E941129E03014F0EF310CF006C058
:10222400AEE0B0E00E941129E0934206A0E0B0E0E5
:102234000E940D29DF01B39770F0FD01E83EA3E091
:10224400FA0748F4A0914905B0914A05A03EE7E099
:10225400BE0708F043C0F201A0E0B0E00E941D29CF
:10226400F401A2E0B0E00E941D29E0913E06A6E040
:10227400B0E00E942529E0913F06A7E0B0E00E946B
:102284002529E0912706AFE0B0E00E942529E091DE
:102294004106A9E0B0E00E942529E0915406AAE095
:1022A400B0E00E942529E0915506ABE0B0E00E9421
:1022B4002529E0915606ACE0B0E00E942529E09182
:1022C4005706ADE0B0E00E942529E0914206AEE059
:1022D400B0E00E942529E1E0E0932B062090490517
:1022E40030904A05E0912706F0E0E45BFF4F14913B
:1022F40081DE0E2FE0E0E0937E00E0E4E0937C00DA
:10230400E0E0E0937B0020921706309218065E9876
:10231400569A5D98559A2B98239A2D9A2598459A02
:102324003D98439A3B98429A3A98449A3C98A0E143
:102334000E942C240E94D623E4E4F0E0FA93EA936A
:10234400A0E0B0E00E948807ECE0F0E0FA93EA93A2
:10235400A1E0B0E00E948807E4E1F0E0FA93EA9398
:10236400A2E0B0E00E948807ECE1F0E0FA93EA937F
:10237400A3E0B0E00E948807E4E2F0E0FA93EA9375
:10238400A4E0B0E00E948807ECE2F0E0FA93EA935C
:10239400A5E0B0E00E948807E4E3F0E0FA93EA9352
:1023A400A6E0B0E00E948807ECE3F0E0FA93EA9339
:1023B400A7E0B0E00E948807E3EAE4BDE2E0E5BDFF
:1023C400A0913E06A1303CF0E0913E06AEE0EA0268
:1023D400F001EE5801C0E0E0E7BDE0E0E8A3E9A3C6
:1023E400EAA3EBA322243324EEEFFFE7E215F3057F
:1023F40098F0F101E491A8A1B9A18AA19BA1FF27BA
:10240400662777270E946228E8A3F9A36AA37BA31F
:10241400F10131961F01E8CFA8A1B9A18AA19BA11E
:10242400AD3DE9E4BE07E6E58E07E0E09E0740F037
:10243400A63EE9E4BE07E6E58E07E0E09E0718F055
:10244400A4E00E942C24E0E0E093B600E0913F0673
:10245400E030B9F0E150A5E0EA02F001E09325068E
:10246400E093B300E3E8E093B000E4E0E093B1006C
:10247400A2E3B0E00E949A26E0E0E093B000E0938B
:10248400B100A4E0B0E00E940D2931960E941D29FC
:10249400A8E0B0E00E941129E0303CF0E3332CF4D2
:1024A400E0912B06E03009F44BC00E94D623A5E549
:1024B400B4E00E941924E0E0E0931F06A0911F06F7
:1024C400A536B8F5E0911F06E8BDE695E093400611
:1024D400E3E4F6E0FA93EA93EEEDF3E0FA93EA9399
:1024E400E09140060E9482280E94F62884E00E941F
:1024F400B4252896E7E0EA93A1E00E94C523A3E46B
:10250400B6E00E940A24AAEFB0E00E949A26A091A5
:102514001F06A43619F4E0E0E0931F061D9903C0DA
:10252400E5E6E0931F06E0911F06EE5FE0931F06C9
:10253400C5CFE0914006A8E0B0E00E94252906C07E
:10254400A8E0B0E00E941129E0934006E091400623
:10255400EE0FE8BDA0914B05B0914C05A237E5E71D
:10256400BE0720F0A0912906AE3210F40C94872304
:102574000E94D62322243324E1E0E0931F06A09195
:102584001F06A131D8F4E0911F06F0E00F01E85ACC
:10259400F94FA081B0E0A7FDBFEFF001E759F94F73
:1025A400E081F0E0E7FDFFEFEA0FFB1F2E0E3F1E78
:1025B400E0911F06EF5FE0931F06E1CFF101EE0FFC
:1025C400FF1FE63FAEE0FA0709F0FFCFA4E0B0E05A
:1025D4000E940D29BF010F01F196E131A8E0FA072D
:1025E40080F0F001EB5BF740E135A1E0FA0748F435
:1025F400DB011197E0911706F0911806EA17FB0723
:1026040099F0AFEEB1E00E944C03A3E6B4E00E945F
:102614001924A3EEB1E00E944C03A4E0B0E0E2E28E
:10262400F8EC0E941D29FFCFA0914B05B0914C05F9
:10263400A033E5E7BE0720F0A0912906AD3208F4E7
:10264400FFCFA0914905B0914A05A03DE7E0BE0740
:1026540020F0A131E9E0BE0710F00C948723A0E13B
:10266400B0E00E941129E13010F0E53008F011C00B
:102674000E94D623E7E0EA93A0E00E94C523A0E7E6
:10268400B4E00E9419240E94F4060E946507E03019
:1026940079F30E94D623A8E5B6E00E940A24A5E2B5
:1026A400B0E00E949A26F201662777270E9421272C
:1026B400A0E0B4E284E799E40E94F927A0E0B0E046
:1026C40080E09FE30E945B270E94E8263F01A9E681
:1026D400B6E00E940A24A4EEB3E00E949A260E9467
:1026E400E007E0E0E0931F06E0912906A0911F06B1
:1026F400AE1760F4A0914B05B0914C050E944C03B9
:10270400E0911F06EF5FE0931F06EECF0E94D623F1
:1027140022243324E1E0E0931F06A0911F06A13197
:1027240098F4E0911F06F0E0DE011296AE0FBF1F91
:10273400EC91F0E0E7FDFFEF2E0E3F1EE0911F0647
:10274400EF5FE0931F06E9CFF101A6E0B0E00E943D
:102754008D28E638AFE1FA0719F0E3E2E0932206A8
:10276400DE0112960E940A24E0911706F0911806E1
:10277400E55DF7401F01E6E3F1E0E219F3091F010B
:10278400EE0FFF1F329738F0F1010E947828E13BE9
:10279400A4E0FA0708F0FFCFE3E4F6E0FA93EA9343
:1027A400E5EAF2E0FA93EA93F101662777270E94BB
:1027B400F62884E00E94B4252896E7E0EA93A1E095
:1027C4000E94C523A3E4B6E00E940A24AFEDB3E05F
:1027D4000E949A260E94A607E0E0E0931F06E0917B
:1027E4002906A0911F06AE1760F4A0914B05B09185
:1027F4004C050E944C03E0911F06EF5FE0931F0617
:10280400EECFF894E1E0F0E02E163F06B0F0EEE2F1
:10281400F1E0E215F30588F0E0911706F09118064F
:10282400EC15FD0549F0EFEFFFEFEC15FD0521F088
:1028340000240C140D0409F403C0ECE3E093220615
:102844000E942C04E0912806E03011F00C94192227
:10285400E0E0E0931F06A0911F06AE3008F043C1EC
:10286400E0E0E0937A00E0911F06A0912006EA0FD1
:10287400E0932106EFEFF1E0E819F909E09343054D
:10288400F09344055E9B02C05E9801C05E9AE5E841
:10289400E0937A00E0917A00E064E0937A00E091BA
:1028A4007A00E074E1F7A0914305B09144050E94D9
:1028B4004C032A98D4010E944C032A9A000085E014
:1028C40090E00197F1F7E0912106E150E0932106B1
:1028D400E03039F00000000085E090E00197F1F766
:1028E400F2CFE0E0E4BDE5BDE0917A00E064E0937E
:1028F4007A00E0917A00E074E1F7C0907800D0901B
:102904007900E0917A00E064E0937A00E0917A0043
:10291400E074E1F7E0917800F0917900E0933705F5
:10292400F0933805E0917A00E064E0937A00E09156
:102934007A00E074E1F7E0917800F0917900E09397
:102944003905F0933A05E0917A00E064E0937A0067
:10295400E0917A00E074E1F7E0917800F091790079
:10296400E0933B05F0933C05E0917A00E064E0934A
:102974007A00E0917A00E074E1F7E0917800F09158
:102984007900E0933D05F0933E05E3EAE4BDE2E01F
:10299400E5BDE0911F06AFE6B4E0F0E0EE0FFF1FE7
:1029A400EA0FFB1FC082D182E0911F06E25FAFE60F
:1029B400B4E0F0E0EE0FFF1FEA0FFB1FA091370514
:1029C400B0913805A083B183E0911F06E45EAFE6C1
:1029D400B4E0F0E0EE0FFF1FEA0FFB1FA0913905F2
:1029E400B0913A05A083B183E0911F06E65DAFE69E
:1029F400B4E0F0E0EE0FFF1FEA0FFB1FA0913B05D0
:102A0400B0913C05A083B183E0911F06E85CAFE67A
:102A1400B4E0F0E0EE0FFF1FEA0FFB1FA0913D05AD
:102A2400B0913E05A083B183A0911F06AD3008F09C
:102A340054C0A0912006E3E7EA1BA0911F06EA1BFD
:102A4400E0932106000085E090E00197F1F7E09122
:102A54002106E150E0932106E03039F00000000047
:102A640085E090E00197F1F7F2CFE0913F05F09116
:102A74004005309761F0A0915406A93011F0AA30B6
:102A840031F4E0913F06E03011F0303009F015C028
:102A9400E0911F06EF5FA881B981F0E00E949B28B6
:102AA400DF01EEE0F0E00E94B328DE01A259BE4F40
:102AB400AC91EA0FE093B30007C08BE68A95F1F777
:102AC40082E090E00197F1F7D301A856B3400E9449
:102AD4004C0381E090E00197F1F7E0911F06EF5F6E
:102AE400E0931F06B8CEE1E4E0937C002224332473
:102AF400E0912C06E0931F06E0912D06A0911F069D
:102B0400AE1798F4E0911F06AFE6B4E0F0E0EE0FE4
:102B1400FF1FAE0FBF1F0E94EE282E0E3F1EE09136
:102B24001F06EF5FE0931F06E7CF2AA63BA60A2CF9
:102B34000B2879F0AAA5BBA588279927ECA5FDA5A4
:102B4400662777270E946728FD01BC010E947D2823
:102B54001F01EAA5FBA5ECA7FDA7E0E0E0933F0574
:102B6400E09340050A2C0B2809F0A6C0E0914F051C
:102B7400F09150053097B9F5E0E0E0931F06A0917D
:102B84001F06AE3178F5E0911F06F0E0DE01AE5489
:102B9400BF4FEE0FFF1FAE0FBF1FE0E0F0E0ED935D
:102BA400FC93E0911F06F0E0DE01AA58BF4FEE0F40
:102BB400FF1FAE0FBF1FE0E0F0E0ED93FC93E09148
:102BC4001F06F0E0DE01DA96EE0FFF1FAE0FBF1F07
:102BD400E0E0F0E0ED93FC93E0911F06EF5FE093FB
:102BE4001F06CDCF50E0E1E0E0931F06A0911F0641
:102BF400A63008F5E0911F06ADE4B5E0F0E0EE0F75
:102C0400FF1FAE0FBF1F0E94EE28309771F4E091B2
:102C14001F06ADE4B5E0F0E0EE0FFF1FEA0FFB1F67
:102C240020823182E6E0E0931F06E0911F06EF5F09
:102C3400E0931F06DBCFE0915705F09158053097DC
:102C440071F1A0914F05B091500588279927E09123
:102C54005105F0915205662777270E946728E09175
:102C64005305F0915405662777270E946728E09161
:102C74005505F0915605662777270E946728E0914D
:102C84005705F0915805662777270E946728E5E0E5
:102C9400F0E060E070E00E94B82831975F01E4E062
:102CA400E0932A06E0E0EA93A1E00E94C523A2E7AC
:102CB400B4E00E9419247DC7E12FF0E0E20DF31D7A
:102CC400AE16BF0610F0E1E001C0E0E0E0932B0691
:102CD400E0911D06F0911E06A0911B06B0911C0602
:102CE400EA17FB0770F0129758F0D101AA56BF4FAC
:102CF400E3E0E19FF001AE0FBF1FAA15BB0508F08A
:102D04000EC0E0912B06F0E0E0933F05F093400500
:102D1400F501E219F309E0933D05F0933E05E091D6
:102D24002B06E03031F0E0911B06F0911C06319641
:102D340002C0E0E0F0E0E0931B06F0931C06A091D3
:102D44001B06B0911C06A139E1E0BE0730F0E0E9B2
:102D5400F1E0E0931B06F0931C06E0911B06F09152
:102D64001C06309779F0D1015496AA15BB0550F48E
:102D7400DE01A459BE4F0D90BC91A02DA139E0E015
:102D8400BE0708F46DC3CC24DD24E0E0E0933705EE
:102D9400E0933805E0933905E0933A05E093410563
:102DA400E0934205E0934305E0934405E093450531
:102DB400E0934605E0931F06A0911F06AC3008F08F
:102DC40041C0E0911F06AFE6B4E0F0E0EE0FFF1F54
:102DD400AE0FBF1F0E94EE28A0914105B09142059D
:102DE400EA0FFB1FE0934105F0934205A0911F06F3
:102DF400B0E0AA0FBB1FAD56BB4F0E94EE28A091B6
:102E04004305B0914405EA0FFB1FE0934305F0939B
:102E14004405A0911F06B0E0AA0FBB1FA954BB4FE5
:102E24000E94EE28A0914505B0914605EA0FFB1FCC
:102E3400E0934505F0934605E0911F06EF5FE093AC
:102E44001F06BACFE0914105F0914205AAA9BBA99A
:102E5400EA17FB0790F4E0914305F0914405A8A913
:102E6400B9A9EA17FB0748F4E0914505F091460536
:102E7400AEA5BFA5EA17FB0708F021C0A091410544
:102E8400B0914205EAA9FBA9EA1BFB0B6F01A091D3
:102E94004305B0914405E8A9F9A9EA1BFB0BE093AB
:102EA4003705F0933805A0914505B0914605EEA588
:102EB400FFA5EA1BFB0BE0933905F0933A050C2CB4
:102EC4000D2829F0ECEDF5E0CE16DF0608F0CBC0B6
:102ED400E22FF0E0DE01A25CBE4FEE0FFF1FEA0F0F
:102EE400FB1FC082D182E22FF0E0DE01AA5EBE4F5A
:102EF400EE0FFF1FEA0FFB1FA0913705B0913805B5
:102F0400A083B183E22FF0E0DE01A251BF4FEE0FA8
:102F1400FF1FEA0FFB1FA0913905B0913A05A0836A
:102F2400B183233118F4E22FEF5F01C0E0E02E2FCC
:102F3400E0E0E8A3E9A3EAA3EBA3EC8FED8FEE8F27
:102F4400EF8FE88FE98FEA8FEB8FE0931F06A09154
:102F54001F06A43108F053C0E0911F06F0E0DE0123
:102F6400A25CBE4FEE0FFF1FAE0FBF1FCD90DC90D3
:102F74000C2C0D2809F443C0F601A8A1B9A18AA11B
:102F84009BA1662777270E946228E8A3F9A36AA376
:102F94007BA3E0911F06F0E0DE01AA5EBE4FEE0FB8
:102FA400FF1FAE0FBF1F0E94EE28AC8DBD8D8E8D0E
:102FB4009F8D662777270E946228EC8FFD8F6E8F86
:102FC4007F8FE0911F06F0E0DE01A251BF4FEE0FAC
:102FD400FF1FAE0FBF1F0E94EE28A88DB98D8A8DEA
:102FE4009B8D662777270E946228E88FF98F6A8F66
:102FF4007B8FE0911F06EF5FE0931F06A8CFE0915F
:103004001F06DE01AC58BE4FEC93A8A1B9A18AA15A
:103014009BA1FF27662777270E94B828DE01A659BF
:10302400BE4FED93FC93E0911F06AC8DBD8D8E8D4C
:103034009F8DFF27662777270E94B828DE01A859AD
:10304400BE4FED93FC93E0911F06A88DB98D8A8D38
:103054009B8DFF27662777270E94B828DE01AA598F
:10306400BE4FED93FC93E0913F05F09140053097FE
:10307400C1F0DE01A659BE4F0D90BC91A02D1A9748
:1030840080F0DE01A859BE4F0D90BC91A02D1A9777
:1030940040F0DE01AA59BE4F0D90BC91A02D1A97A5
:1030A40008F4D2C1E0E0DE01AF58BE4FEC93DE017C
:1030B400A659BE4F0D90BC91A02DAC3DE5E0BE07D6
:1030C40008F0C1C1FE01EA59FE4F0190F081E02DE4
:1030D400662777270E942127DF01CB01FE01E859EB
:1030E400FE4F0190F081E02D662777270E9421276B
:1030F4000E94F927ECA3FDA36EA37FA3ACA1BDA1FD
:103104008EA19FA1E0E0F0E068EC72E40E94AB279E
:10311400A3E4B5E00E94E826ED93FC93A091430557
:10312400B0914405A436E0E0BE0710F0E3E602C027
:10313400E0914305DE01A159BE4FEC93DE01AC588A
:10314400BE4FAC91A33020F0E0912606E03009F0A8
:1031540041C0E1E0DE01AB58BE4FEC93FE01EE58F6
:10316400FE4FE081E03071F4E1E0DE01AE58BE4F85
:10317400EC93E0E0EA93A0E00E94C523A4E0B4E06D
:103184000E940A24E3E4F6E0FA93EA93EEEDF3E016
:10319400FA93EA93FE01ED58FE4FE081FF2766277C
:1031A40077270E94F62884E00E94B4252896E3E05D
:1031B400EA93A0E00E94C523A3E4B6E00E940A2497
:1031C400DE01A159BE4FAC91AA3020F4A5E1B4E0D0
:1031D4000E940A24FE01E859FE4F0190F081E02D7F
:1031E400662777270E942127DF01CB01EAA9FBA9E3
:1031F400662777270E9421270E94AB277F936F932E
:10320400FF93EF93FE01E659FE4F0190F081E02D0C
:10321400662777270E942127DF01CB01E8A9F9A9B6
:10322400662777270E9421270E94AB27AF91BF9181
:103234008F919F910E94F927DF01CB010E94F02515
:10324400A6E6B6E686E29FE30E945B277F936F9330
:10325400FF93EF93ACA1BDA18EA19FA10E94F02585
:10326400AFE2BDED84E49FE30E94AB27AF91BF9131
:103274008F919F910E9400290E9454277F936F93FE
:10328400FF93EF93E09142060E9482280E94212737
:10329400AFE8B2EC85EF9CE30E94AB27AF91BF91FE
:1032A4008F919F910E9400290E945427ECA3FDA3B3
:1032B4006EA37FA3AFA1AA23BAF431E0EDE2EB8BB6
:1032C400E0914206E03039F0ECA1FDA16EA17FA1AE
:1032D4000E94B52604C0E0E0F0E060E070E0ECA3FA
:1032E400FDA36EA37FA303C030E0EBE2EB8BE09180
:1032F4004206E03051F0DE01A159BE4FAC91A93134
:1033040020F0AA3410F4303009F402C0E1E001C026
:10331400E0E03E2F303071F0DE01A059BE4FAC9199
:10332400A43030F4FE01E059FE4FE081EF5F01C0AC
:10333400E4E00DC0DE01A059BE4FAC91A23030F0E4
:10334400FE01E059FE4FE081E25001C0E0E0DE0101
:10335400A059BE4FEC93DE01AC58BE4FAC91A330E4
:1033640030F0DE01A059BE4FAC91A33008F402C086
:10337400E1E001C0E0E03E2FDE01AC58BE4FAC916D
:10338400A33020F0E0912606E03009F05CC0ACA147
:10339400BDA18EA19FA1E0E0F0E068EC72E40E9480
:1033A400AB27A3E4B5E00E94E826ED93FC93A0913B
:1033B4004305B0914405A436E0E0BE0710F0E3E60F
:1033C40002C0E0914305E0932B06E0914206E03011
:1033D40051F0303019F0A7E1B4E002C0AFE1B4E03D
:1033E4000E940A240CC0A0912B06E3E6EA1BE0939A
:1033F4002B06E0E2EB8BA7E2B4E00E940A24E3E4AC
:10340400F6E0FA93EA93E7EAF4E0FA93EA93EF89B1
:103414000E9482280E94F628E0912B06FF27662747
:1034240077270E94F62888E00E94B4252C96A3E40E
:10343400B6E00E940A24A0912B06AA3020F4AFE241
:10344400B4E00E940A240BC0E0E0DE01A059BE4FA4
:10345400EC9330E0DE01AB58BE4FEC935AC080C011
:10346400E0E0E0931F06A0911F06A43180F5E091EF
:103474001F06F0E0DE01A25CBE4FEE0FFF1FAE0F91
:10348400BF1FE0E0F0E0ED93FC93E0911F06F0E055
:10349400DE01AA5EBE4FEE0FFF1FAE0FBF1FE0E0BE
:1034A400F0E0ED93FC93E0911F06F0E0DE01A25101
:1034B400BF4FEE0FFF1FAE0FBF1FE0E0F0E0ED9334
:1034C400FC93E0911F06EF5FE0931F06CCCFE0E092
:1034D400DE01A059BE4FEC9330E020E0DE01AC5891
:1034E400BE4FEC93DE01A659BE4FED93EC93DE0183
:1034F400A859BE4FED93EC93DE01AA59BE4FED934C
:10350400EC93DE01AB58BE4FEC93DE01A159BE4FE4
:10351400EC93FE01EE58FE4FE081E03021F0E091A3
:103524002606E03009F01CC0DE01AF58BE4FEC9116
:10353400EF5FEC936E2FD201E7E0F0E00E94A02849
:10354400A62FB0E0EA17FB0758F4E0E0DE01AF581D
:10355400BE4FEC93DE01AE58BE4FEC930E94C703FE
:10356400E0913F05F0914005309781F0303071F4DF
:10357400E0913F06E03051F0DE01A459BE4F0D90BA
:10358400BC91A02DA139E0E0BE0708F40EC1A091C2
:103594005406A9300CF48FC0E2E4E093B000E5E0F7
:1035A400E093B100AA3011F0A930D9F4A0913D05FF
:1035B400B0913E05E3E0F0E00E94A028662777275B
:1035C4000E942127DF01CB010E94F025A0E0B0E09A
:1035D40088EA91E40E94AB27ABE2B6E00E94E826B9
:1035E400EC93E0915406EA3059F4A0912B06AF3BDA
:1035F40018F4EFEFEA1B01C0E0E4E0932B062CC0C3
:10360400E93061F4A0912B06AF3B20F4E0912B0646
:10361400E05C01C0EFEFE0932B061EC0EB3059F4E1
:10362400FE01E159FE4FE081E03019F0EE0FE75C56
:1036340001C0E9E30FC0EC3079F4FE01E159FE4F1B
:10364400E081E03031F0EE0FAFEF0E940929EA1B70
:1036540001C0EFEFE093B300A0915406AA3011F03B
:10366400A93041F5FE01E259FE4FE081E030A9F0B6
:10367400A0912B06BB27E091B300F0E0AE1BBF0B7B
:10368400A883B983EEE0F0E00E94B328AE2FE09166
:10369400B300EA0FE0932B0603C0E0E0E883E9837C
:1036A400E0912B06E093B300E0912B06DE01A259D2
:1036B400BE4FEC9379C0E12FA0913D05B0913E053A
:1036C400F0E0AE1BBF0B6D01E6E9F0E0CE16DF06BD
:1036D40028F4EAE0F0E00E94A02801C0EFE0A09105
:1036E4002506EA0FE0932B06A0912B06AD3208F4D1
:1036F40001C0EDE2E093B300E3E8E093B000E091B1
:103704005406E830C1F4A0913D05B0913E05AD3DAD
:10371400E5E0BE0710F0E6E00BC0A0913D05B091D6
:103724003E05A739E0E0BE0710F0E5E001C0E4E0A3
:10373400E093B10039C0E130A1F1E23011F4E5E0E9
:1037440031C0E33011F4E6E02DC0E43041F4A0913F
:10375400B100A43011F4E5E001C0E4E023C0E53099
:1037640041F4A091B100A53011F4E6E001C0E5E018
:1037740019C0E63041F4A091B100A43011F4E6E0A0
:1037840001C0E4E00FC0E73079F4A091B100A430A7
:1037940011F4E5E007C0A091B100A53011F4E6E012
:1037A40001C0E4E0E093B10009C0E0E0E093B000C0
:1037B400E093B100DE01A259BE4FEC93E0E0EA933E
:1037C400A1E00E94C523DE01A459BE4F0D90BC9117
:1037D400A02DA139E0E0BE0708F4EBC1E0913F055C
:1037E400F0914005309709F414C1E0913F06E030B0
:1037F40021F4E0913E06E03009F427C03030F1F4C2
:10380400DE01AD58BE4FEC91EF5FEC936E2FD20109
:10381400E6E9F0E00E94A028A62FB0E0AE17BF07AB
:1038240060F0E7B5EF3711F0EFE701C0E9EAE7BD73
:10383400E0E0DE01AD58BE4FEC9307C0E0913E06D8
:10384400AEE0EA02F001EE58E7BDE12FA0913D059C
:10385400B0913E05F0E0AE1BBF0BFD01F695E79578
:103864003396662777270E942127DF01CB010E9428
:10387400F025ABE2B6E00E94E826EC93E1E0E093A9
:103884001F06E0912B06A0911F06EA1710F0A8303E
:1038940008F00AC0A0911F060E94EA23E0911F06C7
:1038A400EF5FE0931F06EDCFA0912B06A83020F028
:1038B400A1E3B4E00E940A24A0911F06E9E0EA1BF8
:1038C400E0931F06E0911F06E150E0931F06EF5FAF
:1038D40029F0A3E3B4E00E940A24F4CFA0913D05AB
:1038E400B0913E05E3E0F0E00E94A028E0933D059E
:1038F400F0933E05A0913D05B0913E05A83EE3E05E
:10390400BE0730F0E7EEF3E0E0933D05F0933E05AB
:10391400E42FF0E0DE01D496EE0FFF1FEA0FFB1F49
:10392400A0913D05B0913E05A083B183E0E0E09312
:103934003D05E0933E05E0931F06A0911F06A330CA
:1039440008F5E0911F06F0E0DE01D496EE0FFF1FAC
:10395400AE0FBF1FCD90DC900C2C0D2861F0F6014A
:10396400A0913D05B0913E05EA0FFB1FE0933D0594
:10397400F0933E0501C006C0E0911F06EF5FE0939F
:103984001F06DBCFE0911F06A0913D05B0913E05D7
:10399400F0E00E94A028E0933D05F0933E05E3E4A7
:1039A400F6E0FA93EA93E5EAF2E0FA93EA93E09117
:1039B4003D05F0913E05662777270E94F62884E0AE
:1039C4000E94B4252896E8E0EA93A1E00E94C5236A
:1039D400A3E4B6E00E940A24A0913D05B0913E05FF
:1039E4001A9718F4A5E3B4E00AC0A0913D05B0917C
:1039F4003E05A436E0E0BE0720F4A8E3B4E00E944C
:103A04000A24423018F4E42FEF5F01C0E0E04E2FA7
:103A1400D0C0E0913F06E03021F4E0913E06E03072
:103A240009F407C0E0913E06AEE0EA02F001EE5868
:103A3400E7BDE0E0ECABEDABEEABEFABE8AFE9AF8D
:103A440040E0DE01AD58BE4FEC93E02FF0E0EA0D0C
:103A5400FB1DE215F305B8F0AAE3B4E00E940A24C2
:103A6400DE01A459BE4F0D90BC91A02DA139E0E018
:103A7400BE0728F0E0E0E0931906E0931A06E0E0C0
:103A8400E8A7E9A78EC0E12FF0E0EA0DFB1DE215DF
:103A9400F30508F07BC0A9E1B6E0ED91FD91319604
:103AA400FE93EE93A8A5B9A5A039E1E0BE0720F4E2
:103AB400E8A5F9A5319602C0E0E9F1E0E8A7F9A785
:103AC400E0911D06F0911E063296A8A5B9A5EA1745
:103AD400FB0708F052C0D101AA19BB09E3E0F0E0EA
:103AE4000E94A028E0934705F0934805A09147055C
:103AF400B0914805A83EE3E0BE0730F0E7EEF3E0FE
:103B0400E0934705F0934805E3E4F6E0FA93EA937B
:103B1400EAEBF4E0FA93EA93E0914705F091480563
:103B2400662777270E94F62884E00E94B425289609
:103B3400A3E4B6E00E940A24A0914705B091480589
:103B44001A9718F4A6E4B4E00AC0A0914705B0910E
:103B54004805A436E0E0BE0720F4A9E4B4E00E94DE
:103B64000A24E0915606E03039F4A9E1B6E0ED917B
:103B7400FD913196FE93EE9308C0ABE4B4E00E944D
:103B84000A2484EF91E00197F1F70FC0A7E5B4E0B0
:103B94000E940A24A9E1B6E0ED91FD913196FE93CD
:103BA400EE9384EF91E00197F1F788EE93E00197AB
:103BB400F1F7349921C0E0E0E093B000E093B10064
:103BC400A0912606A23020F4E0912606EF5F01C002
:103BD400E0E0E09326060E94C703E0E0E8A7E9A737
:103BE400DE01AF58BE4FEC93DE01AE58BE4FEC93EE
:103BF400A4EBB0E00E949A26E0912606E03009F496
:103C0400EEC0A0912606A130B1F5E3E4F6E0FA9304
:103C1400EA93E5EAF2E0FA93EA93F101662777275B
:103C24000E94F62884E00E94B4252896E2E0EA93F4
:103C3400A0E00E94C523A3E4B6E00E940A24E0E1C8
:103C4400F7E22E163F0620F4A3E6B4E00E940A240D
:103C5400E8EEF3E02E163F0620F4A5E6B4E00E9459
:103C64000A24E4E6F0E02E163F0620F4A7E6B4E0CA
:103C74000E940A24B4C0DE01A659BE4F0D90BC9127
:103C8400A02DEAA9FBA9EA1BFB0BDF01EDE0F0E0A4
:103C94000E94A028E0934305F0934405E3E4F6E092
:103CA400FA93EA93E5EAF2E0FA93EA93E0914305A2
:103CB400F0914405662777270E94F62884E00E9445
:103CC400B4252896E2E0EA93A0E00E94C523A3E489
:103CD400B6E00E940A24A0914305B0914405A4369D
:103CE400E0E0BE0720F4A9E6B4E00E940A24DE0165
:103CF400A859BE4F0D90BC91A02DE8A9F9A9EA1BC3
:103D0400FB0BDF01EDE0F0E00E94A028E093430507
:103D1400F0934405E3E4F6E0FA93EA93E5EAF2E08B
:103D2400FA93EA93E0914305F091440566277727D7
:103D34000E94F62884E00E94B4252896E7E0EA93DE
:103D4400A0E00E94C523A3E4B6E00E940A24A09147
:103D54004305B0914405A436E0E0BE0720F4ABE689
:103D6400B4E00E940A24DE01AA59BE4F0D90BC9112
:103D7400A02DEEA5FFA5EA1BFB0BDF01EDE0F0E0B3
:103D84000E94A028E0934305F0934405E3E4F6E0A1
:103D9400FA93EA93E5EAF2E0FA93EA93E0914305B1
:103DA400F0914405662777270E94F62884E00E9454
:103DB400B4252896ECE0EA93A0E00E94C523A3E48E
:103DC400B6E00E940A24A0914305B0914405A436AC
:103DD400E0E0BE0720F4ADE6B4E00E940A24E091DE
:103DE4005606E03079F0E0911B06F0911C063097FE
:103DF40031F0E0916105F0916205309719F40A2CD5
:103E04000B2809F488C0E12FF0E0EA0DFB1D2E1603
:103E14003F0628F0A0912406A43009F061C0E09187
:103E24005606AAE0EA02F001E0932B06A0912A06C6
:103E3400AE1720F4E0912A06EF5F01C0E1E0E093C1
:103E44002A06ADE4B5E0F0E0EE0FFF1FEA0FFB1F1A
:103E540020823182E0E0E8A3E9A3EAA3EBA3E1E056
:103E6400E0931F06E0912B06A0911F06EA1718F1B4
:103E7400E0911F06ADE4B5E0F0E0EE0FFF1FAE0FDA
:103E8400BF1FCD90DC900C2C0D2871F0F601A8A179
:103E9400B9A18AA19BA1662777270E946228E8A37B
:103EA400F9A36AA37BA301C006C0E0911F06EF5FDC
:103EB400E0931F06D7CFA0911F06A63068F0E091CB
:103EC4001F06E150A8A1B9A18AA19BA1FF276627DB
:103ED40077270E94B8285F01E0E0E09324061AC027
:103EE400A0912406A43020F4E0912406EF5F01C0E1
:103EF400E4E0E0932406FE01EB58FE4FE081E0305D
:103F040049F4A0915606EFE1EA9FF001B596DF016E
:103F14000E944C030FC0FE01EB58FE4FE081E030DD
:103F240049F4A0915606EFE1EA9FF001B696DF014D
:103F34000E944C03E0911B06F0911C06309721F47B
:103F4400E0912406E03009F007C1CC24DD24E0E050
:103F5400E0933705E0933805E0933905E0933A059B
:103F6400E8A3E9A3EAA3EBA3EC8FED8FEE8FEF8F29
:103F7400E88FE98FEA8FEB8FE0931F06A0911F066D
:103F8400AC30C8F5E0911F06AFE6B4E0F0E0EE0F08
:103F9400FF1FAE0FBF1F0E94EE28CE0EDF1EA091A2
:103FA4001F06B0E0AA0FBB1FAD56BB4F0E94EE2800
:103FB400A0913705B0913805EA0FFB1FE093370550
:103FC400F0933805A0911F06B0E0AA0FBB1FA954B7
:103FD400BB4F0E94EE28A0913905B0913A05EA0F33
:103FE400FB1FE0933905F0933A05E0911F06EF5F5C
:103FF400E0931F06C3CFE52FF0E0DE01AE54BF4FC0
:10400400EE0FFF1FEA0FFB1FC082D182E52FF0E005
:10401400DE01AA58BF4FEE0FFF1FEA0FFB1FA0914E
:104024003705B0913805A083B183E52FF0E0DE01B8
:10403400DA96EE0FFF1FEA0FFB1FA0913905B0912E
:104044003A05A083B183E0E0E0931F06A0911F0628
:10405400AE3108F052C0E0911F06F0E0DE01AE542C
:10406400BF4FEE0FFF1FAE0FBF1FCD90DC900C2C87
:104074000D2809F442C0F601A8A1B9A18AA19BA107
:10408400662777270E946228E8A3F9A36AA37BA383
:10409400E0911F06F0E0DE01AA58BF4FEE0FFF1FAC
:1040A400AE0FBF1F0E94EE28AC8DBD8D8E8D9F8DEF
:1040B400662777270E946228EC8FFD8F6E8F7F8F93
:1040C400E0911F06F0E0DE01DA96EE0FFF1FAE0F5F
:1040D400BF1F0E94EE28A88DB98D8A8D9B8D6627FF
:1040E40077270E946228E88FF98F6A8F7B8FE0918F
:1040F4001F06EF5FE0931F06A9CFE0911F06A8A15A
:10410400B9A18AA19BA1FF27662777270E94B82817
:10411400EAABFBABE0911F06AC8DBD8D8E8D9F8D00
:10412400FF27662777270E94B828E8ABF9ABE09110
:104134001F06A88DB98D8A8D9B8DFF27662777274B
:104144000E94B828EEA7FFA75D3118F4E52FEF5FB2
:1041540001C0E0E05E2F0AC0FE01EB58FE4FE08193
:10416400E03021F48DE498E00197F1F7339B02C02D
:10417400359907C1339902C0E1E003C0359903C002
:10418400E2E0E0932B06E0913F06E03031F0E0E01E
:10419400E093B000E093B10009C0E0913E06E03046
:1041A40029F0AEE0EA02F001EE58E7BD0E94D62302
:1041B400A1EDB4E00E941924A9E1B0E00E949A267E
:1041C400A0914B05B0914C05AA33E5E7BE0720F05A
:1041D400A0912906AF3218F4E2E3E0932206A091FD
:1041E4001706B0911806AD30E9E0BE0790F4D196F9
:1041F400A031E8E0BE0768F0A0911706B091180658
:10420400E2E00E949528E05AFF40E737A2E0FA076F
:1042140018F0E7E6E0932C06E0E0E0931F06A09197
:104224001F06A93008F04FC0339B04C0A0912B0691
:10423400A13021F4A0912706A43108F008C0E09130
:104244002706EF5FE0932706E1E0E0931F06359B26
:1042540004C0A0912B06A23021F4A0912706A2301D
:1042640008F408C0E0912706E150E0932706E1E056
:10427400E0931F06E3E4F6E0FA93EA93EEEDF3E04D
:10428400FA93EA93E0912706FF27662777270E948F
:10429400F62884E00E94B4252896E7E0EA93A1E09A
:1042A4000E94C523A3E4B6E00E940A24AFEAB0E06A
:1042B4000E949A26E0E0E0932B06E0911F06EF5F50
:1042C400E0931F06ACCFAFE0B0E00E941129A091AB
:1042D4002706EA1731F0E0912706AFE0B0E00E942C
:1042E4002529E0912706F0E0E45BFF4F14910E943A
:1042F400FC0F0E2F22243324E1E0E0931F06A0914B
:104304001F06A131D8F4E0911F06F0E00F01E85A2E
:10431400F94FA081B0E0A7FDBFEFF001E759F94FD5
:10432400E081F0E0E7FDFFEFEA0FFB1F2E0E3F1EDA
:10433400E0911F06EF5FE0931F06E1CFF101A6E0D5
:10434400B0E00E948D28E23EACE2FA0709F01BEFD0
:10435400E0E0E0931B06E0931C06E8A7E9A7E093DE
:104364002406DE01AB58BE4FEC93DE01AE58BE4FBF
:10437400EC93E0931906E0931A060E94D6230E9458
:10438400C703DE01A459BE4F0D90BC91A02DA139E5
:10439400E0E0BE0738F4A9E1B6E0ED91FD91319675
:1043A400FE93EE93A0911906B0911A06E4E00E94E0
:1043B40095284E165F0610F40E94A80FEEEFFCE05D
:1043C4006F01A0915606EFE1EA9FF001CE0EDF1EC9
:1043D400FE01EB58FE4FE081E03021F0F601E0559C
:1043E400FB4F09C0E0913F05F0914005309721F063
:1043F400F601E057FE4F6F01A0912606A13021F48B
:10440400F601E759FD4F6F01A0912606A23021F471
:10441400F601E65EFA4F6F01C614D70438F4F301CF
:10442400EC19FD093696DF010E944C030FC0E1E44C
:10443400E0937C00A6E9B0E00E949A26E0E0EA93CB
:10444400A1E0A1D1A0EEB4E00E9419241D9911C0ED
:104454000E941A08E0E0DE01AE58BE4FEC93E8A7D4
:10446400E9A7DE01AB58BE4FEC93E0931906E09345
:104474001A06329911C00E942C04E0E0E8A7E9A7CB
:10448400DE01AE58BE4FEC93DE01AB58BE4FEC9349
:10449400E0931906E0931A06E1E4E0937C00FE0140
:1044A400EB58FE4FE081E03059F0DE01A459BE4FD5
:1044B4000D90BC91A02DA239E0E0BE0708F0E1C048
:1044C400FE01E459FE4F0190F081E02DE093430595
:1044D400F0934405E0917A00E064E0937A00E0917F
:1044E4007A00E074E1F7E0917800F09179006627B2
:1044F40077270E942127A2EBBEE28EE89EE30E946A
:10450400AB27A3E3B3E383E590E40E945B27DE01DA
:10451400A459BE4F0E94E826ED93FC93E3E4F6E031
:10452400FA93EA93ECEEF4E0FA93EA93DE01A059ED
:10453400BE4F0D90BC91A02DEAE0F0E00E94A028AF
:10454400662777270E94F628DE01AC58BE4F0D90EF
:10455400BC91A02DEAE0F0E00E94DD2866277727D1
:104564000E94F62888E00E94B4252C96ECE0EA9399
:10457400A1E009D1A3E4B6E04BD1DE01A459BE4FBA
:104584000D90BC91A02DA436E0E0BE0718F4A7EB73
:10459400B2E04DD1DE01A459BE4F0D90BC91A02DC7
:1045A400A139E0E0BE0708F06CC0E0E0E093B000A1
:1045B400E093B100EA93A1E0E6D0DE01A459BE4F36
:1045C4000D90BC91A02D1196E0914305F091440506
:1045D400AE17BF0758F0DE01A459BE4F0D90BC9131
:1045E400A02DA535E0E0BE0708F048C0A2EFB4E076
:1045F4001ED1E0E0E0931906E0931A06E0913F062D
:10460400E03081F0DE01A459BE4F0D90BC91A02D85
:10461400A436E0E0BE0730F4A881B981AC32E1E011
:10462400BE0709F426C0E0912506E093B300E3E851
:10463400E093B000E4E0E093B100A6E9B0E00E94AA
:104644009A26E5E0E093B100A6E9B0E00E949A263C
:10465400E6E0E093B100A6E9B0E00E949A26E0E02B
:10466400E093B000E093B100ECE2F1E0E883F98379
:1046740004C0A2E3B0E00E949A2603C0AEEFB4E007
:10468400D6D0E0E4E0937C00EC89FD896E897F89D3
:10469400EF5FFF4F6F4F7F4FEC8BFD8B6E8B7F8BEC
:1046A400E0912806E03019F0EDE5F0E001C0F201F8
:1046B4006F01AC89BD898E899F89662777270E94FF
:1046C400B828E030A3E0FA07A0E06A07A0E07A0780
:1046D400D0F0A4E0B0E00E940D2931960E941D297B
:1046E400A9E4B5E0ED91FD913196FE93EE93E0E0FF
:1046F400EC8BED8BEE8BEF8BA7E1B6E0ED91FD91AA
:104704003196FE93EE930C942414EF96E796DF5FB4
:10471400FFCFAA93E881E07111F05A9A01C05A9828
:10472400E881E07211F05B9A01C05B98E881E07463
:1047340011F05C9A01C05C98E881E07811F0289A45
:1047440001C0289881E28A95F1F7599A81E28A9505
:10475400F1F7599881E28A95F1F7B6C0AA93A88136
:10476400D8DFE881E295E883A881D3DF8AEF90E07F
:104774000197F1F7A9C0AA93A981F0DF589AA881FB
:10478400EDDF58980FC0AA93E881F0E0E658F94F9E
:10479400E081A981AE0FE2DFE981E0937E06E88142
:1047A400E0937F0622960895A2E0D8DFA3E0B0E06C
:1047B4000E949A26ACE0D2DFA1E0D0DFA3E0B0E013
:1047C4000E949A26E0E0E0937F06E0937E06089537
:1047D400AA93A881AA3031F0E0918006A0917E06C8
:1047E400AE1760F0E0E0EA93A0917F06AF5FA0937C
:1047F4007F06C9DFA881AA3009F466C0E0917E066D
:10480400EF5FE0937E06589AA881A8DF58985CC0B1
:10481400BA93AA931A93A981BA81ED91A983BA8311
:104824001E2FE03019F0A12FD3DFF5CF10C0BA93BB
:10483400AA931A93E981FA813196E983FA8331972D
:10484400E4911E2FE03019F0A12FC2DFF3CF1881BD
:1048540023960895AA93529A539A549A209A519A55
:10486400509A579A599858985F98E881E09380062F
:10487400E058E0937C06E881E054E0937D06A4E1EF
:10488400B0E00E949A26A0E344DF84EF91E0019710
:10489400F1F7A0E33EDF84EF91E00197F1F7A0E3A5
:1048A40038DF84EF91E00197F1F7A0E232DF84EF83
:1048B40091E00197F1F7A8E251DFA4E04FDFA5E80A
:1048C4004DDFA6E04BDF70DF21960895BA93AA93DB
:1048D4001A930A93AA81BB8112960E94EE283097FC
:1048E40059F1AA81BB8114960E94EE288F0130975A
:1048F40061F00230E0E01E0798F0F80131978F0173
:10490400AA81BB811496ED93FC93AA81BB81129674
:10491400ED91FD913196FE93EE933197AC81A08396
:10492400AA81BB810E94EE28FF232AF0ED91FD911C
:104934003196FE93EE9306C0AA81BB81EFEFFFEFA1
:10494400ED93FC931981088125960895BA93AA934F
:1049540024970E943C2910E0AA85BB85E0E0F0E0A2
:10496400ED93FC93E889F9893196E88BF98B3197BB
:10497400E4913E2FE03009F4EDC0E12FE03059F42A
:10498400353211F411E006C03A93AB85BC85ED8550
:10499400FE850995DEC0E130A9F4353239F43A9345
:1049A400AB85BC85ED85FE850995D2C012E020E07B
:1049B40000E03B3211F42BE2CCC0303211F420E29F
:1049C400C8C002C0E23031F4303319F4006115E09C
:1049D400C0C003C0E53009F0BCC0E32FE33669F47E
:1049E400EE85FF853497EE87FF87A481AA93AB8574
:1049F400BC85ED85FE850995ABC0E337E1F4EE8512
:104A0400FF853497EE87FF87AE85BF8514960E9495
:104A1400EE28EE83FF83AE81BF81ED91AE83BF8329
:104A24003E2FE03039F03A93AB85BC85ED85FE85A9
:104A34000995F1CF8DC0E037F1F4EE85FF85349709
:104A4400EE87FF87AE85BF8514960E94EE28EE831D
:104A5400FF83EE81FF813196EE83FF833197E491EA
:104A64003E2FE03039F03A93AB85BC85ED85FE8569
:104A74000995EFCF6DC0E43611F0E93611F4016009
:104A840002C0E53719F4E2E6F0E009C0E83511F4B4
:104A9400026003C0E83709F05BC0ECE6F0E0EE83A7
:104AA400FF8300FF1AC0EE85FF853497EE87FF87EA
:104AB400AE85BF8514964D915C9155232AF4FA0175
:104AC4000E946C28AF012DE2203031F02A93AB858F
:104AD400BC85ED85FE8509950AC0EE85FF85349772
:104AE400EE87FF87AE85BF8514964D915C9130E3C8
:104AF400EE81FF810E94F228E887F987EE81FF8129
:104B04003296EE83FF83E885F9854E175F0730F010
:104B14003F5FA885B9854A1B5B0BF5CF04FD06C032
:104B2400313320F4A885B985119771F400613A33C3
:104B340028F001FF02C0395F01C0395D3A93AB85AB
:104B4400BC85ED85FE850995A885B985129778F60B
:104B540010E008CFAA85BB850E94EE280E94432955
:104B640062960895FF92F82E26970E943E29DE0150
:104B74001C960E945E280E94EE28309719F4EFEFED
:104B8400FFEF27C0DE0116960E945E288D01DE012C
:104B94001C960E945E280E94EE28EE83FF83E0E0CC
:104BA400E887E987DE011A960E945E280E94EE28B3
:104BB400FA93EA931A930A93E8E6F4E2FA93EA93EF
:104BC400DE011A96C3DE9F01AE81BF81E0E0EC9363
:104BD400F9010E9445292A96FF9008950E94FB2816
:104BE40024971A930A93AE81BF81888599850E9480
:104BF40036292CF0EFEFFFEF6FE77FEF95C0EE81E2
:104C0400FF81688579850E94F628ADB7BEB71197F4
:104C14001F930F930E94A4260F911F91EE83FF838D
:104C240068877987AE81BF8188859985E3EFF4E051
:104C340065E37FE30E943E2860F4EE81FF8168858E
:104C440079850E945B27EE83FF836887798701500B
:104C54001040EE81FF8168857985A0E0B0E080E8AE
:104C64009FE30E9454277F936F93FF93EF93EE810A
:104C7400FF8168857985A0E0B0E080E89FE30E9429
:104C84005B27AF91BF918F919F910E94F927EE838B
:104C9400FF8368877987AE81BF81888599850E9463
:104CA400AB27EA83FB836C837D83A6E2B2E485E6CB
:104CB4009FE30E94AB27DF01CB01EEE4F1E164E561
:104CC40070E40E9400290E945427AE81BF81888528
:104CD40099850E94AB277F936F93FF93EF93EA81AB
:104CE400FB816C817D81ADE4B1E184ED9FE30E94A1
:104CF4005427AF91BF918F919F910E94F9277F9381
:104D04006F93FF93EF93F8010E9488280E94212754
:104D1400A8E1B2E781E39FE30E94AB27AF91BF9183
:104D24008F919F910E945B27198108812A9608958B
:104D3400109639F088E893E10197F1F7A895119757
:104D4400C9F70895E991F9916991799177FB660F13
:104D5400771F88277E57880B7D938C937EE7769503
:104D640067950EF0089530976040704009F07058D0
:104D74000895552342F4503811F4E0FF04C03196ED
:104D8400691F791F6BF050E8572711F45F93CFC068
:104D94005F3F31F0660F000C57956795752F0895A6
:104DA4005F9300200AF0CFC0C8C050E8192E152226
:104DB400880F991F9527550F879550E8072E0522D0
:104DC400660F771F7527550F67950895689401C07E
:104DD400E8945F93F2DF703818F07F3F08F4A7C0BF
:104DE40056E1571BAAF4519558300EF4593030F05F
:104DF400EFEFFFEF6FEF7FE777F91AC077275523BF
:104E0400B9F0EE0FFF1F661F771F5A95D1F710C038
:104E14007727583028F0EF2FF62F672F5850F9CF07
:104E2400552331F076956795F795E7955A95D1F71F
:104E340000200AF453D15F910895689401C0E89466
:104E4400309760407040B1F0002426F0772312F4CC
:104E5400009444D1172E7EE1112032F07A95EE0FA2
:104E6400FF1F661F111CF9CFEF2FF62F612D5F93E3
:104E74008ADF5F9108954F93AF01FD01DA01AB0121
:104E8400BC01CA01402D012C142E4F910895EA0F44
:104E9400FB1F681F0895E095F0956095EF5FFF4F45
:104EA4006F4F08955F9381DF903871F150E81526B4
:104EB40004C05F937ADF903839F1703821F1572FAD
:104EC400591B2BF112F4D7DFFACF583118F0AA2767
:104ED400BB278827583028F0AB2FB82F8827585085
:104EE400F9CF552329F08695B795A7955A95D9F703
:104EF400502D512572F0CBDF38F46795F795E7957F
:104F0400739513F420C0B7DF3EDF5F910895D8F79F
:104F1400FBCFEA1BFB0B680B51F010F40094BBDFD2
:104F2400662392F3EE0FFF1F661F7A95CBF7EE27E9
:104F3400FF27662777275F910895EFEFFFEF6FE76D
:104F44007FEF5F910895EFEFFFEF6FE77FE75F91EA
:104F540008955F932ADF703851F3903841F30124A8
:104F64000894791F23F41CF300203AF3ECCF0F923A
:104F74001F932F933F934F93112722279927689FBD
:104F8400A0018F9F302D410D591F6B9F300D411D86
:104F9400591F8E9F27D0BF9F25D06A9F23D0BE9FC5
:104FA4001DD0AF9F1BD0AE9F110D291F391F491F64
:104FB400591FE32FF42F652F522F4F913F912F91BB
:104FC4001F910F9066232AF0550FEE1FFF1F661FD7
:104FD40002C073954BF2CDDE5F910895100D211D33
:104FE400391F02C0200D311D491F591F08955F93B9
:104FF400DCDE703821F411200AF49FCFA4CF90385E
:1050040009F495CF01240894970B1BF4D4F30020E2
:10501400F3CF792F1F932F933F934F93112411278D
:10502400222733274427552790E2AE17BF07860768
:10503400410730F0AE1BBF0B860B410B089401C037
:105044008894551F221F331F111CAA1FBB1F881FC2
:10505400441F9A9551F7F901612D4F913F912F917A
:105064001F91662332F0550FEE1FFF1F661F7A95BE
:1050740043F27FDE5F91089599239AF0772342F0FB
:10508400971748F029F4AE17BF07860720F031F0D0
:1050940098948894089598940894089518948894FA
:1050A40008957723C2F7971798F3A9F7EA17FB0730
:1050B400680788F399F3ECCF0024AF0DB01D089571
:1050C400EA0FFB1F681F791F0895AE0FBF1F861FCD
:1050D400971F0895F195E195F0400895F095609536
:1050E4007095E195FF4F6F4F7F4F0895EE0FFF1FAF
:1050F400EE0FFF1F089576956795F795E795089548
:10510400FE2FFF0FFF0B6F2F7F2F08956F2F660F5A
:10511400660B762F0895FA9FF02DEB9FF00DEA9F12
:10512400E02DF10D08956E2F6A9FF0016B9FF00D35
:10513400089544D0F0DF0EF4CDDF08950024112447
:1051440090E1AA0FBB1F001C111C0E1A1F0A18F4B1
:105154000E0E1F1E01C0A1609A9599F7FD01D001A2
:1051640008952CD0EBDF0EF4B5DF08953F934F93F1
:105174005F93002411244427552730E2AA0FBB1F54
:10518400881F991F001C111C441F551F0E1A1F0A4B
:10519400460B570B28F40E0E1F1E461F571F01C047
:1051A400A1603A9559F7FD01BC01D001CA015F9194
:1051B4004F913F910895C2DFFD010895E894F7FFF0
:1051C40002C088DF6894B7FF06C0A095B095119619
:1051D40000F8039400FA0895ED91FC911197089555
:1051E4000590F491E02D08957A936A93FA93EA93E3
:1051F40008959A938A93BA93AA930895182E862FA2
:10520400612D192E972F712D1B2EBF2FF12D1A2EC4
:10521400AE2FE12D0895119602D0FE2F1197F99922
:10522400FECFFF93FFB7F894A1BDB2BDF89AE0B5E5
:10523400FFBFFF91089507D01196EF93EF2F03D08E
:10524400EF9111970895F99B02C0A895FCCF9FB7E1
:10525400F894A1BDB2BDF89A80B5E81719F0E0BD85
:10526400FA9AF99A9FBF089500240A160B060806B5
:10527400090608955A934A933A932A931A930A93E0
:1052840008955D814C813B812A81198108810895AB
:105294009927AC0FBD1F05900D920197E1F7089572
:00000001FF
