:020000000C945E
:100002002703080C1E1F1E0C080000000000000041
:10001200031F0000000000031F1F00000000031F59
:100022001F1F000000031F1F1F1F0000031F1F1FB1
:100032001F1F00031F1F1F1F1F1F031F1F1F1F1F25
:100042001F1F020504040414080000CDAF9682733A
:10005200645546382E241E1915120F0C090603008A
:100062001027E80364000A000100001000011000DC
:100072000100C9000000A000027A00000000000098
:10008200000000000000120001003100000000002A
:100092000000000000000000000000000000050059
:1000A200020000000000000008002C00050008000B
:1000B200202046656C657A4A6F6F202050492020C7
:1000C200000020202044454D4F2076332E3233202D
:1000D200202000008300040005000600A3000200A7
:1000E2000403140324033403440354036403740316
:1000F20084039403A403B403C4032048616D6964B8
:100102002028204952414E20292000202044657396
:1001120069676E65642042793A2020002052656D3D
:1001220061696E696E67205573653A2000000000B0
:1001320000000000000000000000000000000000BD
:1001420000000000000000000000000000000000AD
:10015200000000000000000000000000000000009D
:10016200000000000000000000000000000000008D
:10017200000000000000000000000000000000007D
:10018200000000000000000000000000000000006D
:10019200000000000000000000000000000000005D
:1001A200000000000000000000000000000000004D
:1001B200000000000000000000000000000000003D
:1001C200000000000000000000000000000000002D
:1001D200000000000000000000000000000000001D
:1001E200000000000000000000000000000000000D
:1001F20000000000000000000000000000000000FD
:1002020000000000000000000000000000000000EC
:1002120000000000000000000000000000000000DC
:1002220000000000000000000000000000000000CC
:1002320000000000000000000000000000000000BC
:1002420000000000000000000000000000000000AC
:10025200000000000000000000000000000000009C
:10026200000000000000000000000000000000008C
:10027200000000000000000000000000000000007C
:1002820000000000000000009600000000000000D6
:1002920000005325752044257520462575205025DC
:1002A2007500532575204425754625752050257502
:1002B2000020003D2020202020202020202020205F
:1002C20020200020412020202042202020204320E6
:1002D20020202000202020202044656C61793A00F3
:1002E2002020436F696C204572726F7220210025B5
:1002F2007520284155544F2900257520282B257536
:1003020029004672657175656E6379202020202070
:10031200200050756C736520576964746820202032
:10032200200044656C61792020202020202020209C
:100332002000496E7465672E57202020202020203F
:10034200200047726F756E6420202020202020201C
:10035200200053706565642020202020202020206A
:10036200200049726F6E2052656A656374202020F6
:1003720020004261636B4C69676874202020202052
:100382002000436F6E74726173742020202020203D
:100392002000566F6C756D652020202020202020C3
:1003A2002000546F6E652020202020202020202055
:1003B200200050617373776F726420202020202008
:1003C200200041626F7574202020202020202020F0
:1003D20020004F464600415554004F4E20003C211C
:1003E2003E002B002B25750025752000204F6C64E4
:1003F2002050617373776F7264203A0057726F6E88
:10040200672050617373776F7264202100204E65FC
:10041200772050617373776F7264203A00436F6E76
:100422006669726D2050617373776F7264005061F8
:100432007373776F7264204368616E67656400202E
:1004420020202020202020202020202020202000CA
:1004520020204869676820506F776572202100204C
:1004620020205072657373204F4B202100202020E2
:100472002044454D4F2021212100202020202020F2
:10048200203F0042616C616E63696E672020004903
:10049200443A20202020202020202020202020003C
:1004A2002020202046453A004E4F4E2D46453A0028
:1004B20020464552524F3A002563257500FF005FE2
:1004C2002020202020202020202000212020202049
:1004D20020202D25750021202020202020202020D2
:1004E2002000202053656E73697469766974793AC5
:1004F20000436F696C204572726F7220004C6F77F7
:1005020020426174746572790025752E257500008C
:1005120080C000000000010000002D4E414E004945
:100522004E46000006000400740002004B057A00EB
:10053200020019067C0001001E067E0001001F0653
:1005420080000100200682000100210684000100D3
:1005520022068600010023068800010024068A0084
:10056200010025068C00010027068E0010002C06D3
:10057200900001003C06A00001003D06A20001001F
:100582003E06A40001003F06A60001004006A800A6
:1005920001005206AA0001005306AC0001005406F5
:1005A200AE0001005506B00011005606B20011005F
:1005B2006706C40002000004B30202000204B30290
:1005C20011000404910402001504B3020800170488
:1005D200A20408001F04AA0408002704B2040200AF
:1005E2002F04B30202003104BF0402003304B30239
:1005F20003003504C20202003804B3020C003A04BC
:10060200C10403004604C20202004904B3020C0002
:100612004B04D8040C005704D80402006304B3024C
:1006220002006504B30202006704B3020200690417
:10063200B30202006B04B30202006D04B3020400B1
:100642007806120504007F0618050000F894EE27CC
:10065200EFBBF1E0F5BFE5BFF8E1A895A4B7A77F2E
:10066200A4BFF0936000E0936000E6E2F5E08591BC
:100672009591009761F0A591B59105901590BF01F4
:10068200F00105900D920197E1F7FB01F0CFEFEF3A
:10069200EDBFE8E0EEBFC0E0D4E00C941110BA93D5
:1006A200AA93E881F9813697E883F983000084E010
:1006B20090E00197F1F7E881E17021F085E090E0A8
:1006C2000197F1F7E881E27021F08AE090E001976A
:1006D200F1F7E881E47021F084E190E00197F1F70D
:1006E200E881E87021F088E290E00197F1F7E88173
:1006F200E07121F080E590E00197F1F7E881E07286
:1007020021F080EA90E00197F1F7E881E07421F0AE
:1007120080E491E00197F1F7E881E07821F080E848
:1007220092E00197F1F7E981E17021F080E095E034
:100732000197F1F7E981E27021F080E09AE00197F8
:10074200F1F7E981E47021F080E094E10197F1F79B
:10075200E981E87021F080E098E20197F1F7E98100
:10076200E07121F080E090E50197F1F7E981E07214
:1007720021F080E090EA0197F1F7E981E07441F01D
:1007820080E090EA0197F1F780E090EA0197F1F7B3
:1007920022960895E0E0EA93A0E00E949C22E09174
:1007A2002206E03009F04CC0A0912306AA3048F09E
:1007B200A0913F06AA302CF0E4E6F0E04E165F0668
:1007C20038F4E1E4F6E0FA93EA93E4E9F2E006C0F1
:1007D200E1E4F6E0FA93EA93E4EAF2E0FA93EA93C8
:1007E200E0912306FF27662777270E94B527E0912D
:1007F2003F060E9459270E94B527F20166277727F4
:100802000E94B527F401662777270E94B52780E169
:100812000E948B246496A1E4B6E00E94E122E0915A
:100822004F06E03021F4A0E0B4E00E94E122E09122
:100832005006E03021F4A2E0B4E00E94E1220EC0B2
:10084200A0912206A13031F4A0E00E94C122A5EBC2
:10085200B2E002C0A5ECB2E00E94F0220895E0E40A
:10086200E0937C00E0913D06E03031F0E0E0E0937F
:10087200B000E093B10009C0E0913C06E03029F0FD
:10088200AEE0EA02F001EE58E7BD0E94AD22A6ED0D
:10089200B2E00E94F022E1E0F0E71F01EDEFFFE796
:1008A200E215F30538F0F101A491AF3F19F4319646
:1008B2001F01F4CFEEEFFFE72E163F0630F4E0E61D
:1008C200F9E0E0934905F0934A0522243324E1E05C
:1008D200E0931B06A0911B06A131D8F4E0911B0600
:1008E200F0E00F01EA5AF94FA081B0E0A7FDBFEF97
:1008F200F001E959F94FE081F0E0E7FDFFEFEA0F7F
:10090200FB1F2E0E3F1EE0911B06EF5FE0931B06BE
:10091200E1CFF1010E944F27E03EADE1FA0709F075
:100922000895A0914905B0914A05AF30E9E0BE07AC
:1009320090F4D196A031E8E0BE0768F0A091490595
:10094200B0914A05E2E00E946C27E05AFF40E73787
:10095200A2E0FA0708F00895A0914B05B0914C056A
:10096200AB33E5E7BE0720F0A0912506AF3208F4CD
:100972000895E1E0E0931B06A0911B06AF3008F05A
:100982004CC1E0E0E0937A00E0911B06E0931D0683
:10099200EFEFF1E0E819F909E0934305F09344051C
:1009A2005E9B02C05E9801C05E9AE5E8E0937A0021
:1009B200E0917A00E064E0937A00E0917A00E074DA
:1009C200E1F7A0914305B091440569DE2A98D4016C
:1009D2000E9450032A9A000085E090E00197F1F707
:1009E200E0911D06E150E0931D06E03039F0000071
:1009F200000085E090E00197F1F7F2CFE0E0E4BD7E
:100A0200E5BDE0917A00E064E0937A00E0917A003B
:100A1200E074E1F7C0907800D0907900E0917A001C
:100A2200E064E0937A00E0917A00E074E1F7E0910B
:100A32007800F0917900E0933705F0933805E09162
:100A42007A00E064E0937A00E0917A00E074E1F7E2
:100A5200E0917800F0917900E0933905F0933A053E
:100A6200E0917A00E064E0937A00E0917A00E07429
:100A7200E1F7E0917800F0917900E0933B05F09383
:100A82003C05E0917A00E064E0937A00E0917A001C
:100A9200E074E1F7E0917800F0917900E0933D0590
:100AA200F0933E05E0917A00E064E0937A00E091F1
:100AB2007A00E074E1F7E0917800F0917900E09338
:100AC2003F05F0934005E0917A00E064E0937A00FC
:100AD200E0917A00E074E1F7E0917800F09179001A
:100AE200E0934105F0934205E3EAE4BDE2E0E5BDAF
:100AF200E0911B06AFE6B4E0F0E0EE0FFF1FEA0F55
:100B0200FB1FC082D182E0911B06E25FAFE6B4E038
:100B1200F0E0EE0FFF1FEA0FFB1FA0913705B09127
:100B22003805A083B183E0911B06E45EAFE6B4E032
:100B3200F0E0EE0FFF1FEA0FFB1FA0913905B09105
:100B42003A05A083B183E0911B06E65DAFE6B4E00F
:100B5200F0E0EE0FFF1FEA0FFB1FA0913B05B091E3
:100B62003C05A083B183E0911B06E85CAFE6B4E0EC
:100B7200F0E0EE0FFF1FEA0FFB1FA0913D05B091C1
:100B82003E05A083B183E0911B06EA5BAFE6B4E0C9
:100B9200F0E0EE0FFF1FEA0FFB1FA0913F05B0919F
:100BA2004005A083B183E0911B06EC5AAFE6B4E0A6
:100BB200F0E0EE0FFF1FEA0FFB1FA0914105B0917D
:100BC2004205A083B183A0911B06AE3000F5EFE091
:100BD200EA1BE0931D06000085E090E00197F1F723
:100BE200E0911D06E150E0931D06E03039F000006F
:100BF200000085E090E00197F1F7F2CFD301A45E07
:100C0200B2400E94500382E090E00197F1F7E09138
:100C12001B06EF5FE0931B06AFCEE0E0E0931C06FD
:100C2200E4E0E0931B06A0911B06A33608F05CC02B
:100C3200E0911B06E250AFE6B4E0F0E0EE0FFF1FDA
:100C4200AE0FBF1F0E94AD27DF017F97F0F1FD01BC
:100C5200E039A1E0FA07C8F5E0911B06AFE6B4E07F
:100C6200F0E0EE0FFF1FAE0FBF1F0D901C90E09142
:100C72001B06E150AFE6B4E0F0E0EE0FFF1FAE0F4F
:100C8200BF1F0E94AD27D001AE1BBF0B1B97E8F020
:100C9200E0911B06E150AFE6B4E0F0E0EE0FFF1F7B
:100CA200AE0FBF1F0D901C90E0911B06E250AFE605
:100CB200B4E0F0E0EE0FFF1FAE0FBF1F0E94AD27A2
:100CC200D001AE1BBF0B1B9708F408C0E0911B06B6
:100CD200E250E0931C06E4E6E0931B06E0911B065B
:100CE200EF5FE0931B069FCFE0911C06E03069F4B2
:100CF200E1E0E0932406E0E0EA93A1E00E949C2276
:100D0200A2EEB2E00E94F0228BC0E0E0E093240663
:100D1200E0911C06FF27662777270E94F825ADEC95
:100D2200BCEC8CEC9FE30E948226ADECBCEC8CE622
:100D320090E40E943226A7E2B6E00E94BF25EC931F
:100D4200E0913F06E030C9F4E3E0EA93A1E00E94BB
:100D52009C22E1E4F6E0FA93EA93E1EFF2E0FA93FF
:100D6200EA93E0912706FF27662777270E94B52797
:100D720084E00E948B2428961EC0E4E0EA93A1E05E
:100D82000E949C22E1E4F6E0FA93EA93EBEFF2E0B0
:100D9200FA93EA93E0912706FF27662777270E94B6
:100DA200B527E0913F060E9459270E94B52788E0A7
:100DB2000E948B242C96A1E4B6E00E94E122AA2490
:100DC200BB24E1E0E0931B06A0911B06A53698F434
:100DD200E0911B06ADE4B5E0F0E0EE0FFF1FAE0FB1
:100DE200BF1FE0E0F0E0ED93FC93E0911B06EF5FA4
:100DF200E0931B06E9CFE0E0E0932606E0932006AD
:100E0200E0932806AFE0B0E00E94D027A09123062D
:100E1200EA1731F0E0912306AFE0B0E00E94E42748
:100E2200AAE8B2E00E9471250E94AD22B3DC0895C7
:100E3200E0E0EA93A1E00E949C22E0E0E0931B063E
:100E4200A0911B06A03108F04AC0E0E0E09327061B
:100E5200AAEFB0E00E9471251D9B43C0329903C0E6
:100E6200E4E0E0932706339903C0E3E0E09327062A
:100E7200349903C0E2E0E0932706359903C0E1E02C
:100E8200E0932706E0912706E030F9F0E0911B0697
:100E9200F0E0E45DF94FA0912706A083E1E4F6E0DB
:100EA200FA93EA93E1EAF2E0FA93EA93E0912706F1
:100EB200FF27662777270E94B52784E00E948B24AC
:100EC2002896A1E4B6E00E94E122E0912706E030F4
:100ED20019F2E0911B06EF5FE0931B06B1CF1D995B
:100EE200FECFE0911B06E0932706E0931B06A0913C
:100EF2001B06A03168F4E0911B06F0E0E45DF94FB7
:100F0200A0E0A083E0911B06EF5FE0931B06EFCF0A
:100F12000895E0E0E0931B06A0911B06A031A0F427
:100F2200B0E0A05FBF4F0E94D027AE2FE0911B061A
:100F3200F0E0E45DF94FE081EA1731F4E0911B063D
:100F4200EF5FE0931B06E8CFA0911B06A03111F4DE
:100F5200E1E001C0E0E00895BA93AA931A930A93DC
:100F6200EA81EE0FEE0FEE0FE0640E2F10E0183064
:100F720068F40A930395ED81FE813196ED83FE8339
:100F82003197A4910E9494221F5FF1CF19810881A9
:100F920026960895A0915506A6301CF0EAE0EA1BB9
:100FA20015C0E0915506E53011F4E6E00FC0E430DB
:100FB20011F4E8E00BC0E33011F4EBE007C0E230DB
:100FC20011F4EFE003C0E13019F4E4E1E0932B0601
:100FD2000895E0913F060E9459270E94F825A0E05B
:100FE200B0E080E29FE30E948226A0E0B0E080E0D1
:100FF2009FE30E943226A9E2B6E00E94BF25EC934D
:10100200E09153060E9459270E94F825A0E0B0E023
:1010120080E29FE30E948226A0E0B0E080E09FE3AE
:101022000E943226DF01CB01E0912906FF276627C5
:1010320077270E94F8250E943226AAE2B6E00E9493
:10104200BF25EC930895EF9767978CE3AAE1B0E090
:10105200E2EEF0E00E9409280E94FD2701E030E064
:1010620020E04C825D82FE01369680829182E09180
:101072003F06F0E0E7FDFFEFE887F987E0915306CE
:10108200F0E0E7FDFFEFEA87FB87E0915406F0E02E
:10109200E7FDFFEFEC87FD87E0915506F0E0E7FD05
:1010A200FFEFEE87FF87E0914006F0E0E7FDFFEFFC
:1010B200E88BF98BE0913C06F0E0E7FDFFEFEA8B6D
:1010C200FB8BE0913E06F0E0E7FDFFEFEC8BFD8B42
:1010D200E0913D06F0E0E7FDFFEFEE8BFF8BE09144
:1010E2005206F0E0E7FDFFEFE88FF98FA0E1B0E0F4
:1010F2000E94D027E13010F0E53008F003C0E1E0B3
:10110200F0E002C0E0E0F0E0EA8FFB8FE0E0EC8F7D
:10111200ED8FE0913D06E03031F0E0E0E093B00089
:10112200E093B10009C0E0913C06E03029F0AEE066
:10113200EA02F001EE58E7BD0E94AD2222243324D8
:10114200E1E0E0931B06A0911B06A131D8F4E091E7
:101152001B06F0E00F01EA5AF94FA081B0E0A7FDAB
:10116200BFEFF001E959F94FE081F0E0E7FDFFEF51
:10117200EA0FFB1F2E0E3F1EE0911B06EF5FE0936E
:101182001B06E1CFF101A3E0B0E00E946427E8363C
:10119200A6E1FA0731F00E940428EF966B960895B3
:1011A200FFCFA4E0B0E00E94CC27BF010F01F1966F
:1011B200E131A8E0FA0780F0F001E05DF740EC339E
:1011C200A1E0FA0748F4DB01E0914905F0914A05F4
:1011D200AE1BBF0B119709F0FFCFA0914B05B09149
:1011E2004C05A831E9E7BE0720F0A0912506A832F8
:1011F20008F4FFCFE0911706F0911806A091490577
:10120200B0914A05EA17FB0709F0B1C6E4E0F0E045
:10121200FA93EA93A0E0B0E09FDE22243324E1E0D7
:10122200E0931B06A0911B06A13108F5E0911B0675
:10123200F0E0BF01DE01A75BBF4FAE0FBF1FEC9115
:10124200F0E0E7FDFFEF0F01FB01DE01D896AE0FE4
:10125200BF1FEC91F0E0E7FDFFEFE00DF11D2E0E58
:101262003F1EE0911B06EF5FE0931B06DBCFF1010F
:10127200A3E0B0E00E946427E236A9E1FA0711F088
:1012820076C6FFCF329910C0A0911E06AC3038F45A
:10129200E0911E06EF5FE0931E06E1E003C0E0E08E
:1012A200E0931E06E0931F06349911C0A0911E061A
:1012B200A13038F0E0911E06E150E0931E06E0E016
:1012C20004C0ECE0E0931E06E1E0E0931F06329BCF
:1012D20005C0349B03C0003009F4A6C0E0E0EA93E5
:1012E200A0911F060E949C22A0E00E94C122E0E081
:1012F200EA93A0911F06E1E0EA1BAE2F0E949C2216
:10130200A3EBB2E00E94F022E0E0E0931B06A09182
:101312001B06A23008F088C0E0911E06EA0FA091D9
:101322001F06EA1BE0932706E1E0EA93A0911B0661
:101332000E949C22E0912706F0E0DE015E96EE0F0D
:10134200FF1FAE0FBF1F0E94AD27DF010E94F022D8
:10135200EDE0EA93A0911B060E949C22E0912706F1
:10136200F0E0DE011496EE0FFF1FAE0FBF1F2D90AF
:101372003C90A0912706A43041F0A63031F0A7306E
:1013820021F0A93011F0AB3019F4022C032809F036
:1013920005C0A4EDB3E00E94F02240C0A091270650
:1013A200A23019F4022C032809F005C0A8EDB3E01D
:1013B2000E94F02233C0A0912706AB3019F4022C10
:1013C200032809F405C0ACEDB3E00E94F02226C068
:1013D200A0912706AC3029F4A0EEB3E00E94F022DF
:1013E2001DC0A0912706A23021F4A4EEB3E00E9412
:1013F200F022E1E4F6E0FA93EA93E1EAF2E0FA930A
:10140200EA93F101662777270E94B52784E00E94BC
:101412008B242896A1E4B6E00E94E122E0911B060B
:10142200EF5FE0931B0673CF359B02C0339900C474
:10143200EDE0EA93A0911F060E949C22359902C01A
:10144200EFEF01C0E1E01E2FE0911E06E030B9F59A
:10145200E12FF0E0E7FDFFEF4E0E5F1EE3E2F0E06A
:101462004E165F0618F4E7EEF3E007C0E7EEF3E08E
:10147200E415F50518F4E3E2F0E02F01E1E4F6E00B
:10148200FA93EA93E1EAF2E0FA93EA93F201662729
:1014920077270E94B52784E00E948B242896A1E436
:1014A200B6E00E94E122E4E6F0E04E165F0620F488
:1014B200A3EBB2E00E94F0224C825D82B9C3E1301C
:1014C20091F5A5E01A02F001F0E0E7FDFFEF8E0EC4
:1014D2009F1EE4E6F0E08E169F0618F4E4EFF1E0BA
:1014E20007C0E4EFF1E0E815F90518F4E4E6F0E0EE
:1014F2004F01E1E4F6E0FA93EA93E1EAF2E0FA93CB
:10150200EA93F401662777270E94B52784E00E94B8
:101512008B242896A1E4B6E00E94E122FE013696D1
:101522008082918285C3E23009F047C0E12FEE0F3D
:10153200A0913F06EA0FE0933F06A0913F06A0303C
:1015420044F0A33634F4EEE6EA1BA0915306EA1700
:101552003CF4E12FEE0FA0913F06AE1BA0933F0695
:10156200E0913F06E03019F4A8EDB3E01CC0E1E4DD
:10157200F6E0FA93EA93E6EEF3E0FA93EA93E09167
:101582003F060E9459270E94B52784E00E948B24BF
:101592002896A1E4B6E00E94E122A0913F06AA307B
:1015A20024F4A3EBB2E00E94F022E0913F06F0E0C7
:1015B200E7FDFFEFE887F9873BC3E330D1F5E12F81
:1015C200EE0FA0915306EA0FE0935306A091530643
:1015D200AA3054F0A33644F4A0913F06EEE6EA1B8B
:1015E200A0915306EA173CF4E12FEE0FA0915306A7
:1015F200AE1BA0935306E1E4F6E0FA93EA93E1EA24
:10160200F2E0FA93EA93E09153060E9459270E946E
:10161200B52784E00E948B242896A1E4B6E00E94BC
:10162200E122E0915306F0E0E7FDFFEFEA87FB8756
:10163200FFC2E43009F040C0E12FA0915406EA0F46
:10164200E0935406A0915406A03014F4EAE005C0D9
:10165200A0915406AB301CF0E0E0E0935406E09118
:101662005406E03019F4A4EDB3E01CC0E1E4F6E066
:10167200FA93EA93EAEEF3E0FA93EA93E0915406DE
:101682000E9459270E94B52784E00E948B24289645
:10169200A1E4B6E00E94E122A0915406AA3024F40B
:1016A200A3EBB2E00E94F022E0915406F0E0E7FDE5
:1016B200FFEFEC87FD87BCC2E530B9F5E12FA091C1
:1016C2005506EA0FE0935506A0915506A13014F095
:1016D200AB302CF0E0915506E11BE0935506E1E4B6
:1016E200F6E0FA93EA93E1EAF2E0FA93EA93E09100
:1016F20055060E9459270E94B52784E00E948B2438
:101702002896A1E4B6E00E94E122A0915506AA30F3
:1017120024F4A3EBB2E00E94F022E0915506F0E03F
:10172200E7FDFFEFEE87FF8783C2E63009F03EC098
:10173200E12FA0914006EA0FE0934006A0914006F7
:10174200A03014F0AF312CF0E0914006E11BE093A1
:101752004006E0914006E03019F4A4EDB3E01CC06D
:10176200E1E4F6E0FA93EA93EAEEF3E0FA93EA931D
:10177200E09140060E9459270E94B52784E00E940A
:101782008B242896A1E4B6E00E94E122A0914006B3
:10179200AA3024F4A3EBB2E00E94F022E0914006CA
:1017A200F0E0E7FDFFEFE88BF98B42C2E73009F08A
:1017B2004BC0E12FA0913C06EA0FE0933C06A091BA
:1017C2003C06A03014F0AB302CF0E0913C06E11B5B
:1017D200E0933C06A0913C06A1303CF0E0913C062F
:1017E200AEE0EA02F001EE5801C0E0E0E7BDE091B0
:1017F2003C06E03019F4A4EDB3E01CC0E1E4F6E0ED
:10180200FA93EA93EAEEF3E0FA93EA93E0913C0664
:101812000E9459270E94B52784E00E948B242896B3
:10182200A1E4B6E00E94E122A0913C06AA3024F491
:10183200A3EBB2E00E94F022E0913C06F0E0E7FD6B
:10184200FFEFEA8BFB8BF4C1E83099F5E12FA09111
:101852003E06EA0FE0933E06A0913E06A03014F049
:10186200A3332CF0E0913E06E11BE0933E06E091AB
:101872003E06EE0FE8BDE1E4F6E0FA93EA93EAEE03
:10188200F3E0FA93EA93E0913E060E9459270E9400
:10189200B52784E00E948B242896A1E4B6E00E943A
:1018A200E122E0913E06F0E0E7FDFFEFEC8BFD8BDD
:1018B200BFC1E93009F03EC0E12FA0913D06EA0F19
:1018C200E0933D06A0913D06A03014F0AB302CF021
:1018D200E0913D06E11BE0933D06E0913D06E030DC
:1018E20019F4A4EDB3E01CC0E1E4F6E0FA93EA9344
:1018F200EAEEF3E0FA93EA93E0913D060E9459275B
:101902000E94B52784E00E948B242896A1E4B6E0C9
:101912000E94E122A0913D06AA3024F4A3EBB2E09A
:101922000E94F022E0913D06F0E0E7FDFFEFEE8B32
:10193200FF8B7EC1EA3079F5E12FA0915206EA0FC2
:10194200E0935206A0915206A13014F0AC302CF074
:10195200E0915206E11BE0935206E1E4F6E0FA93CD
:10196200EA93EAEEF3E0FA93EA93E09152060E94D8
:1019720059270E94B52784E00E948B242896A1E46F
:10198200B6E00E94E122E0915206F0E0E7FDFFEFAF
:10199200E88FF98F4DC1EB3009F0B0C0EA8DFB8DB5
:1019A2003097B1F00E94AD22AEEEB3E00E94F02279
:1019B2003FDAAFDAE03061F401E00E94AD22AEEF2F
:1019C200B3E00E94F022ACEDB5E00E9471255ACC42
:1019D2000E94AD22AFE0B4E00E94F02229DAE0E0FA
:1019E200E0931B06A0911B06A031C0F4E0911B06F8
:1019F200AFE6B4E0F0E0EE0FFF1FAE0FBF1FE091C5
:101A02001B06F0E0E45DF94FE081F0E0ED93FC931A
:101A1200E0911B06EF5FE0931B06E4CF0E94AD222C
:101A2200AFE1B4E00E94F02203DAE0E0E0931B06AB
:101A3200A0911B06A031E0F4E0911B06F0E0E45D0A
:101A4200F94F0080E0911B06AFE6B4E0F0E0EE0F44
:101A5200FF1FAE0FBF1F0E94AD27A02DB0E0EA17F7
:101A6200FB0731F4E0911B06EF5FE0931B06E0CF2A
:101A7200A0911B06A03109F09FCFE0E0E0931B0686
:101A8200A0911B06A03108F5B0E0A05FBF4F0E94F5
:101A9200D027AE2FE0911B06F0E0E45DF94FE08124
:101AA200EA1769F0A0911B06B0E0A05FBF4FE0917A
:101AB2001B06F0E0E45DF94FE0810E94E427E0912B
:101AC2001B06EF5FE0931B06DBCF0E94AD22A0E373
:101AD200B4E00E94F022A0E1B0E00E94D027E03002
:101AE20019F0E1E0F0E002C0E0E0F0E0EA8FFB8F05
:101AF200ACEDB5E00E94712501E0C4CBEC3009F0F9
:101B020097C00E94AD22A6E5B6E00E94E122A7E6B8
:101B1200B6E00E94E122AFECB7E00E9471250E947C
:101B2200AD22DE01A75BBF4F0E94E122AAE2B1E033
:101B32000E947125E0E0E0931B06A0911B06A031F4
:101B4200C0F5E0E0EA93A1E00E949C22A1E4B4E0A7
:101B52000E94F022A0911B06EFE0EA1BEA93A1E0AB
:101B62000E949C22AAE0B0E00E947125E0E0E0938E
:101B72002706E0911B06A0912706EA1780F0E09164
:101B82002706F0E0DE01D896AE0FBF1FAC910E948F
:101B9200C122E0912706EF5FE0932706EACFA4E691
:101BA200B0E00E947125E0911B06EF5FE0931B06F7
:101BB200C4CFE0E0E0931B06A0911B06A73090F58E
:101BC200E1E0E01B0E2FE9E0EA93A1E00E949C22F3
:101BD200003039F4A0ECB2E00E94F022A8ECB0E0B0
:101BE20019C0E9E0E0932706A0912706AD3080F402
:101BF200E0912706F0E0DE01D896AE0FBF1FAC9150
:101C02000E94C122E0912706EF5FE0932706ECCF06
:101C1200A4EFB1E00E947125E0911B06EF5FE09313
:101C22001B06CACFA6EEB3E00E94712501E02ACBC3
:101C3200359B02C0339902C0E1E001C0E0E03E2FD3
:101C4200003019F0ACE2B1E01EC0329B02C0349900
:101C520002C0A1EE17C0A0911E06A03021F43030C0
:101C620011F0203009F402C0AAE00CC0A0911E06B7
:101C7200A13021F4303011F0203009F402C0A4E682
:101C820001C0A5EAB0E00E947125303029F0359BF1
:101C920002C0339901C001C002C0E1E001C0E0E02E
:101CA2002E2F00E01D9962C1F401662777270E945A
:101CB200F825DF01CB010E94C724A1E8B4E085EB3F
:101CC2009FE30E9482267F936F93FF93EF93F2012B
:101CD200662777270E94F825DF01CB010E94C724DF
:101CE200AF91BF918F919F910E943226DF01CB016C
:101CF200E0E0F0E068E671E40E94152709F008F4DC
:101D02000CC00E94AD22A2E5B4E00E94F022ACED2C
:101D1200B5E00E94712501E0B5CAA6E0B0E00E94DC
:101D2200D027AE2FE0913C06EA1721F0A6E0B0E002
:101D32000E94E427A8E0B0E00E94D027AE2FE091F5
:101D42003E06EA1721F0A8E0B0E00E94E427A7E0EF
:101D5200B0E00E94D027AE2FE0913D06EA1761F075
:101D6200A7E0B0E00E94E427E03031F0E150A5E0C6
:101D7200EA02F001E0932106AAE0B0E00E94D02737
:101D8200AE2FE0915206EA1721F0AAE0B0E00E94DD
:101D9200E427AFE0B0E00E94D027AE2FE091230607
:101DA200EA1721F0AFE0B0E00E94E427ADE0B0E036
:101DB2000E94D027AE2FE0915506EA1729F0ADE038
:101DC200B0E00E94E427E6D8AEE0B0E00E94D0275F
:101DD200AE2FE0914006EA1721F0AEE0B0E00E949B
:101DE200E427ACE0B0E00E94D027AE2FE091540689
:101DF200EA1721F1ACE0B0E00E94E427E6E0E093CC
:101E02001B06A0911B06A53698F4E0911B06ADE4D3
:101E1200B5E0F0E0EE0FFF1FAE0FBF1FE0E0F0E015
:101E2200ED93FC93E0911B06EF5FE0931B06E9CF75
:101E3200E5E0E0932606E0E0E0932006A0E0B0E0D3
:101E42000E94CC274E165F06D1F4A2E0B0E00E94B9
:101E5200CC278E169F0699F4A9E0B0E00E94D02705
:101E6200AE2FE0913F06EA1751F4ABE0B0E00E94DA
:101E7200D027AE2FE0915306EA1709F463C0A9E018
:101E8200B0E00E94D027AE2FE0913F06EA1749F456
:101E9200ABE0B0E00E94D027AE2FE0915306EA17E4
:101EA200D9F0A9E0B0E00E94D027AE2FE0913F0622
:101EB200EA1721F0A9E0B0E00E94E427ABE0B0E02D
:101EC2000E94D027AE2FE0915306EA1721F0ABE033
:101ED200B0E00E94E4277DD8A0E0B0E00E94CC27C9
:101EE2004E165F06C1F0F201A0E0B0E00E94DC27CE
:101EF200662777270E94F825A0E0B4E284E799E4F8
:101F02000E94D026A0E0B0E080E09FE30E9432264B
:101F12000E94BF253F01A2E0B0E00E94CC278E16AE
:101F22009F0629F0F401A2E0B0E00E94DC27E4E47D
:101F3200F0E0FA93EA93A0E0B0E00E94AD070E94BD
:101F4200300413C0E0E0E0932806A8ECB0E00E9461
:101F520071250E94AD22E4E4F0E0FA93EA93A0E056
:101F6200B0E00E94AD070E94CB0301C08BC90E9462
:101F72000428EF966B960895E3E0E0931B06E09148
:101F82003D06E03021F1E0912106E093B300E091BB
:101F92001B06E150E0931B06EF5FC1F0E3E8E0931C
:101FA200B000E6E0E093B100ABE4B0E00E9471253E
:101FB200E0E0E093B000E093B100E0911B06E03076
:101FC20021F0ABE4B0E00E947125E1CF23C0E091A3
:101FD2003C06E030F9F0E0911B06E150E0931B066D
:101FE200EF5F89F0EFE7E7BDABE4B0E00E94712557
:101FF200E9EAE7BDE0911B06E03021F0ABE4B0E096
:102002000E947125E8CFE0913C06AEE0EA02F001C1
:10201200EE58E7BDE0E0E0931906E0931A06089552
:10202200EF97E797D15086E791E0A0E0B0E0EEE1CC
:10203200F1E00E940A2830E020E050E040E0229ADD
:102042002A9AA4E0B0E00E94CC27309721F0EF3F1B
:10205200AFEFFA0779F4A0E0B0E00E94CC27B39783
:1020620040F0A0E0B0E00E94CC27E83EA3E0FA07EF
:1020720008F001C006C0A4E0B0E0EFEDF7E00E9476
:10208200DC27A4E0B0E00E94CC27E0934905F0935E
:102092004A05A0E0B0E00E94CC27DF01B39728F008
:1020A200FD01E83EA3E0FA0708F0B3C0A0E0B0E00B
:1020B2000E94CC272F01A2E0B0E00E94CC27E43698
:1020C200A0E0FA0720F0E53FA1E0FA0708F005C01A
:1020D200A2E0B0E00E94CC274F01A6E0B0E00E944F
:1020E200D027E03014F0EB300CF006C0A6E0B0E0F0
:1020F2000E94D027E0933C06A7E0B0E00E94D027E0
:10210200E03014F0EB300CF006C0A7E0B0E00E9423
:10211200D027E0933D06AFE0B0E00E94D027E13047
:1021220010F0E53108F006C0AFE0B0E00E94D02721
:10213200E0932306A9E0B0E00E94D0271E2EE030F3
:102142005CF0E3364CF4ABE0B0E00E94D0270E2EF8
:10215200E0E7E1190E160CF006C0A9E0B0E00E941B
:10216200D027E0933F06AAE0B0E00E94D027E130FA
:1021720014F0EC300CF006C0AAE0B0E00E94D027C8
:10218200E0935206ABE0B0E00E94D027EA306CF058
:10219200E3365CF40E2EA9E0B0E00E94D027A0E75F
:1021A2000E94C827EA1B0E160CF006C0ABE0B0E096
:1021B2000E94D027E0935306ACE0B0E00E94D02703
:1021C200E03014F0EB300CF006C0ACE0B0E00E945E
:1021D200D027E0935406ADE0B0E00E94D027E13072
:1021E20014F0EB300CF006C0ADE0B0E00E94D02756
:1021F200E0935506AEE0B0E00E94D027E03014F044
:10220200EF310CF006C0AEE0B0E00E94D027E093C0
:102212004006A0E0B0E00E94CC27DF01B39770F047
:10222200FD01E83EA3E0FA0748F4A0914905B09108
:102232004A05A03EE7E0BE0708F043C0F201A0E075
:10224200B0E00E94DC27F401A2E0B0E00E94DC27AB
:10225200E0913C06A6E0B0E00E94E427E0913D0652
:10226200A7E0B0E00E94E427E0912306AFE0B0E0EF
:102272000E94E427E0913F06A9E0B0E00E94E42733
:10228200E0915206AAE0B0E00E94E427E0915306F2
:10229200ABE0B0E00E94E427E0915406ACE0B0E08D
:1022A2000E94E427E0915506ADE0B0E00E94E427E9
:1022B200E0914006AEE0B0E00E94E427E1E0E09366
:1022C20027062090490530904A05E0912306F0E068
:1022D200E45BFF4F1491A0912306A23050F0E091ED
:1022E2002306E150F0E0E45BFF4FE491E11BEE0FC7
:1022F20001C0ECE30E2FF201662777270E94F82532
:10230200A0E0B4E284E799E40E94D026A0E0B0E025
:1023120080E09FE30E9432260E94BF253F010E9477
:10232200EA070E94CB07E0E0E0937E00E0E4E0935E
:102332007C00E0E0E0937B002092170630921806C2
:102342005E98569A5D98559A2B98239A2D9A2598BD
:10235200459A3D98439A3B98429A3A98449A3C98B7
:10236200A0E10E9403230E94AD22E4E4F0E0FA938C
:10237200EA93A0E0B0E00E94AD07ECE0F0E0FA934F
:10238200EA93A1E0B0E00E94AD07E4E1F0E0FA9345
:10239200EA93A2E0B0E00E94AD07ECE1F0E0FA932C
:1023A200EA93A3E0B0E00E94AD07E4E2F0E0FA9322
:1023B200EA93A4E0B0E00E94AD07ECE2F0E0FA9309
:1023C200EA93A5E0B0E00E94AD07E4E3F0E0FA93FF
:1023D200EA93A6E0B0E00E94AD07ECE3F0E0FA93E6
:1023E200EA93A7E0B0E00E94AD07E3EAE4BDE2E0D1
:1023F200E5BDA0913C06A1303CF0E0913C06AEE088
:10240200EA02F001EE5801C0E0E0E7BDE0E0E0934F
:10241200B600E0913D06E030B9F0E150A5E0EA02F5
:10242200F001E0932106E093B300E3E8E093B0000B
:10243200E4E0E093B100A8E2B0E00E947125E0E0A0
:10244200E093B000E093B100A8E0B0E00E94D02792
:10245200E0303CF0E3332CF4E0912706E03009F45D
:102462004BC00E94AD22A1E6B4E00E94F022E0E05F
:10247200E0931B06A0911B06A536B8F5E0911B065A
:10248200E8BDE695E0933E06E1E4F6E0FA93EA93CE
:10249200EAEEF3E0FA93EA93E0913E060E945927AE
:1024A2000E94B52784E00E948B242896E7E0EA93F5
:1024B200A1E00E949C22A1E4B6E00E94E122AAEFE0
:1024C200B0E00E947125A0911B06A43619F4E0E049
:1024D200E0931B061D9903C0E5E6E0931B06E0911D
:1024E2001B06EE5FE0931B06C5CFE0913E06A8E017
:1024F200B0E00E94E42706C0A8E0B0E00E94D02726
:10250200E0933E06E0913E06EE0FE8BDA0914B053A
:10251200B0914C05A237E5E7BE0720F0A091250651
:10252200AE3210F40C945E220E94AD222224332497
:10253200E1E0E0931B06A0911B06A131D8F4E091E3
:102542001B06F0E00F01EA5AF94FA081B0E0A7FDA7
:10255200BFEFF001E959F94FE081F0E0E7FDFFEF4D
:10256200EA0FFB1F2E0E3F1EE0911B06EF5FE0936A
:102572001B06E1CFF101EE0FFF1FE03FAEE0FA07CD
:1025820009F0FFCFA4E0B0E00E94CC2731960E9470
:10259200DC27E1E0F0E71F01EDEFFFE7E215F305CD
:1025A20038F0F101A491AF3F19F431961F01F4CF35
:1025B200EEEFFFE72E163F0630F4A4E0B0E0E4ECC5
:1025C200F9E00E94DC27A4E0B0E00E94CC27BF0122
:1025D2000F01F196E131A8E0FA0780F0F001EB5B20
:1025E200F740E135A1E0FA0748F4DB011197E091E9
:1025F2001706F0911806EA17FB0799F0AEEEB1E064
:102602000E945003AFE6B4E00E94F022A8EEB1E0CF
:102612000E945003A4E0B0E0E2E2F8EC0E94DC2762
:10262200FFCFA0914B05B0914C05A033E5E7BE0763
:1026320020F0A0912506AD3208F4FFCFA0916A06E2
:10264200E0916B06AE0FA938A9F4A0916C06E09157
:102652006D06AE0FAC3971F4A0915806E0915D069B
:10266200AE0FA03939F4A0915E06E0915F06AE0F7D
:10267200AE3D11F00C945E22A0914905B0914A053D
:10268200A03DE7E0BE0720F0A131E9E0BE0710F06F
:102692000C945E22A0E1B0E00E94D027E13010F05D
:1026A200E53008F00CC00E94AD22ACE7B4E00E9415
:1026B200F0220E9419070E948A07E030A1F30E94CB
:1026C200AD22A6E5B6E00E94E122A5E2B0E00E94BA
:1026D2007125A7E6B6E00E94E122A4EEB3E00E94D3
:1026E2007125E0E0E0931B06E0912506A0911B0610
:1026F200AE1760F4A0914B05B0914C050E945003B7
:10270200E0911B06EF5FE0931B06EECF0E94AD2225
:1027120022243324E1E0E0931B06A0911B06A131A1
:1027220090F4E0911B06F0E0DE01AE0FBF1FEC91CA
:10273200F0E0E7FDFFEF2E0E3F1EE0911B06EF5F7C
:10274200E0931B06EACFF101EE0FFF1FE238AAE089
:10275200FA0711F00C945E22DE010E94E122E09160
:102762001706F0911806E55DF7401F01E6E3F1E078
:10277200E219F3091F01EE0FFF1F329738F0F10142
:102782000E944F27E13BA4E0FA0708F0FFCFE1E403
:10279200F6E0FA93EA93E1EAF2E0FA93EA93F101BE
:1027A200662777270E94B52784E00E948B2428960B
:1027B200E7E0EA93A1E00E949C22A1E4B6E00E9435
:1027C200E122AFEDB3E00E947125E0E0E0931B0649
:1027D200E0912506A0911B06AE1760F4A0914B056F
:1027E200B0914C050E945003E0911B06EF5FE0930D
:1027F2001B06EECFF8940E943004E0912406E030EC
:1028020011F00C945C21E0E0E0931B06A0911B0602
:10281200AE3008F00FC1E0E0E0937A00E0911B06D1
:10282200A0911C06EA0FE0931D06EFEFF1E0E81914
:10283200F909E0934305F09344055E9B02C05E985C
:1028420001C05E9AE5E8E0937A00E0917A00E064E4
:10285200E0937A00E0917A00E074E1F7A0914305F9
:10286200B09144050E9450032A98D4010E9450035B
:102872002A9A000085E090E00197F1F7E0911D06A9
:10288200E150E0931D06E03039F00000000085E0E1
:1028920090E00197F1F7F2CFE0E0E4BDE5BDE09111
:1028A2007A00E064E0937A00E0917A00E074E1F764
:1028B200C0907800D0907900E0917A00E064E093D3
:1028C2007A00E0917A00E074E1F7E0917800F0910B
:1028D2007900E0933705F0933805E0917A00E064DF
:1028E200E0937A00E0917A00E074E1F7E0917800F9
:1028F200F0917900E0933905F0933A05E0917A007E
:10290200E064E0937A00E0917A00E074E1F7E0910C
:102912007800F0917900E0933B05F0933C05E0915B
:102922007A00E064E0937A00E0917A00E074E1F7E3
:10293200E0917800F0917900E0933D05F0933E0537
:10294200E3EAE4BDE2E0E5BDE0911B06AFE6B4E0F8
:10295200F0E0EE0FFF1FEA0FFB1FC082D182E09171
:102962001B06E25FAFE6B4E0F0E0EE0FFF1FEA0FF6
:10297200FB1FA0913705B0913805A083B183E09188
:102982001B06E45EAFE6B4E0F0E0EE0FFF1FEA0FD5
:10299200FB1FA0913905B0913A05A083B183E09164
:1029A2001B06E65DAFE6B4E0F0E0EE0FFF1FEA0FB4
:1029B200FB1FA0913B05B0913C05A083B183E09140
:1029C2001B06E85CAFE6B4E0F0E0EE0FFF1FEA0F93
:1029D200FB1FA0913D05B0913E05A083B183A0915C
:1029E2001B06AD3008F5A0911C06E3E7EA1BA09197
:1029F2001B06EA1BE0931D06000085E090E00197AC
:102A0200F1F7E0911D06E150E0931D06E03039F048
:102A12000000000085E090E00197F1F7F2CFD301CA
:102A2200A755B3400E945003E0911B06EF5FE0936D
:102A32001B06ECCEE1E4E0937C0022243324E091F7
:102A42002906E0931B06E0912A06A0911B06AE1709
:102A520098F4E0911B06AFE6B4E0F0E0EE0FFF1F42
:102A6200AE0FBF1F0E94AD272E0E3F1EE0911B0628
:102A7200EF5FE0931B06E7CF2AA63BA60A2C0B28A2
:102A820079F0AAA5BBA588279927ECA5FDA56627FD
:102A920077270E943E27FD01BC010E9454271F0197
:102AA200EAA5FBA5ECA7FDA7E0E0E0933F05E093D4
:102AB20040050A2C0B2809F0A6C0E0914F05F091C1
:102AC20050053097B9F5E0E0E0931B06A0911B0694
:102AD200AE3178F5E0911B06F0E0DE01AE54BF4F57
:102AE200EE0FFF1FAE0FBF1FE0E0F0E0ED93FC938F
:102AF200E0911B06F0E0DE01AA58BF4FEE0FFF1F68
:102B0200AE0FBF1FE0E0F0E0ED93FC93E0911B06F7
:102B1200F0E0DE01DA96EE0FFF1FAE0FBF1FE0E01E
:102B2200F0E0ED93FC93E0911B06EF5FE0931B0650
:102B3200CDCF50E0E1E0E0931B06A0911B06A6304A
:102B420008F5E0911B06ADE4B5E0F0E0EE0FFF1FE3
:102B5200AE0FBF1F0E94AD27309771F4E0911B06A4
:102B6200ADE4B5E0F0E0EE0FFF1FEA0FFB1F20829D
:102B72003182E6E0E0931B06E0911B06EF5FE093F3
:102B82001B06DBCFE0915705F0915805309771F1A4
:102B9200A0914F05B091500588279927E0915105E2
:102BA200F0915205662777270E943E27E091530550
:102BB200F0915405662777270E943E27E09155053C
:102BC200F0915605662777270E943E27E091570528
:102BD200F0915805662777270E943E27E5E0F0E04E
:102BE20060E070E00E94852731975F01E4E0E093A6
:102BF2002606E0E0EA93A1E00E949C22A5E8B4E068
:102C02000E94F02223C72A143B0440F4D501A219E2
:102C1200B309E12FF0E00E94722702C0E0E0F0E089
:102C2200E0934705F0934805E0912B06A091280612
:102C3200EA1770F0A23058F0D101A05BBF4FE3E079
:102C4200E19FF001AE0FBF1FAA15BB0508F008C037
:102C5200E0914705F0914805E0933F05F093400568
:102C6200E0914705F0914805309721F0E091280660
:102C7200EF5F01C0E0E0E0932806A0912806AF31A3
:102C820018F0EEE1E0932806E0912806E03029F002
:102C9200D1015496AA15BB0508F075C3CC24DD24D6
:102CA200E0E0E0933705E0933805E0933905E093DF
:102CB2003A05E0934105E0934205E0934305E09332
:102CC2004405E0934505E0934605E0931B06A09179
:102CD2001B06AC3008F041C0E0911B06AFE6B4E041
:102CE200F0E0EE0FFF1FAE0FBF1F0E94AD27A091B5
:102CF2004105B0914205EA0FFB1FE0934105F093B5
:102D02004205A0911B06B0E0AA0FBB1FAD56BB4FF8
:102D12000E94AD27A0914305B0914405EA0FFB1F25
:102D2200E0934305F0934405A0911B06B0E0AA0F7F
:102D3200BB1FA954BB4F0E94AD27A0914505B0917E
:102D42004605EA0FFB1FE0934505F0934605E09127
:102D52001B06EF5FE0931B06BACFE0914105F091AD
:102D62004205AAA9BBA9EA17FB0790F4E091430523
:102D7200F0914405A8A9B9A9EA17FB0748F4E09124
:102D82004505F0914605AEA5BFA5EA17FB0708F079
:102D920021C0A0914105B0914205EAA9FBA9EA1B15
:102DA200FB0B6F01A0914305B0914405E8A9F9A975
:102DB200EA1BFB0BE0933705F0933805A09145051C
:102DC200B0914605EEA5FFA5EA1BFB0BE093390582
:102DD200F0933A050C2C0D2829F0ECEDF5E0CE1617
:102DE200DF0608F0CBC0E22FF0E0DE01A25CBE4FAE
:102DF200EE0FFF1FEA0FFB1FC082D182E22FF0E02D
:102E0200DE01AA5EBE4FEE0FFF1FEA0FFB1FA0916D
:102E12003705B0913805A083B183E22FF0E0DE01DF
:102E2200A251BF4FEE0FFF1FEA0FFB1FA091390502
:102E3200B0913A05A083B183233118F4E22FEF5FFA
:102E420001C0E0E02E2FE0E0EAA3EBA3ECA3EDA3A8
:102E5200EE8FEF8FE8A3E9A3EA8FEB8FEC8FED8F74
:102E6200E0931B06A0911B06A43108F053C0E09129
:102E72001B06F0E0DE01A25CBE4FEE0FFF1FAE0F9D
:102E8200BF1FCD90DC900C2C0D2809F443C0F60135
:102E9200AAA1BBA18CA19DA1662777270E943927F1
:102EA200EAA3FBA36CA37DA3E0911B06F0E0DE0185
:102EB200AA5EBE4FEE0FFF1FAE0FBF1F0E94AD27CF
:102EC200AE8DBF8D88A199A1662777270E943927E9
:102ED200EE8FFF8F68A379A3E0911B06F0E0DE017D
:102EE200A251BF4FEE0FFF1FAE0FBF1F0E94AD27B3
:102EF200AA8DBB8D8C8D9D8D662777270E943927E1
:102F0200EA8FFB8F6C8F7D8FE0911B06EF5FE09362
:102F12001B06A8CFE0911B06DE01AC58BE4FEC9316
:102F2200AAA1BBA18CA19DA1FF27662777270E949A
:102F32008527DE01A659BE4FED93FC93E0911B0657
:102F4200AE8DBF8D88A199A1FF27662777270E94A2
:102F52008527DE01A859BE4FED93FC93E0911B0635
:102F6200AA8DBB8D8C8D9D8DFF27662777270E94AA
:102F72008527DE01AA59BE4FED93FC93DE01A659C7
:102F8200BE4F0D90BC91A02D1A9780F0DE01A8597A
:102F9200BE4F0D90BC91A02D1A9740F0DE01AA59A8
:102FA200BE4F0D90BC91A02D1A9708F4DCC1E091A0
:102FB2003F05F0914005309751F0DE01A659BE4F12
:102FC2000D90BC91A02DAC3DE5E0BE0708F0CAC152
:102FD200FE01EA59FE4F0190F081E02D6627772726
:102FE2000E94F825DF01CB01FE01E859FE4F019056
:102FF200F081E02D662777270E94F8250E94D026CF
:10300200EEA3FFA368A779A7AEA1BFA188A599A542
:10301200E0E0F0E068EC72E40E948226A3E4B5E00E
:103022000E94BF25ED93FC93A0914305B091440506
:10303200A436E0E0BE0710F0E3E602C0E0914305EB
:10304200DE01A259BE4FEC93DE01AC58BE4FAC91EB
:10305200A33020F0E0912206E03009F041C0E1E027
:10306200DE01AB58BE4FEC93FE01EF58FE4FE081FC
:10307200E03071F4E1E0DE01AF58BE4FEC93E0E0E6
:10308200EA93A0E00E949C22A4E0B4E00E94E12224
:10309200E1E4F6E0FA93EA93EAEEF3E0FA93EA93D4
:1030A200FE01EE58FE4FE081FF27662777270E9438
:1030B200B52784E00E948B242896E3E0EA93A0E0FF
:1030C2000E949C22A1E4B6E00E94E122DE01A25904
:1030D200BE4FAC91AA3020F4A5E1B4E00E94E122F7
:1030E200FE01E859FE4F0190F081E02D6627772717
:1030F2000E94F825DF01CB01EAA9FBA96627772701
:103102000E94F8250E9482267F936F93FF93EF938C
:10311200FE01E659FE4F0190F081E02D66277727E8
:103122000E94F825DF01CB01E8A9F9A966277727D4
:103132000E94F8250E948226AF91BF918F919F91A4
:103142000E94D026DF01CB010E94C724A6E6B6E684
:1031520086E29FE30E9432267F936F93FF93EF9361
:10316200AEA1BFA188A599A50E94C724AFE2BDED7B
:1031720084E49FE30E948226AF91BF918F919F9139
:103182000E94BF270E942B267F936F93FF93EF939A
:10319200E09140060E9459270E94F825AFE8B2EC60
:1031A20085EF9CE30E948226AF91BF918F919F9100
:1031B2000E94BF270E942B26EEA3FFA368A779A730
:1031C200A9A5AA23BAF431E0EDE2E98BE091400629
:1031D200E03039F0EEA1FFA168A579A50E948C2507
:1031E20004C0E0E0F0E060E070E0EEA3FFA368A7B7
:1031F20079A703C030E0EBE2E98BE0914006E030D2
:1032020051F0DE01A259BE4FAC91A93120F0AA348F
:1032120010F4303009F402C0E1E001C0E0E03E2FDA
:10322200303071F0DE01A159BE4FAC91A43030F4C0
:10323200FE01E159FE4FE081EF5F01C0E4E00DC005
:10324200DE01A159BE4FAC91A23030F0FE01E1592E
:10325200FE4FE081E25001C0E0E0DE01A159BE4F25
:10326200EC93DE01AC58BE4FAC91A33030F0DE01DE
:10327200A159BE4FAC91A33008F402C0E1E001C0F5
:10328200E0E03E2FDE01AC58BE4FAC91A33020F0FF
:10329200E0912206E03009F065C0AEA1BFA188A589
:1032A20099A5E0E0F0E068EC72E40E948226A3E4D3
:1032B200B5E00E94BF25ED93FC93A0914305B09128
:1032C2004405A436E0E0BE0730F0E3E6F0E0E09328
:1032D2004305F0934405E0914006E03051F0303070
:1032E20019F0A7E1B4E002C0AFE1B4E00E94E1222C
:1032F20012C0A0914305B0914405E3E6F0E0EA1B59
:10330200FB0BE0934305F0934405E0E2E98BA7E26F
:10331200B4E00E94E122E1E4F6E0FA93EA93EAEBF8
:10332200F4E0FA93EA93ED890E9459270E94B527A7
:10333200E0914305F0914405662777270E94B5275F
:1033420088E00E948B242C96A1E4B6E00E94E12240
:10335200A0914305B09144051A9720F4AFE2B4E07E
:103362000E94E1220AC0E0E0DE01A159BE4FEC93C7
:1033720030E0DE01AB58BE4FEC93E0E0DE01A05935
:10338200BE4FEC9380C0FE01EF58FE4FE081E0306B
:1033920021F0E0912206E03009F01CC0DE01A059C4
:1033A200BE4FEC91EF5FEC936E2FD201E6E0F0E0BE
:1033B2000E947227A62FB0E0EA17FB0758F4E0E05C
:1033C200DE01A059BE4FEC93DE01AF58BE4FEC9325
:1033D2000E94CB03E0E0E0931B06A0911B06A43100
:1033E20080F5E0911B06F0E0DE01A25CBE4FEE0F1D
:1033F200FF1FAE0FBF1FE0E0F0E0ED93FC93E09102
:103402001B06F0E0DE01AA5EBE4FEE0FFF1FAE0FFD
:10341200BF1FE0E0F0E0ED93FC93E0911B06F0E0CB
:10342200DE01A251BF4FEE0FFF1FAE0FBF1FE0E044
:10343200F0E0ED93FC93E0911B06EF5FE0931B0637
:10344200CCCFE0E0DE01A159BE4FEC9330E020E0AA
:10345200DE01AC58BE4FEC93DE01A659BE4FED9390
:10346200EC93DE01A859BE4FED93EC93DE01AA590D
:10347200BE4FED93EC93DE01AB58BE4FEC93DE01F1
:10348200A259BE4FEC93E0913F05F0914005309771
:1034920081F0E0913D06E03061F0DE01A459BE4FBB
:1034A2000D90BC91A02DA139E0E0BE0710F03030A4
:1034B20009F0CCC0A0915206A9300CF44CC0A9303E
:1034C20011F0AA30B1F4F501E219F3096627772762
:1034D2000E94F825DF01CB010E94C724A0E0B0E0E2
:1034E20080E791E40E948226A7E2B6E00E94BF250F
:1034F200EC93E2E4E093B000E5E0E093B100A09148
:103502005206A93051F4A0912706AB3920F4E0917C
:103512002706EC5901C0EFEF1BC0A0915206AA305A
:1035220049F4A0912706AB3918F4EFEFEA1B01C06A
:10353200E4E60EC0A0915206AB3061F4FE01E259FE
:10354200FE4FE081E03019F0EE0FE75C01C0E9E3E5
:10355200E093B3007AC0A0913F05B0914005519726
:1035620030F4E0913F05F0914005319701C0EFE062
:10357200E0932706E0912106A0912706EA0FE09347
:103582002706A0912706AE3208F401C0EDE2E093CF
:10359200B300E3E8E093B000E0915206E830B1F402
:1035A200A0913F05B0914005A135E0E0BE0710F0C3
:1035B200E6E009C0A0913F05B0914005519710F097
:1035C200E5E001C0E4E0E093B1003FC0E130D1F1B9
:1035D200E23011F4E5E037C0E33011F4E6E033C045
:1035E200E43051F4A091B100A43011F4E5E001C03F
:1035F200E4E0E093B10029C0E53051F4A091B100BC
:10360200A53011F4E6E001C0E5E0E093B1001DC091
:10361200E63051F4A091B100A43011F4E6E001C00B
:10362200E4E0E093B10011C0E73079F4A091B10079
:10363200A43011F4E5E007C0A091B100A53011F467
:10364200E6E001C0E4E0E093B10005C0E0E0E09311
:10365200B000E093B100E0E0EA93A1E00E949C2276
:10366200E0913F05F0914005309709F41BC1E091CC
:103672003D06E03021F4E0913C06E03009F427C039
:103682003030F1F4DE01AD58BE4FEC91EF5FEC93B8
:103692006E2FD201E6E9F0E00E947227A62FB0E079
:1036A200AE17BF0760F0E7B5EF3711F0EFE701C0E3
:1036B200E9EAE7BDE0E0DE01AD58BE4FEC9307C09A
:1036C200E0913C06AEE0EA02F001EE58E7BDF501FA
:1036D200E219F309E0933705F0933805E12FA09141
:1036E2003705B0913805F0E0AE1BBF0BFD01F69532
:1036F200E7953396662777270E94F825DF01CB01ED
:103702000E94C724A7E2B6E00E94BF25EC93E1E045
:10371200E0931B06E0912706A0911B06EA1710F022
:10372200A83008F00AC0A0911B060E94C122E091B5
:103732001B06EF5FE0931B06EDCFA0912706A83092
:1037420020F0A1E3B4E00E94E122A0911B06E9E08F
:10375200EA1BE0931B06E0911B06E150E0931B0677
:10376200EF5F29F0A3E3B4E00E94E122F4CFA0913D
:103772003705B0913805E3E0F0E00E947227E0934C
:103782003705F0933805A0913705B0913805A83E6A
:10379200E3E0BE0730F0E7EEF3E0E0933705F093A5
:1037A2003805E42FF0E0DE01D496EE0FFF1FEA0F9A
:1037B200FB1FA0913705B0913805A083B183E0E0EB
:1037C200E0933705E0933805E0931B06A0911B06B2
:1037D200A33008F5E0911B06F0E0DE01D496EE0F6F
:1037E200FF1FAE0FBF1FCD90DC900C2C0D2861F097
:1037F200F601A0913705B0913805EA0FFB1FE0935F
:103802003705F093380501C006C0E0911B06EF5F53
:10381200E0931B06DBCFE0911B06A0913705B09128
:103822003805F0E00E947227E0933705F0933805DF
:10383200E1E4F6E0FA93EA93E1EAF2E0FA93EA933A
:10384200E0913705F0913805662777270E94B52762
:1038520084E00E948B242896E8E0EA93A1E00E948B
:103862009C22A1E4B6E00E94E122A0913705B0912A
:1038720038051A9718F4A5E3B4E00AC0A0913705F9
:10388200B0913805A436E0E0BE0720F4A8E3B4E026
:103892000E94E122423018F4E42FEF5F01C0E0E021
:1038A2004E2FD4C0E0913D06E03021F4E0913C0679
:1038B200E03009F407C0E0913C06AEE0EA02F00114
:1038C200EE58E7BDE0E0ECABEDABEEABEFABE8AF53
:1038D200E9AF40E0DE01AD58BE4FEC93E02FF0E0DF
:1038E200EA0DFB1D2E163F06C8F4AAE3B4E00E94BF
:1038F200E122DE01A459BE4F0D90BC91A02DA13949
:10390200E0E0BE0728F0E0E0E0931906E0931A0633
:10391200E0E0DE01AE58BE4FEC9390C0E12FF0E044
:10392200EA0DFB1D2E163F0608F47DC0A9E1B6E0A4
:10393200ED91FD913196FE93EE93DE01AE58BE4FAE
:10394200AC91AE3130F4FE01EE58FE4FE081EF5FF4
:1039520001C0EEE1DE01AE58BE4FEC93E0912B06C2
:10396200EE5FDE01AE58BE4FAC91EA1708F052C0CE
:10397200D101AA19BB09E3E0F0E00E947227E093AB
:103982004705F0934805A0914705B0914805A83E28
:10399200E3E0BE0730F0E7EEF3E0E0934705F09393
:1039A2004805E1E4F6E0FA93EA93EDECF4E0FA93E9
:1039B200EA93E0914705F0914805662777270E9430
:1039C200B52784E00E948B242896A1E4B6E00E94E9
:1039D200E122A0914705B09148051A9718F4A6E490
:1039E200B4E00AC0A0914705B0914805A436E0E0D2
:1039F200BE0720F4A9E4B4E00E94E122E09154065B
:103A0200E03039F4A9E1B6E0ED91FD913196FE93F3
:103A1200EE9308C0ABE4B4E00E94E12284EF91E0AF
:103A22000197F1F70FC0A7E5B4E00E94E122A9E1F6
:103A3200B6E0ED91FD913196FE93EE9384EF91E025
:103A42000197F1F788EE93E00197F1F7E0912206F2
:103A5200E03009F4EEC0A0912206A130B1F5E2E017
:103A6200EA93A0E00E949C22E1E4F6E0FA93EA9352
:103A7200E1EAF2E0FA93EA93F101662777270E94DE
:103A8200B52784E00E948B242896A1E4B6E00E9428
:103A9200E122E0E1F7E22E163F0620F4A3E6B4E0CD
:103AA2000E94E122E8EEF3E02E163F0620F4A5E69E
:103AB200B4E00E94E122E4E6F0E02E163F0620F494
:103AC200A7E6B4E00E94E122B4C0DE01A659BE4FCF
:103AD2000D90BC91A02DEAA9FBA9EA1BFB0BDF010B
:103AE200EDE0F0E00E947227E0934305F093440575
:103AF200E1E4F6E0FA93EA93E1EAF2E0FA93EA9378
:103B0200E0914305F0914405662777270E94B52787
:103B120084E00E948B242896E2E0EA93A0E00E94CF
:103B22009C22A1E4B6E00E94E122A0914305B0915B
:103B32004405A436E0E0BE0720F4A9E6B4E00E9402
:103B4200E122DE01A859BE4F0D90BC91A02DE8A93B
:103B5200F9A9EA1BFB0BDF01EDE0F0E00E947227FE
:103B6200E0934305F0934405E1E4F6E0FA93EA9327
:103B7200E1EAF2E0FA93EA93E0914305F091440519
:103B8200662777270E94B52784E00E948B24289617
:103B9200E7E0EA93A0E00E949C22A1E4B6E00E9442
:103BA200E122A0914305B0914405A436E0E0BE07AE
:103BB20020F4ABE6B4E00E94E122DE01AA59BE4F36
:103BC2000D90BC91A02DEEA5FFA5EA1BFB0BDF011A
:103BD200EDE0F0E00E947227E0934305F093440584
:103BE200E1E4F6E0FA93EA93E1EAF2E0FA93EA9387
:103BF200E0914305F0914405662777270E94B52797
:103C020084E00E948B242896ECE0EA93A0E00E94D4
:103C12009C22A1E4B6E00E94E122A0914305B0916A
:103C22004405A436E0E0BE0720F4ADE6B4E00E940D
:103C3200E122E0915406E03069F0E0912806E0309C
:103C420031F0E0916105F0916205309719F40A2C88
:103C52000B2809F488C0E12FF0E0EA0DFB1D2E16B7
:103C62003F0628F0A0912006A43009F061C0E0913F
:103C72005406AAE0EA02F001E0932706A091260684
:103C8200AE1720F4E0912606EF5F01C0E1E0E09379
:103C92002606ADE4B5E0F0E0EE0FFF1FEA0FFB1FD2
:103CA20020823182E0E0EE8BEF8BE88FE98FE1E05A
:103CB200E0931B06E0912706A0911B06EA1718F174
:103CC200E0911B06ADE4B5E0F0E0EE0FFF1FAE0F92
:103CD200BF1FCD90DC900C2C0D2871F0F601AE893F
:103CE200BF89888D998D662777270E943927EE8BA9
:103CF200FF8B688F798F01C006C0E0911B06EF5FD2
:103D0200E0931B06D7CFA0911B06A63068F0E09186
:103D12001B06E150AE89BF89888D998DFF276627E2
:103D220077270E9485275F01E0E0E09320061AC012
:103D3200A0912006A43020F4E0912006EF5F01C09C
:103D4200E4E0E0932006FE01EB58FE4FE081E03014
:103D520049F4A0915406EFE1EA9FF001B596DF0124
:103D62000E9450030FC0FE01EB58FE4FE081E0308D
:103D720049F4A0915406EFE1EA9FF001B696DF0103
:103D82000E945003E0912806E03021F4E0912006E1
:103D9200E03009F009C1CC24DD24E0E0E0933705EE
:103DA200E0933805E0933905E0933A05EAA3EBA3E3
:103DB200ECA3EDA3EE8FEF8FE8A3E9A3EA8FEB8FDD
:103DC200EC8FED8FE0931B06A0911B06AC30C8F57B
:103DD200E0911B06AFE6B4E0F0E0EE0FFF1FAE0F7E
:103DE200BF1F0E94AD27CE0EDF1EA0911B06B0E0C2
:103DF200AA0FBB1FAD56BB4F0E94AD27A09137053E
:103E0200B0913805EA0FFB1FE0933705F0933805B0
:103E1200A0911B06B0E0AA0FBB1FA954BB4F0E9482
:103E2200AD27A0913905B0913A05EA0FFB1FE09347
:103E32003905F0933A05E0911B06EF5FE0931B060C
:103E4200C3CFE52FF0E0DE01AE54BF4FEE0FFF1FF0
:103E5200EA0FFB1FC082D182E52FF0E0DE01AA58F3
:103E6200BF4FEE0FFF1FEA0FFB1FA0913705B09166
:103E72003805A083B183E52FF0E0DE01DA96EE0F7C
:103E8200FF1FEA0FFB1FA0913905B0913A05A083ED
:103E9200B183E0E0E0931B06A0911B06AE3108F06F
:103EA20052C0E0911B06F0E0DE01AE54BF4FEE0FB0
:103EB200FF1FAE0FBF1FCD90DC900C2C0D2809F414
:103EC20042C0F601AAA1BBA18CA19DA166277727BA
:103ED2000E943927EAA3FBA36CA37DA3E0911B06F2
:103EE200F0E0DE01AA58BF4FEE0FFF1FAE0FBF1F5B
:103EF2000E94AD27AE8DBF8D88A199A16627772735
:103F02000E943927EE8FFF8F68A379A3E0911B06E9
:103F1200F0E0DE01DA96EE0FFF1FAE0FBF1F0E9428
:103F2200AD27AA8DBB8D8C8D9D8D662777270E942C
:103F32003927EA8FFB8F6C8F7D8FE0911B06EF5F35
:103F4200E0931B06A9CFE0911B06E03061F1AAA124
:103F5200BBA18CA19DA1FF27662777270E948527F9
:103F6200EAABFBABE0911B06AE8DBF8D88A199A198
:103F7200FF27662777270E948527E8ABF9ABE091F8
:103F82001B06AA8DBB8D8C8D9D8DFF2766277727FB
:103F92000E948527EEA7FFA75D3118F4E52FEF5F9A
:103FA20001C0E0E05E2F0AC0FE01EB58FE4FE08147
:103FB200E03021F48DE498E00197F1F7339B02C0E1
:103FC2003599FEC0339902C0E1E003C0359903C0C0
:103FD200E2E0E0932706E0913D06E03031F0E0E0D8
:103FE200E093B000E093B10009C0E0913C06E030FC
:103FF20029F0AEE0EA02F001EE58E7BD0E94AD22E0
:10400200A4EEB4E00E94F022A0911706B091180627
:10401200AD30E9E0BE0790F4D196A031E8E0BE07EA
:1040220068F0A0911706B0911806E2E00E946C2792
:10403200E05AFF40E737A2E0FA0708F03EC2A0913B
:104042004B05B0914C05AA33E5E7BE0720F0A091DD
:104052002506AF3208F431C2A9E1B0E00E94712511
:10406200E0E0E0931B06A0911B06A93008F04FC0C8
:10407200339B04C0A0912706A13021F4A09123060E
:10408200A43108F008C0E0912306EF5FE093230615
:10409200E1E0E0931B06359B04C0A0912706A23005
:1040A20021F4A0912306A23008F408C0E09123066F
:1040B200E150E0932306E1E0E0931B06E1E4F6E041
:1040C200FA93EA93EAEEF3E0FA93EA93E091230695
:1040D200FF27662777270E94B52784E00E948B245A
:1040E2002896E7E0EA93A1E00E949C22A1E4B6E0D0
:1040F2000E94E122AFEAB0E00E947125E0E0E09385
:104102002706E0911B06EF5FE0931B06ACCF22244B
:104112003324E1E0E0931B06A0911B06A131D8F401
:10412200E0911B06F0E00F01EA5AF94FA081B0E0DE
:10413200A7FDBFEFF001E959F94FE081F0E0E7FD9B
:10414200FFEFEA0FFB1F2E0E3F1EE0911B06EF5FF3
:10415200E0931B06E1CFF101A3E0B0E00E946427E7
:10416200E836A6E1FA0709F0A8C1E0912306F0E0DB
:10417200E45BFF4F1491A0912306A23050F0E0912E
:104182002306E150F0E0E45BFF4FE491E11BEE0F08
:1041920001C0ECE30E2FE0E0E0932806DE01AE580A
:1041A200BE4FEC93E0932006DE01AB58BE4FEC937A
:1041B200DE01AF58BE4FEC930E94AD220E94CB03AA
:1041C200349923C0E0E0E093B000E093B100A09105
:1041D2002206A23020F4E0912206EF5F01C0E0E067
:1041E200E09322060E94CB03E0E0DE01AE58BE4F10
:1041F200EC93DE01A059BE4FEC93DE01AF58BE4FE7
:10420200EC93A8ECB0E00E947125DE01A459BE4FE8
:104212000D90BC91A02DA139E0E0BE0738F4A9E1D0
:10422200B6E0ED91FD913196FE93EE93A0911906C1
:10423200B0911A06E3E00E946C274E165F0610F456
:104242000E94BD0FEFEEFCE06F01A0915406EFE17A
:10425200EA9FF001CE0EDF1EFE01EB58FE4FE08119
:10426200E03021F0F601E055FB4F09C0E0913F0537
:10427200F0914005309721F0F601E057FE4F6F01B3
:10428200A0912206A13021F4F601E459FD4F6F01FD
:10429200A0912206A23021F4F601EC5EFA4F6F01E2
:1042A200C614D70438F4F301EC19FD093696DF0180
:1042B2000E9450030EC0E1E4E0937C00A6E9B0E066
:1042C2000E947125E0E0EA93A1E035D1A3EFB4E0CA
:1042D20086D11D990FC00E942408E0E0DE01AF588C
:1042E200BE4FEC93DE01AE58BE4FEC93DE01AB58ED
:1042F200BE4FEC9332990FC00E943004E0E0DE0121
:10430200AE58BE4FEC93DE01AF58BE4FEC93DE01C8
:10431200AB58BE4FEC93E1E4E0937C00FE01EB5816
:10432200FE4FE081E03059F0DE01A459BE4F0D90FE
:10433200BC91A02DA239E0E0BE0708F07AC0E0915E
:104342007A00E064E0937A00E0917A00E074E1F7A9
:10435200E0917800F0917900DE01A459BE4FED930F
:10436200FC93662777270E94F825A2EBBEE28EE82F
:104372009EE30E948226A3E3B3E383E590E40E94D6
:104382003226DE01A459BE4F0E94BF25ED93FC9355
:10439200DE01A459BE4F0D90BC91A02DA139E0E0E1
:1043A200BE0758F4E0E0E093B000E093B100EA9376
:1043B200A1E0C1D0AFEFB4E012D1E1E4F6E0FA93AC
:1043C200EA93EBE0F5E0FA93EA93DE01A059BE4FDF
:1043D2000D90BC91A02DEAE0F0E00E9472276627C2
:1043E20077270E94B527DE01AC58BE4F0D90BC91D5
:1043F200A02DEAE0F0E00E94AA27662777270E9414
:10440200B52788E00E948B242C96ECE0EA93A1E089
:1044120092D0A1E4B6E0D4D0DE01A459BE4F0D90F3
:10442200BC91A02DA436E0E0BE0718F4A3EBB2E0E5
:10443200D6D0E0E4E0937C00EA89FB896C897D892F
:10444200EF5FFF4F6F4F7F4FEA8BFB8B6C8B7D8B48
:10445200E0912406E03019F0EDE5F0E001C0F20150
:104462006F01AA89BB898C899D89662777270E945B
:104472008527E030A3E0FA07A0E06A07A0E07A0708
:10448200D0F0A4E0B0E00E94CC2731960E94DC2755
:10449200A9E4B5E0ED91FD913196FE93EE93E0E053
:1044A200EA8BEB8BEC8BED8BA7E1B6E0ED91FD9106
:1044B2003196FE93EE930C94FE13EF96E796DF5F30
:1044C200FFCFAA93E881E07111F05A9A01C05A987D
:1044D200E881E07211F05B9A01C05B98E881E074B8
:1044E20011F05C9A01C05C98E881E07811F0289A9A
:1044F20001C0289881E28A95F1F7599A81E28A955A
:10450200F1F7599881E28A95F1F7B6C0AA93A8818A
:10451200D8DFE881E295E883A881D3DF8AEF90E0D3
:104522000197F1F7A9C0AA93A981F0DF589AA8814F
:10453200EDDF58980FC0AA93E881F0E0E858F94FF0
:10454200E081A981AE0FE2DFE981E0937C06E88198
:10455200E0937D0622960895A2E0D8DFA3E0B0E0C2
:104562000E947125ACE0D2DFA1E0D0DFA3E0B0E091
:104572000E947125E0E0E0937D06E0937C060895B9
:10458200AA93A881AA3031F0E0917E06A0917C0620
:10459200AE1760F0E0E0EA93A0917D06AF5FA093D2
:1045A2007D06C9DFA881AA3009F466C0E0917C06C5
:1045B200EF5FE0937C06589AA881A8DF58985CC008
:1045C200BA93AA931A93A981BA81ED91A983BA8366
:1045D2001E2FE03019F0A12FD3DFF5CF10C0BA9310
:1045E200AA931A93E981FA813196E983FA83319782
:1045F200E4911E2FE03019F0A12FC2DFF3CF188112
:1046020023960895AA93529A539A549A209A519AA9
:10461200509A579A599858985F98E881E0937E0685
:10462200E058E0937A06E881E054E0937B06A4E147
:10463200B0E00E947125A0E344DF84EF91E001978E
:10464200F1F7A0E33EDF84EF91E00197F1F7A0E3F9
:1046520038DF84EF91E00197F1F7A0E232DF84EFD7
:1046620091E00197F1F7A8E251DFA4E04FDFA5E85E
:104672004DDFA6E04BDF70DF21960895BA93AA932F
:104682001A930A93AA81BB8112960E94AD27309792
:1046920059F1AA81BB8114960E94AD278F013097F0
:1046A20061F00230E0E01E0798F0F80131978F01C7
:1046B200AA81BB811496ED93FC93AA81BB811296C9
:1046C200ED91FD913196FE93EE933197AC81A083EB
:1046D200AA81BB810E94AD27FF232AF0ED91FD91B3
:1046E2003196FE93EE9306C0AA81BB81EFEFFFEFF6
:1046F200ED93FC931981088125960895BA93AA93A4
:1047020024970E94FB2710E0AA85BB85E0E0F0E039
:10471200ED93FC93E889F9893196E88BF98B31970F
:10472200E4913E2FE03009F4EDC0E12FE03059F47E
:10473200353211F411E006C03A93AB85BC85ED85A4
:10474200FE850995DEC0E130A9F4353239F43A9399
:10475200AB85BC85ED85FE850995D2C012E020E0CF
:1047620000E03B3211F42BE2CCC0303211F420E2F3
:10477200C8C002C0E23031F4303319F4006115E0F0
:10478200C0C003C0E53009F0BCC0E32FE33669F4D2
:10479200EE85FF853497EE87FF87A481AA93AB85C8
:1047A200BC85ED85FE850995ABC0E337E1F4EE8566
:1047B200FF853497EE87FF87AE85BF8514960E94EA
:1047C200AD27EE83FF83AE81BF81ED91AE83BF83C0
:1047D2003E2FE03039F03A93AB85BC85ED85FE85FE
:1047E2000995F1CF8DC0E037F1F4EE85FF8534975E
:1047F200EE87FF87AE85BF8514960E94AD27EE83B4
:10480200FF83EE81FF813196EE83FF833197E4913E
:104812003E2FE03039F03A93AB85BC85ED85FE85BD
:104822000995EFCF6DC0E43611F0E93611F401605D
:1048320002C0E53719F4E2E6F0E009C0E83511F408
:10484200026003C0E83709F05BC0ECE6F0E0EE83FB
:10485200FF8300FF1AC0EE85FF853497EE87FF873E
:10486200AE85BF8514964D915C9155232AF4FA01C9
:104872000E944327AF012DE2203031F02A93AB850D
:10488200BC85ED85FE8509950AC0EE85FF853497C6
:10489200EE87FF87AE85BF8514964D915C9130E31C
:1048A200EE81FF810E94B127E887F987EE81FF81BF
:1048B2003296EE83FF83E885F9854E175F0730F065
:1048C2003F5FA885B9854A1B5B0BF5CF04FD06C087
:1048D200313320F4A885B985119771F400613A3318
:1048E20028F001FF02C0395F01C0395D3A93AB8500
:1048F200BC85ED85FE850995A885B985129778F660
:1049020010E008CFAA85BB850E94AD270E9402282D
:1049120062960895FF92F82E26970E94FD27DE01E7
:104922001C960E9435270E94AD27309719F4EFEFAD
:10493200FFEF27C0DE0116960E9435278D01DE01AA
:104942001C960E9435270E94AD27EE83FF83E0E08C
:10495200E887E987DE011A960E9435270E94AD2773
:10496200FA93EA931A930A93EFE3F3E2FA93EA9340
:10497200DE011A96C3DE9F01AE81BF81E0E0EC93B7
:10498200F9010E9404282A96FF9008950E94BA27EE
:1049920024971A930A93AE81BF81888599850E94D4
:1049A200F5272CF0EFEFFFEF6FE77FEF95C0EE8179
:1049B200FF81688579850E94B527ADB7BEB711978B
:1049C2001F930F930E947B250F911F91EE83FF830C
:1049D20068877987AE81BF8188859985E3EFF4E0A6
:1049E20065E37FE30E94152760F4EE81FF8168850D
:1049F20079850E943226EE83FF836887798701508A
:104A02001040EE81FF8168857985A0E0B0E080E802
:104A12009FE30E942B267F936F93FF93EF93EE8188
:104A2200FF8168857985A0E0B0E080E89FE30E947D
:104A32003226AF91BF918F919F910E94D026EE8333
:104A4200FF8368877987AE81BF81888599850E94B7
:104A52008226EA83FB836C837D83A6E2B2E485E649
:104A62009FE30E948226DF01CB01EEE4F1E164E5DF
:104A720070E40E94BF270E942B26AE81BF818885E9
:104A820099850E9482267F936F93FF93EF93EA8129
:104A9200FB816C817D81ADE4B1E184ED9FE30E94F5
:104AA2002B26AF91BF918F919F910E94D0267F9329
:104AB2006F93FF93EF93F8010E945F270E94F825FE
:104AC200A8E1B2E781E39FE30E948226AF91BF9102
:104AD2008F919F910E943226198108812A9608950A
:104AE200109639F088E893E10197F1F7A8951197AC
:104AF200C9F70895E991F9916991799177FB660F68
:104B0200771F88277E57880B7D938C937EE7769557
:104B120067950EF0089530976040704009F0705824
:104B22000895552342F4503811F4E0FF04C0319641
:104B3200691F791F6BF050E8572711F45F93CFC0BC
:104B42005F3F31F0660F000C57956795752F0895FA
:104B52005F9300200AF0CFC0C8C050E8192E15227A
:104B6200880F991F9527550F879550E8072E052224
:104B7200660F771F7527550F67950895689401C0D2
:104B8200E8945F93F2DF703818F07F3F08F4A7C013
:104B920056E1571BAAF4519558300EF4593030F0B3
:104BA200EFEFFFEF6FEF7FE777F91AC07727552313
:104BB200B9F0EE0FFF1F661F771F5A95D1F710C08D
:104BC2007727583028F0EF2FF62F672F5850F9CF5C
:104BD200552331F076956795F795E7955A95D1F774
:104BE20000200AF453D15F910895689401C0E894BB
:104BF200309760407040B1F0002426F0772312F421
:104C0200009444D1172E7EE1112032F07A95EE0FF6
:104C1200FF1F661F111CF9CFEF2FF62F612D5F9337
:104C22008ADF5F9108954F93AF01FD01DA01AB0175
:104C3200BC01CA01402D012C142E4F910895EA0F98
:104C4200FB1F681F0895E095F0956095EF5FFF4F99
:104C52006F4F08955F9381DF903871F150E8152608
:104C620004C05F937ADF903839F1703821F1572F01
:104C7200591B2BF112F4D7DFFACF583118F0AA27BB
:104C8200BB278827583028F0AB2FB82F88275850D9
:104C9200F9CF552329F08695B795A7955A95D9F757
:104CA200502D512572F0CBDF38F46795F795E795D3
:104CB200739513F420C0B7DF3EDF5F910895D8F7F4
:104CC200FBCFEA1BFB0B680B51F010F40094BBDF27
:104CD200662392F3EE0FFF1F661F7A95CBF7EE273E
:104CE200FF27662777275F910895EFEFFFEF6FE7C2
:104CF2007FEF5F910895EFEFFFEF6FE77FE75F913F
:104D020008955F932ADF703851F3903841F30124FC
:104D12000894791F23F41CF300203AF3ECCF0F928E
:104D22001F932F933F934F93112722279927689F11
:104D3200A0018F9F302D410D591F6B9F300D411DDA
:104D4200591F8E9F27D0BF9F25D06A9F23D0BE9F19
:104D52001DD0AF9F1BD0AE9F110D291F391F491FB8
:104D6200591FE32FF42F652F522F4F913F912F910F
:104D72001F910F9066232AF0550FEE1FFF1F661F2B
:104D820002C073954BF2CDDE5F910895100D211D87
:104D9200391F02C0200D311D491F591F08955F930D
:104DA200DCDE703821F411200AF49FCFA4CF9038B2
:104DB20009F495CF01240894970B1BF4D4F3002037
:104DC200F3CF792F1F932F933F934F9311241127E2
:104DD200222733274427552790E2AE17BF078607BD
:104DE200410730F0AE1BBF0B860B410B089401C08C
:104DF2008894551F221F331F111CAA1FBB1F881F17
:104E0200441F9A9551F7F901612D4F913F912F91CE
:104E12001F91662332F0550FEE1FFF1F661F7A9512
:104E220043F27FDE5F91089599239AF0772342F04F
:104E3200971748F029F4AE17BF07860720F031F024
:104E4200989488940895989408940895189488944E
:104E520008957723C2F7971798F3A9F7EA17FB0784
:104E6200680788F399F3ECCF0024AF0DB01D0895C5
:104E7200EA0FFB1F681F791F0895AE0FBF1F861F21
:104E8200971F0895F195E195F0400895F09560958A
:104E92007095E195FF4F6F4F7F4F0895EE0FFF1F03
:104EA200EE0FFF1F089576956795F795E79508959C
:104EB200FE2FFF0FFF0B6F2F7F2F08956F2F660FAF
:104EC200660B762F0895FA9FF02DEB9FF00DEA9F67
:104ED200E02DF10D08956E2F6A9FF0016B9FF00D8A
:104EE20008950024112490E1AA0FBB1F001C111C7D
:104EF2000E1A1F0A18F40E0E1F1E01C0A1609A9509
:104F020099F7FD01D00108953F934F935F930024D9
:104F120011244427552730E2AA0FBB1F881F991F6F
:104F2200001C111C441F551F0E1A1F0A460B570B5B
:104F320028F40E0E1F1E461F571F01C0A1603A958E
:104F420059F7FD01BC01D001CA015F914F913F9118
:104F52000895C7DFFD010895ED91FC911197089521
:104F62000590F491E02D08957A936A93FA93EA9367
:104F720008959A938A93BA93AA930895182E862F26
:104F8200612D192E972F712D1B2EBF2FF12D1A2E49
:104F9200AE2FE12D0895119602D0FE2F1197F999A7
:104FA200FECFFF93FFB7F894A1BDB2BDF89AE0B56A
:104FB200FFBFFF91089507D01196EF93EF2F03D013
:104FC200EF9111970895F99B02C0A895FCCF9FB766
:104FD200F894A1BDB2BDF89A80B5E81719F0E0BD0A
:104FE200FA9AF99A9FBF089500240A160B0608063A
:104FF200090608955A934A933A932A931A930A9365
:1050020008955D814C813B812A811981088108952F
:105012009927AC0FBD1F05900D920197E1F70895F6
:00000001FF
