:020000000C945E
:100002002703080C1E1F1E0C080000000000000041
:10001200031F0000000000031F1F00000000031F59
:100022001F1F000000031F1F1F1F0000031F1F1FB1
:100032001F1F00031F1F1F1F1F1F031F1F1F1F1F25
:100042001F1F020504040414080000CDAF9682733A
:10005200645546382E241E1915120F0C090603008A
:100062001027E80364000A000100001000011000DC
:100072000100C9000000A000027A00000000000098
:10008200000000000000120001003100000000002A
:100092000000000000000000000000000000050059
:1000A200020000000000000008002C00050008000B
:1000B200202046656C657A4A6F6F202050492020C7
:1000C200000020202044454D4F2076332E32302030
:1000D200202000008300040005000600A3000200A7
:1000E2000403140324033403440354036403740316
:1000F20084039403A403B403C4032048616D6964B8
:100102002028204952414E20292000202044657396
:1001120069676E65642042793A2020002052656D3D
:1001220061696E696E67205573653A2000000000B0
:1001320000000000000000000000000000000000BD
:1001420000000000000000000000000000000000AD
:10015200000000000000000000000000000000009D
:10016200000000000000000000000000000000008D
:10017200000000000000000000000000000000007D
:10018200000000000000000000000000000000006D
:10019200000000000000000000000000000000005D
:1001A200000000000000000000000000000000004D
:1001B200000000000000000000000000000000003D
:1001C200000000000000000000000000000000002D
:1001D200000000000000000000000000000000001D
:1001E200000000000000000000000000000000000D
:1001F20000000000000000000000000000000000FD
:1002020000000000000000000000000000000000EC
:1002120000000000000000000000000000000000DC
:1002220000000000000000000000000000000000CC
:1002320000000000000000000000000000000000BC
:1002420000000000000000000000000000000000AC
:10025200000000000000000000000000000000009C
:10026200000000000000000000000000000000008C
:10027200000000000000000000000000000000007C
:1002820000000000000000009600000000000000D6
:1002920000005325752044257520462575205025DC
:1002A2007500532575204425754625752050257502
:1002B2000020003D2020202020202020202020205F
:1002C20020200020412020202042202020204320E6
:1002D20020202000202020202044656C61793A00F3
:1002E2002020436F696C204572726F7220210025B5
:1002F2007520284155544F2900257520282B257536
:1003020029004672657175656E6379202020202070
:10031200200050756C736520576964746820202032
:10032200200044656C61792020202020202020209C
:100332002000496E7465672E57202020202020203F
:10034200200047726F756E6420202020202020201C
:10035200200053706565642020202020202020206A
:10036200200049726F6E2052656A656374202020F6
:1003720020004261636B4C69676874202020202052
:100382002000436F6E74726173742020202020203D
:100392002000566F6C756D652020202020202020C3
:1003A2002000546F6E652020202020202020202055
:1003B200200050617373776F726420202020202008
:1003C200200041626F7574202020202020202020F0
:1003D20020004F464600415554004F4E20003C211C
:1003E2003E002B002B25750025752000204F6C64E4
:1003F2002050617373776F7264203A0057726F6E88
:10040200672050617373776F7264202100204E65FC
:10041200772050617373776F7264203A00436F6E76
:100422006669726D2050617373776F7264005061F8
:100432007373776F7264204368616E67656400202E
:1004420020202020202020202020202020202000CA
:1004520020204869676820506F776572202100204C
:1004620020205072657373204F4B202100202020E2
:100472002044454D4F2021212100202020202020F2
:10048200203F0042616C616E63696E672020004903
:10049200443A20202020202020202020202020003C
:1004A2002020202046453A004E4F4E2D46453A0028
:1004B20020464552524F3A002563257500FF005FE2
:1004C2002020202020202020202000212020202049
:1004D20020202D25750021202020202020202020D2
:1004E2002000202053656E73697469766974793AC5
:1004F20000436F696C204572726F7220004C6F77F7
:1005020020426174746572790025752E257500008C
:1005120080C000000000010000002D4E414E004945
:100522004E46000006000400740002004B057A00EB
:10053200020019067C0001001E067E0001001F0653
:1005420080000100200682000100210684000100D3
:1005520022068600010023068800010024068A0084
:10056200010025068C00010027068E0010002B06D4
:10057200900001003B06A00001003C06A200010021
:100582003D06A40001003E06A60001003F06A800A9
:1005920001005106AA0001005206AC0001005306F8
:1005A200AE0001005406B00011005506B200110061
:1005B2006606C40002000004B30202000204B30291
:1005C20011000404910402001504B3020800170488
:1005D200A20408001F04AA0408002704B2040200AF
:1005E2002F04B30202003104BF0402003304B30239
:1005F20003003504C20202003804B3020C003A04BC
:10060200C10403004604C20202004904B3020C0002
:100612004B04D8040C005704D80402006304B3024C
:1006220002006504B30202006704B3020200690417
:10063200B30202006B04B30202006D04B3020400B1
:100642007706120504007E0618050000F894EE27CE
:10065200EFBBF1E0F5BFE5BFF8E1A895A4B7A77F2E
:10066200A4BFF0936000E0936000E6E2F5E08591BC
:100672009591009761F0A591B59105901590BF01F4
:10068200F00105900D920197E1F7FB01F0CFEFEF3A
:10069200EDBFE8E0EEBFC0E0D4E00C94EE0FBA93F9
:1006A200AA93E881F9813697E883F983000084E010
:1006B20090E00197F1F7E881E17021F085E090E0A8
:1006C2000197F1F7E881E27021F08AE090E001976A
:1006D200F1F7E881E47021F084E190E00197F1F70D
:1006E200E881E87021F088E290E00197F1F7E88173
:1006F200E07121F080E590E00197F1F7E881E07286
:1007020021F080EA90E00197F1F7E881E07421F0AE
:1007120080E491E00197F1F7E881E07821F080E848
:1007220092E00197F1F7E981E17021F080E095E034
:100732000197F1F7E981E27021F080E09AE00197F8
:10074200F1F7E981E47021F080E094E10197F1F79B
:10075200E981E87021F080E098E20197F1F7E98100
:10076200E07121F080E090E50197F1F7E981E07214
:1007720021F080E090EA0197F1F7E981E07441F01D
:1007820080E090EA0197F1F780E090EA0197F1F7B3
:1007920022960895E0E0EA93A0E00E94B422E0915C
:1007A2002206E03009F04CC0A0912306AA3048F09E
:1007B200A0913E06AA302CF0E4E6F0E04E165F0669
:1007C20038F4E0E4F6E0FA93EA93E4E9F2E006C0F2
:1007D200E0E4F6E0FA93EA93E4EAF2E0FA93EA93C9
:1007E200E0912306FF27662777270E94CD27E09115
:1007F2003E060E9471270E94CD27F20166277727C5
:100802000E94CD27F401662777270E94CD2780E139
:100812000E94A3246496A0E4B6E00E94F922E0912B
:100822004E06E03021F4A0E0B4E00E94F922E0910B
:100832004F06E03021F4A2E0B4E00E94F9220EC09B
:10084200A0912206A13031F4A0E00E94D922A5EBAA
:10085200B2E002C0A5ECB2E00E9408230895E0E4F1
:10086200E0937C00E0913C06E03031F0E0E0E09380
:10087200B000E093B10009C0E0913B06E03029F0FE
:10088200AEE0EA02F001EE58E7BD0E94C522A6EDF5
:10089200B2E00E940823E1E0F0E71F01EDEFFFE77D
:1008A200E215F30538F0F101A491AF3F19F4319646
:1008B2001F01F4CFEEEFFFE72E163F0630F4E0E61D
:1008C200F9E0E0934905F0934A0522243324E1E05C
:1008D200E0931B06A0911B06A131D8F4E0911B0600
:1008E200F0E00F01EB5AF94FA081B0E0A7FDBFEF96
:1008F200F001EA59F94FE081F0E0E7FDFFEFEA0F7E
:10090200FB1F2E0E3F1EE0911B06EF5FE0931B06BE
:10091200E1CFF1010E946727E43DADE1FA0709F05A
:100922000895A0914905B0914A05AF30E9E0BE07AC
:1009320090F4D196A031E8E0BE0768F0A091490595
:10094200B0914A05E2E00E948427E05AFF40E7376F
:10095200A2E0FA0708F00895A0914B05B0914C056A
:10096200AB33E5E7BE0720F0A0912506AF3208F4CD
:100972000895E1E0E0931B06A0911B06AF3008F05A
:100982004CC1E0E0E0937A00E0911B06E0931D0683
:10099200EFEFF1E0E819F909E0934305F09344051C
:1009A2005E9B02C05E9801C05E9AE5E8E0937A0021
:1009B200E0917A00E064E0937A00E0917A00E074DA
:1009C200E1F7A0914305B091440569DE2A98D4016C
:1009D2000E9450032A9A000085E090E00197F1F707
:1009E200E0911D06E150E0931D06E03039F0000071
:1009F200000085E090E00197F1F7F2CFE0E0E4BD7E
:100A0200E5BDE0917A00E064E0937A00E0917A003B
:100A1200E074E1F7C0907800D0907900E0917A001C
:100A2200E064E0937A00E0917A00E074E1F7E0910B
:100A32007800F0917900E0933705F0933805E09162
:100A42007A00E064E0937A00E0917A00E074E1F7E2
:100A5200E0917800F0917900E0933905F0933A053E
:100A6200E0917A00E064E0937A00E0917A00E07429
:100A7200E1F7E0917800F0917900E0933B05F09383
:100A82003C05E0917A00E064E0937A00E0917A001C
:100A9200E074E1F7E0917800F0917900E0933D0590
:100AA200F0933E05E0917A00E064E0937A00E091F1
:100AB2007A00E074E1F7E0917800F0917900E09338
:100AC2003F05F0934005E0917A00E064E0937A00FC
:100AD200E0917A00E074E1F7E0917800F09179001A
:100AE200E0934105F0934205E3EAE4BDE2E0E5BDAF
:100AF200E0911B06AFE6B4E0F0E0EE0FFF1FEA0F55
:100B0200FB1FC082D182E0911B06E25FAFE6B4E038
:100B1200F0E0EE0FFF1FEA0FFB1FA0913705B09127
:100B22003805A083B183E0911B06E45EAFE6B4E032
:100B3200F0E0EE0FFF1FEA0FFB1FA0913905B09105
:100B42003A05A083B183E0911B06E65DAFE6B4E00F
:100B5200F0E0EE0FFF1FEA0FFB1FA0913B05B091E3
:100B62003C05A083B183E0911B06E85CAFE6B4E0EC
:100B7200F0E0EE0FFF1FEA0FFB1FA0913D05B091C1
:100B82003E05A083B183E0911B06EA5BAFE6B4E0C9
:100B9200F0E0EE0FFF1FEA0FFB1FA0913F05B0919F
:100BA2004005A083B183E0911B06EC5AAFE6B4E0A6
:100BB200F0E0EE0FFF1FEA0FFB1FA0914105B0917D
:100BC2004205A083B183A0911B06AE3000F5EFE091
:100BD200EA1BE0931D06000085E090E00197F1F723
:100BE200E0911D06E150E0931D06E03039F000006F
:100BF200000085E090E00197F1F7F2CFD301A45E07
:100C0200B2400E94500382E090E00197F1F7E09138
:100C12001B06EF5FE0931B06AFCEE0E0E0931C06FD
:100C2200E4E0E0931B06A0911B06A33608F05CC02B
:100C3200E0911B06E250AFE6B4E0F0E0EE0FFF1FDA
:100C4200AE0FBF1F0E94C527DF017F97F0F1FD01A4
:100C5200E039A1E0FA07C8F5E0911B06AFE6B4E07F
:100C6200F0E0EE0FFF1FAE0FBF1F0D901C90E09142
:100C72001B06E150AFE6B4E0F0E0EE0FFF1FAE0F4F
:100C8200BF1F0E94C527D001AE1BBF0B1B97E8F008
:100C9200E0911B06E150AFE6B4E0F0E0EE0FFF1F7B
:100CA200AE0FBF1F0D901C90E0911B06E250AFE605
:100CB200B4E0F0E0EE0FFF1FAE0FBF1F0E94C5278A
:100CC200D001AE1BBF0B1B9708F408C0E0911B06B6
:100CD200E250E0931C06E4E6E0931B06E0911B065B
:100CE200EF5FE0931B069FCFE0911C06E03069F4B2
:100CF200E1E0E0932406E0E0EA93A1E00E94B4225E
:100D0200A2EEB2E00E9408238BC0E0E0E09324064A
:100D1200E0911C06FF27662777270E941026ADEC7C
:100D2200BCEC8CEC9FE30E949A26ADECBCEC8CE60A
:100D320090E40E944A26A7E2B6E00E94D725EC93EF
:100D4200E0913E06E030C9F4E3E0EA93A1E00E94BC
:100D5200B422E0E4F6E0FA93EA93E1EFF2E0FA93E8
:100D6200EA93E0912706FF27662777270E94CD277F
:100D720084E00E94A32428961EC0E4E0EA93A1E046
:100D82000E94B422E0E4F6E0FA93EA93EBEFF2E099
:100D9200FA93EA93E0912706FF27662777270E94B6
:100DA200CD27E0913E060E9471270E94CD2788E060
:100DB2000E94A3242C96A0E4B6E00E94F922AA2461
:100DC200BB24E1E0E0931B06A0911B06A53698F434
:100DD200E0911B06ADE4B5E0F0E0EE0FFF1FAE0FB1
:100DE200BF1FE0E0F0E0ED93FC93E0911B06EF5FA4
:100DF200E0931B06E9CFE0E0E0932606E0932006AD
:100E0200E0932806AFE0B0E00E94E827A091230615
:100E1200EA1731F0E0912306AFE0B0E00E94FC2730
:100E2200AAE8B2E00E9489250E94C522B3DC089597
:100E3200E0E0EA93A1E00E94B422E0E0E0931B0626
:100E4200A0911B06A03108F04AC0E0E0E09327061B
:100E5200AAEFB0E00E9489251D9B43C0329903C0CE
:100E6200E4E0E0932706339903C0E3E0E09327062A
:100E7200349903C0E2E0E0932706359903C0E1E02C
:100E8200E0932706E0912706E030F9F0E0911B0697
:100E9200F0E0E55DF94FA0912706A083E0E4F6E0DB
:100EA200FA93EA93E1EAF2E0FA93EA93E0912706F1
:100EB200FF27662777270E94CD2784E00E94A3247C
:100EC2002896A0E4B6E00E94F922E0912706E030DD
:100ED20019F2E0911B06EF5FE0931B06B1CF1D995B
:100EE200FECFE0911B06E0932706E0931B06A0913C
:100EF2001B06A03168F4E0911B06F0E0E55DF94FB6
:100F0200A0E0A083E0911B06EF5FE0931B06EFCF0A
:100F12000895E0E0E0931B06A0911B06A031A0F427
:100F2200B0E0A05FBF4F0E94E827AE2FE0911B0602
:100F3200F0E0E55DF94FE081EA1731F4E0911B063C
:100F4200EF5FE0931B06E8CFA0911B06A03111F4DE
:100F5200E1E001C0E0E00895BA93AA931A930A93DC
:100F6200EA81EE0FEE0FEE0FE0640E2F10E0183064
:100F720068F40A930395ED81FE813196ED83FE8339
:100F82003197A4910E94AC221F5FF1CF1981088191
:100F920026960895EF9767978CE3AAE1B0E0E2EE18
:100FA200F0E00E9421280E94152801E030E020E0B4
:100FB2004C825D82FE01369680829182E0913E06ED
:100FC200F0E0E7FDFFEFE887F987E0915206F0E0F5
:100FD200E7FDFFEFEA87FB87E0915306F0E0E7FDCC
:100FE200FFEFEC87FD87E0915406F0E0E7FDFFEFAD
:100FF200EE87FF87E0913F06F0E0E7FDFFEFE88B29
:10100200F98BE0913B06F0E0E7FDFFEFEA8BFB8B0B
:10101200E0913D06F0E0E7FDFFEFEC8BFD8BE09108
:101022003C06F0E0E7FDFFEFEE8BFF8BE09151060F
:10103200F0E0E7FDFFEFE88FF98FA0E1B0E00E945A
:10104200E827E13010F0E53008F003C0E1E0F0E01D
:1010520002C0E0E0F0E0EA8FFB8FE0E0EC8FED8F82
:10106200E0913C06E03031F0E0E0E093B000E09344
:10107200B10009C0E0913B06E03029F0AEE0EA029F
:10108200F001EE58E7BD0E94C52222243324E1E09C
:10109200E0931B06A0911B06A131D8F4E0911B0638
:1010A200F0E00F01EB5AF94FA081B0E0A7FDBFEFCE
:1010B200F001EA59F94FE081F0E0E7FDFFEFEA0FB6
:1010C200FB1F2E0E3F1EE0911B06EF5FE0931B06F7
:1010D200E1CFF101A3E0B0E00E947C27EF35A6E169
:1010E200FA0711F035C0FFCFA4E0B0E00E94E42778
:1010F200BF010F01F196E131A8E0FA0780F0F0019B
:10110200E05DF740EC33A1E0FA0748F4DB01E0913F
:101112004905F0914A05AE1BBF0B119709F0FFCFAD
:10112200A0914B05B0914C05A831E9E7BE0720F02C
:10113200A0912506A83208F4FFCFE0911706F0919E
:101142001806A0914905B0914A05EA17FB0729F054
:101152000E941C28EF966B960895E4E0F0E0FA9363
:10116200EA93A0E0B0E0F8DE22243324E1E0E09349
:101172001B06A0911B06A13108F5E0911B06F0E0C9
:10118200BF01DE01A75BBF4FAE0FBF1FEC91F0E0C6
:10119200E7FDFFEF0F01FB01DE01D896AE0FBF1F87
:1011A200EC91F0E0E7FDFFEFE00DF11D2E0E3F1E8A
:1011B200E0911B06EF5FE0931B06DBCFF101A3E09A
:1011C200B0E00E947C27E236A9E1FA0711F0ACC632
:1011D200FFCF329910C0A0911E06AC3038F4E091D6
:1011E2001E06EF5FE0931E06E1E003C0E0E0E0933D
:1011F2001E06E0931F06349911C0A0911E06A1306D
:1012020038F0E0911E06E150E0931E06E0E004C0D3
:10121200ECE0E0931E06E1E0E0931F06329B05C07E
:10122200349B03C0003009F4A6C0E0E0EA93A09129
:101232001F060E94B422A0E00E94D922E0E0EA93B5
:10124200A0911F06E1E0EA1BAE2F0E94B422A3EB9D
:10125200B2E00E940823E0E0E0931B06A0911B0687
:10126200A23008F088C0E0911E06EA0FA0911F0686
:10127200EA1BE0932706E1E0EA93A0911B060E9495
:10128200B422E0912706F0E0DE015E96EE0FFF1F2A
:10129200AE0FBF1F0E94C527DF010E940823EDE0A9
:1012A200EA93A0911B060E94B422E0912706F0E087
:1012B200DE011496EE0FFF1FAE0FBF1F2D903C9064
:1012C200A0912706A43041F0A63031F0A73021F0DA
:1012D200A93011F0AB3019F4022C032809F005C033
:1012E200A4EDB3E00E94082340C0A0912706A230DB
:1012F20019F4022C032809F005C0A8EDB3E00E94FE
:10130200082333C0A0912706AB3019F4022C03281E
:1013120009F405C0ACEDB3E00E94082326C0A091F9
:101322002706AC3029F4A0EEB3E00E9408231DC0CA
:10133200A0912706A23021F4A4EEB3E00E94082374
:10134200E0E4F6E0FA93EA93E1EAF2E0FA93EA9350
:10135200F101662777270E94CD2784E00E94A3240B
:101362002896A0E4B6E00E94F922E0911B06EF5F06
:10137200E0931B0673CF359B02C03399FEC3EDE0A9
:10138200EA93A0911F060E94B422359902C0EFEFA2
:1013920001C0E1E01E2FE0911E06E030B9F5E12F19
:1013A200F0E0E7FDFFEF4E0E5F1EE3E2F0E04E16C7
:1013B2005F0618F4E7EEF3E007C0E7EEF3E0E415AA
:1013C200F50518F4E3E2F0E02F01E0E4F6E0FA9329
:1013D200EA93E1EAF2E0FA93EA93F20166277727C9
:1013E2000E94CD2784E00E94A3242896A0E4B6E0C0
:1013F2000E94F922E4E6F0E04E165F0620F4A3EB29
:10140200B2E00E9408234C825D82B7C3E13091F5BD
:10141200A5E01A02F001F0E0E7FDFFEF8E0E9F1E3D
:10142200E4E6F0E08E169F0618F4E4EFF1E007C060
:10143200E4EFF1E0E815F90518F4E4E6F0E04F0115
:10144200E0E4F6E0FA93EA93E1EAF2E0FA93EA934F
:10145200F401662777270E94CD2784E00E94A32407
:101462002896A0E4B6E00E94F922FE013696808218
:10147200918283C3E23009F047C0E12FEE0FA091C1
:101482003E06EA0FE0933E06A0913E06A03044F0ED
:10149200A33634F4EEE6EA1BA0915206EA173CF4B6
:1014A200E12FEE0FA0913E06AE1BA0933E06E09107
:1014B2003E06E03019F4A8EDB3E01CC0E0E4F6E02B
:1014C200FA93EA93E6EEF3E0FA93EA93E0913E06AA
:1014D2000E9471270E94CD2784E00E94A3242896AF
:1014E200A0E4B6E00E94F922A0913E06AA3024F4BC
:1014F200A3EBB2E00E940823E0913E06F0E0E7FD94
:10150200FFEFE887F98739C3E330D1F5E12FEE0F1A
:10151200A0915206EA0FE0935206A0915206AA3019
:1015220054F0A33644F4A0913E06EEE6EA1BA091E5
:101532005206EA173CF4E12FEE0FA0915206AE1BC1
:10154200A0935206E0E4F6E0FA93EA93E1EAF2E0CD
:10155200FA93EA93E09152060E9471270E94CD27E6
:1015620084E00E94A3242896A0E4B6E00E94F92217
:10157200E0915206F0E0E7FDFFEFEA87FB87FDC24C
:10158200E43009F03EC0E12FA0915306EA0FE09348
:101592005306A0915306A03014F0AB302CF0E0912A
:1015A2005306E11BE0935306E0915306E03019F431
:1015B200A4EDB3E01CC0E0E4F6E0FA93EA93EAEEAD
:1015C200F3E0FA93EA93E09153060E9471270E9496
:1015D200CD2784E00E94A3242896A0E4B6E00E94CE
:1015E200F922A0915306AA3024F4A3EBB2E00E94A0
:1015F2000823E0915306F0E0E7FDFFEFEC87FD875B
:10160200BCC2E530B9F5E12FA0915406EA0FE09390
:101612005406A0915406A13014F0AB302CF0E091A6
:101622005406E11BE0935406E0E4F6E0FA93EA93F1
:10163200E1EAF2E0FA93EA93E09154060E947127FC
:101642000E94CD2784E00E94A3242896A0E4B6E05D
:101652000E94F922A0915406AA3024F4A3EBB2E02E
:101662000E940823E0915406F0E0E7FDFFEFEE87C9
:10167200FF8783C2E63009F03EC0E12FA0913F060A
:10168200EA0FE0933F06A0913F06A03014F0AF317D
:101692002CF0E0913F06E11BE0933F06E0913F060C
:1016A200E03019F4A4EDB3E01CC0E0E4F6E0FA93F4
:1016B200EA93EAEEF3E0FA93EA93E0913F060E949E
:1016C20071270E94CD2784E00E94A3242896A0E4DB
:1016D200B6E00E94F922A0913F06AA3024F4A3EBBF
:1016E200B2E00E940823E0913F06F0E0E7FDFFEF41
:1016F200E88BF98B42C2E73009F04BC0E12FA09191
:101702003B06EA0FE0933B06A0913B06A03014F0A3
:10171200AB302CF0E0913B06E11BE0933B06A0913D
:101722003B06A1303CF0E0913B06AEE0EA02F0015C
:10173200EE5801C0E0E0E7BDE0913B06E03019F46D
:10174200A4EDB3E01CC0E0E4F6E0FA93EA93EAEE1B
:10175200F3E0FA93EA93E0913B060E9471270E941C
:10176200CD2784E00E94A3242896A0E4B6E00E943C
:10177200F922A0913B06AA3024F4A3EBB2E00E9426
:101782000823E0913B06F0E0E7FDFFEFEA8BFB8BDD
:10179200F4C1E83099F5E12FA0913D06EA0FE093FC
:1017A2003D06A0913D06A03014F0A3332CF0E09149
:1017B2003D06E11BE0933D06E0913D06EE0FE8BDDC
:1017C200E0E4F6E0FA93EA93EAEEF3E0FA93EA93BE
:1017D200E0913D060E9471270E94CD2784E00E947D
:1017E200A3242896A0E4B6E00E94F922E0913D06E7
:1017F200F0E0E7FDFFEFEC8BFD8BBFC1E93009F0B4
:101802003EC0E12FA0913C06EA0FE0933C06A09176
:101812003C06A03014F0AB302CF0E0913C06E11B0A
:10182200E0933C06E0913C06E03019F4A4EDB3E00D
:101832001CC0E0E4F6E0FA93EA93EAEEF3E0FA93EE
:10184200EA93E0913C060E9471270E94CD2784E032
:101852000E94A3242896A0E4B6E00E94F922A09157
:101862003C06AA3024F4A3EBB2E00E940823E091E4
:101872003C06F0E0E7FDFFEFEE8BFF8B7EC1EA3026
:1018820079F5E12FA0915106EA0FE0935106A0915C
:101892005106A13014F0AC302CF0E0915106E11B5E
:1018A200E0935106E0E4F6E0FA93EA93EAEEF3E01D
:1018B200FA93EA93E09151060E9471270E94CD2784
:1018C20084E00E94A3242896A0E4B6E00E94F922B4
:1018D200E0915106F0E0E7FDFFEFE88FF98F4DC18F
:1018E200EB3009F0B0C0EA8DFB8D3097B1F00E9469
:1018F200C522AEEEB3E00E9408239ADA0ADBE0309A
:1019020061F401E00E94C522AEEFB3E00E94082319
:10191200ACEDB5E00E9489255CCC0E94C522AFE007
:10192200B4E00E94082384DAE0E0E0931B06A09171
:101932001B06A031C0F4E0911B06AFE6B4E0F0E074
:10194200EE0FFF1FAE0FBF1FE0911B06F0E0E55D3B
:10195200F94FE081F0E0ED93FC93E0911B06EF5F1D
:10196200E0931B06E4CF0E94C522AFE1B4E00E94DF
:1019720008235EDAE0E0E0931B06A0911B06A0318B
:10198200E0F4E0911B06F0E0E55DF94F0080E091A4
:101992001B06AFE6B4E0F0E0EE0FFF1FAE0FBF1F75
:1019A2000E94C527A02DB0E0EA17FB0731F4E091B1
:1019B2001B06EF5FE0931B06E0CFA0911B06A03150
:1019C20009F09FCFE0E0E0931B06A0911B06A03137
:1019D20008F5B0E0A05FBF4F0E94E827AE2FE0916C
:1019E2001B06F0E0E55DF94FE081EA1769F0A0918E
:1019F2001B06B0E0A05FBF4FE0911B06F0E0E55D83
:101A0200F94FE0810E94FC27E0911B06EF5FE09313
:101A12001B06DBCF0E94C522A0E3B4E00E9408238C
:101A2200A0E1B0E00E94E827E03019F0E1E0F0E048
:101A320002C0E0E0F0E0EA8FFB8FACEDB5E00E947F
:101A4200892501E0C6CBEC3009F097C00E94C5227F
:101A5200A5E5B6E00E94F922A6E6B6E00E94F922C8
:101A6200AFECB7E00E9489250E94C522DE01A75B88
:101A7200BF4F0E94F922AAE2B1E00E948925E0E06C
:101A8200E0931B06A0911B06A031C0F5E0E0EA93AB
:101A9200A1E00E94B422A1E4B4E00E940823A09134
:101AA2001B06EFE0EA1BEA93A1E00E94B422AAE03F
:101AB200B0E00E948925E0E0E0932706E0911B0652
:101AC200A0912706EA1780F0E0912706F0E0DE01F8
:101AD200D896AE0FBF1FAC910E94D922E091270683
:101AE200EF5FE0932706EACFA4E6B0E00E948925E3
:101AF200E0911B06EF5FE0931B06C4CFE0E0E093AA
:101B02001B06A0911B06A73090F5E1E0E01B0E2F0B
:101B1200E9E0EA93A1E00E94B422003039F4A0EC9B
:101B2200B2E00E940823A8ECB0E019C0E9E0E0931B
:101B32002706A0912706AD3080F4E0912706F0E059
:101B4200DE01D896AE0FBF1FAC910E94D922E09160
:101B52002706EF5FE0932706ECCFA4EFB1E00E94E7
:101B62008925E0911B06EF5FE0931B06CACFA6EE24
:101B7200B3E00E94892501E02CCB359B02C033994A
:101B820002C0E1E001C0E0E03E2F003019F0ACE21B
:101B9200B1E01EC0329B02C0349902C0A1EE17C050
:101BA200A0911E06A03021F4303011F0203009F44B
:101BB20002C0AAE00CC0A0911E06A13021F4303070
:101BC20011F0203009F402C0A4E601C0A5EAB0E099
:101BD2000E948925303029F0359B02C0339901C01B
:101BE20001C002C0E1E001C0E0E02E2F00E01D993B
:101BF2009AC1F401662777270E941026DF01CB01E4
:101C02000E94DF24A1E8B4E085EB9FE30E949A26BC
:101C12007F936F93FF93EF93F201662777270E94DA
:101C22001026DF01CB010E94DF24AF91BF918F917B
:101C32009F910E944A26DF01CB01E0E0F0E068E6D6
:101C420071E40E942D2709F008F40CC00E94C522FD
:101C5200A2E5B4E00E940823ACEDB5E00E9489251C
:101C620001E0B7CAA6E0B0E00E94E827AE2FE091FB
:101C72003B06EA1721F0A6E0B0E00E94FC27A8E0AC
:101C8200B0E00E94E827AE2FE0913D06EA1721F06E
:101C9200A8E0B0E00E94FC27A7E0B0E00E94E8279D
:101CA200AE2FE0913C06EA1761F0A7E0B0E00E9497
:101CB200FC27E03031F0E150A5E0EA02F001E093C8
:101CC2002106AAE0B0E00E94E827AE2FE09151067B
:101CD200EA1721F0AAE0B0E00E94FC27AFE0B0E0F2
:101CE2000E94E827AE2FE0912306EA1721F0AFE029
:101CF200B0E00E94FC27ADE0B0E00E94E827AE2FE2
:101D0200E0915406EA1721F0ADE0B0E00E94FC2712
:101D1200AEE0B0E00E94E827AE2FE0913F06EA175E
:101D220021F0AEE0B0E00E94FC27ACE0B0E00E94FF
:101D3200E827AE2FE0915306EA1721F1ACE0B0E0BC
:101D42000E94FC27E6E0E0931B06A0911B06A53645
:101D520098F4E0911B06ADE4B5E0F0E0EE0FFF1F52
:101D6200AE0FBF1FE0E0F0E0ED93FC93E0911B06A5
:101D7200EF5FE0931B06E9CFE5E0E0932606E0E0A3
:101D8200E0932006A0E0B0E00E94E4274E165F0632
:101D9200D1F4A2E0B0E00E94E4278E169F0699F4E7
:101DA200A9E0B0E00E94E827AE2FE0913E06EA17D4
:101DB20051F4ABE0B0E00E94E827AE2FE09152066A
:101DC200EA1709F49CC0A9E0B0E00E94E827AE2F10
:101DD200E0913E06EA1751F4ABE0B0E00E94E8273A
:101DE200AE2FE0915206EA1709F453C0A9E0B0E021
:101DF2000E94E827AE2FE0913E06EA1721F0A9E003
:101E0200B0E00E94FC27ABE0B0E00E94E827AE2FD2
:101E1200E0915206EA1721F0ABE0B0E00E94FC2705
:101E2200E0913E060E9471270E941026A0E0B0E0D9
:101E320080E29FE30E949A26A0E0B0E080E09FE368
:101E42000E944A26A9E2B6E00E94D725EC93E091CF
:101E520052060E9471270E941026A0E0B0E080E2A4
:101E62009FE30E949A26A0E0B0E080E09FE30E94F8
:101E72004A26DF01CB01E0912906FF276627772753
:101E82000E9410260E944A26AAE2B6E00E94D725A6
:101E9200EC93A0E0B0E00E94E4274E165F06C1F08A
:101EA200F201A0E0B0E00E94F427662777270E94A3
:101EB2001026A0E0B4E284E799E40E94E826A0E0BC
:101EC200B0E080E09FE30E944A260E94D7253F01AE
:101ED200A2E0B0E00E94E4278E169F0629F0F401EA
:101EE200A2E0B0E00E94F427E4E4F0E0FA93EA937F
:101EF200A0E0B0E00E94AD070E94300413C0E0E011
:101F0200E0932806A8ECB0E00E9489250E94C52231
:101F1200E4E4F0E0FA93EA93A0E0B0E00E94AD07B7
:101F22000E94CB0301C055C90E941C28EF966B96F4
:101F32000895E3E0E0931B06E0913C06E03021F1D6
:101F4200E0912106E093B300E0911B06E150E0939B
:101F52001B06EF5FC1F0E3E8E093B000E6E0E09338
:101F6200B100ABE4B0E00E948925E0E0E093B0006C
:101F7200E093B100E0911B06E03021F0ABE4B0E069
:101F82000E948925E1CF23C0E0913B06E030F9F0C1
:101F9200E0911B06E150E0931B06EF5F89F0EFE74B
:101FA200E7BDABE4B0E00E948925E9EAE7BDE09134
:101FB2001B06E03021F0ABE4B0E00E948925E8CFB7
:101FC200E0913B06AEE0EA02F001EE58E7BDE0E048
:101FD200E0931906E0931A060895EF97E797D15018
:101FE20086E791E0A0E0B0E0EEE1F1E00E94222875
:101FF20030E020E050E040E0229A2A9AA4E0B0E0EB
:102002000E94E427309721F0EF3FAFEFFA0779F40F
:10201200A0E0B0E00E94E427B39740F0A0E0B0E077
:102022000E94E427E83EA3E0FA0708F001C006C0D8
:10203200A4E0B0E0EFEDF7E00E94F427A4E0B0E006
:102042000E94E427E0934905F0934A05A0E0B0E03E
:102052000E94E427DF01B39728F0FD01E83EA3E0E8
:10206200FA0708F0B3C0A0E0B0E00E94E4272F0115
:10207200A2E0B0E00E94E427E436A0E0FA0720F0F4
:10208200E53FA1E0FA0708F005C0A2E0B0E00E9437
:10209200E4274F01A6E0B0E00E94E827E03014F008
:1020A200EB300CF006C0A6E0B0E00E94E827E09317
:1020B2003B06A7E0B0E00E94E827E03014F0EB30E6
:1020C2000CF006C0A7E0B0E00E94E827E0933C06CF
:1020D200AFE0B0E00E94E827E13010F0E53108F00F
:1020E20006C0AFE0B0E00E94E827E0932306A9E033
:1020F200B0E00E94E8271E2EE0305CF0E3364CF49C
:10210200ABE0B0E00E94E8270E2EE0E7E1190E16E0
:102112000CF006C0A9E0B0E00E94E827E0933E067A
:10212200AAE0B0E00E94E827E13014F0EC300CF0B5
:1021320006C0AAE0B0E00E94E827E0935106ABE0B7
:10214200B0E00E94E827EA306CF0E3365CF40E2E31
:10215200A9E0B0E00E94E827A0E70E94E027EA1B7E
:102162000E160CF006C0ABE0B0E00E94E827E09348
:102172005206ACE0B0E00E94E827E03014F0EB3009
:102182000CF006C0ACE0B0E00E94E827E0935306F2
:10219200ADE0B0E00E94E827E13014F0EB300CF043
:1021A20006C0ADE0B0E00E94E827E0935406AEE03E
:1021B200B0E00E94E827E03014F0EF310CF006C0E6
:1021C200AEE0B0E00E94E827E0933F06A0E0B0E076
:1021D2000E94E427DF01B39770F0FD01E83EA3E01F
:1021E200FA0748F4A0914905B0914A05A03EE7E0FC
:1021F200BE0708F043C0F201A0E0B0E00E94F4275D
:10220200F401A2E0B0E00E94F427E0913B06A6E0D0
:10221200B0E00E94FC27E0913C06A7E0B0E00E94FB
:10222200FC27E0912306AFE0B0E00E94FC27E0919A
:102232003E06A9E0B0E00E94FC27E0915106AAE028
:10224200B0E00E94FC27E0915206ABE0B0E00E94B1
:10225200FC27E0915306ACE0B0E00E94FC27E0913D
:102262005406ADE0B0E00E94FC27E0913F06AEE0EC
:10227200B0E00E94FC27E1E0E093270620904905A8
:1022820030904A05E0912306F0E0E45BFF4F1491A1
:10229200A0912306A23050F0E0912306E150F0E035
:1022A200E45BFF4FE491E11BEE0F01C0ECE30E2F64
:1022B200F201662777270E941026A0E0B4E284E7A5
:1022C20099E40E94E826A0E0B0E080E09FE30E944B
:1022D2004A260E94D7253F01E0913E060E947127BF
:1022E2000E941026A0E0B0E080E29FE30E949A26BE
:1022F200A0E0B0E080E09FE30E944A26A9E2B6E0B7
:102302000E94D725EC93E09152060E9471270E9409
:102312001026A0E0B0E080E29FE30E949A26A0E0AF
:10232200B0E080E09FE30E944A26DF01CB01E0910A
:102332002906FF27662777270E9410260E944A2631
:10234200AAE2B6E00E94D725EC93E0E0E0937E009B
:10235200E0E4E0937C00E0E0E0937B00209217064B
:10236200309218065E98569A5D98559A2B98239A41
:102372002D9A2598459A3D98439A3B98429A3A98C5
:10238200449A3C98A0E10E941B230E94C522E4E4E7
:10239200F0E0FA93EA93A0E0B0E00E94AD07ECE02F
:1023A200F0E0FA93EA93A1E0B0E00E94AD07E4E125
:1023B200F0E0FA93EA93A2E0B0E00E94AD07ECE10C
:1023C200F0E0FA93EA93A3E0B0E00E94AD07E4E202
:1023D200F0E0FA93EA93A4E0B0E00E94AD07ECE2E9
:1023E200F0E0FA93EA93A5E0B0E00E94AD07E4E3DF
:1023F200F0E0FA93EA93A6E0B0E00E94AD07ECE3C6
:10240200F0E0FA93EA93A7E0B0E00E94AD07E3EAB6
:10241200E4BDE2E0E5BDA0913B06A1303CF0E091D5
:102422003B06AEE0EA02F001EE5801C0E0E0E7BD93
:10243200E0E0E093B600E0913C06E030B9F0E15014
:10244200A5E0EA02F001E0932106E093B300E3E89D
:10245200E093B000E4E0E093B100A8E2B0E00E94B3
:102462008925E0E0E093B000E093B100A8E0B0E09D
:102472000E94E827E0303CF0E3332CF4E091270699
:10248200E03009F44BC00E94C522A1E6B4E00E94EC
:102492000823E0E0E0931B06A0911B06A536B8F5E1
:1024A200E0911B06E8BDE695E0933D06E0E4F6E028
:1024B200FA93EA93EAEEF3E0FA93EA93E0913D06A7
:1024C2000E9471270E94CD2784E00E94A3242896AF
:1024D200E7E0EA93A1E00E94B422A0E4B6E00E9401
:1024E200F922AAEFB0E00E948925A0911B06A4362A
:1024F20019F4E0E0E0931B061D9903C0E5E6E093C2
:102502001B06E0911B06EE5FE0931B06C5CFE09130
:102512003D06A8E0B0E00E94FC2706C0A8E0B0E0BB
:102522000E94E827E0933D06E0913D06EE0FE8BDEC
:10253200A0914B05B0914C05A237E5E7BE0720F00C
:10254200A0912506AE3210F40C9476220E94C52288
:1025520022243324E1E0E0931B06A0911B06A13163
:10256200D8F4E0911B06F0E00F01EB5AF94FA0817D
:10257200B0E0A7FDBFEFF001EA59F94FE081F0E0CA
:10258200E7FDFFEFEA0FFB1F2E0E3F1EE0911B0639
:10259200EF5FE0931B06E1CFF101EE0FFF1FEA3E72
:1025A200AEE0FA0709F0FFCFA4E0B0E00E94E42712
:1025B20031960E94F427E1E0F0E71F01EDEFFFE71B
:1025C200E215F30538F0F101A491AF3F19F4319609
:1025D2001F01F4CFEEEFFFE72E163F0630F4A4E022
:1025E200B0E0E4ECF9E00E94F427A4E0B0E00E943D
:1025F200E427BF010F01F196E131A8E0FA0780F06C
:10260200F001EB5BF740E135A1E0FA0748F4DB01AA
:102612001197E0911706F0911806EA17FB0799F057
:10262200AEEEB1E00E945003AFE6B4E00E94082390
:10263200A8EEB1E00E945003A4E0B0E0E2E2F8ECC0
:102642000E94F427FFCFA0914B05B0914C05A03317
:10265200E5E7BE0720F0A0912506AD3208F4FFCFD2
:10266200A0916906E0916A06AE0FA938A9F4A0917B
:102672006B06E0916C06AE0FAC3971F4A09157066F
:10268200E0915C06AE0FA03939F4A0915D06E091AD
:102692005E06AE0FAE3D11F00C947622A091490574
:1026A200B0914A05A03DE7E0BE0720F0A131E9E084
:1026B200BE0710F00C947622A0E1B0E00E94E82759
:1026C200E13010F0E53008F00CC00E94C522ACE702
:1026D200B4E00E9408230E9419070E948A07E03092
:1026E200A1F30E94C522A5E5B6E00E94F922A5E267
:1026F200B0E00E948925A6E6B6E00E94F922A4EE87
:10270200B3E00E948925E0E0E0931B06E0912506F4
:10271200A0911B06AE1760F4A0914B05B0914C0539
:102722000E945003E0911B06EF5FE0931B06EECF81
:102732000E94C52222243324E1E0E0931B06A091EB
:102742001B06A13190F4E0911B06F0E0DE01AE0F12
:10275200BF1FEC91F0E0E7FDFFEF2E0E3F1EE09170
:102762001B06EF5FE0931B06EACFF101EE0FFF1F9E
:10277200E238AAE0FA0711F00C947622DE010E94F8
:10278200F922E0911706F0911806E55DF7401F0166
:10279200E6E3F1E0E219F3091F01EE0FFF1F3297A2
:1027A20038F0F1010E946727E13BA4E0FA0708F044
:1027B200FFCFE0E4F6E0FA93EA93E1EAF2E0FA937B
:1027C200EA93F101662777270E94CD2784E00E94D1
:1027D200A3242896E7E0EA93A1E00E94B422A0E4B1
:1027E200B6E00E94F922AFEDB3E00E948925E0E055
:1027F200E0931B06E0912506A0911B06AE1760F43C
:10280200A0914B05B0914C050E945003E0911B062C
:10281200EF5FE0931B06EECFF8940E943004E09144
:102822002406E03011F00C947421E0E0E0931B06E2
:10283200A0911B06AE3008F00FC1E0E0E0937A00F1
:10284200E0911B06A0911C06EA0FE0931D06EFEF34
:10285200F1E0E819F909E0934305F09344055E9B22
:1028620002C05E9801C05E9AE5E8E0937A00E091CA
:102872007A00E064E0937A00E0917A00E074E1F794
:10288200A0914305B09144050E9450032A98D401B7
:102892000E9450032A9A000085E090E00197F1F728
:1028A200E0911D06E150E0931D06E03039F0000092
:1028B200000085E090E00197F1F7F2CFE0E0E4BD9F
:1028C200E5BDE0917A00E064E0937A00E0917A005D
:1028D200E074E1F7C0907800D0907900E0917A003E
:1028E200E064E0937A00E0917A00E074E1F7E0912D
:1028F2007800F0917900E0933705F0933805E09184
:102902007A00E064E0937A00E0917A00E074E1F703
:10291200E0917800F0917900E0933905F0933A055F
:10292200E0917A00E064E0937A00E0917A00E0744A
:10293200E1F7E0917800F0917900E0933B05F093A4
:102942003C05E0917A00E064E0937A00E0917A003D
:10295200E074E1F7E0917800F0917900E0933D05B1
:10296200F0933E05E3EAE4BDE2E0E5BDE0911B063B
:10297200AFE6B4E0F0E0EE0FFF1FEA0FFB1FC082EC
:10298200D182E0911B06E25FAFE6B4E0F0E0EE0F29
:10299200FF1FEA0FFB1FA0913705B0913805A083F6
:1029A200B183E0911B06E45EAFE6B4E0F0E0EE0F27
:1029B200FF1FEA0FFB1FA0913905B0913A05A083D2
:1029C200B183E0911B06E65DAFE6B4E0F0E0EE0F06
:1029D200FF1FEA0FFB1FA0913B05B0913C05A083AE
:1029E200B183E0911B06E85CAFE6B4E0F0E0EE0FE5
:1029F200FF1FEA0FFB1FA0913D05B0913E05A0838A
:102A0200B183A0911B06AD3008F5A0911C06E3E747
:102A1200EA1BA0911B06EA1BE0931D06000085E05D
:102A220090E00197F1F7E0911D06E150E0931D0659
:102A3200E03039F00000000085E090E00197F1F706
:102A4200F2CFD301A755B3400E945003E0911B0679
:102A5200EF5FE0931B06ECCEE1E2FDE06F01FE01C9
:102A6200EB58FE4FE081E03021F0F601E055FB4FDC
:102A720009C0E0913F05F0914005309721F0F60141
:102A8200E057FE4F6F01A0912206A13021F4F6011A
:102A9200E459FD4F6F01A0912206A23021F4F60104
:102AA200EC5EFA4F6F01C614D70438F4F301EC1947
:102AB200FD093696DF010E945003E1E4E0937C00B9
:102AC20022243324E0912906E0931B06E0912A0692
:102AD200A0911B06AE1798F4E0911B06AFE6B4E096
:102AE200F0E0EE0FFF1FAE0FBF1F0E94C5272E0E94
:102AF2003F1EE0911B06EF5FE0931B06E7CF2AA67D
:102B02003BA60A2C0B2879F0AAA5BBA588279927F2
:102B1200ECA5FDA5662777270E945627FD01BC017B
:102B22000E946C271F01EAA5FBA5ECA7FDA7E0E028
:102B3200E0933F05E09340050A2C0B2809F0A6C05C
:102B4200E0914F05F09150053097B9F5E0E0E09340
:102B52001B06A0911B06AE3178F5E0911B06F0E052
:102B6200DE01AE54BF4FEE0FFF1FAE0FBF1FE0E0FE
:102B7200F0E0ED93FC93E0911B06F0E0DE01AA5831
:102B8200BF4FEE0FFF1FAE0FBF1FE0E0F0E0ED936F
:102B9200FC93E0911B06F0E0DE01DA96EE0FFF1FD8
:102BA200AE0FBF1FE0E0F0E0ED93FC93E0911B0657
:102BB200EF5FE0931B06CDCF50E0E1E0E0931B0610
:102BC200A0911B06A63008F5E0911B06ADE4B5E026
:102BD200F0E0EE0FFF1FAE0FBF1F0E94C527309718
:102BE20071F4E0911B06ADE4B5E0F0E0EE0FFF1FDB
:102BF200EA0FFB1F20823182E6E0E0931B06E091A0
:102C02001B06EF5FE0931B06DBCFE0915705F091C7
:102C12005805309771F1A0914F05B0915005882762
:102C22009927E0915105F0915205662777270E9476
:102C32005627E0915305F0915405662777270E94A5
:102C42005627E0915505F0915605662777270E9491
:102C52005627E0915705F0915805662777270E947D
:102C62005627E5E0F0E060E070E00E949D27319792
:102C72005F01E4E0E0932606E0E0EA93A1E00E942F
:102C8200B422A5E8B4E00E94082331C72A143B0409
:102C920040F4D501A219B309E12FF0E00E948A277E
:102CA20002C0E0E0F0E0E0934705F0934805A09110
:102CB2005406EBE0EA1BA0912806B0E0F0E0E7FD45
:102CC200FFEFAE17BF0784F4A0912806A23058F098
:102CD200D101A05BBF4FE3E0E19FF001AE0FBF1F48
:102CE200AA15BB0508F008C0E0914705F091480518
:102CF200E0933F05F0934005E0914705F0914805C8
:102D0200309721F0E0912806EF5F01C0E0E0E09308
:102D12002806A0912806AB3018F0EAE0E0932806D6
:102D2200D1015496AA15BB0520F4E0912806E030A3
:102D320009F475C3CC24DD24E0E0E0933705E09389
:102D42003805E0933905E0933A05E0934105E093B5
:102D52004205E0934305E0934405E0934505E09383
:102D62004605E0931B06A0911B06AC3008F041C05B
:102D7200E0911B06AFE6B4E0F0E0EE0FFF1FAE0FEE
:102D8200BF1F0E94C527A0914105B0914205EA0FDD
:102D9200FB1FE0934105F0934205A0911B06B0E0B2
:102DA200AA0FBB1FAD56BB4F0E94C527A09143057A
:102DB200B0914405EA0FFB1FE0934305F0934405ED
:102DC200A0911B06B0E0AA0FBB1FA954BB4F0E94E3
:102DD200C527A0914505B0914605EA0FFB1FE09378
:102DE2004505F0934605E0911B06EF5FE0931B0655
:102DF200BACFE0914105F0914205AAA9BBA9EA1711
:102E0200FB0790F4E0914305F0914405A8A9B9A904
:102E1200EA17FB0748F4E0914505F0914605AEA597
:102E2200BFA5EA17FB0708F021C0A0914105B091A8
:102E32004205EAA9FBA9EA1BFB0B6F01A09143051E
:102E4200B0914405E8A9F9A9EA1BFB0BE093370509
:102E5200F0933805A0914505B0914605EEA5FFA572
:102E6200EA1BFB0BE0933905F0933A050C2C0D2875
:102E720029F0ECEDF5E0CE16DF0608F0CBC0E22F2C
:102E8200F0E0DE01A25CBE4FEE0FFF1FEA0FFB1F58
:102E9200C082D182E22FF0E0DE01AA5EBE4FEE0FC9
:102EA200FF1FEA0FFB1FA0913705B0913805A083E1
:102EB200B183E22FF0E0DE01A251BF4FEE0FFF1F00
:102EC200EA0FFB1FA0913905B0913A05A083B183A7
:102ED200233118F4E22FEF5F01C0E0E02E2FE0E093
:102EE200EAA3EBA3ECA3EDA3EE8FEF8FE8A3E9A394
:102EF200EA8FEB8FEC8FED8FE0931B06A0911B0600
:102F0200A43108F053C0E0911B06F0E0DE01A25CA0
:102F1200BE4FEE0FFF1FAE0FBF1FCD90DC900C2CEB
:102F22000D2809F443C0F601AAA1BBA18CA19DA161
:102F3200662777270E945127EAA3FBA36CA37DA3F0
:102F4200E0911B06F0E0DE01AA5EBE4FEE0FFF1F0E
:102F5200AE0FBF1F0E94C527AE8DBF8D88A199A15C
:102F6200662777270E945127EE8FFF8F68A379A3E8
:102F7200E0911B06F0E0DE01A251BF4FEE0FFF1FF2
:102F8200AE0FBF1F0E94C527AA8DBB8D8C8D9D8D54
:102F9200662777270E945127EA8FFB8F6C8F7D8FE0
:102FA200E0911B06EF5FE0931B06A8CFE0911B06A2
:102FB200DE01AC58BE4FEC93AAA1BBA18CA19DA18E
:102FC200FF27662777270E949D27DE01A659BE4F5D
:102FD200ED93FC93E0911B06AE8DBF8D88A199A164
:102FE200FF27662777270E949D27DE01A859BE4F3B
:102FF200ED93FC93E0911B06AA8DBB8D8C8D9D8D6C
:10300200FF27662777270E949D27DE01AA59BE4F18
:10301200ED93FC93DE01A659BE4F0D90BC91A02DFD
:103022001A9780F0DE01A859BE4F0D90BC91A02DD9
:103032001A9740F0DE01AA59BE4F0D90BC91A02D07
:103042001A9708F4DCC1E0913F05F09140053097F2
:1030520051F0DE01A659BE4F0D90BC91A02DAC3DA2
:10306200E5E0BE0708F0CAC1FE01EA59FE4F019031
:10307200F081E02D662777270E941026DF01CB0121
:10308200FE01E859FE4F0190F081E02D6627772777
:103092000E9410260E94E826EEA3FFA368A779A744
:1030A200AEA1BFA188A599A5E0E0F0E068EC72E4CA
:1030B2000E949A26A3E4B5E00E94D725ED93FC93E3
:1030C200A0914305B0914405A436E0E0BE0710F09C
:1030D200E3E602C0E0914305DE01A259BE4FEC9344
:1030E200DE01AC58BE4FAC91A33020F0E091220635
:1030F200E03009F041C0E1E0DE01AB58BE4FEC9395
:10310200FE01EF58FE4FE081E03071F4E1E0DE01B4
:10311200AF58BE4FEC93E0E0EA93A0E00E94B422E5
:10312200A4E0B4E00E94F922E0E4F6E0FA93EA9324
:10313200EAEEF3E0FA93EA93FE01EE58FE4FE081E5
:10314200FF27662777270E94CD2784E00E94A324C9
:103152002896E3E0EA93A0E00E94B422A0E4B6E05D
:103162000E94F922DE01A259BE4FAC91AA3020F48E
:10317200A5E1B4E00E94F922FE01E859FE4F019058
:10318200F081E02D662777270E941026DF01CB0110
:10319200EAA9FBA9662777270E9410260E949A2691
:1031A2007F936F93FF93EF93FE01E659FE4F0190D9
:1031B200F081E02D662777270E941026DF01CB01E0
:1031C200E8A9F9A9662777270E9410260E949A2665
:1031D200AF91BF918F919F910E94E826DF01CB01B1
:1031E2000E94DF24A6E6B6E686E29FE30E944A2614
:1031F2007F936F93FF93EF93AEA1BFA188A599A58B
:103202000E94DF24AFE2BDED84E49FE30E949A2690
:10321200AF91BF918F919F910E94D7270E94432621
:103222007F936F93FF93EF93E0913F060E94712784
:103232000E941026AFE8B2EC85EF9CE30E949A262A
:10324200AF91BF918F919F910E94D7270E944326F1
:10325200EEA3FFA368A779A7A9A5AA23BAF431E030
:10326200EDE2E98BE0913F06E03039F0EEA1FFA1FB
:1032720068A579A50E94A42504C0E0E0F0E060E022
:1032820070E0EEA3FFA368A779A703C030E0EBE2EA
:10329200E98BE0913F06E03051F0DE01A259BE4FCA
:1032A200AC91A93120F0AA3410F4303009F402C0F4
:1032B200E1E001C0E0E03E2F303071F0DE01A159C3
:1032C200BE4FAC91A43030F4FE01E159FE4FE081D3
:1032D200EF5F01C0E4E00DC0DE01A159BE4FAC9129
:1032E200A23030F0FE01E159FE4FE081E25001C010
:1032F200E0E0DE01A159BE4FEC93DE01AC58BE4FB7
:10330200AC91A33030F0DE01A159BE4FAC91A33095
:1033120008F402C0E1E001C0E0E03E2FDE01AC585B
:10332200BE4FAC91A33020F0E0912206E03009F0CC
:1033320065C0AEA1BFA188A599A5E0E0F0E068EC68
:1033420072E40E949A26A3E4B5E00E94D725ED9389
:10335200FC93A0914305B0914405A436E0E0BE077A
:1033620030F0E3E6F0E0E0934305F0934405E091AA
:103372003F06E03051F0303019F0A7E1B4E002C06E
:10338200AFE1B4E00E94F92212C0A0914305B091CE
:103392004405E3E6F0E0EA1BFB0BE0934305F09300
:1033A2004405E0E2E98BA7E2B4E00E94F922E0E4FE
:1033B200F6E0FA93EA93EAEBF4E0FA93EA93ED8902
:1033C2000E9471270E94CD27E0914305F0914405A8
:1033D200662777270E94CD2788E00E94A3242C9697
:1033E200A0E4B6E00E94F922A0914305B091440501
:1033F2001A9720F4AFE2B4E00E94F9220AC0E0E09A
:10340200DE01A159BE4FEC9330E0DE01AB58BE4F56
:10341200EC93E0E0DE01A059BE4FEC9380C0FE01C8
:10342200EF58FE4FE081E03021F0E0912206E030DB
:1034320009F01CC0DE01A059BE4FEC91EF5FEC9386
:103442006E2FD201E6E0F0E00E948A27A62FB0E0BC
:10345200EA17FB0758F4E0E0DE01A059BE4FEC93F7
:10346200DE01AF58BE4FEC930E94CB03E0E0E09345
:103472001B06A0911B06A43180F5E0911B06F0E02B
:10348200DE01A25CBE4FEE0FFF1FAE0FBF1FE0E0DA
:10349200F0E0ED93FC93E0911B06F0E0DE01AA5E02
:1034A200BE4FEE0FFF1FAE0FBF1FE0E0F0E0ED9347
:1034B200FC93E0911B06F0E0DE01A251BF4FEE0F3C
:1034C200FF1FAE0FBF1FE0E0F0E0ED93FC93E09131
:1034D2001B06EF5FE0931B06CCCFE0E0DE01A159B3
:1034E200BE4FEC9330E020E0DE01AC58BE4FEC93CF
:1034F200DE01A659BE4FED93EC93DE01A859BE4FF3
:10350200ED93EC93DE01AA59BE4FED93EC93DE01ED
:10351200AB58BE4FEC93DE01A259BE4FEC93E09143
:103522003F05F0914005309781F0E0913C06E03094
:1035320061F0DE01A459BE4F0D90BC91A02DA139BE
:10354200E0E0BE0710F0303009F0CCC0A091510687
:10355200A9300CF44CC0A93011F0AA30B1F4F50135
:10356200E219F309662777270E941026DF01CB01B3
:103572000E94DF24A0E0B0E080E291E40E949A265B
:10358200A7E2B6E00E94D725EC93E2E4E093B00014
:10359200E5E0E093B100A0915106A93051F4A09169
:1035A2002706AB3920F4E0912706EC5901C0EFEF72
:1035B2001BC0A0915106AA3049F4A0912706AB394D
:1035C20018F4EFEFEA1B01C0E4E60EC0A091510629
:1035D200AB3061F4FE01E259FE4FE081E03019F0B8
:1035E200EE0FE75C01C0E9E3E093B3007AC0A0917B
:1035F2003F05B0914005519730F4E0913F05F091BD
:103602004005319701C0EFE0E0932706E0912106E3
:10361200A0912706EA0FE0932706A0912706AE3273
:1036220008F401C0EDE2E093B300E3E8E093B000F8
:10363200E0915106E830B1F4A0913F05B091400508
:10364200A135E0E0BE0710F0E6E009C0A0913F0519
:10365200B0914005519710F0E5E001C0E4E0E0933D
:10366200B1003FC0E130D1F1E23011F4E5E037C002
:10367200E33011F4E6E033C0E43051F4A091B1003C
:10368200A43011F4E5E001C0E4E0E093B10029C008
:10369200E53051F4A091B100A53011F4E6E001C08B
:1036A200E5E0E093B1001DC0E63051F4A091B10015
:1036B200A43011F4E6E001C0E4E0E093B10011C0EF
:1036C200E73079F4A091B100A43011F4E5E007C02D
:1036D200A091B100A53011F4E6E001C0E4E0E0936E
:1036E200B10005C0E0E0E093B000E093B100E0E09B
:1036F200EA93A1E00E94B422E0913F05F0914005D7
:10370200309709F425C1E0913C06E03021F4E091C4
:103712003B06E03009F431C0303041F5DE01AD58EE
:10372200BE4FAC91AA3F30F4FE01ED58FE4FE0814E
:10373200EF5F01C0E0E0DE01AD58BE4FEC93D20175
:10374200ECE2F1E00E948A273196DE01AD58BE4FCD
:10375200AC91B0E00E94C227309739F4E7B5EF3759
:1037620011F0EFE701C0E9EAE7BD07C0E0913B06CF
:10377200AEE0EA02F001EE58E7BDF501E219F30905
:10378200E0933705F0933805E12FA0913705B0910A
:103792003805F0E0AE1BBF0BFD01F695E7953396B9
:1037A200662777270E941026DF01CB010E94DF24C3
:1037B200A7E2B6E00E94D725EC93E1E0E0931B0676
:1037C200E0912706A0911B06EA1710F0A83008F036
:1037D2000AC0A0911B060E94D922E0911B06EF5F4E
:1037E200E0931B06EDCFA0912706A83020F0A1E3BD
:1037F200B4E00E94F922A0911B06E9E0EA1BE093E3
:103802001B06E0911B06E150E0931B06EF5F29F0D7
:10381200A3E3B4E00E94F922F4CFA0913705B0915E
:103822003805E3E0F0E00E948A27E0933705F09341
:103832003805A0913705B0913805A83EE3E0BE07F0
:1038420030F0E7EEF3E0E0933705F0933805E42F2C
:10385200F0E0DE01D496EE0FFF1FEA0FFB1FA091EE
:103862003705B0913805A083B183E0E0E0933705D6
:10387200E0933805E0931B06A0911B06A33008F5E0
:10388200E0911B06F0E0DE01D496EE0FFF1FAE0FB3
:10389200BF1FCD90DC900C2C0D2861F0F601A09199
:1038A2003705B0913805EA0FFB1FE0933705F09317
:1038B200380501C006C0E0911B06EF5FE0931B06CE
:1038C200DBCFE0911B06A0913705B0913805F0E0FF
:1038D2000E948A27E0933705F0933805423018F4A6
:1038E200E42FEF5F01C0E0E04E2FE0E4F6E0FA9350
:1038F200EA93E1EAF2E0FA93EA93E0913705F09174
:103902003805662777270E94CD2784E00E94A324EA
:103912002896E8E0EA93A1E00E94B422A0E4B6E08F
:103922000E94F922A0913705B09138051A9718F430
:10393200A5E3B4E00AC0A0913705B0913805A436DA
:10394200E0E0BE0720F4A8E3B4E00E94F922CFC071
:10395200E0913C06E03021F4E0913B06E03009F4CE
:1039620007C0E0913B06AEE0EA02F001EE58E7BD87
:10397200E0E0ECABEDABEEABEFABE8AFE9AF40E0D4
:10398200DE01AD58BE4FEC93E02FF0E0EA0DFB1DD7
:103992002E163F06C8F4AAE3B4E00E94F922DE0123
:1039A200A459BE4F0D90BC91A02DA139E0E0BE07F5
:1039B20028F0E0E0E0931906E0931A06E0E0DE0169
:1039C200AE58BE4FEC938BC0E12FF0E0EA0DFB1D29
:1039D2002E163F0608F478C0A9E1B6E0ED91FD91FC
:1039E2003196FE93EE93DE01AE58BE4FAC91AD30F0
:1039F20030F4FE01EE58FE4FE081EF5F01C0EDE0D2
:103A0200DE01AE58BE4FEC93A0915406EDE0EA1BE6
:103A1200DE01AE58BE4FAC91B0E0F0E0E7FDFFEF43
:103A2200AE17BF070CF447C0D101AA19BB09E3E0E6
:103A3200F0E00E948A27E0934705F0934805A091A1
:103A42004705B0914805A83EE3E0BE0730F0E7EE37
:103A5200F3E0E0934705F0934805E0E4F6E0FA93DB
:103A6200EA93EDECF4E0FA93EA93E0914705F091E2
:103A72004805662777270E94CD2784E00E94A32469
:103A82002896A0E4B6E00E94F922A0914705B091E1
:103A920048051A9718F4A6E4B4E00AC0A0914705B5
:103AA200B0914805A436E0E0BE0720F4A9E4B4E0F2
:103AB2000E94F92208C0ABE4B4E00E94F92284EF2C
:103AC20091E00197F1F70FC0A7E5B4E00E94F92257
:103AD200A9E1B6E0ED91FD913196FE93EE9384EF6C
:103AE20091E00197F1F788EE93E00197F1F7E09109
:103AF2002206E03009F4EEC0A0912206A130B1F511
:103B0200E2E0EA93A0E00E94B422E0E4F6E0FA9355
:103B1200EA93E1EAF2E0FA93EA93F1016627772762
:103B22000E94CD2784E00E94A3242896A0E4B6E058
:103B32000E94F922E0E1F7E22E163F0620F4A3E606
:103B4200B4E00E94F922E8EEF3E02E163F0620F4DC
:103B5200A5E6B4E00E94F922E4E6F0E02E163F0664
:103B620020F4A7E6B4E00E94F922B4C0DE01A6590F
:103B7200BE4F0D90BC91A02DEAA9FBA9EA1BFB0B3D
:103B8200DF01EDE0F0E00E948A27E0934305F09325
:103B92004405E0E4F6E0FA93EA93E1EAF2E0FA930C
:103BA200EA93E0914305F0914405662777270E9446
:103BB200CD2784E00E94A3242896E2E0EA93A0E0C5
:103BC2000E94B422A0E4B6E00E94F922A09143052B
:103BD200B0914405A436E0E0BE0720F4A9E6B4E0C3
:103BE2000E94F922DE01A859BE4F0D90BC91A02D72
:103BF200E8A9F9A9EA1BFB0BDF01EDE0F0E00E9466
:103C02008A27E0934305F0934405E0E4F6E0FA9353
:103C1200EA93E1EAF2E0FA93EA93E0914305F09144
:103C22004405662777270E94CD2784E00E94A324BB
:103C32002896E7E0EA93A0E00E94B422A0E4B6E06E
:103C42000E94F922A0914305B0914405A436E0E018
:103C5200BE0720F4ABE6B4E00E94F922DE01AA59C5
:103C6200BE4F0D90BC91A02DEEA5FFA5EA1BFB0B4C
:103C7200DF01EDE0F0E00E948A27E0934305F09334
:103C82004405E0E4F6E0FA93EA93E1EAF2E0FA931B
:103C9200EA93E0914305F0914405662777270E9455
:103CA200CD2784E00E94A3242896ECE0EA93A0E0CA
:103CB2000E94B422A0E4B6E00E94F922A09143053A
:103CC200B0914405A436E0E0BE0720F4ADE6B4E0CE
:103CD2000E94F922E0915306E03069F0E091280653
:103CE200E03031F0E0916105F0916205309719F40E
:103CF2000A2C0B2809F488C0E12FF0E0EA0DFB1D25
:103D02002E163F0628F0A0912006A43009F061C0CB
:103D1200E0915306AAE0EA02F001E0932706A0919F
:103D22002606AE1720F4E0912606EF5F01C0E1E01F
:103D3200E0932606ADE4B5E0F0E0EE0FFF1FEA0FD8
:103D4200FB1F20823182E0E0EE8BEF8BE88FE98F60
:103D5200E1E0E0931B06E0912706A0911B06EA171B
:103D620018F1E0911B06ADE4B5E0F0E0EE0FFF1FA5
:103D7200AE0FBF1FCD90DC900C2C0D2871F0F60118
:103D8200AE89BF89888D998D662777270E94512732
:103D9200EE8BFF8B688F798F01C006C0E0911B0606
:103DA200EF5FE0931B06D7CFA0911B06A63068F009
:103DB200E0911B06E150AE89BF89888D998DFF275E
:103DC200662777270E949D275F01E0E0E0932006A7
:103DD2001AC0A0912006A43020F4E0912006EF5FE3
:103DE20001C0E4E0E0932006FE01EB58FE4FE081C3
:103DF200E03049F4A0915306EFE1EA9FF001B59655
:103E0200DF010E9450030FC0FE01EB58FE4FE0811C
:103E1200E03049F4A0915306EFE1EA9FF001B69633
:103E2200DF010E945003E0912806E03021F4E09186
:103E32002006E03009F009C1CC24DD24E0E0E09363
:103E42003705E0933805E0933905E0933A05EAA394
:103E5200EBA3ECA3EDA3EE8FEF8FE8A3E9A3EA8F28
:103E6200EB8FEC8FED8FE0931B06A0911B06AC301D
:103E7200C8F5E0911B06AFE6B4E0F0E0EE0FFF1FDD
:103E8200AE0FBF1F0E94C527CE0EDF1EA0911B06DC
:103E9200B0E0AA0FBB1FAD56BB4F0E94C527A09131
:103EA2003705B0913805EA0FFB1FE0933705F09311
:103EB2003805A0911B06B0E0AA0FBB1FA954BB4F47
:103EC2000E94C527A0913905B0913A05EA0FFB1F60
:103ED200E0933905F0933A05E0911B06EF5FE0931A
:103EE2001B06C3CFE52FF0E0DE01AE54BF4FEE0F4D
:103EF200FF1FEA0FFB1FC082D182E52FF0E0DE0137
:103F0200AA58BF4FEE0FFF1FEA0FFB1FA091370504
:103F1200B0913805A083B183E52FF0E0DE01DA9697
:103F2200EE0FFF1FEA0FFB1FA0913905B0913A0572
:103F3200A083B183E0E0E0931B06A0911B06AE31A3
:103F420008F052C0E0911B06F0E0DE01AE54BF4F14
:103F5200EE0FFF1FAE0FBF1FCD90DC900C2C0D2873
:103F620009F442C0F601AAA1BBA18CA19DA16627BA
:103F720077270E945127EAA3FBA36CA37DA3E091BC
:103F82001B06F0E0DE01AA58BF4FEE0FFF1FAE0F77
:103F9200BF1F0E94C527AE8DBF8D88A199A166273C
:103FA20077270E945127EE8FFF8F68A379A3E091B4
:103FB2001B06F0E0DE01DA96EE0FFF1FAE0FBF1F09
:103FC2000E94C527AA8DBB8D8C8D9D8D6627772774
:103FD2000E945127EA8FFB8F6C8F7D8FE0911B0629
:103FE200EF5FE0931B06A9CFE0911B06E03061F181
:103FF200AAA1BBA18CA19DA1FF27662777270E94BA
:104002009D27EAABFBABE0911B06AE8DBF8D88A16D
:1040120099A1FF27662777270E949D27E8ABF9AB76
:10402200E0911B06AA8DBB8D8C8D9D8DFF27662787
:1040320077270E949D27EEA7FFA75D3118F4E52F91
:10404200EF5F01C0E0E05E2F0AC0FE01EB58FE4FB9
:10405200E081E03021F48DE498E00197F1F7339BA1
:1040620002C03599FDC0339902C0E1E003C0359921
:1040720003C0E2E0E0932706E0913C06E03031F035
:10408200E0E0E093B000E093B10009C0E0913B06AC
:10409200E03029F0AEE0EA02F001EE58E7BD0E94FE
:1040A200C522A4EEB4E00E940823A0911706B091A5
:1040B2001806AD30E9E0BE0790F4D196A031E8E0F1
:1040C200BE0768F0A0911706B0911806E2E00E94C0
:1040D2008427E05AFF40E737A2E0FA0708F005C25A
:1040E200A0914B05B0914C05AA33E5E7BE0720F03D
:1040F200A0912506AF3208F4F8C1A9E1B0E00E9410
:104102008925E0E0E0931B06A0911B06A93008F088
:104112004FC0339B04C0A0912706A13021F4A09187
:104122002306A43108F008C0E0912306EF5FE09374
:104132002306E1E0E0931B06359B04C0A09127060D
:10414200A23021F4A0912306A23008F408C0E09125
:104152002306E150E0932306E1E0E0931B06E0E44E
:10416200F6E0FA93EA93EAEEF3E0FA93EA93E09147
:104172002306FF27662777270E94CD2784E00E9427
:10418200A3242896E7E0EA93A1E00E94B422A0E4E7
:10419200B6E00E94F922AFEAB0E00E948925E0E091
:1041A200E0932706E0911B06EF5FE0931B06ACCF7E
:1041B20022243324E1E0E0931B06A0911B06A131E7
:1041C200D8F4E0911B06F0E00F01EB5AF94FA08101
:1041D200B0E0A7FDBFEFF001EA59F94FE081F0E04E
:1041E200E7FDFFEFEA0FFB1F2E0E3F1EE0911B06BD
:1041F200EF5FE0931B06E1CFF101A3E0B0E00E9484
:104202007C27EF35A6E1FA0709F06FC1E09123069A
:10421200F0E0E45BFF4F1491A0912306A23050F02E
:10422200E0912306E150F0E0E45BFF4FE491E11BF3
:10423200EE0F01C0ECE30E2FE0E0E0932806DE0172
:10424200AE58BE4FEC93E0932006DE01AB58BE4F52
:10425200EC93DE01AF58BE4FEC9396D10E94CB0394
:10426200349923C0E0E0E093B000E093B100A09164
:104272002206A23020F4E0912206EF5F01C0E0E0C6
:10428200E09322060E94CB03E0E0DE01AE58BE4F6F
:10429200EC93DE01A059BE4FEC93DE01AF58BE4F46
:1042A200EC93A8ECB0E00E948925DE01A459BE4F30
:1042B2000D90BC91A02DA139E0E0BE0738F4A9E130
:1042C200B6E0ED91FD913196FE93EE93A091190621
:1042D200B0911A06E2E00E9484274E165F0610F49F
:1042E2000E949A0F0EC0E1E4E0937C00A6E9B0E0E0
:1042F2000E948925E0E0EA93A1E035D1A3EFB4E082
:1043020086D11D990FC00E94CB07E0E0DE01AF58B5
:10431200BE4FEC93DE01AE58BE4FEC93DE01AB58BC
:10432200BE4FEC9332990FC00E943004E0E0DE01F0
:10433200AE58BE4FEC93DE01AF58BE4FEC93DE0198
:10434200AB58BE4FEC93E1E4E0937C00FE01EB58E6
:10435200FE4FE081E03059F0DE01A459BE4F0D90CE
:10436200BC91A02DA239E0E0BE0708F07AC0E0912E
:104372007A00E064E0937A00E0917A00E074E1F779
:10438200E0917800F0917900DE01A459BE4FED93DF
:10439200FC93662777270E941026A2EBBEE28EE8E6
:1043A2009EE30E949A26A3E3B3E383E590E40E948E
:1043B2004A26DE01A459BE4F0E94D725ED93FC93F5
:1043C200DE01A459BE4F0D90BC91A02DA139E0E0B1
:1043D200BE0758F4E0E0E093B000E093B100EA9346
:1043E200A1E0C1D0AFEFB4E012D1E0E4F6E0FA937D
:1043F200EA93EBE0F5E0FA93EA93DE01A059BE4FAF
:104402000D90BC91A02DEAE0F0E00E948A27662779
:1044120077270E94CD27DE01AC58BE4F0D90BC918C
:10442200A02DEAE0F0E00E94C227662777270E94CB
:10443200CD2788E00E94A3242C96ECE0EA93A1E029
:1044420092D0A0E4B6E0D4D0DE01A459BE4F0D90C4
:10445200BC91A02DA436E0E0BE0718F4A3EBB2E0B5
:10446200D6D0E0E4E0937C00EA89FB896C897D89FF
:10447200EF5FFF4F6F4F7F4FEA8BFB8B6C8B7D8B18
:10448200E0912406E03019F0EDE5F0E001C0F20120
:104492006F01AA89BB898C899D89662777270E942B
:1044A2009D27E030A3E0FA07A0E06A07A0E07A07C0
:1044B200D0F0A4E0B0E00E94E42731960E94F427F5
:1044C200A9E4B5E0ED91FD913196FE93EE93E0E023
:1044D200EA8BEB8BEC8BED8BA7E1B6E0ED91FD91D6
:1044E2003196FE93EE930C941014EF96E796DF5FED
:1044F200FFCFAA93E881E07111F05A9A01C05A984D
:10450200E881E07211F05B9A01C05B98E881E07487
:1045120011F05C9A01C05C98E881E07811F0289A69
:1045220001C0289881E28A95F1F7599A81E28A9529
:10453200F1F7599881E28A95F1F7B6C0AA93A8815A
:10454200D8DFE881E295E883A881D3DF8AEF90E0A3
:104552000197F1F7A9C0AA93A981F0DF589AA8811F
:10456200EDDF58980FC0AA93E881F0E0E958F94FBF
:10457200E081A981AE0FE2DFE981E0937B06E88169
:10458200E0937C0622960895A2E0D8DFA3E0B0E093
:104592000E948925ACE0D2DFA1E0D0DFA3E0B0E049
:1045A2000E948925E0E0E0937C06E0937B06089573
:1045B200AA93A881AA3031F0E0917D06A0917B06F2
:1045C200AE1760F0E0E0EA93A0917C06AF5FA093A3
:1045D2007C06C9DFA881AA3009F466C0E0917B0697
:1045E200EF5FE0937B06589AA881A8DF58985CC0D9
:1045F200BA93AA931A93A981BA81ED91A983BA8336
:104602001E2FE03019F0A12FD3DFF5CF10C0BA93DF
:10461200AA931A93E981FA813196E983FA83319751
:10462200E4911E2FE03019F0A12FC2DFF3CF1881E1
:1046320023960895AA93529A539A549A209A519A79
:10464200509A579A599858985F98E881E0937D0656
:10465200E058E0937906E881E054E0937A06A4E119
:10466200B0E00E948925A0E344DF84EF91E0019746
:10467200F1F7A0E33EDF84EF91E00197F1F7A0E3C9
:1046820038DF84EF91E00197F1F7A0E232DF84EFA7
:1046920091E00197F1F7A8E251DFA4E04FDFA5E82E
:1046A2004DDFA6E04BDF70DF21960895BA93AA93FF
:1046B2001A930A93AA81BB8112960E94C52730974A
:1046C20059F1AA81BB8114960E94C5278F013097A8
:1046D20061F00230E0E01E0798F0F80131978F0197
:1046E200AA81BB811496ED93FC93AA81BB81129699
:1046F200ED91FD913196FE93EE933197AC81A083BB
:10470200AA81BB810E94C527FF232AF0ED91FD916A
:104712003196FE93EE9306C0AA81BB81EFEFFFEFC5
:10472200ED93FC931981088125960895BA93AA9373
:1047320024970E94132810E0AA85BB85E0E0F0E0F0
:10474200ED93FC93E889F9893196E88BF98B3197DF
:10475200E4913E2FE03009F4EDC0E12FE03059F44E
:10476200353211F411E006C03A93AB85BC85ED8574
:10477200FE850995DEC0E130A9F4353239F43A9369
:10478200AB85BC85ED85FE850995D2C012E020E09F
:1047920000E03B3211F42BE2CCC0303211F420E2C3
:1047A200C8C002C0E23031F4303319F4006115E0C0
:1047B200C0C003C0E53009F0BCC0E32FE33669F4A2
:1047C200EE85FF853497EE87FF87A481AA93AB8598
:1047D200BC85ED85FE850995ABC0E337E1F4EE8536
:1047E200FF853497EE87FF87AE85BF8514960E94BA
:1047F200C527EE83FF83AE81BF81ED91AE83BF8378
:104802003E2FE03039F03A93AB85BC85ED85FE85CD
:104812000995F1CF8DC0E037F1F4EE85FF8534972D
:10482200EE87FF87AE85BF8514960E94C527EE836B
:10483200FF83EE81FF813196EE83FF833197E4910E
:104842003E2FE03039F03A93AB85BC85ED85FE858D
:104852000995EFCF6DC0E43611F0E93611F401602D
:1048620002C0E53719F4E2E6F0E009C0E83511F4D8
:10487200026003C0E83709F05BC0ECE6F0E0EE83CB
:10488200FF8300FF1AC0EE85FF853497EE87FF870E
:10489200AE85BF8514964D915C9155232AF4FA0199
:1048A2000E945B27AF012DE2203031F02A93AB85C5
:1048B200BC85ED85FE8509950AC0EE85FF85349796
:1048C200EE87FF87AE85BF8514964D915C9130E3EC
:1048D200EE81FF810E94C927E887F987EE81FF8177
:1048E2003296EE83FF83E885F9854E175F0730F035
:1048F2003F5FA885B9854A1B5B0BF5CF04FD06C057
:10490200313320F4A885B985119771F400613A33E7
:1049120028F001FF02C0395F01C0395D3A93AB85CF
:10492200BC85ED85FE850995A885B985129778F62F
:1049320010E008CFAA85BB850E94C5270E941A28CD
:1049420062960895FF92F82E26970E941528DE019E
:104952001C960E944D270E94C527309719F4EFEF4D
:10496200FFEF27C0DE0116960E944D278D01DE0162
:104972001C960E944D270E94C527EE83FF83E0E02C
:10498200E887E987DE011A960E944D270E94C52713
:10499200FA93EA931A930A93E7E5F3E2FA93EA9316
:1049A200DE011A96C3DE9F01AE81BF81E0E0EC9387
:1049B200F9010E941C282A96FF9008950E94D2278E
:1049C20024971A930A93AE81BF81888599850E94A4
:1049D2000D282CF0EFEFFFEF6FE77FEF95C0EE8130
:1049E200FF81688579850E94CD27ADB7BEB7119743
:1049F2001F930F930E9493250F911F91EE83FF83C4
:104A020068877987AE81BF8188859985E3EFF4E075
:104A120065E37FE30E942D2760F4EE81FF816885C4
:104A220079850E944A26EE83FF8368877987015041
:104A32001040EE81FF8168857985A0E0B0E080E8D2
:104A42009FE30E9443267F936F93FF93EF93EE8140
:104A5200FF8168857985A0E0B0E080E89FE30E944D
:104A62004A26AF91BF918F919F910E94E826EE83D3
:104A7200FF8368877987AE81BF81888599850E9487
:104A82009A26EA83FB836C837D83A6E2B2E485E601
:104A92009FE30E949A26DF01CB01EEE4F1E164E597
:104AA20070E40E94D7270E944326AE81BF81888589
:104AB20099850E949A267F936F93FF93EF93EA81E1
:104AC200FB816C817D81ADE4B1E184ED9FE30E94C5
:104AD2004326AF91BF918F919F910E94E8267F93C9
:104AE2006F93FF93EF93F8010E9477270E9410269D
:104AF200A8E1B2E781E39FE30E949A26AF91BF91BA
:104B02008F919F910E944A26198108812A960895C1
:104B1200109639F088E893E10197F1F7A89511977B
:104B2200C9F70895E991F9916991799177FB660F37
:104B3200771F88277E57880B7D938C937EE7769527
:104B420067950EF0089530976040704009F07058F4
:104B52000895552342F4503811F4E0FF04C0319611
:104B6200691F791F6BF050E8572711F45F93CFC08C
:104B72005F3F31F0660F000C57956795752F0895CA
:104B82005F9300200AF0CFC0C8C050E8192E15224A
:104B9200880F991F9527550F879550E8072E0522F4
:104BA200660F771F7527550F67950895689401C0A2
:104BB200E8945F93F2DF703818F07F3F08F4A7C0E3
:104BC20056E1571BAAF4519558300EF4593030F083
:104BD200EFEFFFEF6FEF7FE777F91AC077275523E3
:104BE200B9F0EE0FFF1F661F771F5A95D1F710C05D
:104BF2007727583028F0EF2FF62F672F5850F9CF2C
:104C0200552331F076956795F795E7955A95D1F743
:104C120000200AF453D15F910895689401C0E8948A
:104C2200309760407040B1F0002426F0772312F4F0
:104C3200009444D1172E7EE1112032F07A95EE0FC6
:104C4200FF1F661F111CF9CFEF2FF62F612D5F9307
:104C52008ADF5F9108954F93AF01FD01DA01AB0145
:104C6200BC01CA01402D012C142E4F910895EA0F68
:104C7200FB1F681F0895E095F0956095EF5FFF4F69
:104C82006F4F08955F9381DF903871F150E81526D8
:104C920004C05F937ADF903839F1703821F1572FD1
:104CA200591B2BF112F4D7DFFACF583118F0AA278B
:104CB200BB278827583028F0AB2FB82F88275850A9
:104CC200F9CF552329F08695B795A7955A95D9F727
:104CD200502D512572F0CBDF38F46795F795E795A3
:104CE200739513F420C0B7DF3EDF5F910895D8F7C4
:104CF200FBCFEA1BFB0B680B51F010F40094BBDFF7
:104D0200662392F3EE0FFF1F661F7A95CBF7EE270D
:104D1200FF27662777275F910895EFEFFFEF6FE791
:104D22007FEF5F910895EFEFFFEF6FE77FE75F910E
:104D320008955F932ADF703851F3903841F30124CC
:104D42000894791F23F41CF300203AF3ECCF0F925E
:104D52001F932F933F934F93112722279927689FE1
:104D6200A0018F9F302D410D591F6B9F300D411DAA
:104D7200591F8E9F27D0BF9F25D06A9F23D0BE9FE9
:104D82001DD0AF9F1BD0AE9F110D291F391F491F88
:104D9200591FE32FF42F652F522F4F913F912F91DF
:104DA2001F910F9066232AF0550FEE1FFF1F661FFB
:104DB20002C073954BF2CDDE5F910895100D211D57
:104DC200391F02C0200D311D491F591F08955F93DD
:104DD200DCDE703821F411200AF49FCFA4CF903882
:104DE20009F495CF01240894970B1BF4D4F3002007
:104DF200F3CF792F1F932F933F934F9311241127B2
:104E0200222733274427552790E2AE17BF0786078C
:104E1200410730F0AE1BBF0B860B410B089401C05B
:104E22008894551F221F331F111CAA1FBB1F881FE6
:104E3200441F9A9551F7F901612D4F913F912F919E
:104E42001F91662332F0550FEE1FFF1F661F7A95E2
:104E520043F27FDE5F91089599239AF0772342F01F
:104E6200971748F029F4AE17BF07860720F031F0F4
:104E7200989488940895989408940895189488941E
:104E820008957723C2F7971798F3A9F7EA17FB0754
:104E9200680788F399F3ECCF0024AF0DB01D089595
:104EA200EA0FFB1F681F791F0895AE0FBF1F861FF1
:104EB200971F0895F195E195F0400895F09560955A
:104EC2007095E195FF4F6F4F7F4F0895EE0FFF1FD3
:104ED200EE0FFF1F089576956795F795E79508956C
:104EE200FE2FFF0FFF0B6F2F7F2F08956F2F660F7F
:104EF200660B762F0895FA9FF02DEB9FF00DEA9F37
:104F0200E02DF10D08956E2F6A9FF0016B9FF00D59
:104F120008950024112490E1AA0FBB1F001C111C4C
:104F22000E1A1F0A18F40E0E1F1E01C0A1609A95D8
:104F320099F7FD01D00108953F934F935F930024A9
:104F420011244427552730E2AA0FBB1F881F991F3F
:104F5200001C111C441F551F0E1A1F0A460B570B2B
:104F620028F40E0E1F1E461F571F01C0A1603A955E
:104F720059F7FD01BC01D001CA015F914F913F91E8
:104F82000895C7DFFD010895ED91FC9111970895F1
:104F92000590F491E02D08957A936A93FA93EA9337
:104FA20008959A938A93BA93AA930895182E862FF6
:104FB200612D192E972F712D1B2EBF2FF12D1A2E19
:104FC200AE2FE12D0895119602D0FE2F1197F99977
:104FD200FECFFF93FFB7F894A1BDB2BDF89AE0B53A
:104FE200FFBFFF91089507D01196EF93EF2F03D0E3
:104FF200EF9111970895F99B02C0A895FCCF9FB736
:10500200F894A1BDB2BDF89A80B5E81719F0E0BDD9
:10501200FA9AF99A9FBF089500240A160B06080609
:10502200090608955A934A933A932A931A930A9334
:1050320008955D814C813B812A81198108810895FF
:105042009927AC0FBD1F05900D920197E1F70895C6
:00000001FF
