:0A0000000C94B5020C9400000C945F
:10000A0000000C9400000C9400000C9400000C9466
:10001A0000000C9400000C9400000C9400000C9456
:10002A0000000C9400000C9400000C9400000C9446
:10003A0000000C9400000C9400000C9400000C9436
:10004A0000000C9400000C9400000C9400000C9426
:10005A0000000C9400000C9400000C940000080CA2
:10006A001E1F1E0C0800000000000000031F0000F5
:10007A00000000031F1F00000000031F1F1F0000D5
:10008A0000031F1F1F1F0000031F1F1F1F1F000346
:10009A001F1F1F1F1F1F031F1F1F1F1F1F1F00CDF3
:1000AA00AF968273645546382E241E1915120F0C0A
:1000BA00090603001027E80364000A000100001083
:1000CA00000110000100C9000000A000027A00002F
:1000DA0000000000000000001200010031000000D2
:1000EA000000000000000000000000000000050001
:1000FA00020000000000000008002A0003000900B6
:10010A00202046656C657A4A6F6F2020504920206E
:10011A00000020202044454D4F2076322E343020D6
:10012A00202000008300040005000600A30002004E
:10013A0000000000B002C002D002E002F002000398
:10014A001003200330034003500360030000000043
:10015A000000000000000000000000000000000095
:10016A000000000000000000000000000000000085
:10017A000000000000000000000000000000000075
:10018A000000000000000000000000000000000065
:10019A000000000000000000000000000000000055
:1001AA000000000000000000000000000000000045
:1001BA000000000000000000000000000000000035
:1001CA000000000000000000000000000000000025
:1001DA000000000000000000000000000000000015
:1001EA000000000000000000000000000000000005
:1001FA0000000000000000000000000000000000F5
:10020A0000000000000000000000000000000000E4
:10021A0000000000000000000000000000000000D4
:10022A0000000000000000000000000000000000C4
:10023A0000000000000000000000000000000000B4
:10024A0000000000000000000000000000000000A4
:10025A00000000000000960000003F20202020201F
:10026A0020202020202020202020005325754425EE
:10027A007546257550257500202020202044656C80
:10028A0061793A002020436F696C204572726F725F
:10029A00202100257520284155544F290025752015
:1002AA00282B257529004672657175656E6379205C
:1002BA0020202020200050756C73652057696474D3
:1002CA0068202020200044656C61792020202020AD
:1002DA00202020202000496E7465672E5720202098
:1002EA0020202020200047726F756E642020202075
:1002FA0020202020200053706565642020202020C3
:10030A0020202020200049726F6E2052656A6563A2
:10031A007420202020004261636B4C696768742056
:10032A00202020202000436F6E7472617374202095
:10033A00202020202000566F6C756D65202020201B
:10034A00202020202000546F6E65202020202020AD
:10035A0020202020200050617373776F7264202060
:10036A002020202020004F464600415554004F4E81
:10037A0020002B002B2575002575202000257520CF
:10038A0000204F6C642050617373776F7264203A57
:10039A000057726F6E672050617373776F726420B3
:1003AA002100204E65772050617373776F72642045
:1003BA003A0050617373776F7264204368616E67A5
:1003CA0065640020204869676820506F776572204D
:1003DA0021002020205072657373204F4B2021008A
:1003EA002020202044454D4F20212121002020207B
:1003FA00202020203F002052656D61696E696E677A
:10040A00205573653A0042616C616E63696E6720BC
:10041A0020003F2000FF005F2020202020202020F5
:10042A00202000212020202020202D257500212099
:10043A00202020202020202020002575202575201E
:10044A00257500202053656E73697469766974791D
:10045A003A00436F696C204572726F7220004C6FCC
:10046A00772042617474657279002025752E25758E
:10047A00000080C000000000010000002D4E414E27
:10048A0000494E46000006000600D00002000C0497
:10049A00D60001007904D80001007A04DA000100CC
:1004AA007B04DC0001007C04DE0001007D04E00026
:1004BA0001007E04E20001007F04E40001008004E0
:1004CA00E60010008404E80001009404F80001002A
:1004DA009504FA0001009604FC0001009704FE004E
:1004EA000100980400010100AA0402010100AB0402
:1004FA0004010100AC0406010100AD040801110069
:10050A00AE040A011100BF041C010400D4043A011C
:10051A00020000037302030002031C040300050324
:10052A001C04020008031F0402000A0373020300EA
:10053A000C03720202000F0373020C001103210460
:10054A0003001D0372020200200373020C0022033F
:10055A0038040400D8047C040400DF048204000088
:10056A00F894EE27EFBBF1E0F5BFE5BFF8E1A895F7
:10057A00A4B7A77FA4BFF0936000E0936000E0E90E
:10058A00F4E085919591009761F0A591B591059058
:10059A001590BF01F00105900D920197E1F7FB015B
:1005AA00F0CFEFEFEDBFE8E0EEBFC0E0D3E00C9490
:1005BA00AA0DBA93AA93E881F9813697E883F98359
:1005CA00000084E090E00197F1F7E881E17021F002
:1005DA0085E090E00197F1F7E881E27021F08AE086
:1005EA0090E00197F1F7E881E47021F084E190E06E
:1005FA000197F1F7E881E87021F088E290E001972D
:10060A00F1F7E881E07121F080E590E00197F1F7D8
:10061A00E881E07221F080EA90E00197F1F7E88141
:10062A00E07421F080E491E00197F1F7E881E07845
:10063A0021F080E892E00197F1F7E981E17021F079
:10064A0080E095E00197F1F7E981E27021F080E01E
:10065A009AE00197F1F7E981E47021F080E094E1F2
:10066A000197F1F7E981E87021F080E098E20197BB
:10067A00F1F7E981E07121F080E090E50197F1F767
:10068A00E981E07221F080E090EA0197F1F7E981CF
:10069A00E07441F080E090EA0197F1F780E090EA97
:1006AA000197F1F722960895E0E0EA93A0E00E940C
:1006BA000D1EA4E6B2E00E94611EE2E0EA93A0E009
:1006CA000E940D1EE9E9F4E0FA93EA93E5E7F2E005
:1006DA00FA93EA93E0917E04FF27662777270E9420
:1006EA000123E09197040E94BB220E940123F30197
:1006FA00662777270E940123F501662777270E943C
:10070A00012380E10E94FC1F6496A9E9B4E00E94DB
:10071A00521E0895E0919504E03031F0E0E0E09354
:10072A00B000E093B10009C0E0919404E03029F0F0
:10073A00AEE0EA02F001EE58E7BD0E941E1EA2E8F2
:10074A00B2E00E94611E44245524E1E0E09376045D
:10075A00A0917604A131D8F4E0917604F0E00F017B
:10076A00E255FB4FA081B0E0A7FDBFEFF001E154D5
:10077A00FB4FE081F0E0E7FDFFEFEA0FFB1F4E0EB3
:10078A005F1EE0917604EF5FE0937604E1CFF20119
:10079A000E94B622E83DADE1FA0709F00895A0915A
:1007AA000A04B0910B04AF30E9E0BE0790F4D19689
:1007BA00A031E8E0BE0768F0A0910A04B0910B04EA
:1007CA00E2E00E94CE22E05AFF40E737A2E0FA07B1
:1007DA0008F00895A0910C04B0910D04AB33E5E73D
:1007EA00BE0720F0A0918004AF3208F40895E1E03A
:1007FA00E0937604A0917604AF3008F04EC1E09100
:10080A007604E0937804EFEFF1E0EA19FB09E0934C
:10081A000404F0930504E0917A00E064E0937A001E
:10082A00E0917A00E074E1F7A0910404B091050424
:10083A00C0DE00002A98D5010E94DE0200002A9A32
:10084A00000085E090E00197F1F7E0917804E1502B
:10085A00E0937804E03039F00000000085E090E091
:10086A000197F1F7F2CFE0E0E4BDE5BDE0917A004F
:10087A00E064E0937A00E0917A00E074E1F7E091B5
:10088A007800F0917900E093F603F093F703E09192
:10089A007A00E064E0937A00E0917A00E074E1F78C
:1008AA00E0917800F0917900E093F803F093F9036E
:1008BA00E0917A00E064E0937A00E0917A00E074D3
:1008CA00E1F7E0917800F0917900E093FA03F09370
:1008DA00FB03E0917A00E064E0937A00E0917A0009
:1008EA00E074E1F7E0917800F0917900E093FC037D
:1008FA00F093FD03E0917A00E064E0937A00E091DE
:10090A007A00E074E1F7E0917800F0917900E093E1
:10091A00FE03F093FF03E0917A00E064E0937A002B
:10092A00E0917A00E074E1F7E0917800F0917900C3
:10093A00E0930004F0930104E0917A00E064E0930C
:10094A007A00E0917A00E074E1F7E0917800F091A2
:10095A007900E0930204F0930304E3EAE4BDE2E0E1
:10096A00E5BDE0917604AEE2B3E0F0E0EE0FFF1FE2
:10097A00EA0FFB1FA091F603B091F703A083B1839E
:10098A00E0917604E25FAEE2B3E0F0E0EE0FFF1F23
:10099A00EA0FFB1FA091F803B091F903A083B1837A
:1009AA00E0917604E45EAEE2B3E0F0E0EE0FFF1F02
:1009BA00EA0FFB1FA091FA03B091FB03A083B18356
:1009CA00E0917604E65DAEE2B3E0F0E0EE0FFF1FE1
:1009DA00EA0FFB1FA091FC03B091FD03A083B18332
:1009EA00E0917604E85CAEE2B3E0F0E0EE0FFF1FC0
:1009FA00EA0FFB1FA091FE03B091FF03A083B1830E
:100A0A00E0917604EA5BAEE2B3E0F0E0EE0FFF1F9E
:100A1A00EA0FFB1FA0910004B0910104A083B183E7
:100A2A00E0917604EC5AAEE2B3E0F0E0EE0FFF1F7D
:100A3A00EA0FFB1FA0910204B0910304A083B183C3
:100A4A00A0917604EFE0EA1BE0937804000085E0C9
:100A5A0090E00197F1F7E0917804E150E09378048F
:100A6A00E03039F00000000085E090E00197F1F7EE
:100A7A00F2CFF401E35DF040EA19FB09DF01E091EE
:100A8A000404F0910504AE1BBF0B0E94DE02E09144
:100A9A007604EF5FE0937604ADCEE0E0E09377046E
:100AAA00E4E0E0937604A0917604A33608F05CC0F3
:100ABA00E0917604E250AEE2B3E0F0E0EE0FFF1F01
:100ACA00AE0FBF1F0E94EA22DF017F97F0F1FD01FE
:100ADA00E039A1E0FA07C8F5E0917604AEE2B3E0A6
:100AEA00F0E0EE0FFF1FAE0FBF1F0D901C90E091BC
:100AFA007604E150AEE2B3E0F0E0EE0FFF1FAE0F76
:100B0A00BF1F0E94EA22D001AE1BBF0B1B97E8F061
:100B1A00E0917604E150AEE2B3E0F0E0EE0FFF1FA1
:100B2A00AE0FBF1F0D901C90E0917604E250AEE22A
:100B3A00B3E0F0E0EE0FFF1FAE0FBF1F0E94EA22E4
:100B4A00D001AE1BBF0B1B9708F408C0E0917604D6
:100B5A00E250E0937704E4E6E0937604E0917604C9
:100B6A00EF5FE09376049FCFE0917704E03069F479
:100B7A00E1E0E0937F04E0E0EA93A1E00E940D1E29
:100B8A00AEE8B2E00E94611E8BC0E0E0E0937F0411
:100B9A00E0917704FF27662777270E946921ADEC49
:100BAA00BCEC8CEC9FE30E94F321ADECBCEC8CE630
:100BBA0090E40E94A321A2E8B4E00E943021EC93C1
:100BCA00E0919704E030C9F4E3E0EA93A1E00E94DF
:100BDA000D1EE9E9F4E0FA93EA93EDE9F2E0FA93FB
:100BEA00EA93E0918204FF27662777270E94012370
:100BFA0084E00E94FC1F28961EC0E4E0EA93A1E06C
:100C0A000E940D1EE9E9F4E0FA93EA93E7EAF2E0BA
:100C1A00FA93EA93E0918204FF27662777270E94D6
:100C2A000123E09197040E94BB220E94012388E0DD
:100C3A000E94FC1F2C96A9E9B4E00E94521ECC2403
:100C4A00DD24E1E0E0937604A0917604A33398F4DE
:100C5A00E0917604AEE0B4E0F0E0EE0FFF1FAE0FD5
:100C6A00BF1FE0E0F0E0ED93FC93E0917604EF5FC4
:100C7A00E0937604E9CFE0E0E0938104E0937B041B
:100C8A00E0938304AFE0B0E00E941C23A0917E04AD
:100C9A00EA1731F0E0917E04AFE0B0E00E94302321
:100CAA00AAE8B2E00E94E2200E941E1EFDDC08951E
:100CBA00E0E0EA93A1E00E940D1EE0E0E0937604F2
:100CCA00A0917604A03108F04AC0E0E0E0938204E3
:100CDA00AAEFB0E00E94E2201D9B43C0329903C0F4
:100CEA00E4E0E0938204339903C0E3E0E0938204F2
:100CFA00349903C0E2E0E0938204359903C0E1E04D
:100D0A00E0938204E0918204E030F9F0E091760405
:100D1A00F0E0EC57FB4FA0918204A083E9E9F4E0EC
:100D2A00FA93EA93EFE7F2E0FA93EA93E091820406
:100D3A00FF27662777270E94012384E00E94FC1F71
:100D4A002896A9E9B4E00E94521EE0918204E0309C
:100D5A0019F2E0917604EF5FE0937604B1CF1D9922
:100D6A00FECFE0917604E0938204E0937604A091AA
:100D7A007604A03168F4E0917604F0E0EC57FB4F7A
:100D8A00A0E0A083E0917604EF5FE0937604EFCFD2
:100D9A000895E0E0E0937604A0917604A031A0F4EF
:100DAA00B0E0A05FBF4F0E941C23AE2FE0917604F3
:100DBA00F0E0EC57FB4FE081EA1731F4E09176045A
:100DCA00EF5FE0937604E8CFA0917604A03111F4A6
:100DDA00E1E001C0E0E00895E09788E1A8E1B0E031
:100DEA00EEE3F1E00E9455230E94492301E030E03E
:100DFA0020E06C827D82FE013696A082B182E0916B
:100E0A009704F0E0E7FDFFEFE887F987E091AB048C
:100E1A00F0E0E7FDFFEFEA87FB87E091AC04F0E042
:100E2A00E7FDFFEFEC87FD87E091AD04F0E0E7FD19
:100E3A00FFEFEE87FF87E0919804F0E0E7FDFFEF10
:100E4A00E88BF98BE0919404F0E0E7FDFFEFEA8B81
:100E5A00FB8BE0919604F0E0E7FDFFEFEC8BFD8B56
:100E6A00E0919504F0E0E7FDFFEFEE8BFF8BE09158
:100E7A00AA04F0E0E7FDFFEFE88FF98FA0E1B0E008
:100E8A000E941C23E13010F0E53008F003C0E1E0D5
:100E9A00F0E002C0E0E0F0E0EA8FFB8FE091950419
:100EAA00E03031F0E0E0E093B000E093B10009C037
:100EBA00E0919404E03029F0AEE0EA02F001EE5845
:100ECA00E7BD0E941E1E44245524E1E0E093760407
:100EDA00A0917604A131D8F4E0917604F0E00F01F4
:100EEA00E255FB4FA081B0E0A7FDBFEFF001E1544E
:100EFA00FB4FE081F0E0E7FDFFEFEA0FFB1F4E0E2C
:100F0A005F1EE0917604EF5FE0937604E1CFF20191
:100F1A00A3E0B0E00E94C622E236A6E1FA0709F091
:100F2A00FFCFA4E0B0E00E941823BF010F01F196A1
:100F3A00E131A8E0FA0780F0F001E05DF740EC3318
:100F4A00A1E0FA0748F4DB01E0910A04F0910B04EE
:100F5A00AE1BBF0B119709F0FFCFA0910C04B09103
:100F6A000D04A831E9E7BE0720F0A0918004A83259
:100F7A0008F4FFCFE0917404F0917504A0910A047B
:100F8A00B0910B04EA17FB0709F06BC5329910C040
:100F9A00A0917904AB3038F4E0917904EF5FE093E3
:100FAA007904E1E003C0E0E0E0937904E0937A0495
:100FBA00349911C0A0917904A13038F0E0917904F4
:100FCA00E150E0937904E0E004C0EBE0E0937904B7
:100FDA00E1E0E0937A04329B05C0349B03C0003001
:100FEA0009F4BAC0E0E0EA93A0917A040E940D1EC7
:100FFA00A0E00E94321EE0E0EA93A0917A04E1E0C8
:10100A00EA1BAE2F0E940D1EA3E7B2E00E94611EEA
:10101A00E0E0E0937604A0917604A23008F09CC048
:10102A00E0917904EA0FA0917A04EA1BE093820422
:10103A00E1E0EA93A09176040E940D1EE0918204F9
:10104A00F0E0DE015C96EE0FFF1FAE0FBF1F0E949D
:10105A00EA22DF010E94611EEDE0EA93A091760484
:10106A000E940D1EA0918204A43041F0A63031F0F6
:10107A00A73021F0A93011F0AB3069F4E091820475
:10108A00F0E0DE011496EE0FFF1FAE0FBF1F0E94A5
:10109A00EA22309709F005C0A0E7B3E00E94611E7A
:1010AA0055C0A0918204A23069F4E0918204F0E074
:1010BA00DE011496EE0FFF1FAE0FBF1F0E94EA2239
:1010CA00309709F005C0A4E7B3E00E94611E3EC054
:1010DA00A0918204AB3069F4E0918204F0E0DE0171
:1010EA001496EE0FFF1FAE0FBF1F0E94EA22309721
:1010FA0009F405C0A8E7B3E00E94611E27C0A091C9
:10110A008204A23021F4ACE7B3E00E94611EE9E94F
:10111A00F4E0FA93EA93EFE7F2E0FA93EA93E091C4
:10112A008204F0E0DE011896EE0FFF1FAE0FBF1F1C
:10113A000E94EA22662777270E94012384E00E9400
:10114A00FC1F2896A9E9B4E00E94521EE091760499
:10115A00EF5FE09376045FCF359B02C0339907C3F4
:10116A00EDE0EA93A0917A040E940D1E359902C01F
:10117A00EFEF01C0E1E01E2FE0917904E030C9F5FC
:10118A00E12FF0E0E7FDFFEF6E0E7F1EE2E3F0E0F5
:10119A006E167F0628F0E7EEF3E0E615F70540F451
:1011AA00E12FD301F0E0E7FDFFEFAE1BBF0B3D01DE
:1011BA00E9E9F4E0FA93EA93EFE7F2E0FA93EA93C3
:1011CA00F301662777270E94012384E00E94FC1F0F
:1011DA002896A9E9B4E00E94521EE4E6F0E06E16F1
:1011EA007F0620F4A3E7B2E00E94611E6C827D8232
:1011FA00BEC2E130B1F5A5E01A02F001F0E0E7FD68
:10120A00FFEFAE0EBF1EE4E6F0E0AE16BF0628F012
:10121A00E4EFF1E0EA15FB0550F4A5E01A02F0014B
:10122A00D501F0E0E7FDFFEFAE1BBF0B5D01E9E979
:10123A00F4E0FA93EA93EFE7F2E0FA93EA93F5011E
:10124A00662777270E94012384E00E94FC1F2896C4
:10125A00A9E9B4E00E94521EFE013696A082B1822C
:10126A0086C2E23009F041C0E12FEE0FA091970447
:10127A00EA0FE0939704A0919704A03014F0A333E7
:10128A003CF0E12FEE0FA0919704AE1BA0939704B8
:10129A00E0919704E03019F4A4E7B3E01CC0E9E94F
:1012AA00F4E0FA93EA93EEE7F3E0FA93EA93E09133
:1012BA0097040E94BB220E94012384E00E94FC1F23
:1012CA002896A9E9B4E00E94521EA0919704AA3078
:1012DA0024F4A3E7B2E00E94611EE0919704F0E0D3
:1012EA00E7FDFFEFE887F98742C2E33091F5E12F86
:1012FA00EE0FA091AB04EA0FE093AB04A091AB040C
:10130A00AA3014F0AF333CF0E12FEE0FA091AB04FA
:10131A00AE1BA093AB04E9E9F4E0FA93EA93EFE792
:10132A00F2E0FA93EA93E091AB040E94BB220E9496
:10133A00012384E00E94FC1F2896A9E9B4E00E94D8
:10134A00521EE091AB04F0E0E7FDFFEFEA87FB876E
:10135A000EC2E430C1F5E12FA091AC04EA0FE0938C
:10136A00AC04A091AC04A03014F0A6302CF0E091AB
:10137A00AC04E11BE093AC04E091AC04E03029F446
:10138A00A0E7B3E00E94611E16C0E9E9F4E0FA930F
:10139A00EA93E2E8F3E0FA93EA93E091AC040E945C
:1013AA00BB220E94012384E00E94FC1F2896A9E91F
:1013BA00B4E00E94521EE091AC04F0E0E7FDFFEFBA
:1013CA00EC87FD87D4C1E530B9F5E12FA091AD04D2
:1013DA00EA0FE093AD04A091AD04A13014F0AB3054
:1013EA002CF0E091AD04E11BE093AD04E9E9F4E0EF
:1013FA00FA93EA93EFE7F2E0FA93EA93E091AD0405
:10140A000E94BB220E94012384E00E94FC1F2896AE
:10141A00A9E9B4E00E94521EA091AD04AA3024F4B6
:10142A00A3E7B2E00E94611EE091AD04F0E0E7FD9F
:10143A00FFEFEE87FF879BC1E63009F03EC0E12F40
:10144A00A0919804EA0FE0939804A0919804A03020
:10145A0014F0AF312CF0E0919804E11BE09398046A
:10146A00E0919804E03019F4A0E7B3E01CC0E9E980
:10147A00F4E0FA93EA93E7E8F3E0FA93EA93E09167
:10148A0098040E94BB220E94012384E00E94FC1F50
:10149A002896A9E9B4E00E94521EA0919804AA30A5
:1014AA0024F4A3E7B2E00E94611EE0919804F0E000
:1014BA00E7FDFFEFE88BF98B5AC1E73009F04BC023
:1014CA00E12FA0919404EA0FE0939404A09194046C
:1014DA00A03014F0AB302CF0E0919404E11BE093BF
:1014EA009404A0919404A1303CF0E0919404AEE0FD
:1014FA00EA02F001EE5801C0E0E0E7BDE091940491
:10150A00E03019F4A0E7B3E01CC0E9E9F4E0FA938B
:10151A00EA93E7E8F3E0FA93EA93E09194040E94ED
:10152A00BB220E94012384E00E94FC1F2896A9E99D
:10153A00B4E00E94521EA0919404AA3024F4A3E7B6
:10154A00B2E00E94611EE0919404F0E0E7FDFFEF33
:10155A00EA8BFB8B0CC1E83099F5E12FA091960438
:10156A00EA0FE0939604A0919604A03014F0A333F6
:10157A002CF0E0919604E11BE0939604E091960426
:10158A00EE0FE8BDE9E9F4E0FA93EA93E7E8F3E05D
:10159A00FA93EA93E09196040E94BB220E940123E7
:1015AA0084E00E94FC1F2896A9E9B4E00E94521E1A
:1015BA00E0919604F0E0E7FDFFEFEC8BFD8BD7C0DE
:1015CA00E93009F03EC0E12FA0919504EA0FE093BB
:1015DA009504A0919504A03014F0AB302CF0E09162
:1015EA009504E11BE0939504E0919504E03019F429
:1015FA00A0E7B3E01CC0E9E9F4E0FA93EA93E7E86C
:10160A00F3E0FA93EA93E09195040E94BB220E94C8
:10161A00012384E00E94FC1F2896A9E9B4E00E94F5
:10162A00521EA0919504AA3024F4A3E7B2E00E94C6
:10163A00611EE0919504F0E0E7FDFFEFEE8BFF8B72
:10164A0096C0EA3079F5E12FA091AA04EA0FE09357
:10165A00AA04A091AA04A13014F0A9302CF0E091B8
:10166A00AA04E11BE093AA04E9E9F4E0FA93EA93F5
:10167A00EFE7F2E0FA93EA93E091AA040E94BB2210
:10168A000E94012384E00E94FC1F2896A9E9B4E085
:10169A000E94521EE091AA04F0E0E7FDFFEFE88FF6
:1016AA00F98F65C0EB3009F062C0EA8DFB8D309787
:1016BA00B1F00E941E1EABE8B3E00E94611EF8DA88
:1016CA0068DBE03061F401E00E941E1EABE9B3E082
:1016DA000E94611EACEDB5E00E94E22057CC0E9448
:1016EA001E1EACEAB3E00E94611EE2DAE0E0E0937B
:1016FA007604A0917604A03108F5B0E0A05FBF4F50
:10170A000E941C23AE2FE0917604F0E0EC57FB4FC9
:10171A00E081EA1769F0A0917604B0E0A05FBF4FBC
:10172A00E0917604F0E0EC57FB4FE0810E94302311
:10173A00E0917604EF5FE0937604DBCF0E941E1EF1
:10174A00ACEBB3E00E94611EA0E1B0E00E941C2352
:10175A00E03019F0E1E0F0E002C0E0E0F0E0EA8F0A
:10176A00FB8FACEDB5E00E94E22001E00FCC359B87
:10177A0002C0339902C0E1E001C0E0E03E2F003030
:10178A0019F0ACE2B1E01EC0329B02C0349902C02B
:10179A00A1EE17C0A0917904A03021F4303011F0E5
:1017AA00203009F402C0ACE00CC0A0917904A13049
:1017BA0021F4303011F0203009F402C0A4E601C04F
:1017CA00A6E9B0E00E94E220303029F0359B02C041
:1017DA00339901C001C002C0E1E001C0E0E02E2F50
:1017EA0000E01D993DC1F501662777270E9469210E
:1017FA00DF01CB010E943820A1E8B4E085EB9FE32A
:10180A000E94F3217F936F93FF93EF93F30166276F
:10181A0077270E946921DF01CB010E943820AF910E
:10182A00BF918F919F910E94A321DF01CB01E0E03C
:10183A00F0E068E671E40E94862209F008F40CC020
:10184A000E941E1EADECB3E00E94611EA8EEB3E03A
:10185A000E94E22001E09ACBA6E0B0E00E941C239D
:10186A00AE2FE0919404EA1721F0A6E0B0E00E94BE
:10187A003023A8E0B0E00E941C23AE2FE09196042A
:10188A00EA1721F0A8E0B0E00E943023A7E0B0E018
:10189A000E941C23AE2FE0919504EA1761F0A7E09D
:1018AA00B0E00E943023E03031F0E150A5E0EA02D6
:1018BA00F001E0937D04AAE0B0E00E941C23AE2F61
:1018CA00E091AA04EA1721F0AAE0B0E00E943023CE
:1018DA00AFE0B0E00E941C23AE2FE0917E04EA172D
:1018EA0021F0AFE0B0E00E943023ADE0B0E00E940A
:1018FA001C23AE2FE091AD04EA1721F0ADE0B0E071
:10190A000E943023AEE0B0E00E941C23AE2FE0918B
:10191A009804EA1721F0AEE0B0E00E943023ACE070
:10192A00B0E00E941C23AE2FE091AC04EA1719F133
:10193A00ACE0B0E00E943023E1E0E0937604A091AD
:10194A007604A33398F4E0917604AEE0B4E0F0E0D4
:10195A00EE0FFF1FAE0FBF1FE0E0F0E0ED93FC9328
:10196A00E0917604EF5FE0937604E9CFE0E0E0935C
:10197A008104E0937B04A0E0B0E00E9418236E1675
:10198A007F06D1F4A2E0B0E00E941823AE16BF068B
:10199A0099F4A9E0B0E00E941C23AE2FE0919704CD
:1019AA00EA1751F4ABE0B0E00E941C23AE2FE0919D
:1019BA00AB04EA1709F448C0A9E0B0E00E941C236E
:1019CA00AE2FE0919704EA1721F0A9E0B0E00E9457
:1019DA003023ABE0B0E00E941C23AE2FE091AB04B1
:1019EA00EA1721F0ABE0B0E00E943023A0E0B0E0BB
:1019FA000E9418236E167F06C1F0F301A0E0B0E042
:101A0A000E942823662777270E946921A0E0B4E272
:101A1A0084E799E40E944122A0E0B0E080E09FE3DD
:101A2A000E94A3210E9430214F01A2E0B0E00E944F
:101A3A001823AE16BF0629F0F501A2E0B0E00E9415
:101A4A0028230E948F0309C0E0E0E0938304A8ECF6
:101A5A00B0E00E94E2200E941E1E0E94590301C0AB
:101A6A0095CA0E945023E4960895BA93AA931A93AA
:101A7A000A93EA81EE0FEE0FEE0FE0640E2F10E0EC
:101A8A00183068F40A930395ED81FE813196ED834F
:101A9A00FE833197A4910E94051E1F5FF1CF198121
:101AAA00088126960895E3E0E0937604E091950490
:101ABA00E03021F1E0917D04E093B300E0917604F7
:101ACA00E150E0937604EF5FC1F0E3E8E093B00001
:101ADA00E6E0E093B100ABE4B0E00E94E220E0E08F
:101AEA00E093B000E093B100E0917604E03021F099
:101AFA00ABE4B0E00E94E220E1CF23C0E09194047D
:101B0A00E030F9F0E0917604E150E0937604EF5F7B
:101B1A0089F0EFE7E7BDABE4B0E00E94E220E3EE34
:101B2A00E7BDE0917604E03021F0ABE4B0E00E943A
:101B3A00E220E8CFE0919404AEE0EA02F001EE5828
:101B4A00E7BDE0E0E0937C0408956C97D1508EE005
:101B5A0091E0AEE0B0E0E6E5F1E00E94562330E025
:101B6A0020E050E040E0229A2A9AA4E0B0E00E94E5
:101B7A001823309721F0EF3FAFEFFA0779F4A0E08E
:101B8A00B0E00E941823F29740F0A0E0B0E00E9473
:101B9A001823E83EA3E0FA0708F001C006C0A4E053
:101BAA00B0E0EFEDF7E00E942823A4E0B0E00E9445
:101BBA001823E0930A04F0930B04A0E0B0E00E941B
:101BCA001823DF01F29728F0FD01E83EA3E0FA07A7
:101BDA0008F09EC0A0E0B0E00E9418233F01A2E0F6
:101BEA00B0E00E941823E436A0E0FA0720F0E53FAF
:101BFA00A1E0FA0708F005C0A2E0B0E00E941823AD
:101C0A005F01A6E0B0E00E941C23E03014F0EB3044
:101C1A000CF006C0A6E0B0E00E941C23E0939404F6
:101C2A00A7E0B0E00E941C23E03014F0EB300CF087
:101C3A0006C0A7E0B0E00E941C23E0939504AFE041
:101C4A00B0E00E941C23E13010F0E53108F006C034
:101C5A00AFE0B0E00E941C23E0937E04A9E0B0E06C
:101C6A000E941C23E03014F0E3330CF006C0A9E014
:101C7A00B0E00E941C23E0939704AAE0B0E00E941F
:101C8A001C23E13014F0E9300CF006C0AAE0B0E001
:101C9A000E941C23E093AA04ABE0B0E00E941C233C
:101CAA00EA3014F0EF330CF006C0ABE0B0E00E946B
:101CBA001C23E093AB04ACE0B0E00E941C23E030AC
:101CCA0014F0E6300CF006C0ACE0B0E00E941C2331
:101CDA00E093AC04ADE0B0E00E941C23E13014F0C4
:101CEA00EB300CF006C0ADE0B0E00E941C23E0939C
:101CFA00AD04AEE0B0E00E941C23E03014F0EF31F6
:101D0A000CF006C0AEE0B0E00E941C23E0939804F9
:101D1A00E0910A04F0910B04E0937404F0937504C3
:101D2A00E0917E04F0E0E855FF4F1491A0917E0403
:101D3A00A23050F0E0917E04E150F0E0E855FF4F08
:101D4A00E491E11BEE0F01C0ECE30E2FF3016627CD
:101D5A0077270E946921A0E0B4E284E799E40E940F
:101D6A004122A0E0B0E080E09FE30E94A3210E940C
:101D7A0030214F01E0E0E0937E00E0E4E0937C0054
:101D8A00E5E8E0937A00E0E0E0937B005E98569AFB
:101D9A005D98559A2B98239A2D9A2598459A3D989D
:101DAA00439A3B98429A3A98449A3C98A0E10E94F6
:101DBA00741E0E941E1EE8E6F0E0FA93EA93A0E081
:101DCA00B0E053DEE0E7F0E0FA93EA93A1E0B0E096
:101DDA004CDEE8E7F0E0FA93EA93A2E0B0E045DEF1
:101DEA00E0E8F0E0FA93EA93A3E0B0E03EDEE8E848
:101DFA00F0E0FA93EA93A4E0B0E037DEE0E9F0E03D
:101E0A00FA93EA93A5E0B0E030DEE8E9F0E0FA936D
:101E1A00EA93A6E0B0E029DEE0EAF0E0FA93EA937A
:101E2A00A7E0B0E022DEE3EAE4BDE2E0E5BDA0918E
:101E3A009404A1303CF0E0919404AEE0EA02F0018F
:101E4A00EE5801C0E0E0E7BDE0E0E093B600E091C3
:101E5A009504E030B9F0E150A5E0EA02F001E09320
:101E6A007D04E093B300E3E8E093B000E5E0E0939B
:101E7A00B100A8E2B0E00E94E220E0E0E093B00006
:101E8A00E093B100A8E0B0E00E941C23E03014F017
:101E9A00E3330CF007C0A8E0B0E00E941C23E093F3
:101EAA0096044AC00E941E1EACEDB3E00E94611E59
:101EBA00E0E0E0937604A0917604A536B8F5E091C7
:101ECA007604E8BDE695E0939604E9E9F4E0FA932E
:101EDA00EA93E7E8F3E0FA93EA93E09196040E9422
:101EEA00BB220E94012384E00E94FC1F2896E7E09F
:101EFA00EA93A1E00E940D1EA9E9B4E00E94521ED5
:101F0A00AAEFB0E00E94E220A0917604A43619F468
:101F1A00E0E0E09376041D9903C0E5E6E0937604D9
:101F2A00E0917604EE5FE0937604C5CFE0919604E3
:101F3A00A8E0B0E00E943023E0919604EE0FE8BDDD
:101F4A00A0910C04B0910D04A237E5E7BE0720F07A
:101F5A00A0918004AE3210F40C94D01D0E941E1E73
:101F6A0044245524E1E0E0937604A0917604A1315B
:101F7A00D8F4E0917604F0E00F01E255FB4FA0811E
:101F8A00B0E0A7FDBFEFF001E154FB4FE081F0E0C4
:101F9A00E7FDFFEFEA0FFB1F4E0E5F1EE09176048E
:101FAA00EF5FE0937604E1CFF201EE0FFF1FEC3E04
:101FBA00AEE0FA0709F0FFCFA4E0B0E00E941823D0
:101FCA0031960E942823A4E0B0E00E941823BF01A2
:101FDA000F01F196E131A8E0FA0780F0F001EB5B1E
:101FEA00F740E135A1E0FA0748F4DB011197E091E7
:101FFA007404F0917504EA17FB0799F0AEEEB1E0AC
:10200A000E94DE02AAEEB3E00E94611EA8EEB1E0D1
:10201A000E94DE02A4E0B0E0E2E2F8EC0E9428238B
:10202A00FFCFA0910C04B0910D04A033E5E7BE07E1
:10203A0020F0A0918004AD3208F4FFCFA091C20431
:10204A00E091C304AE0FA938A9F4A091C404E091A9
:10205A00C504AE0FAC3971F4A091B004E091B50497
:10206A00AE0FA03939F4A091B604E091B704AE0FCF
:10207A00AE3D11F00C94D01DA0910A04B0910B044E
:10208A00A03DE7E0BE0720F0A131E9E0BE0710F06D
:10209A000C94D01DA0E1B0E00E941C23E13010F0A6
:1020AA00E53008F00CC00E941E1EA7EFB3E00E94A4
:1020BA00611E0E945D060E94CE06E030A1F30E94D6
:1020CA001E1EAEEAB4E00E94521EA5E2B0E00E94D3
:1020DA00E220AFEBB4E00E94521EA4EEB3E00E94ED
:1020EA00E220E0E0E0937604E0918004A091760497
:1020FA00AE1760F4A0910C04B0910D040E94DE02A8
:10210A00E0917604EF5FE0937604EECF0E941E1E04
:10211A00A0E0B4E00E94611EE0917404F09175049D
:10212A00E55DF7402F01E6E3F1E0E419F5092F0137
:10213A00EE0FFF1F329738F0F2010E94B622E13B00
:10214A00A4E0FA0708F0FFCFE9E9F4E0FA93EA938A
:10215A00EFE7F2E0FA93EA93F201662777270E9403
:10216A00012384E00E94FC1F2896E7E0EA93A1E09D
:10217A000E940D1EA9E9B4E00E94521EAFEDB3E021
:10218A000E94E220E0E0E0937604E0918004A091CE
:10219A007604AE1760F4A0910C04B0910D040E946D
:1021AA00DE02E0917604EF5FE0937604EECFF894D6
:1021BA000E948F03E0917F04E03011F00C94E91C37
:1021CA00E0E0E0937604A0917604AE3008F011C105
:1021DA00E0917604A0917704EA0FE0937804EFEF98
:1021EA00F1E0EA19FB09E0930404F0930504E09195
:1021FA007A00E064E0937A00E0917A00E074E1F713
:10220A00A0910404B09105040E94DE022A98D50127
:10221A000E94DE022A9A000085E090E00197F1F719
:10222A00E0917804E150E0937804E03039F000005E
:10223A00000085E090E00197F1F7F2CFE0E0E4BD1D
:10224A00E5BDE0917A00E064E0937A00E0917A00DB
:10225A00E074E1F7E0917800F0917900E093F603F9
:10226A00F093F703E0917A00E064E0937A00E0915A
:10227A007A00E074E1F7E0917800F0917900E09358
:10228A00F803F093F903E0917A00E064E0937A00AE
:10229A00E0917A00E074E1F7E0917800F09179003A
:1022AA00E093FA03F093FB03E0917A00E064E09391
:1022BA007A00E0917A00E074E1F7E0917800F09119
:1022CA007900E093FC03F093FD03E0917A00E06467
:1022DA00E0937A00E0917A00E074E1F7E091780007
:1022EA00F0917900E093FE03F093FF03E3EAE4BD83
:1022FA00E2E0E5BDE0917604AEE2B3E0F0E0EE0F95
:10230A00FF1FEA0FFB1FA091F603B091F703A0830A
:10231A00B183E0917604E25FAEE2B3E0F0E0EE0F63
:10232A00FF1FEA0FFB1FA091F803B091F903A083E6
:10233A00B183E0917604E45EAEE2B3E0F0E0EE0F42
:10234A00FF1FEA0FFB1FA091FA03B091FB03A083C2
:10235A00B183E0917604E65DAEE2B3E0F0E0EE0F21
:10236A00FF1FEA0FFB1FA091FC03B091FD03A0839E
:10237A00B183E0917604E85CAEE2B3E0F0E0EE0F00
:10238A00FF1FEA0FFB1FA091FE03B091FF03A0837A
:10239A00B183A0917704E3E7EA1BA0917604EA1BD4
:1023AA00E0937804000085E090E00197F1F7E0916E
:1023BA007804E150E0937804E03039F0000000003E
:1023CA0085E090E00197F1F7F2CFF401E554F1408E
:1023DA00EA19FB09DF01E0910404F0910504AE1B40
:1023EA00BF0B0E94DE02E0917604EF5FE093760471
:1023FA00EACEE1E4E0937C00E09197040E94BB22DC
:10240A000E946921DF01CB01EDECFCEC6CEC7FE36F
:10241A000E944122A0E0B0E080E09FE30E94A32155
:10242A00A4E0B4E00E943021ED93FC93E091AB0468
:10243A000E94BB220E946921DF01CB01EDECFCEC7A
:10244A006CEC7FE30E944122A0E0B0E080E09FE3D1
:10245A000E94A321DF01CB01E0910404F09105045D
:10246A00662777270E9469210E94A321A2E8B4E087
:10247A000E943021EC9344245524E0910404E09313
:10248A007604E0918204A0917604AE1798F4E09164
:10249A007604AEE2B3E0F0E0EE0FFF1FAE0FBF1F0F
:1024AA000E94EA224E0E5F1EE0917604EF5FE093EF
:1024BA007604E7CF4C865D860C2C0D2829F1EC8535
:1024CA00FD85662777270E946921DF01CB01E8890C
:1024DA00F989662777270E9469210E94A321DF01D3
:1024EA00CB01EE85FF85662777270E9469210E9426
:1024FA00A321DF01CB01E0E0F0E060E470E40E9498
:10250A0041220E9430212F01E889F989EE87FF874D
:10251A00EC85FD85E88BF98BE0E0E0930004E0931D
:10252A0001040C2C0D2809F0C6C0E0911004F091AA
:10253A0011043097B9F5E0E0E0937604A0917604AF
:10254A00A43178F5E0917604F0E0DE01AE58BF4F91
:10255A00EE0FFF1FAE0FBF1FE0E0F0E0ED93FC931C
:10256A00E0917604F0E0DE01A65BBF4FEE0FFF1F9D
:10257A00AE0FBF1FE0E0F0E0ED93FC93E09176042C
:10258A00F0E0DE019296EE0FFF1FAE0FBF1FE0E0F4
:10259A00F0E0ED93FC93E0917604EF5FE09376042C
:1025AA00CDCF40E0E1E0E0937604A0917604A63036
:1025BA0008F5E0917604AEE0B4E0F0E0EE0FFF1F1C
:1025CA00AE0FBF1F0E94EA22309771F4E0917604A1
:1025DA00AEE0B4E0F0E0EE0FFF1FEA0FFB1F40820F
:1025EA005182E6E0E0937604E0917604EF5FE093AF
:1025FA007604DBCFE0911804F0911904309709F4BE
:10260A004DC0E0911004F0911104662777270E94CB
:10261A006921DF01CB01E0911204F09113046627CE
:10262A0077270E9469210E94A321DF01CB01E09153
:10263A001404F0911504662777270E9469210E94E5
:10264A00A321DF01CB01E0911604F091170466275C
:10265A0077270E9469210E94A321DF01CB01E09123
:10266A001804F0911904662777270E9469210E94AD
:10267A00A321DF01CB01E0E0F0E060EA70E40E9410
:10268A004122DF01CB01E0E0F0E060E87FE30E9455
:10269A000B230E949C210E9430216F01E4E0E09309
:1026AA008104E0E0EA93A1E00E940D1EA0E1B4E0FB
:1026BA000E94611E0AC64C145D0440F4D601A41996
:1026CA00B509E12FF0E00E94D42202C0E0E0F0E078
:1026DA00E0930804F0930904A091AD04EBE0EA1B2F
:1026EA00A0918304B0E0F0E0E7FDFFEFAE17BF076B
:1026FA00A4F4E0918304E03051F0D201D296E3E0F1
:10270A00E19FF001AE0FBF1FAC15BD0530F0D2013D
:10271A00A05EBC4FAC15BD0540F4E0910804F091F1
:10272A000904E0930004F0930104E0910804F09195
:10273A000904309721F0E0918304EF5F01C0E0E0E3
:10274A00E0938304A0918304AB3018F0EAE0E093AD
:10275A008304E0E0EA93A0E00E940D1ED2015496A1
:10276A00AC15BD0520F4E0918304E03009F4DAC227
:10277A00E0E0E093F603E093F703E093F803E093D5
:10278A00F903E093FA03E093FB03E0930204E09376
:10279A000304E0930404E0930504E0930604E09341
:1027AA000704E0937604A0917604AC3008F041C0A7
:1027BA00E0917604AEE2B3E0F0E0EE0FFF1FAE0F59
:1027CA00BF1F0E94EA22A0910204B0910304EA0FFB
:1027DA00FB1FE0930204F0930304A0917604B0E097
:1027EA00AA0FBB1FAE5ABC4F0E94EA22A091040452
:1027FA00B0910504EA0FFB1FE0930404F09305046B
:10280A00A0917604B0E0AA0FBB1FAA58BC4F0E9441
:10281A00EA22A0910604B0910704EA0FFB1FE09395
:10282A000604F0930704E0917604EF5FE0937604E0
:10283A00BACFE0910204F0910304AE89BF89EA1786
:10284A00FB0760F4A0910204B0910304EE89FF89AA
:10285A00EA1BFB0BE093F603F093F703E091040401
:10286A00F0910504AC89BD89EA17FB0760F4A091D1
:10287A000404B0910504EC89FD89EA1BFB0BE09383
:10288A00F803F093F903E0910604F0910704AA898A
:10289A00BB89EA17FB0760F4A0910604B09107040C
:1028AA00EA89FB89EA1BFB0BE093FA03F093FB032B
:1028BA00E091F603F091F7033097A1F0A091F603A7
:1028CA00B091F703AC3DE5E0BE0760F4E091F80390
:1028DA00F091F903309731F0E091FA03F091FB039C
:1028EA00309709F400C1E52FF0E0DE01A651BF4F91
:1028FA00EE0FFF1FEA0FFB1FA091F603B091F7033B
:10290A00A083B183E52FF0E0DE01AE53BF4FEE0F97
:10291A00FF1FEA0FFB1FA091F803B091F903A083F0
:10292A00B183E52FF0E0DE01A656BF4FEE0FFF1F81
:10293A00EA0FFB1FA091FA03B091FB03A083B183B6
:10294A00E0E0E887E987EA87EB87EC83ED83EE83AB
:10295A00EF830E94FC22E0937604A0917604A431CE
:10296A0008F079C0E0917604F0E0BF010F01DE01C2
:10297A00A651BF4FEE0FFF1FAE0FBF1F0E94EA22E4
:10298A003097C1F0F001DE01AE53BF4FEE0FFF1FCB
:10299A00AE0FBF1F0E94EA22309761F0FB01DE01F1
:1029AA00A656BF4FEE0FFF1FAE0FBF1F0E94EA22AF
:1029BA00309709F450C0E0917604F0E0DE01A651A8
:1029CA00BF4FEE0FFF1FAE0FBF1F0E94EA22A8855E
:1029DA00B9858A859B85662777270E9469210E9487
:1029EA00A321E887F9876A877B87E0917604F0E07C
:1029FA00DE01AE53BF4FEE0FFF1FAE0FBF1F0E9487
:102A0A00EA22AC81BD818E819F81662777270E9449
:102A1A0069210E94A321EC83FD836E837F83E09169
:102A2A007604F0E0DE01A656BF4FEE0FFF1FAE0F91
:102A3A00BF1F0E94EA220E94F222662777270E947D
:102A4A0069210E94A3210E94F722E0917604EF5F98
:102A5A00E093760482CFE0917604E03009F443C033
:102A6A00DE01A65EBE4FEC93A885B9858A859B8553
:102A7A00FF27662777270E9469210E944122DE01EB
:102A8A00AA5EBE4F0E943021ED93FC93E09176043A
:102A9A00AC81BD818E819F81FF27662777270E949F
:102AAA0069210E944122DE01AC5EBE4F0E943021A4
:102ABA00ED93FC93E09176040E94F222FF276627A9
:102ACA0077270E9469210E944122DE01AE5EBE4F35
:102ADA000E943021ED93FC93533118F4E52FEF5FF8
:102AEA0001C0E0E05E2FDE01A65EBE4FAC91A530CC
:102AFA00C0F0DE01AA5EBE4F0D90BC91A02D1C97BE
:102B0A0080F0DE01AC5EBE4F0D90BC91A02D1C97EB
:102B1A0040F0DE01AE5EBE4F0D90BC91A02D1C9719
:102B2A0008F4FAC0E0910004F0910104309751F0E2
:102B3A00DE01AA5EBE4F0D90BC91A02DAC3DE5E032
:102B4A00BE0708F0E8C0FE01EE5EFE4F0190F0817C
:102B5A00E02D662777270E946921DF01CB01FE015C
:102B6A00EC5EFE4F0190F081E02D662777270E94E8
:102B7A0069210E944122E887F9876A877B87A885AD
:102B8A00B9858A859B85E0E0F0E068EC72E40E94F2
:102B9A00F321A4E0B4E00E943021ED93FC93A091CC
:102BAA000404B0910504A436E0E0BE0730F0E3E681
:102BBA00F0E0E0930404F0930504E9E9F4E0FA9301
:102BCA00EA93EFE7F2E0FA93EA93E0910404F091D2
:102BDA000504662777270E94012384E00E94FC1FD0
:102BEA002896A9E9B4E00E94521EA0910404B0916B
:102BFA0005041A9720F4A0E0B3E00E94521EE09167
:102C0A009804E03009F483C0A0910404B09105044B
:102C1A00599708F47CC0A0910404B0910504AA3421
:102C2A00E0E0BE0708F073C0FE01EC5EFE4F0190C3
:102C3A00F081E02D662777270E946921DF01CB0109
:102C4A00FE01EA5EFE4F0190F081E02D66277727AC
:102C5A000E9469210E944122DF01CB010E94382093
:102C6A007F936F93FF93EF93A885B9858A859B8598
:102C7A000E943820DF01CB01E6E6F6E666EA7FE34A
:102C8A000E9441227F936F93FF93EF93EC89FD8912
:102C9A00662777270E946921DF01CB01EE89FF8928
:102CAA00662777270E9469210E944122DF01CB0112
:102CBA000E943820AF91BF918F919F910E94A321CA
:102CCA00DF01CB01E6E6F6E666E27FE30E940B232C
:102CDA000E949C217F936F93FF93EF93E091980456
:102CEA000E94BB220E946921AFE8B2EC85EF9CE307
:102CFA000E94F321AF91BF918F919F910E94A321CE
:102D0A00AF91BF918F919F910E94862208F002C0D5
:102D1A0021E001C020E005C0A2E0B3E00E94521EFB
:102D2A0020E051C0A5E0B3E00E94521EE0E0E0932B
:102D3A007604A0917604A43180F5E0917604F0E05F
:102D4A00DE01A651BF4FEE0FFF1FAE0FBF1FE0E01F
:102D5A00F0E0ED93FC93E0917604F0E0DE01AE53EF
:102D6A00BF4FEE0FFF1FAE0FBF1FE0E0F0E0ED9385
:102D7A00FC93E0917604F0E0DE01A656BF4FEE0F19
:102D8A00FF1FAE0FBF1FE0E0F0E0ED93FC93E09170
:102D9A007604EF5FE0937604CCCF20E050E0E0E0E9
:102DAA00DE01A65EBE4FEC93DE01AA5EBE4FED9336
:102DBA00EC93DE01AC5EBE4FED93EC93DE01AE5EAA
:102DCA00BE4FED93EC93E0910004F091010430972B
:102DDA0081F0E0919504E03061F0DE01A85EBE4F1B
:102DEA000D90BC91A02DA139E0E0BE0710F0203073
:102DFA0009F07BC0A0910004B0910104519730F40E
:102E0A00E0910004F0910104319701C0EFE0E093F2
:102E1A008204E0917D04A0918204EA0FE093820487
:102E2A00A0918204AE3208F401C0EDE2E093B3004F
:102E3A00E3E8E093B000E091AA04E830B1F4A0918D
:102E4A000004B0910104A135E0E0BE0710F0E6E00D
:102E5A0009C0A0910004B0910104519710F0E5E077
:102E6A0001C0E4E0E093B1003FC0E130D1F1E230CB
:102E7A0011F4E5E037C0E33011F4E6E033C0E430A2
:102E8A0051F4A091B100A43011F4E5E001C0E4E0EE
:102E9A00E093B10029C0E53051F4A091B100A5300A
:102EAA0011F4E6E001C0E5E0E093B1001DC0E630B0
:102EBA0051F4A091B100A43011F4E6E001C0E4E0BD
:102ECA00E093B10011C0E73079F4A091B100A430C9
:102EDA0011F4E5E007C0A091B100A53011F4E6E0D5
:102EEA0001C0E4E0E093B10005C0E0E0E093B00087
:102EFA00E093B100E0E0EA93A1E00E940D1EE091A8
:102F0A000004F0910104309709F432C1E09195046C
:102F1A00E03021F4E0919404E03009F421C020303B
:102F2A00C1F4D301ECE2F1E00E94D4223196DE0131
:102F3A00A55EBE4FAC91AF5FB0E00E94E72230972A
:102F4A0039F4E7B5EF3711F0EFE701C0E3EEE7BD7B
:102F5A0007C0E0919404AEE0EA02F001EE58E7BD42
:102F6A00F601E419F509E093F803F093F903E12F68
:102F7A00A091F803B091F903F0E0AE1BBF0BEAE0B1
:102F8A00F0E00E94D4223196662777270E946921B1
:102F9A00DF01CB010E943820A0E0B0E080EC9FE383
:102FAA000E94A321A2E8B4E00E943021EC93E1E060
:102FBA00E0937604E0918204A0917604EA1710F077
:102FCA00A83008F00AC0A09176040E94321EE0914F
:102FDA007604EF5FE0937604EDCFA0918204A830E7
:102FEA0020F0A8E0B3E00E94521EA0917604E9E026
:102FFA00EA1BE0937604E0917604E150E0937604CC
:10300A00EF5F29F0AAE0B3E00E94521EF4CFA0912C
:10301A00F803B091F903E3E0F0E00E94D422E093D0
:10302A00F803F093F903A091F803B091F903A83ECD
:10303A00E3E0BE0730F0E7EEF3E0E093F803F09345
:10304A00F903FE01E55EFE4FE081F0E0DE015896ED
:10305A00EE0FFF1FEA0FFB1FA091F803B091F903CF
:10306A00A083B183E0E0E093F803E093F903E093EF
:10307A007604A0917604A53050F5E0917604F0E04C
:10308A00DE015896EE0FFF1FAE0FBF1F0E94EA2205
:10309A003097B1F0E0917604F0E0DE015896EE0F39
:1030AA00FF1FAE0FBF1F0E94EA22A091F803B09142
:1030BA00F903EA0FFB1FE093F803F093F90301C049
:1030CA0006C0E0917604EF5FE0937604D2CFE091F8
:1030DA007604A091F803B091F903F0E00E94D4229B
:1030EA00E093F803F093F903DE01A55EBE4FAC91BD
:1030FA00A43030F4FE01E55EFE4FE081EF5F01C0CF
:10310A00E0E0DE01A55EBE4FEC93E9E9F4E0FA9354
:10311A00EA93EFE7F2E0FA93EA93E091F803F09189
:10312A00F903662777270E94012384E00E94FC1F87
:10313A002896E8E0EA93A1E00E940D1EA9E9B4E00E
:10314A000E94521EA091F803B091F9031A9718F43D
:10315A00ACE0B3E00AC0A091F803B091F903A43639
:10316A00E0E0BE0720F4AFE0B3E00E94521EADC01B
:10317A00E0919504E03021F4E0919404E03009F400
:10318A0007C0E0919404AEE0EA02F001EE58E7BD10
:10319A00E0E0E0937604A0917604A53098F4E091FB
:1031AA007604F0E0DE015896EE0FFF1FAE0FBF1F48
:1031BA00E0E0F0E0ED93FC93E0917604EF5FE093BA
:1031CA007604E9CFE0E0DE01A55EBE4FEC93E02F86
:1031DA00F0E0EC0DFD1D4E165F0690F4A1E1B3E0A0
:1031EA000E94521EDE01A85EBE4F0D90BC91A02D1A
:1031FA00A139E0E0BE0718F0E0E0E0937C0465C086
:10320A00A091AD04EAE0EA1BA0917C04B0E0F0E0F2
:10321A00E7FDFFEFEA17FB073CF4E12FF0E0EC0DC6
:10322A00FD1D4E165F0608F447C0D201AC19BD0950
:10323A00E3E0F0E00E94D422E0930804F09309044A
:10324A00A0910804B0910904A83EE3E0BE0730F05B
:10325A00E7EEF3E0E0930804F0930904E9E9F4E007
:10326A00FA93EA93EDE2F4E0FA93EA93E091080420
:10327A00F0910904662777270E94012384E00E94BF
:10328A00FC1F2896A9E9B4E00E94521EA0910804E6
:10329A00B09109041A9718F4ADE1B3E00AC0A091FD
:1032AA000804B0910904A436E0E0BE0720F4A0E2C5
:1032BA00B3E00E94521E04C0A2E2B3E00E94521E72
:1032CA00E0917C04EF5FE0937C04303009F470C035
:1032DA00E2E0EA93A0E00E940D1EA6E6B2E00E9498
:1032EA00611E3130B9F4EBE0EA93A0E00E940D1EB2
:1032FA00E9E9F4E0FA93EA93EFE7F2E0FA93EA9362
:10330A00F201662777270E94012384E00E94FC1FAE
:10331A0028964AC0E4E0EA93A0E00E940D1EE9E97B
:10332A00F4E0FA93EA93E4E4F4E0FA93EA93DE0130
:10333A00A65EBE4F0D90BC91A02DEA8DFB8DEA1BB7
:10334A00FB0BDF01EDE0F0E00E94D422662777272D
:10335A000E940123DE01A45EBE4F0D90BC91A02DF8
:10336A00EC8DFD8DEA1BFB0BDF01EDE0F0E00E9426
:10337A00D422662777270E940123DE01A25EBE4F70
:10338A000D90BC91A02DEE8DFF8DEA1BFB0BDF018A
:10339A00EDE0F0E00E94D422662777270E940123FD
:1033AA008CE00E94FC1F6096A9E9B4E00E94521EBC
:1033BA00E091AC04E03069F0E0918304E03031F050
:1033CA00E0912204F0912304309719F40C2C0D2873
:1033DA0009F49BC0E12FF0E0EC0DFD1D4E165F06CF
:1033EA0028F0A0917B04A43009F080C0E091AC04DD
:1033FA00AAE0EA02F001E0938204A0918104AE17E8
:10340A0020F4E0918104EF5F01C0E1E0E0938104E0
:10341A00AEE0B4E0F0E0EE0FFF1FEA0FFB1F4082C0
:10342A005182E0E0E093D004E093D104E093D20427
:10343A00E093D304E1E0E0937604E0918204A09162
:10344A007604EA17B0F1E0917604AEE0B4E0F0E079
:10345A00EE0FFF1FAE0FBF1F0E94EA22309711F135
:10346A00E0917604AEE0B4E0F0E0EE0FFF1FAE0F9D
:10347A00BF1F0E94EA22A091D004B091D10480918A
:10348A00D2049091D304662777270E9469210E946B
:10349A00A321E093D004F093D1046093D2047093F3
:1034AA00D30401C006C0E0917604EF5FE09376048E
:1034BA00C4CFA0917604A630A8F0E0917604E1503A
:1034CA00A091D004B091D1048091D2049091D304F8
:1034DA00FF27662777270E9469210E9441220E94BE
:1034EA0030216F01E0E0E0937B040FC0A0917B04E0
:1034FA00A43020F4E0917B04EF5F01C0E4E0E093A4
:10350A007B0486E292E00197F1F7E0918304E030D0
:10351A0021F4E0917B04E03009F04DC1E42FF0E0A2
:10352A00DE01AE58BF4FEE0FFF1FAE0FBF1FE0E028
:10353A00F0E0ED93FC93E42FF0E0DE01A65BBF4FD1
:10354A00EE0FFF1FAE0FBF1FE0E0F0E0ED93FC931C
:10355A00E42FF0E0DE019296EE0FFF1FAE0FBF1FC1
:10356A00E0E0F0E0ED93FC93E887E987EA87EB87F0
:10357A00EC83ED83EE83EF830E94FC22E0937604D2
:10358A00A0917604AC3008F055C0E42FF0E0DE01DB
:10359A00AE58BF4FEE0FFF1FEA0FFB1FBF0100809F
:1035AA001180E0917604AEE2B3E0F0E0EE0FFF1F87
:1035BA00AE0FBF1F0E94EA22E00DF11DDB01ED9361
:1035CA00FC93E42FF0E0DE01A65BBF4FEE0FFF1F76
:1035DA00EA0FFB1FBF0100801180A0917604B0E0C2
:1035EA00AA0FBB1FAE5ABC4F0E94EA22E00DF11D82
:1035FA00DB01ED93FC93E42FF0E0DE019296EE0FEF
:10360A00FF1FEA0FFB1FBF0100801180A091760403
:10361A00B0E0AA0FBB1FAA58BC4F0E94EA22E00DD5
:10362A00F11DDB01ED93FC93E0917604EF5FE093EB
:10363A007604A6CFE0E0E0937604A0917604A43164
:10364A0008F077C0E0917604F0E0BF010F01DE01D7
:10365A00AE58BF4FEE0FFF1FAE0FBF1F0E94EA22E8
:10366A003097B9F0F001DE01A65BBF4FEE0FFF1FE6
:10367A00AE0FBF1F0E94EA22309759F0FB01DE010C
:10368A009296EE0FFF1FAE0FBF1F0E94EA223097DD
:10369A0009F44FC0E0917604F0E0DE01AE58BF4F66
:1036AA00EE0FFF1FAE0FBF1F0E94EA22A885B98541
:1036BA008A859B85662777270E9469210E94A32114
:1036CA00E887F9876A877B87E0917604F0E0DE0174
:1036DA00A65BBF4FEE0FFF1FAE0FBF1F0E94EA226D
:1036EA00AC81BD818E819F81662777270E946921DF
:1036FA000E94A321EC83FD836E837F83E09176048D
:10370A00F0E0DE019296EE0FFF1FAE0FBF1F0E9480
:10371A00EA220E94F222662777270E9469210E94E4
:10372A00A3210E94F722E0917604EF5FE0937604EA
:10373A0084CFE0917604E03009F43CC0A885B985CD
:10374A008A859B85FF27662777270E9469210E9421
:10375A004122DE0156960E943021ED93FC93E091BE
:10376A007604AC81BD818E819F81FF2766277727EA
:10377A000E9469210E944122DE0154960E94302152
:10378A00ED93FC93E09176040E94F222FF276627CC
:10379A0077270E9469210E944122DE0152960E94E7
:1037AA003021ED93FC93433118F4E42FEF5F01C00D
:1037BA00E0E04E2F04C082EE94E00197F1F7359BCA
:1037CA0002C03399D5C0E0919504E03031F0E0E0D1
:1037DA00E093B000E093B10009C0E0919404E030B6
:1037EA0029F0AEE0EA02F001EE58E7BD0E941E1E83
:1037FA00ADE4B4E00E94611E44245524E1E0E09364
:10380A007604A0917604A131D8F4E0917604F0E030
:10381A000F01E255FB4FA081B0E0A7FDBFEFF00119
:10382A00E154FB4FE081F0E0E7FDFFEFEA0FFB1FF9
:10383A004E0E5F1EE0917604EF5FE0937604E1CFCF
:10384A00F201A3E0B0E00E94C622E236A6E1FA073E
:10385A0009F0A1C1A0917404B0917504AD30E9E0FA
:10386A00BE0790F4D196A031E8E0BE0768F0A091B7
:10387A007404B0917504E2E00E94CE22E05AFF403F
:10388A00E737A2E0FA0708F086C1A0910C04B091CC
:10389A000D04AA33E5E7BE0720F0A0918004AF32F9
:1038AA0008F479C1E0E0E0937604A0917604A930A7
:1038BA0008F042C0339904C0A0917E04A43108F0F4
:1038CA0008C0E0917E04EF5FE0937E04E1E0E093BC
:1038DA007604359904C0A0917E04A23008F408C089
:1038EA00E0917E04E150E0937E04E1E0E093760407
:1038FA00E9E9F4E0FA93EA93E7E8F3E0FA93EA9362
:10390A00E0917E04FF27662777270E94012384E03F
:10391A000E94FC1F2896E7E0EA93A1E079D1A9E981
:10392A00B4E0BBD1AFEAB0E00E94E220E0917604B5
:10393A00EF5FE0937604B9CFE0917E04F0E0E855BA
:10394A00FF4F1491A0917E04A23050F0E0917E04C2
:10395A00E150F0E0E855FF4FE491E11BEE0F01C0A2
:10396A00ECE30E2FE0E0E093830463D10E94590355
:10397A00349914C0E0E0E093B000E093B100323033
:10398A0018F4E32FEF5F01C0E0E03E2F303011F46E
:10399A000E945903A8ECB0E00E94E220DE01A85E72
:1039AA00BE4F0D90BC91A02DA139E0E0BE0728F4CE
:1039BA00E0917C04EF5FE0937C04A0917C04A5363F
:1039CA0010F00E94580D0EC0E1E4E0937C00A6E9D5
:1039DA00B0E00E94E220E0E0EA93A1E019D1ACE570
:1039EA00B4E06AD1E0917A00E064E0937A00E09171
:1039FA007A00E074E1F7E0917800F0917900E093C1
:103A0A000404F0930504E0E4E0937C00E0910404EC
:103A1A00F0910504662777270E946921DF01CB010F
:103A2A00E0E0F0E060E172E40E944122A3ECB5EF2D
:103A3A0088EA9EE30E94A321A0E0B0E080E291E43C
:103A4A000E94F321A4E0B4E00E943021ED93FC939C
:103A5A00E0910404F0910504DE01A85EBE4FED93E7
:103A6A00FC93A0910404B0910504A139E0E0BE07DB
:103A7A0058F4E0E0E093B000E093B100EA93A1E0EB
:103A8A00C7D0A8E6B4E018D1E9E9F4E0FA93EA93DA
:103A9A00E4E7F4E0FA93EA93A0910404B0910504F0
:103AAA00EAE0F0E00E94D422662777270E940123E9
:103ABA00A0910404B0910504EAE0F0E00E94E72234
:103ACA00662777270E94012388E00E94FC1F2C9614
:103ADA00EBE0EA93A1E09CD0A9E9B4E0DED0DE01F4
:103AEA00A85EBE4F0D90BC91A02DA436E0E0BE07A3
:103AFA0018F4A3E7B2E0E0D01D9902C00E94F106D3
:103B0A00329902C00E948F03E091D404F091D50447
:103B1A006091D6047091D704A0E0B0E080E89FE3FA
:103B2A000E94A321E093D404F093D5046093D604B1
:103B3A007093D704A091D404B091D5048091D6048F
:103B4A009091D704E0E0FCE762E178E40E948622E3
:103B5A0009F008F41EC0A4E0B0E00E9418233196D0
:103B6A000E942823AAE0B4E0ED91FD913196FE93DC
:103B7A00EE93E0E0E093D404E093D504E093D60416
:103B8A00E093D704A4E7B4E0ED91FD913196FE935A
:103B9A00EE930C94DF106C96DF5FFFCFAA93E88157
:103BAA00E07111F05A9A01C05A98E881E07211F056
:103BBA005B9A01C05B98E881E07411F05C9A01C0DD
:103BCA005C98E881E07811F0289A01C0289881E28F
:103BDA008A95F1F7599A81E28A95F1F7599881E223
:103BEA008A95F1F7B6C0AA93A881D8DFE881E29551
:103BFA00E883A881D3DF8AEF90E00197F1F7A9C0A3
:103C0A00AA93A981F0DF589AA881EDDF58980FC0CE
:103C1A00AA93E881F0E0E852FB4FE081A981AE0F58
:103C2A00E2DFE981E093DC04E881E093DD04229697
:103C3A000895A2E0D8DFA3E0B0E00E94E220ACE061
:103C4A00D2DFA1E0D0DFA3E0B0E00E94E220E0E012
:103C5A00E093DD04E093DC040895AA93A881AA30D6
:103C6A0031F0E091DE04A091DC04AE1760F0E0E0F0
:103C7A00EA93A091DD04AF5FA093DD04C9DFA881B8
:103C8A00AA3009F466C0E091DC04EF5FE093DC043B
:103C9A00589AA881A8DF58985CC0BA93AA931A9335
:103CAA00A981BA81ED91A983BA831E2FE03019F058
:103CBA00A12FD3DFF5CF10C0BA93AA931A93E98143
:103CCA00FA813196E983FA833197E4911E2FE03025
:103CDA0019F0A12FC2DFF3CF188123960895AA9372
:103CEA00529A539A549A209A519A509A579A599892
:103CFA0058985F98E881E093DE04E058E093DA048C
:103D0A00E881E054E093DB04A4E1B0E00E94E22001
:103D1A00A0E344DF84EF91E00197F1F7A0E33EDFEF
:103D2A0084EF91E00197F1F7A0E338DF84EF91E0A7
:103D3A000197F1F7A0E232DF84EF91E00197F1F702
:103D4A00A8E251DFA4E04FDFA5E84DDFA6E04BDF94
:103D5A0070DF21960895BA93AA931A930A93AA81B7
:103D6A00BB8112960E94EA22309759F1AA81BB813F
:103D7A0014960E94EA228F01309761F00230E0E047
:103D8A001E0798F0F80131978F01AA81BB8114961A
:103D9A00ED93FC93AA81BB811296ED91FD91319628
:103DAA00FE93EE933197AC81A083AA81BB810E94D6
:103DBA00EA22FF232AF0ED91FD913196FE93EE93CC
:103DCA0006C0AA81BB81EFEFFFEFED93FC93198147
:103DDA00088125960895BA93AA9324970E944723A7
:103DEA0010E0AA85BB85E0E0F0E0ED93FC93E8895A
:103DFA00F9893196E88BF98B3197E4913E2FE030BF
:103E0A0009F4EDC0E12FE03059F4353211F411E034
:103E1A0006C03A93AB85BC85ED85FE850995DEC063
:103E2A00E130A9F4353239F43A93AB85BC85ED8596
:103E3A00FE850995D2C012E020E000E03B3211F481
:103E4A002BE2CCC0303211F420E2C8C002C0E2300A
:103E5A0031F4303319F4006115E0C0C003C0E53015
:103E6A0009F0BCC0E32FE33669F4EE85FF85349789
:103E7A00EE87FF87A481AA93AB85BC85ED85FE8575
:103E8A000995ABC0E337E1F4EE85FF853497EE87F9
:103E9A00FF87AE85BF8514960E94EA22EE83FF83D0
:103EAA00AE81BF81ED91AE83BF833E2FE03039F002
:103EBA003A93AB85BC85ED85FE850995F1CF8DC01A
:103ECA00E037F1F4EE85FF853497EE87FF87AE85FC
:103EDA00BF8514960E94EA22EE83FF83EE81FF815A
:103EEA003196EE83FF833197E4913E2FE03039F02B
:103EFA003A93AB85BC85ED85FE850995EFCF6DC0FC
:103F0A00E43611F0E93611F4016002C0E53719F41C
:103F1A00EEEBF0E009C0E83511F4026003C0E837BF
:103F2A0009F05BC0E8ECF0E0EE83FF8300FF1AC003
:103F3A00EE85FF853497EE87FF87AE85BF85149699
:103F4A004D915C9155232AF4FA010E94AA22AF01ED
:103F5A002DE2203031F02A93AB85BC85ED85FE85B4
:103F6A0009950AC0EE85FF853497EE87FF87AE85EF
:103F7A00BF8514964D915C9130E3EE81FF810E94DA
:103F8A00EE22E887F987EE81FF813296EE83FF837E
:103F9A00E885F9854E175F0730F03F5FA885B98538
:103FAA004A1B5B0BF5CF04FD06C0313320F4A8850C
:103FBA00B985119771F400613A3328F001FF02C004
:103FCA00395F01C0395D3A93AB85BC85ED85FE85C5
:103FDA000995A885B985129778F610E008CFAA85C1
:103FEA00BB850E94EA220E944E2362960895FF92A0
:103FFA00F82E26970E944923DE011C960E94A622CB
:10400A000E94EA22309719F4EFEFFFEF27C0DE0192
:10401A0016960E94A6228D01DE011C960E94A622F7
:10402A000E94EA22EE83FF83E0E0E887E987DE0167
:10403A001A960E94A6220E94EA22FA93EA931A93F7
:10404A000A93E0EBFEE1FA93EA93DE011A96C3DEE5
:10405A009F01AE81BF81E0E0EC93F9010E945023F9
:10406A002A96FF9008950E94062324971A930A938A
:10407A00AE81BF81888599850E9441232CF0EFEF9C
:10408A00FFEF6FE77FEF95C0EE81FF816885798545
:10409A000E940123ADB7BEB711971F930F930E94D9
:1040AA00EC200F911F91EE83FF8368877987AE8199
:1040BA00BF8188859985E3EFF4E065E37FE30E9499
:1040CA00862260F4EE81FF81688579850E94A321AA
:1040DA00EE83FF836887798701501040EE81FF8164
:1040EA0068857985A0E0B0E080E89FE30E949C2182
:1040FA007F936F93FF93EF93EE81FF8168857985B4
:10410A00A0E0B0E080E89FE30E94A321AF91BF91B5
:10411A008F919F910E944122EE83FF83688779875E
:10412A00AE81BF81888599850E94F321EA83FB834A
:10413A006C837D83A6E2B2E485E69FE30E94F321C5
:10414A00DF01CB01EEE4F1E164E570E40E940B23A8
:10415A000E949C21AE81BF81888599850E94F321A6
:10416A007F936F93FF93EF93EA81FB816C817D814B
:10417A00ADE4B1E184ED9FE30E949C21AF91BF9130
:10418A008F919F910E9441227F936F93FF93EF93A8
:10419A00F8010E94C1220E946921A8E1B2E781E3E5
:1041AA009FE30E94F321AF91BF918F919F910E944B
:1041BA00A321198108812A960895109639F088E872
:1041CA0093E10197F1F7A8951197C9F70895E99135
:1041DA00F9916991799177FB660F771F88277E5746
:1041EA00880B7D938C937EE7769567950EF00895FC
:1041FA0030976040704009F070580895552342F492
:10420A00503811F4E0FF04C03196691F791F6BF032
:10421A0050E8572711F45F93CFC05F3F31F0660F24
:10422A00000C57956795752F08955F9300200AF043
:10423A00CFC0C8C050E8192E1522880F991F95279C
:10424A00550F879550E8072E0522660F771F7527A9
:10425A00550F67950895689401C0E8945F93F2DF5B
:10426A00703818F07F3F08F4A7C056E1571BAAF42C
:10427A00519558300EF4593030F0EFEFFFEF6FEFF1
:10428A007FE777F91AC077275523B9F0EE0FFF1F9A
:10429A00661F771F5A95D1F710C07727583028F034
:1042AA00EF2FF62F672F5850F9CF552331F0769517
:1042BA006795F795E7955A95D1F700200AF449D101
:1042CA005F910895689401C0E89430976040704007
:1042DA00B1F0002426F0772312F400943AD1172E75
:1042EA007EE1112032F07A95EE0FFF1F661F111C36
:1042FA00F9CFEF2FF62F612D5F938ADF5F91089533
:10430A004F93AF01FD01DA01AB01BC01CA01402D97
:10431A00012C142E4F910895EA0FFB1F681F089570
:10432A00E095F0956095EF5FFF4F6F4F08955F93AB
:10433A0081DF903871F150E8152604C05F937ADF67
:10434A00903839F1703821F1572F591B2BF112F49B
:10435A00D7DFFACF583118F0AA27BB278827583059
:10436A0028F0AB2FB82F88275850F9CF552329F0BA
:10437A008695B795A7955A95D9F7502D512572F07C
:10438A00CBDF38F46795F795E795739513F420C05A
:10439A00B7DF3EDF5F910895D8F7FBCFEA1BFB0B2F
:1043AA00680B51F010F40094BBDF662392F3EE0F12
:1043BA00FF1F661F7A95CBF7EE27FF276627772719
:1043CA005F910895EFEFFFEF6FE77FEF5F91089539
:1043DA00EFEFFFEF6FE77FE75F9108955F932ADFC3
:1043EA00703851F3903841F301240894791F23F46B
:1043FA001CF300203AF3ECCF0F921F932F933F93B5
:10440A004F93112722279927689FA0018F9F302D4C
:10441A00410D591F6B9F300D411D591F8E9F27D08B
:10442A00BF9F25D06A9F23D0BE9F1DD0AF9F1BD0B0
:10443A00AE9F110D291F391F491F591FE32FF42F52
:10444A00652F522F4F913F912F911F910F90662305
:10445A002AF0550FEE1FFF1F661F02C073954BF21D
:10446A00CDDE5F910895100D211D391F02C0200D68
:10447A00311D491F591F08955F93DCDE703821F4FE
:10448A0011200AF49FCFA4CF903809F495CF0124C4
:10449A000894970B1BF4D4F30020F3CF792F1F93C2
:1044AA002F933F934F931124112722273327442711
:1044BA00552790E2AE17BF078607410730F0AE1BBB
:1044CA00BF0B860B410B089401C08894551F221F0D
:1044DA00331F111CAA1FBB1F881F441F9A9551F72F
:1044EA00F901612D4F913F912F911F91662332F06F
:1044FA00550FEE1FFF1F661F7A9543F27FDE5F910D
:10450A00089599239AF0772342F0971748F029F4EF
:10451A00AE17BF07860720F031F098948894089563
:10452A009894089408951894889408957723C2F764
:10453A00971798F3A9F7EA17FB07680788F399F31F
:10454A00ECCF0024AF0DB01D0895F195E195F04030
:10455A000895F09560957095E195FF4F6F4F7F4FE5
:10456A000895EE0FFF1FEE0FFF1F0895FE2FFF0F96
:10457A00FF0B6F2F7F2F08956F2F660F660B762F15
:10458A000895FA9FF02DEB9FF00DEA9FE02DF10DB3
:10459A0008956E2F6A9FF0016B9FF00D0895002415
:1045AA00112490E1AA0FBB1F001C111C0E1A1F0A2E
:1045BA0018F40E0E1F1E01C0A1609A9599F7FD010D
:1045CA00D0010895ECDFFD010895ED91FC9111975A
:1045DA0008950590F491E02D0895A881B9818A8102
:1045EA009B810895E883F9836A837B830895E8832E
:1045FA00E983EA83EB8308957A936A93FA93EA93B9
:10460A0008959A938A93BA93AA930895182E862F97
:10461A00612D192E972F712D1B2EBF2FF12D1A2EBA
:10462A00AE2FE12D0895119602D0FE2F1197F99918
:10463A00FECFFF93FFB7F894A1BDB2BDF89AE0B5DB
:10464A00FFBFFF91089507D01196EF93EF2F03D084
:10465A00EF9111970895F99B02C0A895FCCF9FB7D7
:10466A00F894A1BDB2BDF89A80B5E81719F0E0BD7B
:10467A00FA9AF99A9FBF089500240A160B060806AB
:10468A00090608955A934A933A932A931A930A93D6
:10469A0008955D814C813B812A81198108810895A1
:1046AA009927AC0FBD1F05900D920197E1F7089568
:00000001FF
