:040000000C942E032B
:100004000C9400000C9400000C9400000C9400006C
:100014000C9400000C9400000C9400000C9400005C
:100024000C9400000C9400000C9400000C9400004C
:100034000C9400000C9400000C9400000C9400003C
:100044000C9400000C9400000C9400000C9400002C
:100054000C9400000C9400000C9400000C9400001C
:100064000C940000080C1E1F1E0C08000000000069
:100074000000031F0000000000031F1F0000000019
:10008400031F1F1F000000031F1F1F1F0000031F6B
:100094001F1F1F1F00031F1F1F1F1F1F031F1F1FC3
:1000A4001F1F1F1F020504040414080000CDAF968F
:1000B4008273645546382E241E1915120F0C090636
:1000C40003001027E80364000A0001000010000187
:1000D40010000100C9000000A000027A0000000026
:1000E40000000000000000001200010031000000C8
:1000F40000000000000000000000000000000500F7
:10010400020000000000000008002C0005000800A8
:10011400202046656C657A4A6F6F20205049202064
:10012400000020202044454D4F2076332E303520CA
:10013400202000008300040005000600A300020044
:100144002E033E034E035E036E037E038E039E0363
:10015400AE03BE03CE03DE03000000000000000077
:10016400000000000000000000000000000000008B
:10017400000000000000000000000000000000007B
:10018400000000000000000000000000000000006B
:10019400000000000000000000000000000000005B
:1001A400000000000000000000000000000000004B
:1001B400000000000000000000000000000000003B
:1001C400000000000000000000000000000000002B
:1001D400000000000000000000000000000000001B
:1001E400000000000000000000000000000000000B
:1001F40000000000000000000000000000000000FB
:1002040000000000000000000000000000000000EA
:1002140000000000000000000000000000000000DA
:1002240000000000000000000000000000000000CA
:1002340000000000000000000000000000000000BA
:1002440000000000000000000000000000000000AA
:10025400000000000000000000000000000000009A
:10026400000000000000000000000000000000008A
:10027400000000000000000000000000000000007A
:10028400000000000000000000000000000000006A
:10029400000000000000000000000000000000005A
:1002A400000000000000000000000000000000004A
:1002B400000096000000000000005325752044252E
:1002C4007520462575205025750053257520442535
:1002D40075462575205025750020003D20202020DE
:1002E4002020202020202020202000204120202009
:1002F40020422020202043202020200020202020D5
:100304002044656C61793A002020436F696C204574
:1003140072726F72202100257520284155544F298F
:1003240000257520282B2575290046726571756591
:100334006E63792020202020200050756C73652086
:100344005769647468202020200044656C6179201A
:1003540020202020202020202000496E7465672E54
:100364005720202020202020200047726F756E64C3
:100374002020202020202020200053706565642048
:100384002020202020202020200049726F6E20523F
:10039400656A65637420202020004261636B4C69A8
:1003A40067687420202020202000436F6E747261DF
:1003B40073742020202020202000566F6C756D65FA
:1003C40020202020202020202000546F6E65202033
:1003D4002020202020202020200050617373776F7C
:1003E400726420202020202020004F4646004155E2
:1003F40054004F4E20002B002B257500257520003E
:10040400204F6C642050617373776F7264203A00DC
:1004140057726F6E672050617373776F7264202117
:1004240000204E65772050617373776F7264203AB1
:1004340000436F6E6669726D2050617373776F72DB
:10044400640050617373776F7264204368616E67F0
:1004540065640020204869676820506F77657220C2
:1004640021002020205072657373204F4B202100FF
:100474002020202044454D4F2021212100202020F0
:10048400202020203F002052656D61696E696E67EF
:10049400205573653A0042616C616E63696E672032
:1004A400200049443A202020202020202020202001
:1004B4002020002020202046453A004E4F4E2D4655
:1004C400453A0020464552524F3A002563257500AF
:1004D400FF005F2020202020202020202000212039
:1004E40020202020202D25750021202020202020C0
:1004F4002020202000202053656E7369746976697A
:1005040074793A00436F696C204572726F722000EF
:100514004C6F7720426174746572790025752E25BD
:10052400750080C000000000010000002D4E414E07
:1005340000494E46000006000600D80002004D04A3
:10054400DE0002001B05E00001002005E2000100BE
:100554002105E40001002205E60001002305E8006E
:1005640001002405EA0001002505EC000100260530
:10057400EE0001002705F00010002D05F200010037
:100584003D05020101003E05040101003F0506018D
:10059400010040050801010041050A01010053055D
:1005A4000C01010054050E01010055051001010064
:1005B40056051201110057051401110068052601A2
:1005C40002000003DD0202000203DD021100040345
:1005D400A60402001503DD0208001703B70408008F
:1005E4001F03BF0408002703C70402002F03DD0212
:1005F40002003103D40402003303DD020300350397
:10060400EC0202003803DD020C003A03D6040300B6
:100614004603EC0202004903DD020C004B03ED0427
:100624000C005703ED0402006303DD0202006503BE
:10063400DD0202006703DD0202006903DD0202003D
:100644006B03DD0202006D03DD020400790526055B
:10065400040080052C050000F894EE27EFBBF1E0C0
:10066400F5BFE5BFF8E1A895A4B7A77FA4BFF093B1
:100674006000E0936000EAE3F5E0859195910097CE
:1006840061F0A591B59105901590BF01F001059019
:100694000D920197E1F7FB01F0CFEFEFEDBFE8E03A
:1006A400EEBFC0E0D3E00C94150FBA93AA93E8818F
:1006B400F9813697E883F983000084E090E001979C
:1006C400F1F7E881E17021F085E090E00197F1F71E
:1006D400E881E27021F08AE090E00197F1F7E88187
:1006E400E47021F084E190E00197F1F7E881E8708B
:1006F40021F088E290E00197F1F7E881E07121F0C0
:1007040080E590E00197F1F7E881E07221F080EA5A
:1007140090E00197F1F7E881E07421F080E491E042
:100724000197F1F7E881E07821F080E892E0019701
:10073400F1F7E981E17021F080E095E00197F1F7AC
:10074400E981E27021F080E09AE00197F1F7E98114
:10075400E47021F080E094E10197F1F7E981E87019
:1007640021F080E098E20197F1F7E981E07121F04E
:1007740080E090E50197F1F7E981E07221F080E0F3
:1007840090EA0197F1F7E981E07441F080E090EAA2
:100794000197F1F780E090EA0197F1F72296089526
:1007A400E0E0EA93A0E00E941D21E0912405E030FE
:1007B40009F04CC0A0912505AA3048F0A09140054D
:1007C400AA302CF0E4E6F0E06E167F0638F4E2E49A
:1007D400F5E0FA93EA93EEEBF2E006C0E2E4F5E02A
:1007E400FA93EA93EEECF2E0FA93EA93E0912505AA
:1007F400FF27662777270E943626E09140050E944E
:10080400DA250E943626F301662777270E943626CA
:10081400F501662777270E94362680E10E940C2383
:100824006496A2E4B5E00E946221E0915005E030B4
:1008340021F4A0E0B3E00E946221E0915105E03090
:1008440021F4A2E0B3E00E9462210EC0A09124052D
:10085400A13031F4A0E00E944221AFEDB2E002C029
:10086400AFEEB2E00E9471210895E0E4E0937C00D1
:10087400E0913E05E03031F0E0E0E093B000E09339
:10088400B10009C0E0913D05E03029F0AEE0EA0294
:10089400F001EE58E7BD0E942E21A0E0B3E00E94D3
:1008A400712144245524E1E0E0931D05A0911D0528
:1008B400A131D8F4E0911D05F0E00F01E95AFA4F97
:1008C400A081B0E0A7FDBFEFF001E859FA4FE08145
:1008D400F0E0E7FDFFEFEA0FFB1F4E0E5F1EE09115
:1008E4001D05EF5FE0931D05E1CFF2010E94D025C5
:1008F400E03EADE1FA0709F00895A0914B04B091F0
:100904004C04AF30E9E0BE0790F4D196A031E8E0A2
:10091400BE0768F0A0914B04B0914C04E2E00E9441
:10092400ED25E05AFF40E737A2E0FA0708F0089502
:10093400A0914D04B0914E04AB33E5E7BE0720F01F
:10094400A0912705AF3208F40895E1E0E0931D0576
:10095400A0911D05AF3008F048C1E0911D05E0935A
:100964001F05EFEFF1E0EA19FB09E0934504F0936A
:100974004604E0917A00E064E0937A00E0917A0022
:10098400E074E1F7A0914504B09146048EDE2A9804
:10099400D5018BDE2A9A000085E090E00197F1F7FB
:1009A400E0911F05E150E0931F05E03039F00000AD
:1009B400000085E090E00197F1F7F2CFE0E0E4BDBC
:1009C400E5BDE0917A00E064E0937A00E0917A007A
:1009D400E074E1F7E0917800F0917900E093370456
:1009E400F0933804E0917A00E064E0937A00E091B7
:1009F4007A00E074E1F7E0917800F0917900E093F7
:100A04003904F0933A04E0917A00E064E0937A00C8
:100A1400E0917A00E074E1F7E0917800F0917900D8
:100A2400E0933B04F0933C04E0917A00E064E093AB
:100A34007A00E0917A00E074E1F7E0917800F091B7
:100A44007900E0933D04F0933E04E0917A00E06481
:100A5400E0937A00E0917A00E074E1F7E0917800A5
:100A6400F0917900E0933F04F0934004E0917A0020
:100A7400E064E0937A00E0917A00E074E1F7E091B9
:100A84007800F0917900E0934104F0934204E091FE
:100A94007A00E064E0937A00E0917A00E074E1F790
:100AA400E0917800F0917900E0934304F0934404DA
:100AB400E3EAE4BDE2E0E5BDE0911D05AFE6B3E0A5
:100AC400F0E0EE0FFF1FEA0FFB1FA0913704B09177
:100AD4003804A083B183E0911D05E25FAFE6B3E083
:100AE400F0E0EE0FFF1FEA0FFB1FA0913904B09155
:100AF4003A04A083B183E0911D05E45EAFE6B3E060
:100B0400F0E0EE0FFF1FEA0FFB1FA0913B04B09132
:100B14003C04A083B183E0911D05E65DAFE6B3E03C
:100B2400F0E0EE0FFF1FEA0FFB1FA0913D04B09110
:100B34003E04A083B183E0911D05E85CAFE6B3E019
:100B4400F0E0EE0FFF1FEA0FFB1FA0913F04B091EE
:100B54004004A083B183E0911D05EA5BAFE6B3E0F6
:100B6400F0E0EE0FFF1FEA0FFB1FA0914104B091CC
:100B74004204A083B183E0911D05EC5AAFE6B3E0D3
:100B8400F0E0EE0FFF1FEA0FFB1FA0914304B091AA
:100B94004404A083B183A0911D05AE3000F5EFE0BD
:100BA400EA1BE0931F05000085E090E00197F1F750
:100BB400E0911F05E150E0931F05E03039F000009B
:100BC400000085E090E00197F1F7F2CFD401A15D38
:100BD400B2400E94570383E090E00197F1F7E0915F
:100BE4001D05EF5FE0931D05B3CEE0E0E0931E0525
:100BF400E4E0E0931D05A0911D05A33608F05CC058
:100C0400E0911D05E250AFE6B3E0F0E0EE0FFF1F08
:100C1400AE0FBF1F0E942E26DF017F97F0F1FD016A
:100C2400E039A1E0FA07C8F5E0911D05AFE6B3E0AD
:100C3400F0E0EE0FFF1FAE0FBF1F0D901C90E09170
:100C44001D05E150AFE6B3E0F0E0EE0FFF1FAE0F7D
:100C5400BF1F0E942E26D001AE1BBF0B1B97E8F0CE
:100C6400E0911D05E150AFE6B3E0F0E0EE0FFF1FA9
:100C7400AE0FBF1F0D901C90E0911D05E250AFE632
:100C8400B3E0F0E0EE0FFF1FAE0FBF1F0E942E2651
:100C9400D001AE1BBF0B1B9708F408C0E0911D05E3
:100CA400E250E0931E05E4E6E0931D05E0911D0586
:100CB400EF5FE0931D059FCFE0911E05E03069F4DE
:100CC400E1E0E0932605E0E0EA93A1E00E941D2123
:100CD400ACE0B3E00E9471218BC0E0E0E093260514
:100CE400E0911E05FF27662777270E947924ADEC43
:100CF400BCEC8CEC9FE30E940325ADECBCEC8CE6D1
:100D040090E40E94B324A9E2B5E00E944024EC934D
:100D1400E0914005E030C9F4E3E0EA93A1E00E94E9
:100D24001D21E2E4F5E0FA93EA93EBE1F3E0FA93B0
:100D3400EA93E0912905FF27662777270E94362644
:100D440084E00E940C2328961EC0E4E0EA93A1E00C
:100D54000E941D21E2E4F5E0FA93EA93E5E2F3E070
:100D6400FA93EA93E0912905FF27662777270E94E3
:100D74003626E09140050E94DA250E94362688E056
:100D84000E940C232C96A2E4B5E00E946221CC249C
:100D9400DD24E1E0E0931D05A0911D05A53698F43E
:100DA400E0911D05AFE4B4E0F0E0EE0FFF1FAE0FDD
:100DB400BF1FE0E0F0E0ED93FC93E0911D05EF5FD1
:100DC400E0931D05E9CFE0E0E0932805E0932205D8
:100DD400E0932A05AFE0B0E00E945126A0912505DA
:100DE400EA1731F0E0912505AFE0B0E00E946526F6
:100DF400AAE8B2E00E94F2230E942E21D1DC0895D9
:100E0400E0E0EA93A1E00E941D21E0E0E0931D05EB
:100E1400A0911D05A03108F04AC0E0E0E093290547
:100E2400AAEFB0E00E94F2231D9B43C0329903C095
:100E3400E4E0E0932905339903C0E3E0E093290556
:100E4400349903C0E2E0E0932905359903C0E1E059
:100E5400E0932905E0912905E030F9F0E0911D05C2
:100E6400F0E0E35DFA4FA0912905A083E2E4F5E008
:100E7400FA93EA93EBECF2E0FA93EA93E091290512
:100E8400FF27662777270E94362684E00E940C23DA
:100E94002896A2E4B5E00E946221E0912905E030A1
:100EA40019F2E0911D05EF5FE0931D05B1CF1D9987
:100EB400FECFE0911D05E0932905E0931D05A09167
:100EC4001D05A03168F4E0911D05F0E0E35DFA4FE3
:100ED400A0E0A083E0911D05EF5FE0931D05EFCF37
:100EE4000895E0E0E0931D05A0911D05A031A0F454
:100EF400B0E0A05FBF4F0E945126AE2FE0911D05C8
:100F0400F0E0E35DFA4FE081EA1731F4E0911D056A
:100F1400EF5FE0931D05E8CFA0911D05A03111F40A
:100F2400E1E001C0E0E00895BA93AA931A930A930A
:100F3400EA81EE0FEE0FEE0FE0640E2F10E0183092
:100F440068F40A930395ED81FE813196ED83FE8367
:100F54003197A4910E9415211F5FF1CF1981088157
:100F640026960895E09788E1A8E1B0E0E4E4F1E092
:100F74000E948A260E947E2601E030E020E06C82F6
:100F84007D82FE013696A082B182E0914005F0E0B8
:100F9400E7FDFFEFE887F987E0915405F0E0E7FD0E
:100FA400FFEFEA87FB87E0915505F0E0E7FDFFEFEF
:100FB400EC87FD87E0915605F0E0E7FDFFEFEE8753
:100FC400FF87E0914105F0E0E7FDFFEFE88BF98B47
:100FD400E0913D05F0E0E7FDFFEFEA8BFB8BE0914C
:100FE4003F05F0E0E7FDFFEFEC8BFD8BE0913E0564
:100FF400F0E0E7FDFFEFEE8BFF8BE0915305F0E0AF
:10100400E7FDFFEFE88FF98FA0E1B0E00E945126E1
:10101400E13010F0E53008F003C0E1E0F0E002C098
:10102400E0E0F0E0EA8FFB8FE0913E05E03031F044
:10103400E0E0E093B000E093B10009C0E0913D0529
:10104400E03029F0AEE0EA02F001EE58E7BD0E947C
:101054002E2144245524E1E0E0931D05A0911D05B3
:10106400A131D8F4E0911D05F0E00F01E95AFA4FDF
:10107400A081B0E0A7FDBFEFF001E859FA4FE0818D
:10108400F0E0E7FDFFEFEA0FFB1F4E0E5F1EE0915D
:101094001D05EF5FE0931D05E1CFF201A3E0B0E091
:1010A4000E94E525E836A6E1FA0709F0FFCFA4E09F
:1010B400B0E00E944D26BF010F01F196E131A8E096
:1010C400FA0780F0F001E05DF740EC33A1E0FA07A5
:1010D40048F4DB01E0914B04F0914C04AE1BBF0BD0
:1010E400119709F0FFCFA0914D04B0914E04A8319F
:1010F400E9E7BE0720F0A0912705A83208F4FFCF46
:10110400E0911905F0911A05A0914B04B0914C049B
:10111400EA17FB0709F02FC6E8E6F0E0FA93EA9332
:10112400A0E0B0E001DF329910C0A0912005AB30FF
:1011340038F4E0912005EF5FE0932005E1E003C07F
:10114400E0E0E0932005E0932105349911C0A091DB
:101154002005A13038F0E0912005E150E09320050E
:10116400E0E004C0EBE0E0932005E1E0E09321053A
:10117400329B05C0349B03C0003009F4BAC0E0E0E0
:10118400EA93A09121050E941D21A0E00E94422122
:10119400E0E0EA93A0912105E1E0EA1BAE2F0E9472
:1011A4001D21ADEDB2E00E947121E0E0E0931D0548
:1011B400A0911D05A23008F09CC0E0912005EA0F23
:1011C400A0912105EA1BE0932905E1E0EA93A091AF
:1011D4001D050E941D21E0912905F0E0DE015C96C9
:1011E400EE0FFF1FAE0FBF1F0E942E26DF010E94CD
:1011F4007121EDE0EA93A0911D050E941D21A091AB
:101204002905A43041F0A63031F0A73021F0A930EF
:1012140011F0AB3069F4E0912905F0E0DE01149699
:10122400EE0FFF1FAE0FBF1F0E942E26309709F04E
:1012340005C0AEEEB3E00E94712155C0A09129050E
:10124400A23069F4E0912905F0E0DE011496EE0F76
:10125400FF1FAE0FBF1F0E942E26309709F005C056
:10126400A2EFB3E00E9471213EC0A0912905AB30EA
:1012740069F4E0912905F0E0DE011496EE0FFF1FFA
:10128400AE0FBF1F0E942E26309709F405C0A6EFAB
:10129400B3E00E94712127C0A0912905A23021F456
:1012A400AAEFB3E00E947121E2E4F5E0FA93EA9335
:1012B400EBECF2E0FA93EA93E0912905F0E0DE0129
:1012C4001896EE0FFF1FAE0FBF1F0E942E26662733
:1012D40077270E94362684E00E940C232896A2E4F5
:1012E400B5E00E946221E0911D05EF5FE0931D05CA
:1012F4005FCF359B02C033996AC3EDE0EA93A091B6
:1013040021050E941D21359902C0EFEF01C0E1E0E3
:101314001E2FE0912005E030C9F5E12FF0E0E7FD54
:10132400FFEF6E0E7F1EE3E2F0E06E167F0628F0FC
:10133400E7EEF3E0E615F70540F4E12FD301F0E022
:10134400E7FDFFEFAE1BBF0B3D01E2E4F5E0FA93CE
:10135400EA93EBECF2E0FA93EA93F301662777273A
:101364000E94362684E00E940C232896A2E4B5E06D
:101374000E946221E4E6F0E06E167F0620F4ADEDF3
:10138400B2E00E9471216C827D8221C3E130B1F50B
:10139400A5E01A02F001F0E0E7FDFFEFAE0EBF1E7C
:1013A400E4E6F0E0AE16BF0628F0E4EFF1E0EA155B
:1013B400FB0550F4A5E01A02F001D501F0E0E7FDC9
:1013C400FFEFAE1BBF0B5D01E2E4F5E0FA93EA9395
:1013D400EBECF2E0FA93EA93F501662777270E9493
:1013E400362684E00E940C232896A2E4B5E00E94ED
:1013F4006221FE013696A082B182E9C2E23009F090
:1014040047C0E12FEE0FA0914005EA0FE09340059D
:10141400A0914005A03044F0A33634F4EEE6EA1B74
:10142400A0915405EA173CF4E12FEE0FA09140057A
:10143400AE1BA0934005E0914005E03019F4A2EF03
:10144400B3E01CC0E2E4F5E0FA93EA93ECEFF3E0D6
:10145400FA93EA93E09140050E94DA250E94362629
:1014640084E00E940C232896A2E4B5E00E94622145
:10147400A0914005AA3024F4ADEDB2E00E947121A0
:10148400E0914005F0E0E7FDFFEFE887F9879FC2B0
:10149400E330D1F5E12FEE0FA0915405EA0FE0936C
:1014A4005405A0915405AA3054F0A33644F4A091F5
:1014B4004005EEE6EA1BA0915405EA173CF4E12F3F
:1014C400EE0FA0915405AE1BA0935405E2E4F5E0A1
:1014D400FA93EA93EBECF2E0FA93EA93E091540581
:1014E4000E94DA250E94362684E00E940C23289666
:1014F400A2E4B5E00E946221E0915405F0E0E7FD2A
:10150400FFEFEA87FB8763C2E43009F03EC0E12FB6
:10151400A0915505EA0FE0935505A0915505A0301B
:1015240014F0AB302CF0E0915505E11BE093550528
:10153400E0915505E03019F4AEEEB3E01CC0E2E4EE
:10154400F5E0FA93EA93E0E0F4E0FA93EA93E091A9
:1015540055050E94DA250E94362684E00E940C2359
:101564002896A2E4B5E00E946221A0915505AA3014
:1015740024F4ADEDB2E00E947121E0915505F0E054
:10158400E7FDFFEFEC87FD8722C2E530B9F5E12FD7
:10159400A0915605EA0FE0935605A0915605A13097
:1015A40014F0AB302CF0E0915605E11BE0935605A6
:1015B400E2E4F5E0FA93EA93EBECF2E0FA93EA93CF
:1015C400E09156050E94DA250E94362684E00E94A6
:1015D4000C232896A2E4B5E00E946221A09156054E
:1015E400AA3024F4ADEDB2E00E947121E0915605D9
:1015F400F0E0E7FDFFEFEE87FF87E9C1E63009F091
:101604003EC0E12FA0914105EA0FE0934105A0916E
:101614004105A03014F0AF312CF0E0914105E11BFD
:10162400E0934105E0914105E03019F4AEEEB3E0FA
:101634001CC0E2E4F5E0FA93EA93E0E0F4E0FA9304
:10164400EA93E09141050E94DA250E94362684E05F
:101654000E940C232896A2E4B5E00E946221A09186
:101664004105AA3024F4ADEDB2E00E947121E0916D
:101674004105F0E0E7FDFFEFE88BF98BA8C1E73007
:1016840009F04BC0E12FA0913D05EA0FE0933D0521
:10169400A0913D05A03014F0AB302CF0E0913D0555
:1016A400E11BE0933D05A0913D05A1303CF0E091A4
:1016B4003D05AEE0EA02F001EE5801C0E0E0E7BD0E
:1016C400E0913D05E03019F4AEEEB3E01CC0E2E475
:1016D400F5E0FA93EA93E0E0F4E0FA93EA93E09118
:1016E4003D050E94DA250E94362684E00E940C23E0
:1016F4002896A2E4B5E00E946221A0913D05AA309B
:1017040024F4ADEDB2E00E947121E0913D05F0E0DA
:10171400E7FDFFEFEA8BFB8B5AC1E83099F5E12F27
:10172400A0913F05EA0FE0933F05A0913F05A0304B
:1017340014F0A3332CF0E0913F05E11BE0933F0547
:10174400E0913F05EE0FE8BDE2E4F5E0FA93EA9399
:10175400E0E0F4E0FA93EA93E0913F050E94DA2591
:101764000E94362684E00E940C232896A2E4B5E069
:101774000E946221E0913F05F0E0E7FDFFEFEC8B72
:10178400FD8B25C1E93009F03EC0E12FA0913E0553
:10179400EA0FE0933E05A0913E05A03014F0AB3073
:1017A4002CF0E0913E05E11BE0933E05E0913E05FF
:1017B400E03019F4AEEEB3E01CC0E2E4F5E0FA93D5
:1017C400EA93E0E0F4E0FA93EA93E0913E050E94A4
:1017D400DA250E94362684E00E940C232896A2E48F
:1017E400B5E00E946221A0913E05AA3024F4ADED3B
:1017F400B2E00E947121E0913E05F0E0E7FDFFEFC9
:10180400EE8BFF8BE4C0EA3079F5E12FA09153050C
:10181400EA0FE0935305A0915305A13014F0A930C9
:101824002CF0E0915305E11BE0935305E2E4F5E06D
:10183400FA93EA93EBECF2E0FA93EA93E09153051E
:101844000E94DA250E94362684E00E940C23289602
:10185400A2E4B5E00E946221E0915305F0E0E7FDC7
:10186400FFEFE88FF98FB3C0EB3009F0B0C0EA8D19
:10187400FB8D3097B1F00E942E21A4E0B4E00E94C9
:101884007121BEDA2EDBE03061F401E00E942E21EA
:10189400A4E1B4E00E947121ACEDB5E00E94F22312
:1018A40042CC0E942E21A5E2B4E00E947121A8DA64
:1018B400E0E0E0931D05A0911D05A031C0F4E09186
:1018C4001D05AFE6B3E0F0E0EE0FFF1FAE0FBF1F44
:1018D400E0911D05F0E0E35DFA4FE081F0E0ED9367
:1018E400FC93E0911D05EF5FE0931D05E4CF0E949A
:1018F4002E21A5E3B4E00E94712182DAE0E0E093B6
:101904001D05A0911D05A031E0F4E0911D05F0E056
:10191400E35DFA4F0080E0911D05AFE6B3E0F0E02F
:10192400EE0FFF1FAE0FBF1F0E942E26A02DB0E0AA
:10193400EA17FB0731F4E0911D05EF5FE0931D0505
:10194400E0CFA0911D05A03109F09FCFE0E0E09326
:101954001D05A0911D05A03108F5B0E0A05FBF4FA3
:101964000E945126AE2FE0911D05F0E0E35DFA4F91
:10197400E081EA1769F0A0911D05B0E0A05FBF4FB8
:10198400E0911D05F0E0E35DFA4FE0810E946526D9
:10199400E0911D05EF5FE0931D05DBCF0E942E2132
:1019A400A6E4B4E00E947121A0E1B0E00E945126B7
:1019B400E03019F0E1E0F0E002C0E0E0F0E0EA8FAE
:1019C400FB8FACEDB5E00E94F22301E0ACCB359B7C
:1019D40002C0339902C0E1E001C0E0E03E2F0030D4
:1019E40019F0ACE2B1E01EC0329B02C0349902C0CF
:1019F400A1EE17C0A0912005A03021F4303011F0E1
:101A0400203009F402C0ACE00CC0A0912005A13044
:101A140021F4303011F0203009F402C0A4E601C0F2
:101A2400A6E9B0E00E94F223303029F0359B02C0D1
:101A3400339901C001C002C0E1E001C0E0E02E2FF3
:101A440000E01D9997C1F501662777270E94792444
:101A5400DF01CB010E944823A1E8B4E085EB9FE3BA
:101A64000E9403257F936F93FF93EF93F3016627FF
:101A740077270E947924DF01CB010E944823AF918C
:101A8400BF918F919F910E94B324DF01CB01E0E0CD
:101A9400F0E068E671E40E94962509F008F40CC0B1
:101AA4000E942E21A7E5B4E00E947121ACEDB5E0BF
:101AB4000E94F22301E037CBA6E0B0E00E94512659
:101AC400AE2FE0913D05EA1721F0A6E0B0E00E94B8
:101AD4006526A8E0B0E00E945126AE2FE0913F05B4
:101AE400EA1721F0A8E0B0E00E946526A7E0B0E084
:101AF4000E945126AE2FE0913E05EA1761F0A7E05F
:101B0400B0E00E946526E03031F0E150A5E0EA0241
:101B1400F001E0932305AAE0B0E00E945126AE2F25
:101B2400E0915305EA1721F0AAE0B0E00E9465268F
:101B3400AFE0B0E00E945126AE2FE0912505EA17F0
:101B440021F0AFE0B0E00E946526ADE0B0E00E9475
:101B54005126AE2FE0915605EA1721F0ADE0B0E032
:101B64000E946526AEE0B0E00E945126AE2FE091BF
:101B74004105EA1721F0AEE0B0E00E946526ACE032
:101B8400B0E00E945126AE2FE0915505EA1721F1ED
:101B9400ACE0B0E00E946526E6E0E0931D05A0916C
:101BA4001D05A53698F4E0911D05AFE4B4E0F0E01E
:101BB400EE0FFF1FAE0FBF1FE0E0F0E0ED93FC93CC
:101BC400E0911D05EF5FE0931D05E9CFE5E0E093AB
:101BD4002805E0E0E0932205A0E0B0E00E944D2655
:101BE4006E167F06D1F4A2E0B0E00E944D26AE1638
:101BF400BF0699F4A9E0B0E00E945126AE2FE0910F
:101C04004005EA1751F4ABE0B0E00E945126AE2F34
:101C1400E0915405EA1709F49AC0A9E0B0E00E94E3
:101C24005126AE2FE0914005EA1749F4ABE0B0E04D
:101C34000E945126AE2FE0915405EA17C9F1E091B4
:101C440040050E94DA250E947924A0E0B0E080E2F9
:101C54009FE30E940325A0E0B0E080E09FE30E94A0
:101C6400B324ABE2B5E00E944024EC93E091540528
:101C74000E94DA250E947924A0E0B0E080E29FE38C
:101C84000E940325A0E0B0E080E09FE30E94B3241B
:101C9400DF01CB01E0912B05FF27662777270E9400
:101CA40079240E94B324ACE2B5E00E944024EC9372
:101CB400A9E0B0E00E945126AE2FE0914005EA175A
:101CC40021F0A9E0B0E00E946526ABE0B0E00E94FC
:101CD4005126AE2FE0915405EA1721F0ABE0B0E0B5
:101CE4000E946526A0E0B0E00E944D266E167F0695
:101CF400C1F0F301A0E0B0E00E945D2666277727DB
:101D04000E947924A0E0B4E284E799E40E9451257A
:101D1400A0E0B0E080E09FE30E94B3240E9440244E
:101D24004F01A2E0B0E00E944D26AE16BF0629F096
:101D3400F501A2E0B0E00E945D26E8EAF0E0FA9343
:101D4400EA93A0E0B0E0F0D80E94370412C0E0E0CB
:101D5400E0932A05A8ECB0E00E94F2230E942E2111
:101D6400E8EAF0E0FA93EA93A0E0B0E0DDD80E945C
:101D7400D20301C0D8C90E948526E4960895E3E001
:101D8400E0931D05E0913E05E03021F1E09123054B
:101D9400E093B300E0911D05E150E0931D05EF5F72
:101DA400C1F0E3E8E093B000E6E0E093B100ABE417
:101DB400B0E00E94F223E0E0E093B000E093B100D1
:101DC400E0911D05E03021F0ABE4B0E00E94F22385
:101DD400E1CF23C0E0913D05E030F9F0E0911D052D
:101DE400E150E0931D05EF5F89F0EFE7E7BDABE459
:101DF400B0E00E94F223E9EAE7BDE0911D05E0307E
:101E040021F0ABE4B0E00E94F223E8CFE0913D057D
:101E1400AEE0EA02F001EE58E7BDE0E0E0931B0516
:101E2400E0931C050895EF97A497D15082E691E0C2
:101E3400A1E0B0E0ECE5F1E00E948B2630E020E088
:101E440050E040E0229A2A9AA4E0B0E00E944D2695
:101E5400309721F0EF3FAFEFFA0779F4A0E0B0E05C
:101E64000E944D26B39740F0A0E0B0E00E944D26BA
:101E7400E83EA3E0FA0708F001C006C0A4E0B0E021
:101E8400EFEDF7E00E945D26A4E0B0E00E944D264D
:101E9400E0934B04F0934C04A0E0B0E00E944D2684
:101EA400DF01B39728F0FD01E83EA3E0FA0708F04C
:101EB400B3C0A0E0B0E00E944D263F01A2E0B0E034
:101EC4000E944D26E436A0E0FA0720F0E53FA1E0A9
:101ED400FA0708F005C0A2E0B0E00E944D265F01B9
:101EE400A6E0B0E00E945126E03014F0EB300CF094
:101EF40006C0A6E0B0E00E945126E0933D05A7E0AD
:101F0400B0E00E945126E03014F0EB300CF006C033
:101F1400A7E0B0E00E945126E0933E05AFE0B0E0B8
:101F24000E945126E13010F0E53108F006C0AFE020
:101F3400B0E00E945126E0932505A9E0B0E00E949C
:101F440051261E2EE0305CF0E3364CF4ABE0B0E0FA
:101F54000E9451260E2EE0E7E1190E160CF006C081
:101F6400A9E0B0E00E945126E0934005AAE0B0E069
:101F74000E945126E13014F0E9300CF006C0AAE0CA
:101F8400B0E00E945126E0935305ABE0B0E00E941C
:101F94005126EA306CF0E3365CF40E2EA9E0B0E092
:101FA4000E945126A0E70E944926EA1B0E160CF057
:101FB40006C0ABE0B0E00E945126E0935405ACE0CB
:101FC400B0E00E945126E03014F0EB300CF006C073
:101FD400ACE0B0E00E945126E0935505ADE0B0E0DE
:101FE4000E945126E13014F0EB300CF006C0ADE055
:101FF400B0E00E945126E0935605AEE0B0E00E94A6
:102004005126E03014F0EF310CF006C0AEE0B0E041
:102014000E945126E093410540904B0450904C049B
:10202400E0912505F0E0E055FF4F1491A0912505BE
:10203400A23050F0E0912505E150F0E0E055FF4F6B
:10204400E491E11BEE0F01C0ECE30E2FF3016627D0
:1020540077270E947924A0E0B4E284E799E40E94FF
:102064005125A0E0B0E080E09FE30E94B3240E94E9
:1020740040244F01E09140050E94DA250E94792412
:10208400A0E0B0E080E29FE30E940325A0E0B0E07E
:1020940080E09FE30E94B324ABE2B5E00E944024B9
:1020A400EC93E09154050E94DA250E947924A0E083
:1020B400B0E080E29FE30E940325A0E0B0E080E06E
:1020C4009FE30E94B324DF01CB01E0912B05FF279E
:1020D400662777270E9479240E94B324ACE2B5E0F6
:1020E4000E944024EC93E0E0E0937E00E0E4E0937F
:1020F4007C00E5E8E0937A00E0E0E0937B00409226
:10210400190550921A055E98569A5D98559A2B981F
:10211400239A2D9A2598459A3D98439A3B98429A3A
:102124003A98449A3C98A0E10E9484210E942E216E
:10213400E8EAF0E0FA93EA93A0E0B0E00E949607A0
:10214400E0E7F0E0FA93EA93A1E0B0E00E9496079A
:10215400E8E7F0E0FA93EA93A2E0B0E00E94960781
:10216400E0E8F0E0FA93EA93A3E0B0E00E94960777
:10217400E8E8F0E0FA93EA93A4E0B0E00E9496075E
:10218400E0E9F0E0FA93EA93A5E0B0E00E94960754
:10219400E8E9F0E0FA93EA93A6E0B0E00E9496073B
:1021A400E0EAF0E0FA93EA93A7E0B0E00E94960731
:1021B400E3EAE4BDE2E0E5BDA0913D05A1303CF0D9
:1021C400E0913D05AEE0EA02F001EE5801C0E0E026
:1021D400E7BDE0E0E093B600E0913E05E030B9F001
:1021E400E150A5E0EA02F001E0932305E093B30097
:1021F400E3E8E093B000E5E0E093B100A8E2B0E0EA
:102204000E94F223E0E0E093B000E093B100A8E084
:10221400B0E00E945126E03014F0E3330CF007C024
:10222400A8E0B0E00E945126E0933F054AC00E9416
:102234002E21A6E6B4E00E947121E0E0E0931D05A2
:10224400A0911D05A536B8F5E0911D05E8BDE695FC
:10225400E0933F05E2E4F5E0FA93EA93E0E0F4E08A
:10226400FA93EA93E0913F050E94DA250E9436260C
:1022740084E00E940C232896E7E0EA93A1E00E9400
:102284001D21A2E4B5E00E946221AAEFB0E00E9401
:10229400F223A0911D05A43619F4E0E0E0931D0596
:1022A4001D9903C0E5E6E0931D05E0911D05EE5F71
:1022B400E0931D05C5CFE0913F05A8E0B0E00E9482
:1022C4006526E0913F05EE0FE8BDA0914D04B09165
:1022D4004E04A237E5E7BE0720F0A0912705AE32F1
:1022E40010F40C94DF200E942E2144245524E1E0B4
:1022F400E0931D05A0911D05A131D8F4E0911D05C1
:10230400F0E00F01E95AFA4FA081B0E0A7FDBFEF5A
:10231400F001E859FA4FE081F0E0E7FDFFEFEA0F42
:10232400FB1F4E0E5F1EE0911D05EF5FE0931D0540
:10233400E1CFF201EE0FFF1FE03FAEE0FA0709F034
:10234400FFCFA4E0B0E00E944D2631960E945D26A6
:10235400A4E0B0E00E944D26BF010F01F196E131E7
:10236400A8E0FA0780F0F001EB5BF740E135A1E06B
:10237400FA0748F4DB011197E0911905F0911A0569
:10238400EA17FB0799F0AEEEB1E00E945703A4E709
:10239400B4E00E947121A8EEB1E00E945703A4E0CA
:1023A400B0E0E2E2F8EC0E945D26FFCFA0914D047C
:1023B400B0914E04A033E5E7BE0720F0A0912705B5
:1023C400AD3208F4FFCFA0916B05E0916C05AE0F20
:1023D400A938A9F4A0916D05E0916E05AE0FAC3952
:1023E40071F4A0915905E0915E05AE0FA03939F45E
:1023F400A0915F05E0916005AE0FAE3D11F00C9425
:10240400DF20A0914B04B0914C04A03DE7E0BE074F
:1024140020F0A131E9E0BE0710F00C94DF20A0E128
:10242400B0E00E945126E13010F0E53008F00CC015
:102434000E942E21A1E8B4E00E9471210E940207AB
:102444000E947307E030A1F30E942E21A7E5B5E0B6
:102454000E946221A5E2B0E00E94F223A8E6B5E062
:102464000E946221A4EEB3E00E94F223E0E0E09334
:102474001D05E0912705A0911D05AE1760F4A091FC
:102484004D04B0914E040E945703E0911D05EF5F87
:10249400E0931D05EECF0E942E21AAE8B4E00E942D
:1024A4007121E0911905F0911A05E55DF7402F01BE
:1024B400E6E3F1E0E419F5092F01EE0FFF1F32976F
:1024C40038F0F2010E94D025E13BA4E0FA0708F0BD
:1024D400FFCFE2E4F5E0FA93EA93EBECF2E0FA934F
:1024E400EA93F201662777270E94362684E00E9449
:1024F4000C232896E7E0EA93A1E00E941D21A2E4C0
:10250400B5E00E946221AFEDB3E00E94F223E0E067
:10251400E0931D05E0912705A0911D05AE1760F419
:10252400A0914D04B0914E040E945703E0911D0503
:10253400EF5FE0931D05EECFF8940E943704E0911D
:102544002605E03011F00C94DD1FE0E0E0931D055A
:10255400A0911D05AE3008F00CC1E0911D05A091BD
:102564001E05EA0FE0931F05EFEFF1E0EA19FB09FE
:10257400E0934504F0934604E0917A00E064E0932C
:102584007A00E0917A00E074E1F7A0914504B091FB
:1025940046040E9457032A98D5010E9457032A9A99
:1025A400000085E090E00197F1F7E0911F05E1500C
:1025B400E0931F05E03039F00000000085E090E072
:1025C4000197F1F7F2CFE0E0E4BDE5BDE0917A00D8
:1025D400E064E0937A00E0917A00E074E1F7E0913E
:1025E4007800F0917900E0933704F0933804E09197
:1025F4007A00E064E0937A00E0917A00E074E1F715
:10260400E0917800F0917900E0933904F0933A0472
:10261400E0917A00E064E0937A00E0917A00E0745B
:10262400E1F7E0917800F0917900E0933B04F093B6
:102634003C04E0917A00E064E0937A00E0917A004F
:10264400E074E1F7E0917800F0917900E0933D04C3
:10265400F0933E04E0917A00E064E0937A00E09124
:102664007A00E074E1F7E0917800F0917900E0936A
:102674003F04F0934004E3EAE4BDE2E0E5BDE09109
:102684001D05AFE6B3E0F0E0EE0FFF1FEA0FFB1FFE
:10269400A0913704B0913804A083B183E0911D0563
:1026A400E25FAFE6B3E0F0E0EE0FFF1FEA0FFB1FBF
:1026B400A0913904B0913A04A083B183E0911D053F
:1026C400E45EAFE6B3E0F0E0EE0FFF1FEA0FFB1F9E
:1026D400A0913B04B0913C04A083B183E0911D051B
:1026E400E65DAFE6B3E0F0E0EE0FFF1FEA0FFB1F7D
:1026F400A0913D04B0913E04A083B183E0911D05F7
:10270400E85CAFE6B3E0F0E0EE0FFF1FEA0FFB1F5B
:10271400A0913F04B0914004A083B183A0911D0512
:10272400AD3008F5A0911E05E3E7EA1BA0911D0555
:10273400EA1BE0931F05000085E090E00197F1F7A4
:10274400E0911F05E150E0931F05E03039F00000EF
:10275400000085E090E00197F1F7F2CFD401A45492
:10276400B3400E945703E0911D05EF5FE0931D0500
:10277400EFCEEDEBFCE0E0933704F0933804FE0178
:10278400EE59FE4FE081E03051F0E0913704F091D2
:102794003804E055FB4FE0933704F0933804A091DC
:1027A4002405A13051F4E0913704F0913804E85A3B
:1027B400FD4FE0933704F0933804A0912405A23030
:1027C40051F4E0913704F0913804EC5EFA4FE09351
:1027D4003704F0933804E0913704F0913804E81595
:1027E400F90558F4A0913704B0913804F401EA1BB8
:1027F400FB0B3696DF010E945703E1E4E0937C0073
:1028040044245524E0912B05E0931D05E0912C050B
:10281400A0911D05AE1798F4E0911D05AFE6B3E055
:10282400F0E0EE0FFF1FAE0FBF1F0E942E264E0ECC
:102834005F1EE0911D05EF5FE0931D05E7CF498E14
:102844005A8E0C2C0D2879F0A98DBA8D88279927DA
:10285400EB8DFC8D662777270E94BF25FD01BC0107
:102864000E94D5252F01E98DFA8DEB8FFC8FE0E0D6
:10287400E0934104E09342040C2C0D2809F0A6C017
:10288400E0915104F09152043097B9F5E0E0E093FF
:102894001D05A0911D05AE3178F5E0911D05F0E010
:1028A400DE01AF55BF4FEE0FFF1FAE0FBF1FE0E0BD
:1028B400F0E0ED93FC93E0911D05F0E0DE01AB59EF
:1028C400BF4FEE0FFF1FAE0FBF1FE0E0F0E0ED9330
:1028D400FC93E0911D05F0E0DE019996EE0FFF1FD9
:1028E400AE0FBF1FE0E0F0E0ED93FC93E0911D0517
:1028F400EF5FE0931D05CDCF50E0E1E0E0931D05CF
:10290400A0911D05A63008F5E0911D05AFE4B4E0E3
:10291400F0E0EE0FFF1FAE0FBF1F0E942E26309770
:1029240071F4E0911D05AFE4B4E0F0E0EE0FFF1F99
:10293400EA0FFB1F40825182E6E0E0931D05E0911F
:102944001D05EF5FE0931D05DBCFE0915904F09185
:102954005A04309771F1A0915104B0915204882720
:102964009927E0915304F0915404662777270E9435
:10297400BF25E0915504F0915604662777270E94FD
:10298400BF25E0915704F0915804662777270E94E9
:10299400BF25E0915904F0915A04662777270E94D5
:1029A400BF25E5E0F0E060E070E00E940626319784
:1029B4006F01E4E0E0932805E0E0EA93A1E00E94DF
:1029C4001D21AAE9B4E00E947121E2C64C145D0401
:1029D40040F4D601A419B509E12FF0E00E94F325D3
:1029E40002C0E0E0F0E0E0934904F0934A04A091CF
:1029F4005605EBE0EA1BA0912A05B0E0F0E0E7FD04
:102A0400FFEFAE17BF0784F4E0912A05E03059F0D8
:102A1400D201A05BBF4FE3E0E19FF001AE0FBF1F07
:102A2400AC15BD0508F008C0E0914904F0914A04D2
:102A3400E0934104F0934204E0914904F0914A0484
:102A4400309721F0E0912A05EF5F01C0E0E0E093C8
:102A54002A05A0912A05AB3018F0EAE0E0932A0594
:102A6400D2015496AC15BD0520F4E0912A05E0305E
:102A740009F462C3E0E0E0933704E0933804E093A0
:102A84003904E0933A04E0933B04E0933C04E0937C
:102A94004304E0934404E0934504E0934604E09344
:102AA4004704E0934804E0931D05A0911D05AC3054
:102AB40008F041C0E0911D05AFE6B3E0F0E0EE0F91
:102AC400FF1FAE0FBF1F0E942E26A0914304B0919A
:102AD4004404EA0FFB1FE0934304F0934404A091E1
:102AE4001D05B0E0AA0FBB1FAD56BC4F0E942E2699
:102AF400A0914504B0914604EA0FFB1FE0934504FE
:102B0400F0934604A0911D05B0E0AA0FBB1FA95481
:102B1400BC4F0E942E26A0914704B0914804EA0FAE
:102B2400FB1FE0934704F0934804E0911D05EF5F19
:102B3400E0931D05BACFE0914304F0914404A9A1A8
:102B4400BAA1EA17FB0760F4A0914304B0914404CE
:102B5400E9A1FAA1EA1BFB0BE0933704F0933804D4
:102B6400E0914504F0914604AF8DB8A1EA17FB0744
:102B740060F4A0914504B0914604EF8DF8A1EA1BDE
:102B8400FB0BE0933904F0933A04E0914704F0918D
:102B94004804AD8DBE8DEA17FB0760F4A09147048D
:102BA400B0914804ED8DFE8DEA1BFB0BE0933B04D2
:102BB400F0933C04E0913704F09138043097A1F08D
:102BC400A0913704B0913804AC3DE5E0BE0760F451
:102BD400E0913904F0913A04309731F0E0913B04EC
:102BE400F0913C04309709F4D5C0E22FF0E0DE0107
:102BF400A35DBE4FEE0FFF1FEA0FFB1FA09137042A
:102C0400B0913804A083B183E22FF0E0DE01AB5F22
:102C1400BE4FEE0FFF1FEA0FFB1FA0913904B091C6
:102C24003A04A083B183E22FF0E0DE01A352BF4F48
:102C3400EE0FFF1FEA0FFB1FA0913B04B0913C0471
:102C4400A083B183E0E0E98BEA8BEB8BEC8BED871F
:102C5400EE87EF87E88BE987EA87EB87EC87E093D9
:102C64001D05A0911D05A43108F059C0E0911D0572
:102C7400F0E0DE01A35DBE4FEE0FFF1FAE0FBF1FDE
:102C84000E942E26E0933704F0933804309709F419
:102C940046C0E0913704F0913804A989BA898B8938
:102CA4009C89662777270E94BA25E98BFA8B6B8B60
:102CB4007C8BE0911D05F0E0DE01AB5FBE4FEE0FB3
:102CC400FF1FAE0FBF1F0E942E26AD85BE858F85C8
:102CD4009889662777270E94BA25ED87FE876F8734
:102CE400788BE0911D05F0E0DE01A352BF4FEE0F9B
:102CF400FF1FAE0FBF1F0E942E26A985BA858B85A4
:102D04009C85662777270E94BA25E987FA876B870F
:102D14007C87E0911D05EF5FE0931D05A2CFE09154
:102D24001D05DE01AF59BE4FEC93A989BA898B8981
:102D34009C89FF27662777270E940626DE01A75A6B
:102D4400BE4FED93FC93E0911D05AD85BE858F8547
:102D54009889FF27662777270E940626DE01A95A4D
:102D6400BE4FED93FC93E0911D05A985BA858B8533
:102D74009C85FF27662777270E940626DE01AB5A2B
:102D8400BE4FED93FC93233118F4E22FEF5F01C0A3
:102D9400E0E02E2FDE01AF59BE4FAC91A330C0F05E
:102DA400DE01A75ABE4F0D90BC91A02D1C9780F058
:102DB400DE01A95ABE4F0D90BC91A02D1C9740F086
:102DC400DE01AB5ABE4F0D90BC91A02D1C9708F4A8
:102DD400A7C1E0914104F0914204309751F0DE0123
:102DE400A75ABE4F0D90BC91A02DAC3DE5E0BE07A7
:102DF40008F095C1FE01EB5AFE4F0190F081E02DE1
:102E0400662777270E947924DF01CB01FE01E95A66
:102E1400FE4F0190F081E02D662777270E947924E8
:102E24000E945125ED8BFE8B6F8B788FAD89BE8907
:102E34008F89988DE0E0F0E068EC72E40E9403254D
:102E4400A5E4B4E00E944024ED93FC93A0914504D2
:102E5400B0914604A436E0E0BE0730F0E3E6F0E0CB
:102E6400E0934504F0934604E0912405E03009F032
:102E740040C0E1E0DE01AE59BE4FEC93FE01E25AE0
:102E8400FE4FE081E03071F4E1E0DE01A25ABE4F72
:102E9400EC93E0E0EA93A0E00E941D21A4E0B3E0FB
:102EA4000E946221E2E4F5E0FA93EA93E0E0F4E0C0
:102EB400FA93EA93E0914504F09146046627772754
:102EC4000E94362684E00E940C232896E3E0EA93CD
:102ED400A0E00E941D21A2E4B5E00E946221A0911D
:102EE4004504B09146041A9720F4A5E1B3E00E948A
:102EF4006221E0914105E03009F001C0E0E0E09397
:102F04002905FE01E95AFE4F0190F081E02D662764
:102F140077270E947924DF01CB01FE01E75AFE4F97
:102F24000190F081E02D662777270E9479240E9482
:102F34005125DF01CB010E9448237F936F93FF93B8
:102F4400EF93AD89BE898F89988D0E944823AFE2A3
:102F5400BDED84E49FE30E940325AF91BF918F915F
:102F64009F910E9440260E94AC247F936F93FF930D
:102F7400EF93EF8DF8A1662777270E947924DF016C
:102F8400CB01E9A1FAA1662777270E9479240E9440
:102F94005125DF01CB010E944823AF91BF918F914E
:102FA4009F910E9440260E94AC24A6E6B6E686E2E3
:102FB4009FE30E94B3247F936F93FF93EF93E09179
:102FC4002905FF27662777270E947924AFE8B2EC0A
:102FD40085EF9CE30E940325AF91BF918F919F9150
:102FE4000E9440260E94AC24ED8BFE8B6F8B788F61
:102FF400A88DAA2372F431E0EDE2E883ED89FE891D
:103004006F89788D0E940D24ED8BFE8B6F8B788FEA
:1030140003C030E0EBE2E883E0914105E03081F069
:10302400A0914504B0914604599750F0A0914504ED
:10303400B0914604AA34E0E0BE0710F4303009F43D
:1030440002C0E1E001C0E0E03E2FE0912405E03061
:1030540009F065C0AD89BE898F89988DE0E0F0E004
:1030640068EC72E40E940325A5E4B4E00E944024C5
:10307400ED93FC93A0914504B0914604A436E0E09E
:10308400BE0730F0E3E6F0E0E0934504F093460435
:10309400E0914105E03051F0303019F0A7E1B3E0A0
:1030A40002C0AFE1B3E00E94622112C0A0914504C6
:1030B400B0914604E3E6F0E0EA1BFB0BE093450421
:1030C400F0934604E0E2E883A7E2B3E00E946221C1
:1030D400E2E4F5E0FA93EA93EFECF4E0FA93EA938E
:1030E400EC810E94DA250E943626E0914504F09195
:1030F4004604662777270E94362688E00E940C2320
:103104002C96A2E4B5E00E946221A0914504B091FE
:1031140046041A9720F4AFE2B3E00E94622106C08D
:1031240030E0E0E0DE01AE59BE4FEC93E0E0DE01BA
:10313400A35ABE4FEC9378C0FE01E25AFE4FE081E1
:10314400E03021F0E0912405E03009F01CC0DE01FC
:10315400A35ABE4FEC91EF5FEC936E2FD301E5E0E1
:10316400F0E00E94F325A62FB0E0EA17FB0758F41D
:10317400E0E0DE01A35ABE4FEC93DE01A25ABE4F3B
:10318400EC930E94D203E0E0E0931D05A0911D059D
:10319400A43180F5E0911D05F0E0DE01A35DBE4F92
:1031A400EE0FFF1FAE0FBF1FE0E0F0E0ED93FC93C6
:1031B400E0911D05F0E0DE01AB5FBE4FEE0FFF1F97
:1031C400AE0FBF1FE0E0F0E0ED93FC93E0911D052E
:1031D400F0E0DE01A352BF4FEE0FFF1FAE0FBF1F83
:1031E400E0E0F0E0ED93FC93E0911D05EF5FE093E8
:1031F4001D05CCCF30E020E0E0E0DE01AF59BE4F4A
:10320400EC93DE01A75ABE4FED93EC93DE01A95A6D
:10321400BE4FED93EC93DE01AB5ABE4FED93EC93AE
:10322400DE01AE59BE4FEC93E0914104F0914204AB
:10323400309781F0E0913E05E03061F0DE01A55A5F
:10324400BE4F0D90BC91A02DA139E0E0BE0710F057
:10325400303009F07BC0A0914104B09142045197F1
:1032640030F4E0914104F0914204319701C0EFE061
:10327400E0932905E0912305A0912905EA0FE09345
:103284002905A0912905AE3208F401C0EDE2E093CE
:10329400B300E3E8E093B000E0915305E830B1F403
:1032A400A0914104B0914204A135E0E0BE0710F0C2
:1032B400E6E009C0A0914104B0914204519710F096
:1032C400E5E001C0E4E0E093B1003FC0E130D1F1BA
:1032D400E23011F4E5E037C0E33011F4E6E033C046
:1032E400E43051F4A091B100A43011F4E5E001C040
:1032F400E4E0E093B10029C0E53051F4A091B100BD
:10330400A53011F4E6E001C0E5E0E093B1001DC092
:10331400E63051F4A091B100A43011F4E6E001C00C
:10332400E4E0E093B10011C0E73079F4A091B1007A
:10333400A43011F4E5E007C0A091B100A53011F468
:10334400E6E001C0E4E0E093B10005C0E0E0E09312
:10335400B000E093B100E0E0EA93A1E00E941D21F7
:10336400E0914104F0914204309709F42EC1E091B8
:103374003E05E03021F4E0913D05E03009F431C030
:10338400303041F5DE01A05ABE4FAC91AA3F30F473
:10339400FE01E05AFE4FE081EF5F01C0E0E0DE0194
:1033A400A05ABE4FEC93D301ECE2F1E00E94F32566
:1033B4003196DE01A05ABE4FAC91B0E00E942B269C
:1033C400309739F4E7B5EF3711F0EFE701C0E9EAD8
:1033D400E7BD07C0E0913D05AEE0EA02F001EE581A
:1033E400E7BDF601E419F509E0933904F0933A04D2
:1033F400E12FA0913904B0913A04F0E0AE1BBF0B69
:10340400EAE0F0E00E94F3253196662777270E94D0
:103414007924DF01CB010E944823A0E0B0E080ECD6
:103424009FE30E94B324A9E2B5E00E944024EC93F8
:10343400E1E0E0931D05E0912905A0911D05EA173F
:1034440010F0A83008F00AC0A0911D050E94422186
:10345400E0911D05EF5FE0931D05EDCFA0912905D7
:10346400A83020F0A1E3B3E00E946221A0911D05E1
:10347400E9E0EA1BE0931D05E0911D05E150E093AE
:103484001D05EF5F29F0A3E3B3E00E946221F4CFAE
:10349400A0913904B0913A04E3E0F0E00E94F325EE
:1034A400E0933904F0933A04A0913904B0913A04BA
:1034B400A83EE3E0BE0730F0E7EEF3E0E093390422
:1034C400F0933A04E42FF0E0DE019396EE0FFF1F31
:1034D400EA0FFB1FA0913904B0913A04A083B18391
:1034E400E0E0E0933904E0933A04E0931D05A091F1
:1034F4001D05A33018F5E0911D05F0E0DE0193965B
:10350400EE0FFF1FAE0FBF1F0E942E26E09337045D
:10351400F0933804309759F0A0913904B0913A04EB
:10352400EA0FFB1FE0933904F0933A0401C006C08C
:10353400E0911D05EF5FE0931D05D9CFE0911D05D6
:10354400A0913904B0913A04F0E00E94F325E0938D
:103554003904F0933A04423018F4E42FEF5F01C0C9
:10356400E0E04E2FE2E4F5E0FA93EA93EBECF2E0CC
:10357400FA93EA93E0913904F0913A0466277727A5
:103584000E94362684E00E940C232896E8E0EA9301
:10359400A1E00E941D21A2E4B5E00E946221A09155
:1035A4003904B0913A041A9718F4A5E3B3E00AC0B9
:1035B400A0913904B0913A04A436E0E0BE0720F4A7
:1035C400A8E3B3E00E946221E3C0E0913E05E0304D
:1035D40021F4E0913D05E03009F407C0E0913D0598
:1035E400AEE0EA02F001EE58E7BDE0E0E0931D052D
:1035F400A0911D05A33098F4E0911D05F0E0DE01D3
:103604009396EE0FFF1FAE0FBF1FE0E0F0E0ED93C7
:10361400FC93E0911D05EF5FE0931D05E9CF40E0C9
:10362400E0E0DE01A05ABE4FEC93E02FF0E0EC0D99
:10363400FD1D4E165F06C8F4AAE3B3E00E946221A2
:10364400DE01A55ABE4F0D90BC91A02DA139E0E03A
:10365400BE0728F0E0E0E0931B05E0931C05E0E0E2
:10366400DE01A15ABE4FEC938BC0E12FF0E0EC0DCC
:10367400FD1D4E165F0608F478C0ABE1B5E0ED9190
:10368400FD913196FE93EE93DE01A15ABE4FAC91AB
:10369400AD3030F4FE01E15AFE4FE081EF5F01C02E
:1036A400EDE0DE01A15ABE4FEC93A0915605EDE08A
:1036B400EA1BDE01A15ABE4FAC91B0E0F0E0E7FD99
:1036C400FFEFAE17BF070CF447C0D201AC19BD0918
:1036D400E3E0F0E00E94F325E0934904F0934A0408
:1036E400A0914904B0914A04A83EE3E0BE0730F03B
:1036F400E7EEF3E0E0934904F0934A04E2E4F5E0F2
:10370400FA93EA93E2EEF4E0FA93EA93E09149043F
:10371400F0914A04662777270E94362684E00E94A7
:103724000C232896A2E4B5E00E946221A0914904EA
:10373400B0914A041A9718F4A6E4B3E00AC0A09121
:103744004904B0914A04A436E0E0BE0720F4A9E499
:10375400B3E00E94622108C0ABE4B3E00E9462219E
:1037640084EF91E00197F1F70FC0A7E5B3E00E9461
:103774006221ABE1B5E0ED91FD913196FE93EE93BC
:1037840084EF91E00197F1F788EE93E00197F1F768
:10379400E0912405E03009F4EEC0A0912405A130A5
:1037A400B1F5E2E0EA93A0E00E941D21E2E4F5E035
:1037B400FA93EA93EBECF2E0FA93EA93F2016627C8
:1037C40077270E94362684E00E940C232896A2E4E0
:1037D400B5E00E946221E0E1F7E24E165F0620F4B4
:1037E400A3E6B3E00E946221E8EEF3E04E165F0622
:1037F40020F4A5E6B3E00E946221E4E6F0E04E1670
:103804005F0620F4A7E6B3E00E946221B4C0DE01A3
:10381400A75ABE4F0D90BC91A02DE9A1FAA1EA1BB5
:10382400FB0BDF01EDE0F0E00E94F325E09345049B
:10383400F0934604E2E4F5E0FA93EA93EBECF2E069
:10384400FA93EA93E0914504F091460466277727BA
:103854000E94362684E00E940C232896E2E0EA9334
:10386400A0E00E941D21A2E4B5E00E946221A09183
:103874004504B0914604A436E0E0BE0720F4A9E66E
:10388400B3E00E946221DE01A95ABE4F0D90BC91A3
:10389400A02DEF8DF8A1EA1BFB0BDF01EDE0F0E0BA
:1038A4000E94F325E0934504F0934604E2E4F5E036
:1038B400FA93EA93EBECF2E0FA93EA93E09145048D
:1038C400F0914604662777270E94362684E00E94FA
:1038D4000C232896E7E0EA93A0E00E941D21A2E4CD
:1038E400B5E00E946221A0914504B0914604A4363B
:1038F400E0E0BE0720F4ABE6B3E00E946221DE0103
:10390400AB5ABE4F0D90BC91A02DED8DFE8DEA1BE0
:10391400FB0BDF01EDE0F0E00E94F325E0934504AA
:10392400F0934604E2E4F5E0FA93EA93EBECF2E078
:10393400FA93EA93E0914504F091460466277727C9
:103944000E94362684E00E940C232896ECE0EA9339
:10395400A0E00E941D21A2E4B5E00E946221A09192
:103964004504B0914604A436E0E0BE0720F4ADE679
:10397400B3E00E946221E0915505E03069F0E091E6
:103984002A05E03031F0E0916304F091640430974B
:1039940019F40C2C0D2809F48AC0E12FF0E0EC0D89
:1039A400FD1D4E165F0628F0A0912205A43009F0F3
:1039B40063C0E0915505AAE0EA02F001E09329050D
:1039C400A0912805AE1720F4E0912805EF5F01C00F
:1039D400E1E0E0932805AFE4B4E0F0E0EE0FFF1F70
:1039E400EA0FFB1F40825182E0E0ED83EE83EF8318
:1039F400E887E1E0E0931D05E0912905A0911D050C
:103A0400EA1728F1E0911D05AFE4B4E0F0E0EE0F11
:103A1400FF1FAE0FBF1F0E942E26E0933704F093C2
:103A24003804309769F0AD81BE818F81988566270F
:103A340077270E94BA25ED83FE836F83788701C0C0
:103A440006C0E0911D05EF5FE0931D05D5CFA09161
:103A54001D05A63068F0E0911D05E150AD81BE81E1
:103A64008F819885FF27662777270E9406266F0196
:103A7400E0E0E09322051AC0A0912205A43020F4CE
:103A8400E0912205EF5F01C0E4E0E0932205FE012E
:103A9400EE59FE4FE081E03049F4A0915505E6E28D
:103AA400EA9FF001B596DF010E9457030FC0FE01A3
:103AB400EE59FE4FE081E03049F4A0915505E6E26D
:103AC400EA9FF001B696DF010E945703E0912A05B0
:103AD400E03021F4E0912205E03009F01EC1E0E07D
:103AE400E0933704E0933804E0933904E0933A0414
:103AF400E0933B04E0933C04E98BEA8BEB8BEC8B87
:103B0400ED87EE87EF87E88BE987EA87EB87EC8719
:103B1400E0931D05A0911D05AC3008F041C0E09173
:103B24001D05AFE6B3E0F0E0EE0FFF1FAE0FBF1FC1
:103B34000E942E26A0913704B0913804EA0FFB1F8F
:103B4400E0933704F0933804A0911D05B0E0AA0F68
:103B5400BB1FAD56BC4F0E942E26A0913904B091D4
:103B64003A04EA0FFB1FE0933904F0933A04A0915E
:103B74001D05B0E0AA0FBB1FA954BC4F0E942E26FE
:103B8400A0913B04B0913C04EA0FFB1FE0933B047B
:103B9400F0933C04E0911D05EF5FE0931D05BACF5F
:103BA400E52FF0E0DE01AF55BF4FEE0FFF1FEA0F28
:103BB400FB1FA0913704B0913804A083B183E52F93
:103BC400F0E0DE01AB59BF4FEE0FFF1FEA0FFB1F02
:103BD400A0913904B0913A04A083B183E52FF0E0B9
:103BE400DE019996EE0FFF1FEA0FFB1FA0913B0425
:103BF400B0913C04A083B183E0E0E0931D05A09163
:103C04001D05AE3108F058C0E0911D05F0E0DE015D
:103C1400AF55BF4FEE0FFF1FAE0FBF1F0E942E26E2
:103C2400E0933704F0933804309709F445C0E091E9
:103C34003704F0913804A989BA898B899C8966274D
:103C440077270E94BA25E98BFA8B6B8B7C8BE091EA
:103C54001D05F0E0DE01AB59BF4FEE0FFF1FAE0FA5
:103C6400BF1F0E942E26AD85BE858F859889662745
:103C740077270E94BA25ED87FE876F87788BE091BE
:103C84001D05F0E0DE019996EE0FFF1FAE0FBF1F7A
:103C94000E942E26A985BA858B859C856627772761
:103CA4000E94BA25E987FA876B877C87E0911D0516
:103CB400EF5FE0931D05A3CFE0911D05E03061F1B6
:103CC400A989BA898B899C89FF27662777270E944F
:103CD4000626E9A3FAA3E0911D05AD85BE858F856F
:103CE4009889FF27662777270E940626EF8FF8A377
:103CF400E0911D05A985BA858B859C85FF276627DC
:103D040077270E940626ED8FFE8F5D3118F4E52F8C
:103D1400EF5F01C0E0E05E2F0AC0FE01EE59FE4FE6
:103D2400E081E03021F48DEE98E00197F1F7339BC8
:103D340002C03599FDC0339902C0E1E003C0359952
:103D440003C0E2E0E0932905E0913E05E03031F064
:103D5400E0E0E093B000E093B10009C0E0913D05DC
:103D6400E03029F0AEE0EA02F001EE58E7BD0E942F
:103D74002E21A9EFB4E00E947121A0911905B09100
:103D84001A05AD30E9E0BE0790F4D196A031E8E021
:103D9400BE0768F0A0911905B0911A05E2E00E94EF
:103DA400ED25E05AFF40E737A2E0FA0708F005C224
:103DB400A0914D04B0914E04AA33E5E7BE0720F06C
:103DC400A0912705AF3208F4F8C1A9E1B0E00E9440
:103DD400F223E0E0E0931D05A0911D05A93008F051
:103DE4004FC0339B04C0A0912905A13021F4A091B8
:103DF4002505A43108F008C0E0912505EF5FE093A4
:103E04002505E1E0E0931D05359B04C0A09129053B
:103E1400A23021F4A0912505A23008F408C0E09155
:103E24002505E150E0932505E1E0E0931D05E2E47A
:103E3400F5E0FA93EA93E0E0F4E0FA93EA93E09190
:103E44002505FF27662777270E94362684E00E94EF
:103E54000C232896E7E0EA93A1E00E941D21A2E446
:103E6400B5E00E946221AFEAB0E00E94F223E0E0F4
:103E7400E0932905E0911D05EF5FE0931D05ACCFAC
:103E840044245524E1E0E0931D05A0911D05A131D2
:103E9400D8F4E0911D05F0E00F01E95AFA4FA08132
:103EA400B0E0A7FDBFEFF001E859FA4FE081F0E080
:103EB400E7FDFFEFEA0FFB1F4E0E5F1EE0911D05AD
:103EC400EF5FE0931D05E1CFF201A3E0B0E00E94B3
:103ED400E525E836A6E1FA0709F06FC1E09125056A
:103EE400F0E0E055FF4F1491A0912505A23050F069
:103EF400E0912505E150F0E0E055FF4FE491E11B2E
:103F0400EE0F01C0ECE30E2FE0E0E0932A05DE01A2
:103F1400A15ABE4FEC93E0932205DE01AE59BE4F89
:103F2400EC93DE01A25ABE4FEC9396D10E94D203C9
:103F3400349923C0E0E0E093B000E093B100A09195
:103F44002405A23020F4E0912405EF5F01C0E0E0F5
:103F5400E09324050E94D203E0E0DE01A15ABE4FA3
:103F6400EC93DE01A35ABE4FEC93DE01A25ABE4F7E
:103F7400EC93A8ECB0E00E94F223DE01A55ABE4FF8
:103F84000D90BC91A02DA139E0E0BE0738F4ABE15F
:103F9400B5E0ED91FD913196FE93EE93A0911B0552
:103FA400B0911C05E2E00E94ED256E167F0610F428
:103FB4000E94C10E0EC0E1E4E0937C00A6E9B0E0EB
:103FC4000E94F223E0E0EA93A1E035D1A8E0B5E055
:103FD40086D11D990FC00E94B407E0E0DE01A25A09
:103FE400BE4FEC93DE01A15ABE4FEC93DE01AE59F5
:103FF400BE4FEC93FE01EE59FE4FE081E03059F0E4
:10400400DE01A55ABE4F0D90BC91A02DA239E0E06F
:10401400BE0708F07AC0E0917A00E064E0937A0089
:10402400E0917A00E074E1F7E0917800F091790092
:10403400DE01A55ABE4FED93FC93662777270E94B5
:104044007924A2EBBEE28EE89EE30E940325A3E35B
:10405400B3E383E590E40E94B324DE01A55ABE4F86
:104064000E944024ED93FC93DE01A55ABE4F0D90AF
:10407400BC91A02DA139E0E0BE0758F4E0E0E09344
:10408400B000E093B100EA93A1E0D5D0A4E1B5E09B
:1040940026D1E2E4F5E0FA93EA93E0E2F5E0FA935C
:1040A400EA93DE01A15ABE4F0D90BC91A02DEAE027
:1040B400F0E00E94F325662777270E943626DE016A
:1040C400AD59BE4F0D90BC91A02DEAE0F0E00E94E6
:1040D4002B26662777270E94362688E00E940C2329
:1040E4002C96ECE0EA93A1E0A6D0A2E4B5E0E8D0F7
:1040F400DE01A55ABE4F0D90BC91A02DA436E0E080
:10410400BE0718F4ADEDB2E0EAD0E0E4E0937C0041
:1041140032990FC00E943704E0E0DE01A15ABE4F7D
:10412400EC93DE01A25ABE4FEC93DE01AE59BE4FB2
:10413400EC93E981FA816B817C81EF5FFF4F6F4FD4
:104144007F4FE983FA836B837C83E0912605E0301B
:1041540019F0EDE5F0E001C0F301E0933704F093CA
:104164003804A981BA818B819C81662777270E94B4
:104174000626E030A3E0FA07A0E06A07A0E07A0789
:10418400D0F0A4E0B0E00E944D2631960E945D2656
:10419400ABE4B4E0ED91FD913196FE93EE93E0E053
:1041A400E983EA83EB83EC83A9E1B5E0ED91FD912A
:1041B4003196FE93EE930C94A112EF96A496DF5FD2
:1041C400FFCFAA93E881E07111F05A9A01C05A987E
:1041D400E881E07211F05B9A01C05B98E881E074B9
:1041E40011F05C9A01C05C98E881E07811F0289A9B
:1041F40001C0289881E28A95F1F7599A81E28A955B
:10420400F1F7599881E28A95F1F7B6C0AA93A8818B
:10421400D8DFE881E295E883A881D3DF8AEF90E0D4
:104224000197F1F7A9C0AA93A981F0DF589AA88150
:10423400EDDF58980FC0AA93E881F0E0E758FA4FF1
:10424400E081A981AE0FE2DFE981E0937D05E88199
:10425400E0937E0522960895A2E0D8DFA3E0B0E0C3
:104264000E94F223ACE0D2DFA1E0D0DFA3E0B0E013
:104274000E94F223E0E0E0937E05E0937D0508953B
:10428400AA93A881AA3031F0E0917F05A0917D0521
:10429400AE1760F0E0E0EA93A0917E05AF5FA093D3
:1042A4007E05C9DFA881AA3009F466C0E0917D05C6
:1042B400EF5FE0937D05589AA881A8DF58985CC009
:1042C400BA93AA931A93A981BA81ED91A983BA8367
:1042D4001E2FE03019F0A12FD3DFF5CF10C0BA9311
:1042E400AA931A93E981FA813196E983FA83319783
:1042F400E4911E2FE03019F0A12FC2DFF3CF188113
:1043040023960895AA93529A539A549A209A519AAA
:10431400509A579A599858985F98E881E0937F0586
:10432400E058E0937B05E881E054E0937C05A4E148
:10433400B0E00E94F223A0E344DF84EF91E0019710
:10434400F1F7A0E33EDF84EF91E00197F1F7A0E3FA
:1043540038DF84EF91E00197F1F7A0E232DF84EFD8
:1043640091E00197F1F7A8E251DFA4E04FDFA5E85F
:104374004DDFA6E04BDF70DF21960895BA93AA9330
:104384001A930A93AA81BB8112960E942E26309713
:1043940059F1AA81BB8114960E942E268F01309771
:1043A40061F00230E0E01E0798F0F80131978F01C8
:1043B400AA81BB811496ED93FC93AA81BB811296CA
:1043C400ED91FD913196FE93EE933197AC81A083EC
:1043D400AA81BB810E942E26FF232AF0ED91FD9134
:1043E4003196FE93EE9306C0AA81BB81EFEFFFEFF7
:1043F400ED93FC931981088125960895BA93AA93A5
:1044040024970E947C2610E0AA85BB85E0E0F0E0BA
:10441400ED93FC93E889F9893196E88BF98B319710
:10442400E4913E2FE03009F4EDC0E12FE03059F47F
:10443400353211F411E006C03A93AB85BC85ED85A5
:10444400FE850995DEC0E130A9F4353239F43A939A
:10445400AB85BC85ED85FE850995D2C012E020E0D0
:1044640000E03B3211F42BE2CCC0303211F420E2F4
:10447400C8C002C0E23031F4303319F4006115E0F1
:10448400C0C003C0E53009F0BCC0E32FE33669F4D3
:10449400EE85FF853497EE87FF87A481AA93AB85C9
:1044A400BC85ED85FE850995ABC0E337E1F4EE8567
:1044B400FF853497EE87FF87AE85BF8514960E94EB
:1044C4002E26EE83FF83AE81BF81ED91AE83BF8341
:1044D4003E2FE03039F03A93AB85BC85ED85FE85FF
:1044E4000995F1CF8DC0E037F1F4EE85FF8534975F
:1044F400EE87FF87AE85BF8514960E942E26EE8335
:10450400FF83EE81FF813196EE83FF833197E4913F
:104514003E2FE03039F03A93AB85BC85ED85FE85BE
:104524000995EFCF6DC0E43611F0E93611F401605E
:1045340002C0E53719F4E6ECF0E009C0E83511F4FF
:10454400026003C0E83709F05BC0E0EDF0E0EE8301
:10455400FF8300FF1AC0EE85FF853497EE87FF873F
:10456400AE85BF8514964D915C9155232AF4FA01CA
:104574000E94C425AF012DE2203031F02A93AB858F
:10458400BC85ED85FE8509950AC0EE85FF853497C7
:10459400EE87FF87AE85BF8514964D915C9130E31D
:1045A400EE81FF810E943226E887F987EE81FF8140
:1045B4003296EE83FF83E885F9854E175F0730F066
:1045C4003F5FA885B9854A1B5B0BF5CF04FD06C088
:1045D400313320F4A885B985119771F400613A3319
:1045E40028F001FF02C0395F01C0395D3A93AB8501
:1045F400BC85ED85FE850995A885B985129778F661
:1046040010E008CFAA85BB850E942E260E9483262F
:1046140062960895FF92F82E26970E947E26DE0168
:104624001C960E94B6250E942E26309719F4EFEFAF
:10463400FFEF27C0DE0116960E94B6258D01DE012C
:104644001C960E94B6250E942E26EE83FF83E0E08E
:10465400E887E987DE011A960E94B6250E942E2675
:10466400FA93EA931A930A93E0ECF1E2FA93EA9349
:10467400DE011A96C3DE9F01AE81BF81E0E0EC93B8
:10468400F9010E9485262A96FF9008950E943B26F0
:1046940024971A930A93AE81BF81888599850E94D5
:1046A40076262CF0EFEFFFEF6FE77FEF95C0EE81FA
:1046B400FF81688579850E943626ADB7BEB711970C
:1046C4001F930F930E94FC230F911F91EE83FF838E
:1046D40068877987AE81BF8188859985E3EFF4E0A7
:1046E40065E37FE30E94962560F4EE81FF8168858F
:1046F40079850E94B324EE83FF836887798701500C
:104704001040EE81FF8168857985A0E0B0E080E803
:104714009FE30E94AC247F936F93FF93EF93EE810A
:10472400FF8168857985A0E0B0E080E89FE30E947E
:10473400B324AF91BF918F919F910E945125EE8335
:10474400FF8368877987AE81BF81888599850E94B8
:104754000325EA83FB836C837D83A6E2B2E485E6CA
:104764009FE30E940325DF01CB01EEE4F1E164E560
:1047740070E40E9440260E94AC24AE81BF818885EB
:1047840099850E9403257F936F93FF93EF93EA81AA
:10479400FB816C817D81ADE4B1E184ED9FE30E94F6
:1047A400AC24AF91BF918F919F910E9451257F932B
:1047B4006F93FF93EF93F8010E94E0250E94792400
:1047C400A8E1B2E781E39FE30E940325AF91BF9183
:1047D4008F919F910E94B324198108812A9608958C
:1047E400109639F088E893E10197F1F7A8951197AD
:1047F400C9F70895E991F9916991799177FB660F69
:10480400771F88277E57880B7D938C937EE7769558
:1048140067950EF0089530976040704009F0705825
:104824000895552342F4503811F4E0FF04C0319642
:10483400691F791F6BF050E8572711F45F93CFC0BD
:104844005F3F31F0660F000C57956795752F0895FB
:104854005F9300200AF0CFC0C8C050E8192E15227B
:10486400880F991F9527550F879550E8072E052225
:10487400660F771F7527550F67950895689401C0D3
:10488400E8945F93F2DF703818F07F3F08F4A7C014
:1048940056E1571BAAF4519558300EF4593030F0B4
:1048A400EFEFFFEF6FEF7FE777F91AC07727552314
:1048B400B9F0EE0FFF1F661F771F5A95D1F710C08E
:1048C4007727583028F0EF2FF62F672F5850F9CF5D
:1048D400552331F076956795F795E7955A95D1F775
:1048E40000200AF453D15F910895689401C0E894BC
:1048F400309760407040B1F0002426F0772312F422
:10490400009444D1172E7EE1112032F07A95EE0FF7
:10491400FF1F661F111CF9CFEF2FF62F612D5F9338
:104924008ADF5F9108954F93AF01FD01DA01AB0176
:10493400BC01CA01402D012C142E4F910895EA0F99
:10494400FB1F681F0895E095F0956095EF5FFF4F9A
:104954006F4F08955F9381DF903871F150E8152609
:1049640004C05F937ADF903839F1703821F1572F02
:10497400591B2BF112F4D7DFFACF583118F0AA27BC
:10498400BB278827583028F0AB2FB82F88275850DA
:10499400F9CF552329F08695B795A7955A95D9F758
:1049A400502D512572F0CBDF38F46795F795E795D4
:1049B400739513F420C0B7DF3EDF5F910895D8F7F5
:1049C400FBCFEA1BFB0B680B51F010F40094BBDF28
:1049D400662392F3EE0FFF1F661F7A95CBF7EE273F
:1049E400FF27662777275F910895EFEFFFEF6FE7C3
:1049F4007FEF5F910895EFEFFFEF6FE77FE75F9140
:104A040008955F932ADF703851F3903841F30124FD
:104A14000894791F23F41CF300203AF3ECCF0F928F
:104A24001F932F933F934F93112722279927689F12
:104A3400A0018F9F302D410D591F6B9F300D411DDB
:104A4400591F8E9F27D0BF9F25D06A9F23D0BE9F1A
:104A54001DD0AF9F1BD0AE9F110D291F391F491FB9
:104A6400591FE32FF42F652F522F4F913F912F9110
:104A74001F910F9066232AF0550FEE1FFF1F661F2C
:104A840002C073954BF2CDDE5F910895100D211D88
:104A9400391F02C0200D311D491F591F08955F930E
:104AA400DCDE703821F411200AF49FCFA4CF9038B3
:104AB40009F495CF01240894970B1BF4D4F3002038
:104AC400F3CF792F1F932F933F934F9311241127E3
:104AD400222733274427552790E2AE17BF078607BE
:104AE400410730F0AE1BBF0B860B410B089401C08D
:104AF4008894551F221F331F111CAA1FBB1F881F18
:104B0400441F9A9551F7F901612D4F913F912F91CF
:104B14001F91662332F0550FEE1FFF1F661F7A9513
:104B240043F27FDE5F91089599239AF0772342F050
:104B3400971748F029F4AE17BF07860720F031F025
:104B4400989488940895989408940895189488944F
:104B540008957723C2F7971798F3A9F7EA17FB0785
:104B6400680788F399F3ECCF0024AF0DB01D0895C6
:104B7400EA0FFB1F681F791F0895AE0FBF1F861F22
:104B8400971F0895F195E195F0400895F09560958B
:104B94007095E195FF4F6F4F7F4F0895EE0FFF1F04
:104BA400EE0FFF1F089576956795F795E79508959D
:104BB400FE2FFF0FFF0B6F2F7F2F08956F2F660FB0
:104BC400660B762F0895FA9FF02DEB9FF00DEA9F68
:104BD400E02DF10D08956E2F6A9FF0016B9FF00D8B
:104BE40008950024112490E1AA0FBB1F001C111C7E
:104BF4000E1A1F0A18F40E0E1F1E01C0A1609A950A
:104C040099F7FD01D00108953F934F935F930024DA
:104C140011244427552730E2AA0FBB1F881F991F70
:104C2400001C111C441F551F0E1A1F0A460B570B5C
:104C340028F40E0E1F1E461F571F01C0A1603A958F
:104C440059F7FD01BC01D001CA015F914F913F9119
:104C54000895C7DFFD010895ED91FC911197089522
:104C64000590F491E02D08957A936A93FA93EA9368
:104C740008959A938A93BA93AA930895182E862F27
:104C8400612D192E972F712D1B2EBF2FF12D1A2E4A
:104C9400AE2FE12D0895119602D0FE2F1197F999A8
:104CA400FECFFF93FFB7F894A1BDB2BDF89AE0B56B
:104CB400FFBFFF91089507D01196EF93EF2F03D014
:104CC400EF9111970895F99B02C0A895FCCF9FB767
:104CD400F894A1BDB2BDF89A80B5E81719F0E0BD0B
:104CE400FA9AF99A9FBF089500240A160B0608063B
:104CF400090608955A934A933A932A931A930A9366
:104D040008955D814C813B812A8119810881089530
:104D14009927AC0FBD1F05900D920197E1F70895F7
:00000001FF
