:020000000C945E
:100002002803080C1E1F1E0C080000000000000040
:10001200031F0000000000031F1F00000000031F59
:100022001F1F000000031F1F1F1F0000031F1F1FB1
:100032001F1F00031F1F1F1F1F1F031F1F1F1F1F25
:100042001F1F020504040414080000CDAF9682733A
:10005200645546382E241E1915120F0C090603008A
:100062001027E80364000A000100001000011000DC
:100072000100C8000000A000027A00000000000099
:10008200000000000000110001003100000000002B
:100092000000000000000000000000000000050059
:1000A200020000000A0000000A002C000500070000
:1000B200202046656C657A4A6F6F202050492020C7
:1000C200000020202044454D4F2076332E3330202F
:1000D200202000008300040005000600A3000200A7
:1000E200FE020E031E032E033E034E035E036E0347
:1000F2007E038E039E03AE03BE032048616D6964D6
:100102002028204952414E20292000202044657396
:1001120069676E65642042793A202000000020520F
:10012200656D61696E696E67205573653A200000DE
:1001320000000000000000000000000000000000BD
:1001420000000000000000000000000000000000AD
:10015200000000000000000000000000000000009D
:10016200000000000000000000000000000000008D
:10017200000000000000000000000000000000007D
:10018200000000000000000000000000000000006D
:10019200000000000000000000000000000000005D
:1001A200000000000000000000000000000000004D
:1001B200000000000000000000000000000000003D
:1001C200000000000000000000000000000000002D
:1001D200000000000000000000000000000000001D
:1001E200000000000000000000000000000000000D
:1001F20000000000000000000000000000000000FD
:1002020000000000000000000000000000000000EC
:1002120000000000000000000000000000000000DC
:1002220000000000000000000000000000000000CC
:1002320000000000000000000000000000000000BC
:1002420000000000000000000000000000000000AC
:10025200000000000000000000000000000000009C
:10026200000000000000000000000000000000008C
:10027200000000000000000000000000000000007C
:1002820000000000000000000000960000000000D6
:1002920000000000000053257520442575204625E6
:1002A2007520502575005325752044257546257502
:1002B200205025750020003D2020202020202020D5
:1002C2002020202020200020412020202042202009
:1002D2002020432020202000202020202044656C64
:1002E20061793A002020436F696C204572726F7207
:1002F200202100257520282B25752900467265715D
:1003020075656E63792020202020200050756C7363
:1003120065205769647468202020200044656C6160
:10032200792020202020202020202000496E746582
:10033200672E5720202020202020200047726F7532
:100342006E6420202020202020202000537065652C
:1003520064202020202020202020200049726F6E5F
:100362002052656A65637420202020004261636B1D
:100372004C6967687420202020202000436F6E742F
:10038200726173742020202020202000566F6C752B
:100392006D6520202020202020202000546F6E65D3
:1003A2002020202020202020202020005061737354
:1003B200776F7264202020202020200041626F7518
:1003C2007420202020202020202020004F4646009C
:1003D2004F4E20003C213E002B002B257500257539
:1003E2002000204F6C642050617373776F72642019
:1003F2003A0057726F6E672050617373776F726441
:10040200202100204E65772050617373776F7264EC
:10041200203A00436F6E6669726D20506173737784
:100422006F72640050617373776F72642043686106
:100432006E676564002020202020202020202020BC
:1004420020202020200020204869676820506F77F4
:1004520065722021002020205072657373204F4B5B
:100462002021002020202044454D4F202121210021
:10047200202020202020203F0042616C616E6369B1
:100482006E6720200049443A20202020202020208E
:100492002020202020002020202046453A004E4FD8
:1004A2004E2D46453A0020464552524F3A002563AA
:1004B200257500FF005F2020202020202020202002
:1004C20000212020202020202D2575002120202001
:1004D2002020202020202000202053656E73697484
:1004E20069766974793A00436F696C204572726F5C
:1004F200722000506F776572204F66662020004C94
:100502006F7720426174746572790025752E2575A6
:10051200000080C000000000010000002D4E414E8E
:1005220000494E46000006000400740002004B051C
:100532007A00020019067C0001001E067E000100FE
:100542001F068000010020068200010021068400AF
:10055200010022068600010023068800010024060D
:100562008A00010025068C00010027068E0010007B
:100572002C06900001003C06A00001003D06A200EE
:1005820001003E06A40001003F06A600010040064D
:10059200A80001005206AA0001005306AC000100A7
:1005A2005406AE0001005506B00011005606B20016
:1005B20011006706C40002000004B7020200020430
:1005C200B70211000404870402001504B7020800F0
:1005D2001704980408001F04A00408002704A804B4
:1005E20002002F04B70202003104B50402003304F2
:1005F200B70203003504C60202003804B7020C0039
:100602003A04B70403004604C60202004904B702D2
:100612000C004B04CE040C005704CE040200630409
:10062200B70202006504B70202006704B7020200C3
:100632006904B70202006B04B70202006D04B7023C
:1006420004007806140504007F061A050000F894D9
:10065200EE27EFBBF1E0F5BFE5BFF8E1A895A4B73F
:10066200A77FA4BFF0936000E0936000E8E2F5E0AA
:1006720085919591009761F0A591B591059015909E
:10068200BF01F00105900D920197E1F7FB01F0CF58
:10069200EFEFEDBFE8E0EEBFC0E0D4E00C94E10F75
:1006A200BA93AA93E881F9813697E883F983000027
:1006B20084E090E00197F1F7E881E17021F085E0B4
:1006C20090E00197F1F7E881E27021F08AE090E092
:1006D2000197F1F7E881E47021F084E190E001975D
:1006E200F1F7E881E87021F088E290E00197F1F7F4
:1006F200E881E07121F080E590E00197F1F7E8816F
:10070200E07221F080EA90E00197F1F7E881E0746D
:1007120021F080E491E00197F1F7E881E07821F09F
:1007220080E892E00197F1F7E981E17021F080E041
:1007320095E00197F1F7E981E27021F080E09AE01B
:100742000197F1F7E981E47021F080E094E10197EB
:10075200F1F7E981E87021F080E098E20197F1F782
:10076200E981E07121F080E090E50197F1F7E981FC
:10077200E07221F080E090EA0197F1F7E981E074FC
:1007820041F080E090EA0197F1F780E090EA01976A
:10079200F1F722960895E0E0EA93A0E00E944C234C
:1007A200E0912206E03009F04CC0A0912306AA3065
:1007B20048F0A0913F06AA302CF0E4E6F0E04E1695
:1007C2005F0638F4E1E4F6E0FA93EA93E8E9F2E04E
:1007D20006C0E1E4F6E0FA93EA93E8EAF2E0FA937B
:1007E200EA93E0912306FF27662777270E947D2858
:1007F200E0913F060E9409280E947D28F2016627A7
:1008020077270E947D28F401662777270E947D289A
:1008120080E10E943B256496A1E4B6E00E94912308
:10082200E0914F06E03021F4A0E0B4E00E94912371
:10083200E0915006E03021F4A2E0B4E00E9491235E
:100842000EC0A0912206A13031F4A0E00E947123D3
:10085200A9EBB2E002C0A9ECB2E00E94A023089585
:10086200E0E4E0937C00E0913D06E03031F0E0E02E
:10087200E093B000E093B10009C0E0913C06E030A3
:1008820029F0AEE0EA02F001EE58E7BD0E945D23D6
:10089200AAEDB2E00E94A023E1E0F0E71F01EDEF34
:1008A200FFE7E215F30538F0F101A491AF3F19F427
:1008B20031961F01F4CFEEEFFFE72E163F0630F41C
:1008C200E0E6F9E0E0934905F0934A052224332457
:1008D200E1E0E0931B06A0911B06A131D8F4E09160
:1008E2001B06F0E00F01EA5AF94FA081B0E0A7FD24
:1008F200BFEFF001E959F94FE081F0E0E7FDFFEFCA
:10090200EA0FFB1F2E0E3F1EE0911B06EF5FE093E6
:100912001B06E1CFF1010E94FF27E83DADE1FA0796
:1009220009F00895A0914905B0914A05AF30E9E078
:10093200BE0790F4D196A031E8E0BE0768F0A0911E
:100942004905B0914A05E2E00E941C28E05AFF40A6
:10095200E737A2E0FA0708F00895A0914B05B0919D
:100962004C05AB33E5E7BE0720F0A0912506AF3278
:1009720008F40895E1E0E0931B06A0911B06AF3056
:1009820008F04CC1E0E0E0937A00E0911B06E093AE
:100992001D06EFEFF1E0E819F909E0934305F09342
:1009A20044055E9B02C05E9801C05E9AE5E8E09352
:1009B2007A00E0917A00E064E0937A00E0917A00B4
:1009C200E074E1F7A0914305B091440569DE2A98ED
:1009D200D4010E9451032A9A000085E090E0019719
:1009E200F1F7E0911D06E150E0931D06E03039F089
:1009F2000000000085E090E00197F1F7F2CFE0E01F
:100A0200E4BDE5BDE0917A00E064E0937A00E09114
:100A12007A00E074E1F7C0907800D0907900E0911C
:100A22007A00E064E0937A00E0917A00E074E1F702
:100A3200E0917800F0917900E0933705F093380562
:100A4200E0917A00E064E0937A00E0917A00E07449
:100A5200E1F7E0917800F0917900E0933905F093A5
:100A62003A05E0917A00E064E0937A00E0917A003E
:100A7200E074E1F7E0917800F0917900E0933B05B2
:100A8200F0933C05E0917A00E064E0937A00E09113
:100A92007A00E074E1F7E0917800F0917900E09358
:100AA2003D05F0933E05E0917A00E064E0937A0020
:100AB200E0917A00E074E1F7E0917800F09179003A
:100AC200E0933F05F0934005E0917A00E064E09303
:100AD2007A00E0917A00E074E1F7E0917800F09119
:100AE2007900E0934105F0934205E3EAE4BDE2E0D8
:100AF200E5BDE0911B06AFE6B4E0F0E0EE0FFF1FAC
:100B0200EA0FFB1FC082D182E0911B06E25FAFE6D3
:100B1200B4E0F0E0EE0FFF1FEA0FFB1FA0913705D4
:100B2200B0913805A083B183E0911B06E45EAFE685
:100B3200B4E0F0E0EE0FFF1FEA0FFB1FA0913905B2
:100B4200B0913A05A083B183E0911B06E65DAFE662
:100B5200B4E0F0E0EE0FFF1FEA0FFB1FA0913B0590
:100B6200B0913C05A083B183E0911B06E85CAFE63F
:100B7200B4E0F0E0EE0FFF1FEA0FFB1FA0913D056E
:100B8200B0913E05A083B183E0911B06EA5BAFE61C
:100B9200B4E0F0E0EE0FFF1FEA0FFB1FA0913F054C
:100BA200B0914005A083B183E0911B06EC5AAFE6F9
:100BB200B4E0F0E0EE0FFF1FEA0FFB1FA09141052A
:100BC200B0914205A083B183A0911B06AE3000F51F
:100BD200EFE0EA1BE0931D06000085E090E001973C
:100BE200F1F7E0911D06E150E0931D06E03039F087
:100BF2000000000085E090E00197F1F7F2CFD30109
:100C0200A45EB2400E94510382E090E00197F1F7A6
:100C1200E0911B06EF5FE0931B06AFCEE0E0E093AE
:100C22001C06E4E0E0931B06A0911B06A33608F025
:100C32005CC0E0911B06E250AFE6B4E0F0E0EE0FDC
:100C4200FF1FAE0FBF1F0E947528DF017F97F0F1D3
:100C5200FD01E039A1E0FA07C8F5E0911B06AFE615
:100C6200B4E0F0E0EE0FFF1FAE0FBF1F0D901C901F
:100C7200E0911B06E150AFE6B4E0F0E0EE0FFF1F9B
:100C8200AE0FBF1F0E947528D001AE1BBF0B1B9772
:100C9200E8F0E0911B06E150AFE6B4E0F0E0EE0FC1
:100CA200FF1FAE0FBF1F0D901C90E0911B06E2507C
:100CB200AFE6B4E0F0E0EE0FFF1FAE0FBF1F0E94E1
:100CC2007528D001AE1BBF0B1B9708F408C0E0913A
:100CD2001B06E250E0931C06E4E6E0931B06E0915B
:100CE2001B06EF5FE0931B069FCFE0911C06E030EE
:100CF20069F4E1E0E0932406E0E0EA93A1E00E94D7
:100D02004C23A6EEB2E00E94A0236EC0E0E0E09386
:100D12002406E0911C06FF27662777270E94A82653
:100D2200ADECBCEC8CEC9FE30E943227ADECBCEC4A
:100D32008CE690E40E94E226A7E2B6E00E946F26CB
:100D4200EC93E4E0EA93A1E00E944C23E1E4F6E0B4
:100D5200FA93EA93E5EFF2E0FA93EA93E091270639
:100D6200FF27662777270E947D28E0913F060E9491
:100D720009280E947D2888E00E943B252C96A1E448
:100D8200B6E00E949123AA24BB24E1E0E0931B0673
:100D9200A0911B06A53698F4E0911B06ADE4B5E0E0
:100DA200F0E0EE0FFF1FAE0FBF1FE0E0F0E0ED93AB
:100DB200FC93E0911B06EF5FE0931B06E9CFE0E0B6
:100DC200E0932606E0932006E0932806AFE0B0E029
:100DD2000E949828A0912306EA1731F0E091230699
:100DE200AFE0B0E00E94AC28AAE8B2E00E9421265F
:100DF2000E945D23D0DC0895E0E0EA93A1E00E9426
:100E02004C23E0E0E0931B06A0911B06A03108F002
:100E12004AC0E0E0E0932706AAEFB0E00E94212654
:100E22001D9B43C0329903C0E4E0E0932706339947
:100E320003C0E3E0E0932706349903C0E2E0E093C5
:100E42002706359903C0E1E0E0932706E0912706E3
:100E5200E030F9F0E0911B06F0E0E45DF94FA0917B
:100E62002706A083E1E4F6E0FA93EA93E5EAF2E0EA
:100E7200FA93EA93E0912706FF27662777270E94D5
:100E82007D2884E00E943B252896A1E4B6E00E94DA
:100E92009123E0912706E03019F2E0911B06EF5F03
:100EA200E0931B06B1CF1D99FECFE0911B06E093A4
:100EB2002706E0931B06A0911B06A03168F4E0917F
:100EC2001B06F0E0E45DF94FA0E0A083E0911B0671
:100ED200EF5FE0931B06EFCF0895E0E0E0931B067F
:100EE200A0911B06A031A0F4B0E0A05FBF4F0E940A
:100EF2009828AE2FE0911B06F0E0E45DF94FE08107
:100F0200EA1731F4E0911B06EF5FE0931B06E8CF8E
:100F1200A0911B06A03111F4E1E001C0E0E00895C8
:100F2200BA93AA931A930A93EA81EE0FEE0FEE0F89
:100F3200E0640E2F10E0183068F40A930395ED81F7
:100F4200FE813196ED83FE833197A4910E94442362
:100F52001F5FF1CF1981088126960895A091550649
:100F6200A6301CF0EAE0EA1B15C0E0915506E53018
:100F720011F4E6E00FC0E43011F4E8E00BC0E33016
:100F820011F4EBE007C0E23011F4EFE003C0E1300E
:100F920019F4E4E1E0932B060895E0913F060E94E4
:100FA20009280E94A826A0E0B0E080E29FE30E9408
:100FB2003227A0E0B0E080E09FE30E94E226A9E2AF
:100FC200B6E00E946F26EC93E09153060E94092836
:100FD2000E94A826A0E0B0E080E29FE30E943227B0
:100FE200A0E0B0E080E09FE30E94E226DF01CB01B7
:100FF200E0912906FF27662777270E94A8260E94EC
:10100200E226AAE2B6E00E946F26EC930895EF97DB
:1010120067978CE3AAE1B0E0E2EEF0E00E94D1280B
:101022000E94C52801E030E020E04C825D82FE0192
:10103200369680829182E0913F06F0E0E7FDFFEF75
:10104200E887F987E0915306F0E0E7FDFFEFEA87D2
:10105200FB87E0915406F0E0E7FDFFEFEC87FD87A8
:10106200E0915506F0E0E7FDFFEFEE87FF87E091A4
:101072004006F0E0E7FDFFEFE88BF98BE0913C06DC
:10108200F0E0E7FDFFEFEA8BFB8BE0913E06F0E03C
:10109200E7FDFFEFEC8BFD8BE0913D06F0E0E7FD15
:1010A200FFEFEE8BFF8BE0915206F0E0E7FDFFEFE2
:1010B200E88FF98FA0E1B0E00E949828E13010F0AB
:1010C200E53008F003C0E1E0F0E002C0E0E0F0E06B
:1010D200EA8FFB8FE0E0EC8FED8FE0913D06E03090
:1010E20031F0E0E0E093B000E093B10009C0E0919C
:1010F2003C06E03029F0AEE0EA02F001EE58E7BD2E
:101102000E945D2322243324E1E0E0931B06A09198
:101112001B06A131D8F4E0911B06F0E00F01EA5A58
:10112200F94FA081B0E0A7FDBFEFF001E959F94FF7
:10113200E081F0E0E7FDFFEFEA0FFB1F2E0E3F1EFE
:10114200E0911B06EF5FE0931B06E1CFF101A3E004
:10115200B0E00E941428E236A6E1FA0731F00E94BC
:10116200CC28EF966B960895FFCFA4E0B0E00E94E2
:101172009428BF010F01F196E131A8E0FA0780F04F
:10118200F001E05DF740EC33A1E0FA0748F4DB013F
:10119200E0914905F0914A05AE1BBF0B119709F08A
:1011A200FFCFA0914B05B0914C05A831E9E7BE07EE
:1011B20020F0A0912506A83208F4FFCFE09117068F
:1011C200F0911806A0914905B0914A05EA17FB076C
:1011D20009F09DC6E4E0F0E0FA93EA93A0E0B0E003
:1011E2009FDE22243324E1E0E0931B06A0911B063C
:1011F200A13108F5E0911B06F0E0BF01DE01A75B1B
:10120200BF4FAE0FBF1FEC91F0E0E7FDFFEF0F0104
:10121200FB01DE01D896AE0FBF1FEC91F0E0E7FDB7
:10122200FFEFE00DF11D2E0E3F1EE0911B06EF5F5A
:10123200E0931B06DBCFF101A3E0B0E00E9414288B
:10124200E236A9E1FA0711F062C6FFCF329910C067
:10125200A0911E06AC3038F4E0911E06EF5FE093D9
:101262001E06E1E003C0E0E0E0931E06E0931F06E5
:10127200349911C0A0911E06A13038F0E0911E06EB
:10128200E150E0931E06E0E004C0ECE0E0931E06AD
:10129200E1E0E0931F06329B05C0349B03C000309F
:1012A20009F499C0E0E0EA93A0911F060E944C2342
:1012B200A0E00E947123E0E0EA93A0911F06E1E022
:1012C200EA1BAE2F0E944C23A7EBB2E00E94A023A0
:1012D200E0E0E0931B06A0911B06A23008F07BC061
:1012E200E0911E06EA0FA0911F06EA1BE093270673
:1012F200E1E0EA93A0911B060E944C23E0912706AD
:10130200F0E0DE015E96EE0FFF1FAE0FBF1F0E94E0
:101312007528DF010E94A023EDE0EA93A0911B064D
:101322000E944C23E0912706F0E0DE011496EE0FB6
:10133200FF1FAE0FBF1F2D903C90A0912706A43037
:1013420041F0A63031F0A73021F0A93011F0AB30D6
:1013520019F4022C032809F005C0AEECB3E00E9498
:10136200A02333C0A0912706AB3019F4022C032826
:1013720009F405C0A2EDB3E00E94A02326C0A0910B
:101382002706AC3029F4A6EDB3E00E94A0231DC0CD
:10139200A0912706A23021F4AAEDB3E00E94A02377
:1013A200E1E4F6E0FA93EA93E5EAF2E0FA93EA93EB
:1013B200F101662777270E947D2884E00E943B2561
:1013C2002896A1E4B6E00E949123E0911B06EF5F0C
:1013D200E0931B0680CF359B02C03399F9C3EDE041
:1013E200EA93A0911F060E944C23359902C0EFEFA9
:1013F20001C0E1E01E2FE0911E06E030B9F5E12FB9
:10140200F0E0E7FDFFEF4E0E5F1EE3E2F0E04E1666
:101412005F0618F4E7EEF3E007C0E7EEF3E0E41549
:10142200F50518F4E3E2F0E02F01E1E4F6E0FA93C7
:10143200EA93E5EAF2E0FA93EA93F2016627772764
:101442000E947D2884E00E943B252896A1E4B6E014
:101452000E949123E4E6F0E04E165F0620F4A7EB2B
:10146200B2E00E94A0234C825D82B2C3E13091F5CA
:10147200A5E01A02F001F0E0E7FDFFEF8E0E9F1EDD
:10148200E4E6F0E08E169F0618F4E4EFF1E007C000
:10149200E4EFF1E0E815F90518F4E4E6F0E04F01B5
:1014A200E1E4F6E0FA93EA93E5EAF2E0FA93EA93EA
:1014B200F401662777270E947D2884E00E943B255D
:1014C2002896A1E4B6E00E949123FE01369680821E
:1014D20091827EC3E23009F040C0E12FEE0FA0916D
:1014E2003F06EA0FE0933F06A0913F06A03044F08A
:1014F200A33634F4EEE6EA1BA0915306EA173CF455
:10150200E12FEE0FA0913F06AE1BA0933F06E1E450
:10151200F6E0FA93EA93ECEDF3E0FA93EA93E091C2
:101522003F060E9409280E947D2884E00E943B25F4
:101532002896A1E4B6E00E949123A0913F06AA302A
:1015420024F4A7EBB2E00E94A023E0913F06F0E072
:10155200E7FDFFEFE887F9873BC3E330D1F5E12FE1
:10156200EE0FA0915306EA0FE0935306A0915306A3
:10157200AA3054F0A33644F4A0913F06EEE6EA1BEB
:10158200A0915306EA173CF4E12FEE0FA091530607
:10159200AE1BA0935306E1E4F6E0FA93EA93E5EA80
:1015A200F2E0FA93EA93E09153060E9409280E941E
:1015B2007D2884E00E943B252896A1E4B6E00E94A3
:1015C2009123E0915306F0E0E7FDFFEFEA87FB8706
:1015D200FFC2E43009F040C0E12FA0915406EA0FA7
:1015E200E0935406A0915406A03014F4EAE005C03A
:1015F200A0915406AB301CF0E0E0E0935406E09179
:101602005406E03019F4AEECB3E01CC0E1E4F6E0BD
:10161200FA93EA93E0EEF3E0FA93EA93E091540648
:101622000E9409280E947D2884E00E943B2528967A
:10163200A1E4B6E00E949123A0915406AA3024F4BA
:10164200A7EBB2E00E94A023E0915406F0E0E7FD90
:10165200FFEFEC87FD87BCC2E530B9F5E12FA09121
:101662005506EA0FE0935506A0915506A13014F0F5
:10167200AB302CF0E0915506E11BE0935506E1E416
:10168200F6E0FA93EA93E5EAF2E0FA93EA93E0915C
:1016920055060E9409280E947D2884E00E943B256D
:1016A2002896A1E4B6E00E949123A0915506AA30A3
:1016B20024F4A7EBB2E00E94A023E0915506F0E0EB
:1016C200E7FDFFEFEE87FF8783C2E63009F03EC0F9
:1016D200E12FA0914006EA0FE0934006A091400658
:1016E200A03014F0AF312CF0E0914006E11BE09302
:1016F2004006E0914006E03019F4AEECB3E01CC0C5
:10170200E1E4F6E0FA93EA93E0EEF3E0FA93EA9387
:10171200E09140060E9409280E947D2884E00E94F0
:101722003B252896A1E4B6E00E949123A0914006B1
:10173200AA3024F4A7EBB2E00E94A023E091400675
:10174200F0E0E7FDFFEFE88BF98B42C2E73009F0EA
:101752004BC0E12FA0913C06EA0FE0933C06A0911A
:101762003C06A03014F0AB302CF0E0913C06E11BBB
:10177200E0933C06A0913C06A1303CF0E0913C068F
:10178200AEE0EA02F001EE5801C0E0E0E7BDE09110
:101792003C06E03019F4AEECB3E01CC0E1E4F6E044
:1017A200FA93EA93E0EEF3E0FA93EA93E0913C06CF
:1017B2000E9409280E947D2884E00E943B252896E9
:1017C200A1E4B6E00E949123A0913C06AA3024F441
:1017D200A7EBB2E00E94A023E0913C06F0E0E7FD17
:1017E200FFEFEA8BFB8BF4C1E83099F5E12FA09172
:1017F2003E06EA0FE0933E06A0913E06A03014F0AA
:10180200A3332CF0E0913E06E11BE0933E06E0910B
:101812003E06EE0FE8BDE1E4F6E0FA93EA93E0EE6D
:10182200F3E0FA93EA93E0913E060E9409280E94AF
:101832007D2884E00E943B252896A1E4B6E00E9420
:101842009123E0913E06F0E0E7FDFFEFEC8BFD8B8C
:10185200BFC1E93009F03EC0E12FA0913D06EA0F79
:10186200E0933D06A0913D06A03014F0AB302CF081
:10187200E0913D06E11BE0933D06E0913D06E0303C
:1018820019F4AEECB3E01CC0E1E4F6E0FA93EA939B
:10189200E0EEF3E0FA93EA93E0913D060E94092814
:1018A2000E947D2884E00E943B252896A1E4B6E0B0
:1018B2000E949123A0913D06AA3024F4A7EBB2E046
:1018C2000E94A023E0913D06F0E0E7FDFFEFEE8BE2
:1018D200FF8B7EC1EA3079F5E12FA0915206EA0F23
:1018E200E0935206A0915206A13014F0AD302CF0D4
:1018F200E0915206E11BE0935206E1E4F6E0FA932E
:10190200EA93E0EEF3E0FA93EA93E09152060E9442
:1019120009280E947D2884E00E943B252896A1E4A4
:10192200B6E00E949123E0915206F0E0E7FDFFEF5E
:10193200E88FF98F4DC1EB3009F0B0C0EA8DFB8D15
:101942003097B1F00E945D23A4EEB3E00E94A02381
:1019520053DAC3DAE03061F401E00E945D23A4EFC0
:10196200B3E00E94A023ACEDB5E00E9421266ECC2C
:101972000E945D23A5E0B4E00E94A0233DDAE0E0EE
:10198200E0931B06A0911B06A031C0F4E0911B0658
:10199200AFE6B4E0F0E0EE0FFF1FAE0FBF1FE09125
:1019A2001B06F0E0E45DF94FE081F0E0ED93FC937B
:1019B200E0911B06EF5FE0931B06E4CF0E945D23DC
:1019C200A5E1B4E00E94A02317DAE0E0E0931B0651
:1019D200A0911B06A031E0F4E0911B06F0E0E45D6B
:1019E200F94F0080E0911B06AFE6B4E0F0E0EE0FA5
:1019F200FF1FAE0FBF1F0E947528A02DB0E0EA178F
:101A0200FB0731F4E0911B06EF5FE0931B06E0CF8A
:101A1200A0911B06A03109F09FCFE0E0E0931B06E6
:101A2200A0911B06A03108F5B0E0A05FBF4F0E9455
:101A32009828AE2FE0911B06F0E0E45DF94FE081BB
:101A4200EA1769F0A0911B06B0E0A05FBF4FE091DA
:101A52001B06F0E0E45DF94FE0810E94AC28E091C2
:101A62001B06EF5FE0931B06DBCF0E945D23A6E21D
:101A7200B4E00E94A023A0E1B0E00E949828E030E8
:101A820019F0E1E0F0E002C0E0E0F0E0EA8FFB8F65
:101A9200ACEDB5E00E94212601E0D8CBEC3009F094
:101AA20097C00E945D23A6E5B6E00E949123A7E6B7
:101AB200B6E00E949123AFECB7E00E9421260E947B
:101AC2005D23DE01A75BBF4F0E949123AAE2B1E032
:101AD2000E942126E0E0E0931B06A0911B06A031A4
:101AE200C0F5E0E0EA93A1E00E944C23A7E3B4E052
:101AF2000E94A023A0911B06EFE0EA1BEA93A1E05B
:101B02000E944C23AAE0B0E00E942126E0E0E0938C
:101B12002706E0911B06A0912706EA1780F0E091C4
:101B22002706F0E0DE01D896AE0FBF1FAC910E94EF
:101B32007123E0912706EF5FE0932706EACFA4E640
:101B4200B0E00E942126E0911B06EF5FE0931B06A6
:101B5200C4CFE0E0E0931B06A0911B06A73090F5EE
:101B6200E1E0E01B0E2FE9E0EA93A1E00E944C23A2
:101B7200003039F4A4ECB2E00E94A023A8ECB0E05B
:101B820019C0E9E0E0932706A0912706AD3080F462
:101B9200E0912706F0E0DE01D896AE0FBF1FAC91B0
:101BA2000E947123E0912706EF5FE0932706ECCFB6
:101BB200A4EFB1E00E942126E0911B06EF5FE093C3
:101BC2001B06CACFA6EEB3E00E94212601E03ECB5F
:101BD200359B02C0339902C0E1E001C0E0E03E2F34
:101BE200003019F0ACE2B1E01EC0329B02C0349961
:101BF20002C0A1EE17C0A0911E06A03021F4303021
:101C020011F0203009F402C0AAE00CC0A0911E0617
:101C1200A13021F4303011F0203009F402C0A4E6E2
:101C220001C0A5EAB0E00E942126303029F0359BA0
:101C320002C0339901C001C002C0E1E001C0E0E08E
:101C42002E2F00E01D9962C1F401662777270E94BA
:101C5200A826DF01CB010E947725A1E8B4E085EB3D
:101C62009FE30E9432277F936F93FF93EF93F201DA
:101C7200662777270E94A826DF01CB010E947725DD
:101C8200AF91BF918F919F910E94E226DF01CB011C
:101C9200E0E0F0E068E671E40E94C52709F008F48C
:101CA2000CC00E945D23A8E4B4E00E94A023ACED26
:101CB200B5E00E94212601E0C9CAA6E0B0E00E9478
:101CC2009828AE2FE0913C06EA1721F0A6E0B0E09A
:101CD2000E94AC28A8E0B0E00E949828AE2FE091C4
:101CE2003E06EA1721F0A8E0B0E00E94AC28A7E087
:101CF200B0E00E949828AE2FE0913D06EA1761F00D
:101D0200A7E0B0E00E94AC28E03031F0E150A5E05D
:101D1200EA02F001E0932106AAE0B0E00E949828CE
:101D2200AE2FE0915206EA1721F0AAE0B0E00E943D
:101D3200AC28AFE0B0E00E949828AE2FE0912306D5
:101D4200EA1721F0AFE0B0E00E94AC28ADE0B0E0CD
:101D52000E949828AE2FE0915506EA1729F0ADE0CF
:101D6200B0E00E94AC28FAD8AEE0B0E00E94982819
:101D7200AE2FE0914006EA1721F0AEE0B0E00E94FB
:101D8200AC28ACE0B0E00E949828AE2FE091540657
:101D9200EA1721F1ACE0B0E00E94AC28E6E0E09363
:101DA2001B06A0911B06A53698F4E0911B06ADE434
:101DB200B5E0F0E0EE0FFF1FAE0FBF1FE0E0F0E076
:101DC200ED93FC93E0911B06EF5FE0931B06E9CFD6
:101DD200E5E0E0932606E0E0E0932006A0E0B0E034
:101DE2000E9494284E165F06D1F4A2E0B0E00E9451
:101DF20094288E169F0699F4A9E0B0E00E949828D4
:101E0200AE2FE0913F06EA1751F4ABE0B0E00E943A
:101E12009828AE2FE0915306EA1709F463C0A9E0AF
:101E2200B0E00E949828AE2FE0913F06EA1749F4ED
:101E3200ABE0B0E00E949828AE2FE0915306EA177B
:101E4200D9F0A9E0B0E00E949828AE2FE0913F06B9
:101E5200EA1721F0A9E0B0E00E94AC28ABE0B0E0C4
:101E62000E949828AE2FE0915306EA1721F0ABE0CA
:101E7200B0E00E94AC2891D8A0E0B0E00E94942883
:101E82004E165F06C1F0F201A0E0B0E00E94A42865
:101E9200662777270E94A826A0E0B4E284E799E4A7
:101EA2000E948027A0E0B0E080E09FE30E94E2264B
:101EB2000E946F263F01A2E0B0E00E9494288E1695
:101EC2009F0629F0F401A2E0B0E00E94A428E4E415
:101ED200F0E0FA93EA93A0E0B0E00E9491070E943A
:101EE200310413C0E0E0E0932806A8ECB0E00E94C1
:101EF20021260E945D23E4E4F0E0FA93EA93A0E055
:101F0200B0E00E9491070E94CC0301C09FC90E94C9
:101F1200CC28EF966B960895E3E0E0931B06E091E0
:101F22003D06E03021F1E0912106E093B300E0911B
:101F32001B06E150E0931B06EF5FC1F0E3E8E0937C
:101F4200B000E6E0E093B100ABE4B0E00E942126ED
:101F5200E0E0E093B000E093B100E0911B06E030D6
:101F620021F0ABE4B0E00E942126E1CF23C0E09152
:101F72003C06E030F9F0E0911B06E150E0931B06CD
:101F8200EF5F89F0EFE7E7BDABE4B0E00E94212606
:101F9200E9EAE7BDE0911B06E03021F0ABE4B0E0F6
:101FA2000E942126E8CFE0913C06AEE0EA02F00171
:101FB200EE58E7BDE0E0E0931906E0931A060895B3
:101FC200EF97EA97D15089E791E0A0E0B0E0EEE127
:101FD200F1E00E94D22830E020E050E040E0229A76
:101FE2002A9AA4E0B0E00E949428309721F0EF3FB3
:101FF200AFEFFA0779F4A0E0B0E00E949428B3971B
:1020020040F0A0E0B0E00E949428E83EA3E0FA0786
:1020120008F001C006C0A4E0B0E0EFEDF7E00E94D6
:10202200A428A4E0B0E00E949428E0934905F0932C
:102032004A05A0E0B0E00E949428DF01B39728F09F
:10204200FD01E83EA3E0FA0708F0B3C0A0E0B0E06B
:102052000E9494282F01A2E0B0E00E949428E43666
:10206200A0E0FA0720F0E53FA1E0FA0708F005C07A
:10207200A2E0B0E00E9494284F01A6E0B0E00E94E6
:102082009828E03014F0EB300CF006C0A6E0B0E087
:102092000E949828E0933C06A7E0B0E00E949828AE
:1020A200E03014F0EB300CF006C0A7E0B0E00E9484
:1020B2009828E0933D06AFE0B0E00E949828E13016
:1020C20010F0E53108F006C0AFE0B0E00E949828B9
:1020D200E0932306A9E0B0E00E9498281E2EE0308B
:1020E2005CF0E3364CF4ABE0B0E00E9498280E2E90
:1020F200E0E7E1190E160CF006C0A9E0B0E00E947C
:102102009828E0933F06AAE0B0E00E949828E130C8
:1021120014F0ED300CF006C0AAE0B0E00E9498285E
:10212200E0935206ABE0B0E00E949828EA306CF0EF
:10213200E3365CF40E2EA9E0B0E00E949828A0E7F6
:102142000E949028EA1B0E160CF006C0ABE0B0E02D
:102152000E949828E0935306ACE0B0E00E949828D1
:10216200E03014F0EB300CF006C0ACE0B0E00E94BE
:102172009828E0935406ADE0B0E00E949828E13040
:1021820014F0EB300CF006C0ADE0B0E00E949828ED
:10219200E0935506AEE0B0E00E949828E03014F0DB
:1021A200EF310CF006C0AEE0B0E00E949828E09358
:1021B2004006A0E0B0E00E949428DF01B39770F0DF
:1021C200FD01E83EA3E0FA0748F4A0914905B09169
:1021D2004A05A03EE7E0BE0708F043C0F201A0E0D6
:1021E200B0E00E94A428F401A2E0B0E00E94A4287A
:1021F200E0913C06A6E0B0E00E94AC28E0913D06EA
:10220200A7E0B0E00E94AC28E0912306AFE0B0E086
:102212000E94AC28E0913F06A9E0B0E00E94AC2801
:10222200E0915206AAE0B0E00E94AC28E091530689
:10223200ABE0B0E00E94AC28E0915406ACE0B0E024
:102242000E94AC28E0915506ADE0B0E00E94AC28B7
:10225200E0914006AEE0B0E00E94AC28E1E0E093FD
:1022620027062090490530904A05E0912306F0E0C8
:10227200E45BFF4F1491A0912306A23050F0E0914D
:102282002306E150F0E0E45BFF4FE491E11BEE0F27
:1022920001C0ECE30E2FF201662777270E94A826E1
:1022A200A0E0B4E284E799E40E948027A0E0B0E0D5
:1022B20080E09FE30E94E2260E946F263F010E9477
:1022C200CE070E94AF07E0E0E0937E00E0E4E093F7
:1022D2007C00E0E0E0937B00209217063092180623
:1022E2005E98569A5D98559A2B98239A2D9A25981E
:1022F200459A3D98439A3B98429A3A98449A3C9818
:10230200A0E10E94B3230E945D23E4E4F0E0FA938B
:10231200EA93A0E0B0E00E949107ECE0F0E0FA93CB
:10232200EA93A1E0B0E00E949107E4E1F0E0FA93C1
:10233200EA93A2E0B0E00E949107ECE1F0E0FA93A8
:10234200EA93A3E0B0E00E949107E4E2F0E0FA939E
:10235200EA93A4E0B0E00E949107ECE2F0E0FA9385
:10236200EA93A5E0B0E00E949107E4E3F0E0FA937B
:10237200EA93A6E0B0E00E949107ECE3F0E0FA9362
:10238200EA93A7E0B0E00E949107E3EAE4BDE2E04D
:10239200E5BDA0913C06A1303CF0E0913C06AEE0E8
:1023A200EA02F001EE5801C0E0E0E7BDE0E0ECA394
:1023B200EDA3EEA3EFA322243324EEEFFFE7E21511
:1023C200F30598F0F101E491ACA1BDA18EA19FA10A
:1023D200FF27662777270E94E927ECA3FDA36EA3B8
:1023E2007FA3F10131961F01E8CFACA1BDA18EA15F
:1023F2009FA1A03FEBEABE07E6E58E07E0E09E075D
:1024020040F0A031ECEABE07E6E58E07E0E09E0769
:1024120018F0A4E00E94B323E0E0E093B600E0915C
:102422003D06E030B9F0E150A5E0EA02F001E093A8
:102432002106E093B300E3E8E093B000E4E0E09328
:10244200B100A2E3B0E00E942126E0E0E093B000F8
:10245200E093B100A8E0B0E00E949828E0303CF0A0
:10246200E3332CF4E0912706E03009F44BC00E94DC
:102472005D23A7E5B4E00E94A023E0E0E0931B0601
:10248200A0911B06A536B8F5E0911B06E8BDE695BE
:10249200E0933E06E1E4F6E0FA93EA93E0EEF3E03D
:1024A200FA93EA93E0913E060E9409280E947D2851
:1024B20084E00E943B252896E7E0EA93A1E00E948F
:1024C2004C23A1E4B6E00E949123AAEFB0E00E945F
:1024D2002126A0911B06A43619F4E0E0E0931B0626
:1024E2001D9903C0E5E6E0931B06E0911B06EE5F33
:1024F200E0931B06C5CFE0913E06A8E0B0E00E9443
:10250200AC2806C0A8E0B0E00E949828E0933E06FE
:10251200E0913E06EE0FE8BDA0914B05B0914C054F
:10252200A237E5E7BE0720F0A0912506AE3210F4EF
:102532000C940E230E945D2322243324E1E0E093D5
:102542001B06A0911B06A131D8F4E0911B06F0E016
:102552000F01EA5AF94FA081B0E0A7FDBFEFF001E9
:10256200E959F94FE081F0E0E7FDFFEFEA0FFB1FC9
:102572002E0E3F1EE0911B06EF5FE0931B06E1CF9C
:10258200F101EE0FFF1FEC3EAEE0FA0709F0FFCFBC
:10259200A4E0B0E00E94942831960E94A428A4E00E
:1025A200B0E00E949428BF010F01F196E131A8E04A
:1025B200FA0780F0F001EB5BF740E135A1E0FA07A2
:1025C20048F4DB011197E0911706F0911806EA171B
:1025D200FB0799F0AEEEB1E00E945103A5E6B4E02C
:1025E2000E94A023A8EEB1E00E945103A4E0B0E053
:1025F200E2E2F8EC0E94A428FFCFA0914B05B09133
:102602004C05A033E5E7BE0720F0A0912506AD32C8
:1026120008F4FFCFA0916A06E0916B06AE0FA938CD
:10262200A9F4A0916C06E0916D06AE0FAC3971F47D
:10263200A0915806E0915D06AE0FA03939F4A09141
:102642005E06E0915F06AE0FAE3D11F00C940E23D4
:10265200A0914905B0914A05A03DE7E0BE0720F0F0
:10266200A131E9E0BE0710F00C940E23A0E1B0E026
:102672000E949828E13010F0E53008F00CC00E946A
:102682005D23A2E7B4E00E94A0230E94FD060E94FF
:102692006E07E030A1F30E945D23A6E5B6E00E943A
:1026A2009123A5E2B0E00E942126A7E6B6E00E94AF
:1026B2009123A4EEB3E00E942126E0E0E0931B0602
:1026C200E0912506A0911B06AE1760F4A0914B0580
:1026D200B0914C050E945103E0911B06EF5FE0931D
:1026E2001B06EECF0E945D2322243324E1E0E09317
:1026F2001B06A0911B06A13198F4E0911B06F0E0A5
:10270200DE011296AE0FBF1FEC91F0E0E7FDFFEF86
:102712002E0E3F1EE0911B06EF5FE0931B06E9CFF2
:10272200F101EE0FFF1FE238AAE0FA0711F00C9454
:102732000E23DE0112960E949123E0911706F0917A
:102742001806E55DF7401F01E6E3F1E0E219F3093F
:102752001F01EE0FFF1F329738F0F1010E94FF2791
:10276200E13BA4E0FA0708F0FFCFE1E4F6E0FA93D8
:10277200EA93E5EAF2E0FA93EA93F1016627772712
:102782000E947D2884E00E943B252896E7E0EA9398
:10279200A1E00E944C23A1E4B6E00E949123AFED98
:1027A200B3E00E942126E0E0E0931B06E0912506BB
:1027B200A0911B06AE1760F4A0914B05B0914C0599
:1027C2000E945103E0911B06EF5FE0931B06EECFE0
:1027D200F8940E943104E0912406E03011F00C9448
:1027E200E221E0E0E0931B06A0911B06AE3008F068
:1027F20043C1E0E0E0937A00E0911B06A0911C0641
:10280200EA0FE0931D06EFEFF1E0E819F909E09312
:102812004305F09344055E9B02C05E9801C05E9A38
:10282200E5E8E0937A00E0917A00E064E0937A00D0
:10283200E0917A00E074E1F7A0914305B09144057C
:102842000E9451032A98D4010E9451032A9A00003F
:1028520085E090E00197F1F7E0911D06E150E093E9
:102862001D06E03039F00000000085E090E001979D
:10287200F1F7F2CFE0E0E4BDE5BDE0917A00E0647B
:10288200E0937A00E0917A00E074E1F7C09078007A
:10289200D0907900E0917A00E064E0937A00E091D0
:1028A2007A00E074E1F7E0917800F0917900E0932A
:1028B2003705F0933805E0917A00E064E0937A00FE
:1028C200E0917A00E074E1F7E0917800F09179000C
:1028D200E0933905F0933A05E0917A00E064E093E1
:1028E2007A00E0917A00E074E1F7E0917800F091EB
:1028F2007900E0933B05F0933C05E0917A00E064B7
:10290200E0937A00E0917A00E074E1F7E0917800D8
:10291200F0917900E0933D05F0933E05E3EAE4BDD2
:10292200E2E0E5BDE0911B06AFE6B4E0F0E0EE0FB9
:10293200FF1FEA0FFB1FC082D182E0911B06E25FFC
:10294200AFE6B4E0F0E0EE0FFF1FEA0FFB1FA0912D
:102952003705B0913805A083B183E0911B06E45E90
:10296200AFE6B4E0F0E0EE0FFF1FEA0FFB1FA0910D
:102972003905B0913A05A083B183E0911B06E65D6B
:10298200AFE6B4E0F0E0EE0FFF1FEA0FFB1FA091ED
:102992003B05B0913C05A083B183E0911B06E85C46
:1029A200AFE6B4E0F0E0EE0FFF1FEA0FFB1FA091CD
:1029B2003D05B0913E05A083B183A0911B06AD30C9
:1029C20008F054C0A0911C06E3E7EA1BA0911B0685
:1029D200EA1BE0931D06000085E090E00197F1F705
:1029E200E0911D06E150E0931D06E03039F0000051
:1029F200000085E090E00197F1F7F2CFE0913F050A
:102A0200F0914005309761F0A0915206A93011F083
:102A1200AA3031F4E0913D06E03011F0303009F097
:102A220015C0E0911B06EF5FA881B981F0E00E941A
:102A32002228DF01E2E6F0E00E943A28DE01A059F6
:102A4200BE4FAC91EA0FE093B30007C08BE68A95C4
:102A5200F1F782E090E00197F1F7D301A856B34075
:102A62000E94510381E090E00197F1F7E0911B068B
:102A7200EF5FE0931B06B8CEE1E4E0937C002224F2
:102A82003324E0912906E0931B06E0912A06A091E7
:102A92001B06AE1798F4E0911B06AFE6B4E0F0E037
:102AA200EE0FFF1FAE0FBF1F0E9475282E0E3F1E96
:102AB200E0911B06EF5FE0931B06E7CF2CA63DA635
:102AC2000A2C0B2879F0ACA5BDA588279927EEA57D
:102AD200FFA5662777270E94EE27FD01BC010E9411
:102AE20004281F01ECA5FDA5EEA7FFA7E0E0E093F7
:102AF2003F05E09340050A2C0B2809F0A6C0E0919F
:102B02004F05F09150053097B9F5E0E0E0931B06D0
:102B1200A0911B06AE3178F5E0911B06F0E0DE01D4
:102B2200AC54BF4FEE0FFF1FAE0FBF1FE0E0F0E04F
:102B3200ED93FC93E0911B06F0E0DE01A858BF4F35
:102B4200EE0FFF1FAE0FBF1FE0E0F0E0ED93FC932E
:102B5200E0911B06F0E0DE01DC96EE0FFF1FAE0FE8
:102B6200BF1FE0E0F0E0ED93FC93E0911B06EF5F06
:102B7200E0931B06CDCF50E0E1E0E0931B06A0916D
:102B82001B06A63008F5E0911B06ADE4B5E0F0E0C7
:102B9200EE0FFF1FAE0FBF1F0E947528309771F412
:102BA200E0911B06ADE4B5E0F0E0EE0FFF1FEA0F87
:102BB200FB1F20823182E6E0E0931B06E0911B06B8
:102BC200EF5FE0931B06DBCFE0915705F0915805CC
:102BD200309771F1A0914F05B09150058827992740
:102BE200E0915105F0915205662777270E94EE2762
:102BF200E0915305F0915405662777270E94EE274E
:102C0200E0915505F0915605662777270E94EE2739
:102C1200E0915705F0915805662777270E94EE2725
:102C2200E5E0F0E060E070E00E943F2831975F014C
:102C3200E4E0E0932606E0E0EA93A1E00E944C2360
:102C4200ABE7B4E00E94A02387C72A143B0440F4F8
:102C5200D501A219B309E12FF0E00E94272802C092
:102C6200E0E0F0E0E0934705F0934805E0912B06A1
:102C7200A0912806EA1770F0A23058F0D101A65AA6
:102C8200BF4FE3E0E19FF001AE0FBF1FAA15BB05E6
:102C920008F008C0E0914705F0914805E0933F0530
:102CA200F0934005E0914705F0914805309721F0F7
:102CB200E0912806EF5F01C0E0E0E0932806A091D2
:102CC2002806AF3118F0EEE1E0932806E0912806DD
:102CD200E03079F0D1015496AA15BB0550F4DE011B
:102CE200A259BE4F0D90BC91A02DA139E0E0BE07C4
:102CF20008F476C3CC24DD24E0E0E0933705E093CA
:102D02003805E0933905E0933A05E0934105E093F5
:102D12004205E0934305E0934405E0934505E093C3
:102D22004605E0931B06A0911B06AC3008F041C09B
:102D3200E0911B06AFE6B4E0F0E0EE0FFF1FAE0F2E
:102D4200BF1F0E947528A0914105B0914205EA0F6C
:102D5200FB1FE0934105F0934205A0911B06B0E0F2
:102D6200AA0FBB1FAD56BB4F0E947528A091430509
:102D7200B0914405EA0FFB1FE0934305F09344052D
:102D8200A0911B06B0E0AA0FBB1FA954BB4F0E9423
:102D92007528A0914505B0914605EA0FFB1FE09307
:102DA2004505F0934605E0911B06EF5FE0931B0695
:102DB200BACFE0914105F0914205ACA9BDA9EA174D
:102DC200FB0790F4E0914305F0914405AAA9BBA941
:102DD200EA17FB0748F4E0914505F0914605A8A9DA
:102DE200B9A9EA17FB0708F021C0A0914105B091EB
:102DF2004205ECA9FDA9EA1BFB0B6F01A09143055B
:102E0200B0914405EAA9FBA9EA1BFB0BE093370545
:102E1200F0933805A0914505B0914605E8A9F9A9B6
:102E2200EA1BFB0BE0933905F0933A050C2C0D28B5
:102E320029F0ECEDF5E0CE16DF0608F0CBC0E22F6C
:102E4200F0E0DE01A05CBE4FEE0FFF1FEA0FFB1F9A
:102E5200C082D182E22FF0E0DE01A85EBE4FEE0F0B
:102E6200FF1FEA0FFB1FA0913705B0913805A08321
:102E7200B183E22FF0E0DE01A051BF4FEE0FFF1F42
:102E8200EA0FFB1FA0913905B0913A05A083B183E7
:102E9200233118F4E22FEF5F01C0E0E02E2FE0E0D3
:102EA200ECA3EDA3EEA3EFA3E8A3E9A3EAA3EBA3AC
:102EB200EC8FED8FEE8FEF8FE0931B06A0911B0638
:102EC200A43108F053C0E0911B06F0E0DE01A05CE3
:102ED200BE4FEE0FFF1FAE0FBF1FCD90DC900C2C2C
:102EE2000D2809F443C0F601ACA1BDA18EA19FA19A
:102EF200662777270E94E927ECA3FDA36EA37FA391
:102F0200E0911B06F0E0DE01A85EBE4FEE0FFF1F50
:102F1200AE0FBF1F0E947528A8A1B9A18AA19BA1CB
:102F2200662777270E94E927E8A3F9A36AA37BA370
:102F3200E0911B06F0E0DE01A051BF4FEE0FFF1F34
:102F4200AE0FBF1F0E947528AC8DBD8D8E8D9F8DDB
:102F5200662777270E94E927EC8FFD8F6E8F7F8F80
:102F6200E0911B06EF5FE0931B06A8CFE0911B06E2
:102F7200DE01A958BE4FEC93ACA1BDA18EA19FA1C9
:102F8200FF27662777270E943F28DE01A459BE4FFC
:102F9200ED93FC93E0911B06A8A1B9A18AA19BA184
:102FA200FF27662777270E943F28DE01A659BE4FDA
:102FB200ED93FC93E0911B06AC8DBD8D8E8D9F8DA4
:102FC200FF27662777270E943F28DE01A859BE4FB8
:102FD200ED93FC93DE01A459BE4F0D90BC91A02D40
:102FE2001A9780F0DE01A659BE4F0D90BC91A02D1C
:102FF2001A9740F0DE01A859BE4F0D90BC91A02D4A
:103002001A9708F4E1C1E0E0DE01AD58BE4FEC933F
:10301200E0913F05F0914005309751F0DE01A4594F
:10302200BE4F0D90BC91A02DAC3DE5E0BE0708F06F
:10303200CAC1FE01E859FE4F0190F081E02D6627DA
:1030420077270E94A826DF01CB01FE01E659FE4F39
:103052000190F081E02D662777270E94A8260E9422
:103062008027E8A7F9A76AA77BA7A8A5B9A58AA57B
:103072009BA5E0E0F0E068EC72E40E943227A3E452
:10308200B5E00E946F26ED93FC93A0914305B091A9
:103092004405A436E0E0BE0710F0E3E602C0E0918A
:1030A2004305DE01AF58BE4FEC93DE01A958BE4F77
:1030B200AC91A33020F0E0912206E03009F041C04B
:1030C200E1E0DE01A858BE4FEC93FE01EC58FE4F42
:1030D200E081E03071F4E1E0DE01AC58BE4FEC93E8
:1030E200E0E0EA93A0E00E944C23A4E0B4E00E9456
:1030F2009123E1E4F6E0FA93EA93E0EEF3E0FA9347
:10310200EA93FE01EB58FE4FE081FF2766277727FF
:103112000E947D2884E00E943B252896E3E0EA9302
:10312200A0E00E944C23A1E4B6E00E949123DE01BC
:10313200AF58BE4FAC91AA3020F4A5E1B4E00E9492
:103142009123FE01E659FE4F0190F081E02D6627A2
:1031520077270E94A826DF01CB01ECA9FDA96627EB
:1031620077270E94A8260E9432277F936F93FF93AE
:10317200EF93FE01E459FE4F0190F081E02D6627A6
:1031820077270E94A826DF01CB01EAA9FBA96627BF
:1031920077270E94A8260E943227AF91BF918F9174
:1031A2009F910E948027DF01CB010E947725A6E62E
:1031B200B6E686E29FE30E94E2267F936F93FF9337
:1031C200EF93A8A5B9A58AA59BA50E947725AFE292
:1031D200BDED84E49FE30E943227AF91BF918F91AE
:1031E2009F910E9487280E94DB267F936F93FF9313
:1031F200EF93E09140060E9409280E94A826AFE8BA
:10320200B2EC85EF9CE30E943227AF91BF918F9180
:103212009F910E9487280E94DB26E8A7F9A76AA748
:103222007BA7ABA5AA23BAF431E0EDE2EB8BE091E8
:103232004006E03039F0E8A5F9A56AA57BA50E9411
:103242003C2604C0E0E0F0E060E070E0E8A7F9A707
:103252006AA77BA703C030E0EBE2EB8BE09140066C
:10326200E03051F0DE01AF58BE4FAC91A93120F0F1
:10327200AA3410F4303009F402C0E1E001C0E0E009
:103282003E2F303071F0DE01AE58BE4FAC91A4300B
:1032920030F4FE01EE58FE4FE081EF5F01C0E4E042
:1032A2000DC0DE01AE58BE4FAC91A23030F0FE012F
:1032B200EE58FE4FE081E25001C0E0E0DE01AE5880
:1032C200BE4FEC93DE01A958BE4FAC91A33030F053
:1032D200DE01AE58BE4FAC91A33008F402C0E1E06B
:1032E20001C0E0E03E2FDE01A958BE4FAC91A330F1
:1032F20020F0E0912206E03009F065C0A8A5B9A54A
:103302008AA59BA5E0E0F0E068EC72E40E94322717
:10331200A3E4B5E00E946F26ED93FC93A0914305D0
:10332200B0914405A436E0E0BE0730F0E3E6F0E0F9
:10333200E0934305F0934405E0914006E03051F0FC
:10334200303019F0A7E1B4E002C0AFE1B4E00E946E
:10335200912312C0A0914305B0914405E3E6F0E049
:10336200EA1BFB0BE0934305F0934405E0E2EB8B91
:10337200A7E2B4E00E949123E1E4F6E0FA93EA9333
:10338200E0EBF4E0FA93EA93EF890E9409280E94A5
:103392007D28E0914305F0914405662777270E9436
:1033A2007D2888E00E943B252C96A1E4B6E00E948D
:1033B2009123A0914305B09144051A9720F4AFE2FE
:1033C200B4E00E9491230BC0E0E0DE01AE58BE4F94
:1033D200EC9330E0DE01A858BE4FEC935AC080C097
:1033E200E0E0E0931B06A0911B06A43180F5E0917A
:1033F2001B06F0E0DE01A05CBE4FEE0FFF1FAE0F1A
:10340200BF1FE0E0F0E0ED93FC93E0911B06F0E0DB
:10341200DE01A85EBE4FEE0FFF1FAE0FBF1FE0E042
:10342200F0E0ED93FC93E0911B06F0E0DE01A05189
:10343200BF4FEE0FFF1FAE0FBF1FE0E0F0E0ED93B6
:10344200FC93E0911B06EF5FE0931B06CCCFE0E01C
:10345200DE01AE58BE4FEC9330E020E0DE01A95809
:10346200BE4FEC93DE01A459BE4FED93EC93DE0107
:10347200A659BE4FED93EC93DE01A859BE4FED93D2
:10348200EC93DE01A858BE4FEC93DE01AF58BE4F5D
:10349200EC93FE01EC58FE4FE081E03021F0E09128
:1034A2002206E03009F01CC0DE01AD58BE4FEC919F
:1034B200EF5FEC936E2FD201E7E0F0E00E94272845
:1034C200A62FB0E0EA17FB0758F4E0E0DE01AD58A2
:1034D200BE4FEC93DE01AC58BE4FEC930E94CC037E
:1034E200E0913F05F0914005309781F0E0913D0673
:1034F200E03061F0DE01A259BE4F0D90BC91A02DCB
:10350200A139E0E0BE0710F0303009F016C1A091F9
:103512005206A9300CF496C0A93011F0AA30B1F4C9
:10352200F501E219F309662777270E94A826DF0131
:10353200CB010E947725A0E0B0E088E991E40E94E7
:103542003227A7E2B6E00E946F26EC93E2E4E09312
:10355200B000E5E0E093B100A0915206A93061F419
:10356200A0912706AF3B20F4E0912706E05C01C062
:10357200EFEFE093270631C0A0915206AA3059F42A
:10358200A0912706AF3B18F4EFEFEA1B01C0E0E47D
:10359200E093270622C0A0915206AB3059F4FE01F7
:1035A200EF58FE4FE081E03019F0EE0FE75C01C00A
:1035B200E9E311C0A0915206AC3079F4FE01EF5854
:1035C200FE4FE081E03031F0EE0FAFEF0E94902825
:1035D200EA1B01C0EFEFE093B300A0915206A930BD
:1035E20011F0AA3071F5FE01E059FE4FE081E030A2
:1035F200D9F0A0912706BB27E091B300F0E0AE1B03
:10360200BF0BE7E0F0E00E942228E883F983A8815B
:10361200B981E2E6F0E00E943A28AE2FE091B300D1
:10362200EA0FE093270603C0E0E0E883E983E09134
:103632002706E093B300E0912706DE01A059BE4FB2
:10364200EC937AC0A0913F05B0914005519730F4B8
:10365200E0913F05F0914005319701C0EFE0E09322
:103662002706E0912106A0912706EA0FE09327069C
:10367200A0912706AE3208F401C0EDE2E093B30058
:10368200E3E8E093B000E0915206E830B1F4A09193
:103692003F05B0914005A135E0E0BE0710F0E6E03D
:1036A20009C0A0913F05B0914005519710F0E5E0A7
:1036B20001C0E4E0E093B1003FC0E130D1F1E2307B
:1036C20011F4E5E037C0E33011F4E6E033C0E43052
:1036D20051F4A091B100A43011F4E5E001C0E4E09E
:1036E200E093B10029C0E53051F4A091B100A530BA
:1036F20011F4E6E001C0E5E0E093B1001DC0E63060
:1037020051F4A091B100A43011F4E6E001C0E4E06C
:10371200E093B10011C0E73079F4A091B100A43078
:1037220011F4E5E007C0A091B100A53011F4E6E084
:1037320001C0E4E0E093B10009C0E0E0E093B00032
:10374200E093B100DE01A059BE4FEC93E0E0EA93B2
:10375200A1E00E944C23DE01A259BE4F0D90BC9104
:10376200A02DA139E0E0BE0708F4F6C1E0913F05C3
:10377200F0914005309709F41BC1E0913D06E0301D
:1037820021F4E0913C06E03009F427C03030F1F436
:10379200DE01AA58BE4FEC91EF5FEC936E2FD2017F
:1037A200E6E9F0E00E942728A62FB0E0AE17BF0797
:1037B20060F0E7B5EF3711F0EFE701C0E9EAE7BDE6
:1037C200E0E0DE01AA58BE4FEC9307C0E0913C0650
:1037D200AEE0EA02F001EE58E7BDF501E219F309A5
:1037E200E0933705F0933805E12FA0913705B091AA
:1037F2003805F0E0AE1BBF0BFD01F695E795339659
:10380200662777270E94A826DF01CB010E94772531
:10381200A7E2B6E00E946F26EC93E1E0E0931B067C
:10382200E0912706A0911B06EA1710F0A83008F0D5
:103832000AC0A0911B060E947123E0911B06EF5F54
:10384200E0931B06EDCFA0912706A83020F0A1E35C
:10385200B4E00E949123A0911B06E9E0EA1BE093E9
:103862001B06E0911B06E150E0931B06EF5F29F077
:10387200A3E3B4E00E949123F4CFA0913705B09165
:103882003805E3E0F0E00E942728E0933705F09343
:103892003805A0913705B0913805A83EE3E0BE0790
:1038A20030F0E7EEF3E0E0933705F0933805E42FCC
:1038B200F0E0DE01D696EE0FFF1FEA0FFB1FA0918C
:1038C2003705B0913805A083B183E0E0E093370576
:1038D200E0933805E0931B06A0911B06A33008F580
:1038E200E0911B06F0E0DE01D696EE0FFF1FAE0F51
:1038F200BF1FCD90DC900C2C0D2861F0F601A09139
:103902003705B0913805EA0FFB1FE0933705F093B6
:10391200380501C006C0E0911B06EF5FE0931B066D
:10392200DBCFE0911B06A0913705B0913805F0E09E
:103932000E942728E0933705F0933805E1E4F6E08A
:10394200FA93EA93E5EAF2E0FA93EA93E091370513
:10395200F0913805662777270E947D2884E00E942F
:103962003B252896E8E0EA93A1E00E944C23A1E4DB
:10397200B6E00E949123A0913705B09138051A97BD
:1039820018F4A5E3B4E00AC0A0913705B091380558
:10399200A436E0E0BE0720F4A8E3B4E00E9491233D
:1039A200423018F4E42FEF5F01C0E0E04E2FD4C0A4
:1039B200E0913D06E03021F4E0913C06E03009F46C
:1039C20007C0E0913C06AEE0EA02F001EE58E7BD26
:1039D200E0E0EEABEFABE8AFE9AFEAAFEBAF40E070
:1039E200DE01AA58BE4FEC93E02FF0E0EA0DFB1D7A
:1039F2002E163F06C8F4AAE3B4E00E949123DE012A
:103A0200A259BE4F0D90BC91A02DA139E0E0BE0796
:103A120028F0E0E0E0931906E0931A06E0E0DE0108
:103A2200AB58BE4FEC9390C0E12FF0E0EA0DFB1DC6
:103A32002E163F0608F47DC0A9E1B6E0ED91FD9196
:103A42003196FE93EE93DE01AB58BE4FAC91AE3190
:103A520030F4FE01EB58FE4FE081EF5F01C0EEE172
:103A6200DE01AB58BE4FEC93E0912B06EE5FDE0118
:103A7200AB58BE4FAC91EA1708F052C0D101AA1957
:103A8200BB09E3E0F0E00E942728E0934705F093AA
:103A92004805A0914705B0914805A83EE3E0BE075E
:103AA20030F0E7EEF3E0E0934705F0934805E1E4F8
:103AB200F6E0FA93EA93E3ECF4E0FA93EA93E09106
:103AC2004705F0914805662777270E947D2884E004
:103AD2000E943B252896A1E4B6E00E949123A09182
:103AE2004705B09148051A9718F4A6E4B4E00AC055
:103AF200A0914705B0914805A436E0E0BE0720F446
:103B0200A9E4B4E00E949123E0915406E03039F434
:103B1200A9E1B6E0ED91FD913196FE93EE9308C0D6
:103B2200ABE4B4E00E94912384EF91E00197F1F7B6
:103B32000FC0A7E5B4E00E949123A9E1B6E0ED91A0
:103B4200FD913196FE93EE9384EF91E00197F1F7A8
:103B520088EE93E00197F1F7E0912206E03009F454
:103B6200EEC0A0912206A130B1F5E1E4F6E0FA93AD
:103B7200EA93E5EAF2E0FA93EA93F10166277727FE
:103B82000E947D2884E00E943B252896E2E0EA9389
:103B9200A0E00E944C23A1E4B6E00E949123E0E160
:103BA200F7E22E163F0620F4A3E6B4E00E9491232A
:103BB200E8EEF3E02E163F0620F4A5E6B4E00E94FC
:103BC2009123E4E6F0E02E163F0620F4A7E6B4E0E7
:103BD2000E949123B4C0DE01A459BE4F0D90BC9146
:103BE200A02DECA9FDA9EA1BFB0BDF01EDE0F0E043
:103BF2000E942728E0934305F0934405E1E4F6E0B0
:103C0200FA93EA93E5EAF2E0FA93EA93E091430544
:103C1200F0914405662777270E947D2884E00E9460
:103C22003B252896E2E0EA93A0E00E944C23A1E41F
:103C3200B6E00E949123A0914305B0914405A436B9
:103C4200E0E0BE0720F4A9E6B4E00E949123DE0181
:103C5200A659BE4F0D90BC91A02DEAA9FBA9EA1B63
:103C6200FB0BDF01EDE0F0E00E942728E093430523
:103C7200F0934405E1E4F6E0FA93EA93E5EAF2E030
:103C8200FA93EA93E0914305F0914405662777277A
:103C92000E947D2884E00E943B252896E7E0EA9373
:103CA200A0E00E944C23A1E4B6E00E949123A091DF
:103CB2004305B0914405A436E0E0BE0720F4ABE62C
:103CC200B4E00E949123DE01A859BE4F0D90BC9131
:103CD200A02DE8A9F9A9EA1BFB0BDF01EDE0F0E05A
:103CE2000E942728E0934305F0934405E1E4F6E0BF
:103CF200FA93EA93E5EAF2E0FA93EA93E091430554
:103D0200F0914405662777270E947D2884E00E946F
:103D12003B252896ECE0EA93A0E00E944C23A1E424
:103D2200B6E00E949123A0914305B0914405A436C8
:103D3200E0E0BE0720F4ADE6B4E00E949123E091FA
:103D42005406E03069F0E0912806E03031F0E0916D
:103D52006105F0916205309719F40A2C0B2809F4D9
:103D620088C0E12FF0E0EA0DFB1D2E163F0628F079
:103D7200A0912006A43009F061C0E0915406AAE0A7
:103D8200EA02F001E0932706A0912606AE1720F47E
:103D9200E0912606EF5F01C0E1E0E0932606ADE484
:103DA200B5E0F0E0EE0FFF1FEA0FFB1F2082318229
:103DB200E0E0E88FE98FEA8FEB8FE1E0E0931B060A
:103DC200E0912706A0911B06EA1718F1E0911B0665
:103DD200ADE4B5E0F0E0EE0FFF1FAE0FBF1FCD90D8
:103DE200DC900C2C0D2871F0F601A88DB98D8A8D0E
:103DF2009B8D662777270E94E927E88FF98F6A8FC4
:103E02007B8F01C006C0E0911B06EF5FE0931B06AB
:103E1200D7CFA0911B06A63068F0E0911B06E150B7
:103E2200A88DB98D8A8D9B8DFF27662777270E94E3
:103E32003F285F01E0E0E09320061AC0A09120062F
:103E4200A43020F4E0912006EF5F01C0E4E0E093AB
:103E52002006FE01E858FE4FE081E03049F4A091CF
:103E62005406EFE1EA9FF001B596DF010E9451038B
:103E72000FC0FE01E858FE4FE081E03049F4A09106
:103E82005406EFE1EA9FF001B696DF010E9451036A
:103E9200E0912806E03021F4E0912006E03009F0BC
:103EA20009C1CC24DD24E0E0E0933705E093380536
:103EB200E0933905E0933A05ECA3EDA3EEA3EFA35B
:103EC200E8A3E9A3EAA3EBA3EC8FED8FEE8FEF8FCC
:103ED200E0931B06A0911B06AC30C8F5E0911B06CF
:103EE200AFE6B4E0F0E0EE0FFF1FAE0FBF1F0E947F
:103EF2007528CE0EDF1EA0911B06B0E0AA0FBB1FD5
:103F0200AD56BB4F0E947528A0913705B091380578
:103F1200EA0FFB1FE0933705F0933805A0911B06CB
:103F2200B0E0AA0FBB1FA954BB4F0E947528A091F5
:103F32003905B0913A05EA0FFB1FE0933905F0937A
:103F42003A05E0911B06EF5FE0931B06C3CFE52F16
:103F5200F0E0DE01AC54BF4FEE0FFF1FEA0FFB1F74
:103F6200C082D182E52FF0E0DE01A858BF4FEE0FEC
:103F7200FF1FEA0FFB1FA0913705B0913805A08300
:103F8200B183E52FF0E0DE01DC96EE0FFF1FEA0FB2
:103F9200FB1FA0913905B0913A05A083B183E0E0FF
:103FA200E0931B06A0911B06AE3108F052C0E091CF
:103FB2001B06F0E0DE01AC54BF4FEE0FFF1FAE0F49
:103FC200BF1FCD90DC900C2C0D2809F442C0F601E5
:103FD200ACA1BDA18EA19FA1662777270E94E927E8
:103FE200ECA3FDA36EA37FA3E0911B06F0E0DE012C
:103FF200A858BF4FEE0FFF1FAE0FBF1F0E947528BC
:10400200A8A1B9A18AA19BA1662777270E94E927C7
:10401200E8A3F9A36AA37BA3E0911B06F0E0DE010B
:10402200DC96EE0FFF1FAE0FBF1F0E947528AC8DEE
:10403200BD8D8E8D9F8D662777270E94E927EC8F95
:10404200FD8F6E8F7F8FE0911B06EF5FE0931B0663
:10405200A9CFE0911B06E03061F1ACA1BDA18EA118
:104062009FA1FF27662777270E943F28ECABFDAB75
:10407200E0911B06A8A1B9A18AA19BA1FF276627EF
:1040820077270E943F28EAABFBABE0911B06AC8D81
:10409200BD8D8E8D9F8DFF27662777270E943F2833
:1040A200E8ABF9AB5D3118F4E52FEF5F01C0E0E05A
:1040B2005E2F0AC0FE01E858FE4FE081E03021F495
:1040C2008DE498E00197F1F7339B02C03599FEC069
:1040D200339902C0E1E003C0359903C0E2E0E09306
:1040E2002706E0913D06E03031F0E0E0E093B000D9
:1040F200E093B10009C0E0913C06E03029F0AEE067
:10410200EA02F001EE58E7BD0E945D23AAEDB4E099
:104112000E94A023A0911706B0911806AD30E9E0E5
:10412200BE0790F4D196A031E8E0BE0768F0A091F6
:104132001706B0911806E2E00E941C28E05AFF40E0
:10414200E737A2E0FA0708F068C2A0914B05B091E8
:104152004C05AA33E5E7BE0720F0A0912506AF3251
:1041620008F45BC2A9E1B0E00E942126E0E0E093FE
:104172001B06A0911B06A93008F04FC0339B04C058
:10418200A0912706A13021F4A0912306A43108F0C2
:1041920008C0E0912306EF5FE0932306E1E0E0939D
:1041A2001B06359B04C0A0912706A23021F4A091E2
:1041B2002306A23008F408C0E0912306E150E09300
:1041C2002306E1E0E0931B06E1E4F6E0FA93EA93CA
:1041D200E0EEF3E0FA93EA93E0912306FF276627E5
:1041E20077270E947D2884E00E943B252896E7E0FD
:1041F200EA93A1E00E944C23A1E4B6E00E9491233D
:10420200AFEAB0E00E942126E0E0E0932706E091C9
:104212001B06EF5FE0931B06ACCF22243324E1E0C0
:10422200E0931B06A0911B06A131D8F4E0911B0676
:10423200F0E00F01EA5AF94FA081B0E0A7FDBFEF0D
:10424200F001E959F94FE081F0E0E7FDFFEFEA0FF5
:10425200FB1F2E0E3F1EE0911B06EF5FE0931B0635
:10426200E1CFF101A3E0B0E00E941428E236A6E11A
:10427200FA0709F0D2C1E0912306F0E0E45BFF4FB8
:104282001491A0912306A23050F0E0912306E15050
:10429200F0E0E45BFF4FE491E11BEE0F01C0ECE3C1
:1042A2000E2FE0E0E0932806DE01AB58BE4FEC9300
:1042B200E0932006DE01A858BE4FEC93DE01AC5815
:1042C200BE4FEC930E945D230E94CC03349923C01D
:1042D200E0E0E093B000E093B100A0912206A230AA
:1042E20020F4E0912206EF5F01C0E0E0E0932206B5
:1042F2000E94CC03E0E0DE01AB58BE4FEC93DE013E
:10430200AD58BE4FEC93DE01AC58BE4FEC93A8EC17
:10431200B0E00E942126DE01A259BE4F0D90BC9151
:10432200A02DA139E0E0BE0738F4A9E1B6E0ED9195
:10433200FD913196FE93EE93A0911906B0911A0663
:10434200E3E00E941C284E165F0610F40E948D0FB7
:10435200E9EFFCE06F01A0915406EFE1EA9FF00162
:10436200CE0EDF1EFE01E858FE4FE081E03021F064
:10437200F601E055FB4F09C0E0913F05F091400581
:10438200309721F0F601E057FE4F6F01A09122060F
:10439200A13021F4F601E459FD4F6F01A0912206EC
:1043A200A23021F4F601EC5EFA4F6F01C614D70475
:1043B20038F4F301EC19FD093696DF010E9451032E
:1043C2000EC0E1E4E0937C00A6E9B0E00E94212661
:1043D200E0E0EA93A1E05FD1A9EEB4E0B0D11D998B
:1043E2000FC00E940808E0E0DE01AC58BE4FEC931B
:1043F200DE01AB58BE4FEC93DE01A858BE4FEC93E2
:1044020032990FC00E943104E0E0DE01AB58BE4F8A
:10441200EC93DE01AC58BE4FEC93DE01A858BE4FC0
:10442200EC93E1E4E0937C00FE01E858FE4FE0816A
:10443200E03059F0DE01A259BE4F0D90BC91A02D83
:10444200A239E0E0BE0708F0A4C0FE01E259FE4F27
:104452000190F081E02DE0934305F0934405E09153
:104462007A00E064E0937A00E0917A00E074E1F788
:10447200E0917800F0917900662777270E94A826BC
:10448200A2EBBEE28EE89EE30E943227A3E3B3E3EF
:1044920083E590E40E94E226DE01A259BE4F0E940B
:1044A2006F26ED93FC93DE01A259BE4F0D90BC9195
:1044B200A02DA139E0E0BE0780F5E0E0E093B00076
:1044C200E093B100EA93A1E0E6D0DE01A259BE4F2B
:1044D2000D90BC91A02D1196E0914305F0914405F9
:1044E200AE17BF0750F0DE01A259BE4F0D90BC912E
:1044F200A02DA535E0E0BE0768F4A5EFB4E01FD11A
:10450200E0E0E0931906E0931A06A2E3B0E00E940D
:10451200212603C0A1E0B5E012D1E1E4F6E0FA936E
:10452200EA93EDE0F5E0FA93EA93DE01AE58BE4F6E
:104532000D90BC91A02DEAE0F0E00E9427286627AA
:1045420077270E947D28DE01AA58BE4F0D90BC91AC
:10455200A02DEAE0F0E00E946428662777270E94F7
:104562007D2888E00E943B252C96ECE0EA93A1E0AE
:1045720092D0A1E4B6E0D4D0DE01A259BE4F0D9094
:10458200BC91A02DA436E0E0BE0718F4A7EBB2E080
:10459200D6D0E0E4E0937C00EC89FD896E897F89C6
:1045A200EF5FFF4F6F4F7F4FEC8BFD8B6E8B7F8BDF
:1045B200E0912406E03019F0EDE5F0E001C0F201EF
:1045C2006F01AC89BD898E899F89662777270E94F2
:1045D2003F28E030A3E0FA07A0E06A07A0E07A07EC
:1045E200D0F0A4E0B0E00E94942831960E94A42862
:1045F200A9E4B5E0ED91FD913196FE93EE93E0E0F2
:10460200EC8BED8BEE8BEF8BA7E1B6E0ED91FD919C
:104612003196FE93EE930C94EC13EF96EA96DF5FDD
:10462200FFCFAA93E881E07111F05A9A01C05A981B
:10463200E881E07211F05B9A01C05B98E881E07456
:1046420011F05C9A01C05C98E881E07811F0289A38
:1046520001C0289881E28A95F1F7599A81E28A95F8
:10466200F1F7599881E28A95F1F7B6C0AA93A88129
:10467200D8DFE881E295E883A881D3DF8AEF90E072
:104682000197F1F7A9C0AA93A981F0DF589AA881EE
:10469200EDDF58980FC0AA93E881F0E0E858F94F8F
:1046A200E081A981AE0FE2DFE981E0937C06E88137
:1046B200E0937D0622960895A2E0D8DFA3E0B0E061
:1046C2000E942126ACE0D2DFA1E0D0DFA3E0B0E07F
:1046D2000E942126E0E0E0937D06E0937C060895A7
:1046E200AA93A881AA3031F0E0917E06A0917C06BF
:1046F200AE1760F0E0E0EA93A0917D06AF5FA09371
:104702007D06C9DFA881AA3009F466C0E0917C0663
:10471200EF5FE0937C06589AA881A8DF58985CC0A6
:10472200BA93AA931A93A981BA81ED91A983BA8304
:104732001E2FE03019F0A12FD3DFF5CF10C0BA93AE
:10474200AA931A93E981FA813196E983FA83319720
:10475200E4911E2FE03019F0A12FC2DFF3CF1881B0
:1047620023960895AA93529A539A549A209A519A48
:10477200509A579A599858985F98E881E0937E0624
:10478200E058E0937A06E881E054E0937B06A4E1E6
:10479200B0E00E942126A0E344DF84EF91E001977C
:1047A200F1F7A0E33EDF84EF91E00197F1F7A0E398
:1047B20038DF84EF91E00197F1F7A0E232DF84EF76
:1047C20091E00197F1F7A8E251DFA4E04FDFA5E8FD
:1047D2004DDFA6E04BDF70DF21960895BA93AA93CE
:1047E2001A930A93AA81BB8112960E947528309768
:1047F20059F1AA81BB8114960E9475288F013097C6
:1048020061F00230E0E01E0798F0F80131978F0165
:10481200AA81BB811496ED93FC93AA81BB81129667
:10482200ED91FD913196FE93EE933197AC81A08389
:10483200AA81BB810E947528FF232AF0ED91FD9188
:104842003196FE93EE9306C0AA81BB81EFEFFFEF94
:10485200ED93FC931981088125960895BA93AA9342
:1048620024970E94C32810E0AA85BB85E0E0F0E00F
:10487200ED93FC93E889F9893196E88BF98B3197AE
:10488200E4913E2FE03009F4EDC0E12FE03059F41D
:10489200353211F411E006C03A93AB85BC85ED8543
:1048A200FE850995DEC0E130A9F4353239F43A9338
:1048B200AB85BC85ED85FE850995D2C012E020E06E
:1048C20000E03B3211F42BE2CCC0303211F420E292
:1048D200C8C002C0E23031F4303319F4006115E08F
:1048E200C0C003C0E53009F0BCC0E32FE33669F471
:1048F200EE85FF853497EE87FF87A481AA93AB8567
:10490200BC85ED85FE850995ABC0E337E1F4EE8504
:10491200FF853497EE87FF87AE85BF8514960E9488
:104922007528EE83FF83AE81BF81ED91AE83BF8395
:104932003E2FE03039F03A93AB85BC85ED85FE859C
:104942000995F1CF8DC0E037F1F4EE85FF853497FC
:10495200EE87FF87AE85BF8514960E947528EE8389
:10496200FF83EE81FF813196EE83FF833197E491DD
:104972003E2FE03039F03A93AB85BC85ED85FE855C
:104982000995EFCF6DC0E43611F0E93611F40160FC
:1049920002C0E53719F4E2E6F0E009C0E83511F4A7
:1049A200026003C0E83709F05BC0ECE6F0E0EE839A
:1049B200FF8300FF1AC0EE85FF853497EE87FF87DD
:1049C200AE85BF8514964D915C9155232AF4FA0168
:1049D2000E94F327AF012DE2203031F02A93AB85FC
:1049E200BC85ED85FE8509950AC0EE85FF85349765
:1049F200EE87FF87AE85BF8514964D915C9130E3BB
:104A0200EE81FF810E947928E887F987EE81FF8194
:104A12003296EE83FF83E885F9854E175F0730F003
:104A22003F5FA885B9854A1B5B0BF5CF04FD06C025
:104A3200313320F4A885B985119771F400613A33B6
:104A420028F001FF02C0395F01C0395D3A93AB859E
:104A5200BC85ED85FE850995A885B985129778F6FE
:104A620010E008CFAA85BB850E9475280E94CA283B
:104A720062960895FF92F82E26970E94C528DE01BD
:104A82001C960E94E5270E947528309719F4EFEFD3
:104A9200FFEF27C0DE0116960E94E5278D01DE0199
:104AA2001C960E94E5270E947528EE83FF83E0E0B2
:104AB200E887E987DE011A960E94E5270E94752899
:104AC200FA93EA931A930A93EFEEF3E2FA93EA93D4
:104AD200DE011A96C3DE9F01AE81BF81E0E0EC9356
:104AE200F9010E94CC282A96FF9008950E948228FC
:104AF20024971A930A93AE81BF81888599850E9473
:104B0200BD282CF0EFEFFFEF6FE77FEF95C0EE814E
:104B1200FF81688579850E947D28ADB7BEB7119760
:104B22001F930F930E942B260F911F91EE83FF83F9
:104B320068877987AE81BF8188859985E3EFF4E044
:104B420065E37FE30E94C52760F4EE81FF816885FB
:104B520079850E94E226EE83FF8368877987015078
:104B62001040EE81FF8168857985A0E0B0E080E8A1
:104B72009FE30E94DB267F936F93FF93EF93EE8177
:104B8200FF8168857985A0E0B0E080E89FE30E941C
:104B9200E226AF91BF918F919F910E948027EE8371
:104BA200FF8368877987AE81BF81888599850E9456
:104BB2003227EA83FB836C837D83A6E2B2E485E637
:104BC2009FE30E943227DF01CB01EEE4F1E164E5CD
:104BD20070E40E9487280E94DB26AE81BF8188850F
:104BE20099850E9432277F936F93FF93EF93EA8117
:104BF200FB816C817D81ADE4B1E184ED9FE30E9494
:104C0200DB26AF91BF918F919F910E9480277F9366
:104C12006F93FF93EF93F8010E940F280E94A8263A
:104C2200A8E1B2E781E39FE30E943227AF91BF91EF
:104C32008F919F910E94E226198108812A960895F8
:104C4200109639F088E893E10197F1F7A89511974A
:104C5200C9F70895E991F9916991799177FB660F06
:104C6200771F88277E57880B7D938C937EE77695F6
:104C720067950EF0089530976040704009F07058C3
:104C82000895552342F4503811F4E0FF04C03196E0
:104C9200691F791F6BF050E8572711F45F93CFC05B
:104CA2005F3F31F0660F000C57956795752F089599
:104CB2005F9300200AF0CFC0C8C050E8192E152219
:104CC200880F991F9527550F879550E8072E0522C3
:104CD200660F771F7527550F67950895689401C071
:104CE200E8945F93F2DF703818F07F3F08F4A7C0B2
:104CF20056E1571BAAF4519558300EF4593030F052
:104D0200EFEFFFEF6FEF7FE777F91AC077275523B1
:104D1200B9F0EE0FFF1F661F771F5A95D1F710C02B
:104D22007727583028F0EF2FF62F672F5850F9CFFA
:104D3200552331F076956795F795E7955A95D1F712
:104D420000200AF453D15F910895689401C0E89459
:104D5200309760407040B1F0002426F0772312F4BF
:104D6200009444D1172E7EE1112032F07A95EE0F95
:104D7200FF1F661F111CF9CFEF2FF62F612D5F93D6
:104D82008ADF5F9108954F93AF01FD01DA01AB0114
:104D9200BC01CA01402D012C142E4F910895EA0F37
:104DA200FB1F681F0895E095F0956095EF5FFF4F38
:104DB2006F4F08955F9381DF903871F150E81526A7
:104DC20004C05F937ADF903839F1703821F1572FA0
:104DD200591B2BF112F4D7DFFACF583118F0AA275A
:104DE200BB278827583028F0AB2FB82F8827585078
:104DF200F9CF552329F08695B795A7955A95D9F7F6
:104E0200502D512572F0CBDF38F46795F795E79571
:104E1200739513F420C0B7DF3EDF5F910895D8F792
:104E2200FBCFEA1BFB0B680B51F010F40094BBDFC5
:104E3200662392F3EE0FFF1F661F7A95CBF7EE27DC
:104E4200FF27662777275F910895EFEFFFEF6FE760
:104E52007FEF5F910895EFEFFFEF6FE77FE75F91DD
:104E620008955F932ADF703851F3903841F301249B
:104E72000894791F23F41CF300203AF3ECCF0F922D
:104E82001F932F933F934F93112722279927689FB0
:104E9200A0018F9F302D410D591F6B9F300D411D79
:104EA200591F8E9F27D0BF9F25D06A9F23D0BE9FB8
:104EB2001DD0AF9F1BD0AE9F110D291F391F491F57
:104EC200591FE32FF42F652F522F4F913F912F91AE
:104ED2001F910F9066232AF0550FEE1FFF1F661FCA
:104EE20002C073954BF2CDDE5F910895100D211D26
:104EF200391F02C0200D311D491F591F08955F93AC
:104F0200DCDE703821F411200AF49FCFA4CF903850
:104F120009F495CF01240894970B1BF4D4F30020D5
:104F2200F3CF792F1F932F933F934F931124112780
:104F3200222733274427552790E2AE17BF0786075B
:104F4200410730F0AE1BBF0B860B410B089401C02A
:104F52008894551F221F331F111CAA1FBB1F881FB5
:104F6200441F9A9551F7F901612D4F913F912F916D
:104F72001F91662332F0550FEE1FFF1F661F7A95B1
:104F820043F27FDE5F91089599239AF0772342F0EE
:104F9200971748F029F4AE17BF07860720F031F0C3
:104FA20098948894089598940894089518948894ED
:104FB20008957723C2F7971798F3A9F7EA17FB0723
:104FC200680788F399F3ECCF0024AF0DB01D089564
:104FD200EA0FFB1F681F791F0895AE0FBF1F861FC0
:104FE200971F0895F195E195F0400895F095609529
:104FF2007095E195FF4F6F4F7F4F0895EE0FFF1FA2
:10500200EE0FFF1F089576956795F795E79508953A
:10501200FE2FFF0FFF0B6F2F7F2F08956F2F660F4D
:10502200660B762F0895FA9FF02DEB9FF00DEA9F05
:10503200E02DF10D08956E2F6A9FF0016B9FF00D28
:10504200089544D0F0DF0EF4CDDF0895002411243A
:1050520090E1AA0FBB1F001C111C0E1A1F0A18F4A4
:105062000E0E1F1E01C0A1609A9599F7FD01D00195
:1050720008952CD0EBDF0EF4B5DF08953F934F93E4
:105082005F93002411244427552730E2AA0FBB1F47
:10509200881F991F001C111C441F551F0E1A1F0A3E
:1050A200460B570B28F40E0E1F1E461F571F01C03A
:1050B200A1603A9559F7FD01BC01D001CA015F9187
:1050C2004F913F910895C2DFFD010895E894F7FFE3
:1050D20002C088DF6894B7FF06C0A095B09511960C
:1050E20000F8039400FA0895ED91FC911197089548
:1050F2000590F491E02D08957A936A93FA93EA93D6
:1051020008959A938A93BA93AA930895182E862F94
:10511200612D192E972F712D1B2EBF2FF12D1A2EB7
:10512200AE2FE12D0895119602D0FE2F1197F99915
:10513200FECFFF93FFB7F894A1BDB2BDF89AE0B5D8
:10514200FFBFFF91089507D01196EF93EF2F03D081
:10515200EF9111970895F99B02C0A895FCCF9FB7D4
:10516200F894A1BDB2BDF89A80B5E81719F0E0BD78
:10517200FA9AF99A9FBF089500240A160B060806A8
:10518200090608955A934A933A932A931A930A93D3
:1051920008955D814C813B812A811981088108959E
:1051A2009927AC0FBD1F05900D920197E1F7089565
:00000001FF
