:100000000C9413030C9400000C9400000C9400005A
:100010000C9400000C9400000C9400000C94000060
:100020000C9400000C9400000C9400000C94000050
:100030000C9400000C9400000C9400000C94000040
:100040000C9400000C9400000C9400000C94000030
:100050000C9400000C9400000C9400000C94000020
:100060000C9400000C940000080C1E1F1E0C0800CD
:10007000000000000000031F0000000000031F1F1D
:1000800000000000031F1F1F000000031F1F1F1F91
:100090000000031F1F1F1F1F00031F1F1F1F1F1F05
:1000A000031F1F1F1F1F1F1F020504040414080045
:1000B00000CDAF968273645546382E241E19151252
:1000C0000F0C090603001027E80364000A00010072
:1000D0000010000110000100C9000000A000027A19
:1000E00000000000000000000000000012000100FD
:1000F00031000000000000000000000000000000CF
:1001000000000500020000000000000008002C00B4
:1001100003000800202046656C657A4A6F6F202036
:1001200050492020000020202044454D4F207633A8
:100130002E3030202020000083000400050006003F
:10014000A3000200F202020312032203320342035D
:1001500052036203720382039203A20300000000B1
:10016000000000000000000000000000000000008F
:10017000000000000000000000000000000000007F
:10018000000000000000000000000000000000006F
:10019000000000000000000000000000000000005F
:1001A000000000000000000000000000000000004F
:1001B000000000000000000000000000000000003F
:1001C000000000000000000000000000000000002F
:1001D000000000000000000000000000000000001F
:1001E000000000000000000000000000000000000F
:1001F00000000000000000000000000000000000FF
:1002000000000000000000000000000000000000EE
:1002100000000000000000000000000000000000DE
:1002200000000000000000000000000000000000CE
:1002300000000000000000000000000000000000BE
:1002400000000000000000000000000000000000AE
:10025000000000000000000000000000000000009E
:10026000000000000000000000000000000000008E
:1002700000000000000000000000960000000000E8
:1002800000005325752044257520462575205025EE
:100290007500532575204425754625752050257514
:1002A0000020003D20202020202020202020202071
:1002B00020200020412020202042202020204320F8
:1002C00020202000202020202044656C61793A0005
:1002D0002020436F696C204572726F7220210025C7
:1002E0007520284155544F2900257520282B257548
:1002F00029004672657175656E6379202020202083
:10030000200050756C736520576964746820202044
:10031000200044656C6179202020202020202020AE
:100320002000496E7465672E572020202020202051
:10033000200047726F756E6420202020202020202E
:10034000200053706565642020202020202020207C
:10035000200049726F6E2052656A65637420202008
:1003600020004261636B4C69676874202020202064
:100370002000436F6E74726173742020202020204F
:100380002000566F6C756D652020202020202020D5
:100390002000546F6E652020202020202020202067
:1003A000200050617373776F72642020202020201A
:1003B00020004F464600415554004F4E20002B0070
:1003C0002B257500257520200025752000204F6CF9
:1003D000642050617373776F7264203A0057726FB4
:1003E0006E672050617373776F7264202100204E16
:1003F00065772050617373776F7264203A00436FA2
:100400006E6669726D2050617373776F726400500D
:10041000617373776F7264204368616E676564000F
:1004200020204869676820506F776572202100207E
:1004300020205072657373204F4B20210020202014
:100440002044454D4F202121210020202020202024
:10045000203F002052656D61696E696E672055739B
:10046000653A0042616C616E63696E6720200049E5
:10047000443A20202020202020202020202020005E
:100480002020202046453A004E4F4E2D46453A004A
:1004900020464552524F3A002563257500FF005F04
:1004A000202020202020202020200021202020206B
:1004B00020202D25750021202020202020202020F4
:1004C0002000202053656E73697469766974793AE7
:1004D00000436F696C204572726F7220004C6F7719
:1004E00020426174746572790025752E25750000AF
:1004F00080C000000000010000002D4E414E004968
:100500004E46000006000600D80002004D04DE0042
:100510000200B704E0000100BC04E2000100BD04D9
:10052000E4000100BE04E6000100BF04E800010091
:10053000C004EA000100C104EC000100C204EE00A6
:100540000100C304F0001000C904F2000100D90446
:1005500002010100DA0404010100DB0406010100CC
:10056000DC0408010100DD040A010100EF040C01B4
:100570000100F0040E010100F10410010100F20479
:1005800012011100F30414011100040526010200F8
:100590000003A10202000203A102110004036F0480
:1005A00002001503A10208001703800408001F03BE
:1005B000880408002703900402002F03A102020010
:1005C00031039D0402003303A10203003503B0028E
:1005D00002003803A1020C003A039F040300460303
:1005E000B00202004903A1020C004B03B6040C0048
:1005F0005703B60402006303A10202006503A102CF
:1006000002006703A10202006903A10202006B035A
:10061000A10202006D03A10204001505F00404000C
:100620001C05F6040000F894EE27EFBBF1E0F5BFDF
:10063000E5BFF8E1A895A4B7A77FA4BFF093600039
:10064000E0936000E4E0F5E085919591009761F01A
:10065000A591B59105901590BF01F00105900D92FF
:100660000197E1F7FB01F0CFEFEFEDBFE8E0EEBF60
:10067000C0E0D3E00C94F20EBA93AA93E881F9811A
:100680003697E883F983000084E090E00197F1F762
:10069000E881E17021F085E090E00197F1F7E881D1
:1006A000E27021F08AE090E00197F1F7E881E470D0
:1006B00021F084E190E00197F1F7E881E87021F002
:1006C00088E290E00197F1F7E881E07121F080E5A0
:1006D00090E00197F1F7E881E07221F080EA90E084
:1006E0000197F1F7E881E07421F080E491E001974F
:1006F000F1F7E881E07821F080E892E00197F1F7E6
:10070000E981E17021F080E095E00197F1F7E9815E
:10071000E27021F080E09AE00197F1F7E981E4705E
:1007200021F080E094E10197F1F7E981E87021F090
:1007300080E098E20197F1F7E981E07121F080E033
:1007400090E50197F1F7E981E07221F080E090EA0D
:100750000197F1F7E981E07441F080E090EA0197B8
:10076000F1F780E090EA0197F1F722960895E0E032
:10077000EA93A0E00E94FE20E091C004E03009F07E
:100780004CC0A091C104AA3048F0A091DC04AA306A
:100790002CF0E4E6F0E06E167F0638F4EEEDF4E0BF
:1007A000FA93EA93E2E8F2E006C0EEEDF4E0FA93A1
:1007B000EA93E2E9F2E0FA93EA93E091C104FF27B9
:1007C000662777270E941C26E091DC040E94C02542
:1007D0000E941C26F301662777270E941C26F5013C
:1007E000662777270E941C2680E10E94ED226496EE
:1007F000AEEDB4E00E944321E091EC04E03021F43E
:10080000A0E0B3E00E944321E091ED04E03021F448
:10081000A2E0B3E00E9443210EC0A091C004A13029
:1008200031F4A0E00E942321A3EAB2E002C0A3EBCE
:10083000B2E00E9452210895E0E4E0937C00E09150
:10084000DA04E03031F0E0E0E093B000E093B10092
:1008500009C0E091D904E03029F0AEE0EA02F001ED
:10086000EE58E7BD0E940F21A4ECB2E00E94522195
:1008700044245524E1E0E093B904A091B904A131E6
:10088000D8F4E091B904F0E00F01ED50FB4FA081E6
:10089000B0E0A7FDBFEFF001EC5FFA4FE081F0E0C0
:1008A000E7FDFFEFEA0FFB1F4E0E5F1EE091B9045C
:1008B000EF5FE093B904E1CFF2010E94B125EC3C77
:1008C000ADE1FA0709F00895A0914B04B0914C04F2
:1008D000AF30E9E0BE0790F4D196A031E8E0BE0762
:1008E00068F0A0914B04B0914C04E2E00E94D32543
:1008F000E05AFF40E737A2E0FA0708F00895A09118
:100900004D04B0914E04AB33E5E7BE0720F0A09153
:10091000C304AF3208F40895E1E0E093B904A09174
:10092000B904AF3008F048C1E091B904E093BB04CA
:10093000EFEFF1E0EA19FB09E0934504F093460478
:10094000E0917A00E064E0937A00E0917A00E0744C
:10095000E1F7A0914504B09146048EDE2A98D501B6
:100960008BDE2A9A000085E090E00197F1F7E09194
:10097000BB04E150E093BB04E03039F0000000001C
:1009800085E090E00197F1F7F2CFE0E0E4BDE5BD4E
:10099000E0917A00E064E0937A00E0917A00E074FC
:1009A000E1F7E0917800F0917900E0933704F0935B
:1009B0003804E0917A00E064E0937A00E0917A00F4
:1009C000E074E1F7E0917800F0917900E093390468
:1009D000F0933A04E0917A00E064E0937A00E091C9
:1009E0007A00E074E1F7E0917800F0917900E0930B
:1009F0003B04F0933C04E0917A00E064E0937A00D9
:100A0000E0917A00E074E1F7E0917800F0917900EC
:100A1000E0933D04F0933E04E0917A00E064E093BB
:100A20007A00E0917A00E074E1F7E0917800F091CB
:100A30007900E0933F04F0934004E0917A00E06491
:100A4000E0937A00E0917A00E074E1F7E0917800B9
:100A5000F0917900E0934104F0934204E0917A0030
:100A6000E064E0937A00E0917A00E074E1F7E091CD
:100A70007800F0917900E0934304F0934404E3EAB2
:100A8000E4BDE2E0E5BDE091B904AFE6B3E0F0E03B
:100A9000EE0FFF1FEA0FFB1FA0913704B09138043F
:100AA000A083B183E091B904E25FAFE6B3E0F0E088
:100AB000EE0FFF1FEA0FFB1FA0913904B0913A041B
:100AC000A083B183E091B904E45EAFE6B3E0F0E067
:100AD000EE0FFF1FEA0FFB1FA0913B04B0913C04F7
:100AE000A083B183E091B904E65DAFE6B3E0F0E046
:100AF000EE0FFF1FEA0FFB1FA0913D04B0913E04D3
:100B0000A083B183E091B904E85CAFE6B3E0F0E024
:100B1000EE0FFF1FEA0FFB1FA0913F04B0914004AE
:100B2000A083B183E091B904EA5BAFE6B3E0F0E003
:100B3000EE0FFF1FEA0FFB1FA0914104B09142048A
:100B4000A083B183E091B904EC5AAFE6B3E0F0E0E2
:100B5000EE0FFF1FEA0FFB1FA0914304B091440466
:100B6000A083B183A091B904AE3000F5EFE0EA1B99
:100B7000E093BB04000085E090E00197F1F7E0917D
:100B8000BB04E150E093BB04E03039F0000000000A
:100B900085E090E00197F1F7F2CFD401A15DB2407A
:100BA0000E943C0383E090E00197F1F7E091B904E3
:100BB000EF5FE093B904B3CEE0E0E093BA04E4E081
:100BC000E093B904A091B904A33608F05CC0E091A9
:100BD000B904E250AFE6B3E0F0E0EE0FFF1FAE0F56
:100BE000BF1F0E941426DF017F97F0F1FD01E0395D
:100BF000A1E0FA07C8F5E091B904AFE6B3E0F0E090
:100C0000EE0FFF1FAE0FBF1F0D901C90E091B904B7
:100C1000E150AFE6B3E0F0E0EE0FFF1FAE0FBF1FF5
:100C20000E941426D001AE1BBF0B1B97E8F0E09189
:100C3000B904E150AFE6B3E0F0E0EE0FFF1FAE0FF6
:100C4000BF1F0D901C90E091B904E250AFE6B3E0F5
:100C5000F0E0EE0FFF1FAE0FBF1F0E941426D00161
:100C6000AE1BBF0B1B9708F408C0E091B904E2501B
:100C7000E093BA04E4E6E093B904E091B904EF5FCD
:100C8000E093B9049FCFE091BA04E03069F4E1E069
:100C9000E093C204E0E0EA93A1E00E94FE20A0ED10
:100CA000B2E00E9452218BC0E0E0E093C204E091E8
:100CB000BA04FF27662777270E945A24ADECBCECC4
:100CC0008CEC9FE30E94E424ADECBCEC8CE690E459
:100CD0000E949424A5ECB4E00E942124EC93E091BE
:100CE000DC04E030C9F4E3E0EA93A1E00E94FE20D6
:100CF000EEEDF4E0FA93EA93EFEDF2E0FA93EA9383
:100D0000E091C504FF27662777270E941C2684E010
:100D10000E94ED2228961EC0E4E0EA93A1E00E9422
:100D2000FE20EEEDF4E0FA93EA93E9EEF2E0FA93B6
:100D3000EA93E091C504FF27662777270E941C26C7
:100D4000E091DC040E94C0250E941C2688E00E94DD
:100D5000ED222C96AEEDB4E00E944321CC24DD249C
:100D6000E1E0E093B904A091B904A33398F4E091D1
:100D7000B904AFE4B4E0F0E0EE0FFF1FAE0FBF1F09
:100D8000E0E0F0E0ED93FC93E091B904EF5FE093D5
:100D9000B904E9CFE0E0E093C404E093BE04E0933B
:100DA000C604AFE0B0E00E943726A091C104EA1764
:100DB00031F0E091C104AFE0B0E00E944B26AAE818
:100DC000B2E00E94D3230E940F21D1DC0895E0E01D
:100DD000EA93A1E00E94FE20E0E0E093B904A09134
:100DE000B904A03108F04AC0E0E0E093C504AAEFDE
:100DF000B0E00E94D3231D9B43C0329903C0E4E0BE
:100E0000E093C504339903C0E3E0E093C50434994B
:100E100003C0E2E0E093C504359903C0E1E0E0934C
:100E2000C504E091C504E030F9F0E091B904F0E0C8
:100E3000E753FB4FA091C504A083EEEDF4E0FA93D5
:100E4000EA93EFE8F2E0FA93EA93E091C504FF2712
:100E5000662777270E941C2684E00E94ED222896B0
:100E6000AEEDB4E00E944321E091C504E03019F2F8
:100E7000E091B904EF5FE093B904B1CF1D99FECFC3
:100E8000E091B904E093C504E093B904A091B904DA
:100E9000A03168F4E091B904F0E0E753FB4FA0E023
:100EA000A083E091B904EF5FE093B904EFCF089518
:100EB000E0E0E093B904A091B904A031A0F4B0E05F
:100EC000A05FBF4F0E943726AE2FE091B904F0E03B
:100ED000E753FB4FE081EA1731F4E091B904EF5F8B
:100EE000E093B904E8CFA091B904A03111F4E1E096
:100EF00001C0E0E00895BA93AA931A930A93EA8195
:100F0000EE0FEE0FEE0FE0640E2F10E0183068F4D5
:100F10000A930395ED81FE813196ED83FE8331972F
:100F2000A4910E94F6201F5FF1CF198108812696B7
:100F30000895E09788E1A8E1B0E0E4E4F1E00E94E0
:100F400070260E94642601E030E020E06C827D8201
:100F5000FE013696A082B182E091DC04F0E0E7FD6C
:100F6000FFEFE887F987E091F004F0E0E7FDFFEF9D
:100F7000EA87FB87E091F104F0E0E7FDFFEFEC8703
:100F8000FD87E091F204F0E0E7FDFFEFEE87FF87D9
:100F9000E091DD04F0E0E7FDFFEFE88BF98BE091F5
:100FA000D904F0E0E7FDFFEFEA8BFB8BE091DB0477
:100FB000F0E0E7FDFFEFEC8BFD8BE091DA04F0E071
:100FC000E7FDFFEFEE8BFF8BE091EF04F0E0E7FD34
:100FD000FFEFE88FF98FA0E1B0E00E943726E13003
:100FE00010F0E53008F003C0E1E0F0E002C0E0E01E
:100FF000F0E0EA8FFB8FE091DA04E03031F0E0E0DE
:10100000E093B000E093B10009C0E091D904E03072
:1010100029F0AEE0EA02F001EE58E7BD0E940F2190
:1010200044245524E1E0E093B904A091B904A1312E
:10103000D8F4E091B904F0E00F01ED50FB4FA0812E
:10104000B0E0A7FDBFEFF001EC5FFA4FE081F0E008
:10105000E7FDFFEFEA0FFB1F4E0E5F1EE091B904A4
:10106000EF5FE093B904E1CFF201A3E0B0E00E94AA
:10107000CB25E935A6E1FA0709F0FFCFA4E0B0E0FF
:101080000E943326BF010F01F196E131A8E0FA0773
:1010900080F0F001E05DF740EC33A1E0FA0748F49E
:1010A000DB01E0914B04F0914C04AE1BBF0B119798
:1010B00009F0FFCFA0914D04B0914E04A831E9E7AB
:1010C000BE0720F0A091C304A83208F4FFCFE0913E
:1010D000B504F091B604A0914B04B0914C04EA170A
:1010E000FB0709F027C6E8E6F0E0FA93EA93A0E0F0
:1010F000B0E001DF329910C0A091BC04AB3038F4ED
:10110000E091BC04EF5FE093BC04E1E003C0E0E0E9
:10111000E093BC04E093BD04349911C0A091BC04D9
:10112000A13038F0E091BC04E150E093BC04E0E071
:1011300004C0EBE0E093BC04E1E0E093BD04329B2B
:1011400005C0349B03C0003009F4BAC0E0E0EA9364
:10115000A091BD040E94FE20A0E00E942321E0E0B7
:10116000EA93A091BD04E1E0EA1BAE2F0E94FE20AD
:10117000A1EAB2E00E945221E0E0E093B904A0911C
:10118000B904A23008F09CC0E091BC04EA0FA09121
:10119000BD04EA1BE093C504E1E0EA93A091B90421
:1011A0000E94FE20E091C504F0E0DE015C96EE0FA7
:1011B000FF1FAE0FBF1F0E941426DF010E945221A5
:1011C000EDE0EA93A091B9040E94FE20A091C5042D
:1011D000A43041F0A63031F0A73021F0A93011F051
:1011E000AB3069F4E091C504F0E0DE011496EE0F37
:1011F000FF1FAE0FBF1F0E941426309709F005C0D5
:10120000A2EBB3E00E94522155C0A091C504A230C8
:1012100069F4E091C504F0E0DE011496EE0FFF1FC3
:10122000AE0FBF1F0E941426309709F005C0A6EB31
:10123000B3E00E9452213EC0A091C504AB3069F4D6
:10124000E091C504F0E0DE011496EE0FFF1FAE0F33
:10125000BF1F0E941426309709F405C0AAEBB3E023
:101260000E94522127C0A091C504A23021F4AEEB08
:10127000B3E00E945221EEEDF4E0FA93EA93EFE836
:10128000F2E0FA93EA93E091C504F0E0DE011896EB
:10129000EE0FFF1FAE0FBF1F0E9414266627772791
:1012A0000E941C2684E00E94ED222896AEEDB4E058
:1012B0000E944321E091B904EF5FE093B9045FCF4E
:1012C000359B02C0339963C3EDE0EA93A091BD045E
:1012D0000E94FE20359902C0EFEF01C0E1E01E2F11
:1012E000E091BC04E030C9F5E12FF0E0E7FDFFEF4D
:1012F0006E0E7F1EE3E2F0E06E167F0628F0E7EE4A
:10130000F3E0E615F70540F4E12FD301F0E0E7FD47
:10131000FFEFAE1BBF0B3D01EEEDF4E0FA93EA9355
:10132000EFE8F2E0FA93EA93F301662777270E9449
:101330001C2684E00E94ED222896AEEDB4E00E94C7
:101340004321E4E6F0E06E167F0620F4A1EAB2E065
:101350000E9452216C827D821AC3E130B1F5A5E072
:101360001A02F001F0E0E7FDFFEFAE0EBF1EE4E66B
:10137000F0E0AE16BF0628F0E4EFF1E0EA15FB0559
:1013800050F4A5E01A02F001D501F0E0E7FDFFEF0F
:10139000AE1BBF0B5D01EEEDF4E0FA93EA93EFE8CC
:1013A000F2E0FA93EA93F501662777270E941C265C
:1013B00084E00E94ED222896AEEDB4E00E94432125
:1013C000FE013696A082B182E2C2E23009F047C047
:1013D000E12FEE0FA091DC04EA0FE093DC04A09172
:1013E000DC04A03044F0A33634F4EEE6EA1BA0910E
:1013F000F004EA173CF4E12FEE0FA091DC04AE1BE1
:10140000A093DC04E091DC04E03019F4A6EBB3E037
:101410001CC0EEEDF4E0FA93EA93E0ECF3E0FA930B
:10142000EA93E091DC040E94C0250E941C2684E01F
:101430000E94ED222896AEEDB4E00E944321A091D7
:10144000DC04AA3024F4A1EAB2E00E945221E09127
:10145000DC04F0E0E7FDFFEFE887F98798C2E330AE
:10146000D1F5E12FEE0FA091F004EA0FE093F00424
:10147000A091F004AA3054F0A33644F4A091DC0407
:10148000EEE6EA1BA091F004EA173CF4E12FEE0F20
:10149000A091F004AE1BA093F004EEEDF4E0FA93FB
:1014A000EA93EFE8F2E0FA93EA93E091F0040E9405
:1014B000C0250E941C2684E00E94ED222896AEEDF5
:1014C000B4E00E944321E091F004F0E0E7FDFFEF7B
:1014D000EA87FB875CC2E430C1F5E12FA091F104FB
:1014E000EA0FE093F104A091F104A03014F0A630CB
:1014F0002CF0E091F104E11BE093F104E091F104A0
:10150000E03029F4A2EBB3E00E94522116C0EEEDC8
:10151000F4E0FA93EA93E4ECF3E0FA93EA93E091CF
:10152000F1040E94C0250E941C2684E00E94ED2246
:101530002896AEEDB4E00E944321E091F104F0E082
:10154000E7FDFFEFEC87FD8722C2E530B9F5E12F1B
:10155000A091F204EA0FE093F204A091F204A1300A
:1015600014F0AB302CF0E091F204E11BE093F204B4
:10157000EEEDF4E0FA93EA93EFE8F2E0FA93EA93FF
:10158000E091F2040E94C0250E941C2684E00E9483
:10159000ED222896AEEDB4E00E944321A091F20422
:1015A000AA3024F4A1EAB2E00E945221E091F204B0
:1015B000F0E0E7FDFFEFEE87FF87E9C1E63009F0D5
:1015C0003EC0E12FA091DD04EA0FE093DD04A0917D
:1015D000DD04A03014F0AF312CF0E091DD04E11B0C
:1015E000E093DD04E091DD04E03019F4A2EBB3E018
:1015F0001CC0EEEDF4E0FA93EA93E9ECF3E0FA9321
:10160000EA93E091DD040E94C0250E941C2684E03C
:101610000E94ED222896AEEDB4E00E944321A091F5
:10162000DD04AA3024F4A1EAB2E00E945221E09144
:10163000DD04F0E0E7FDFFEFE88BF98BA8C1E730B0
:1016400009F04BC0E12FA091D904EA0FE093D9042F
:10165000A091D904A03014F0AB302CF0E091D90463
:10166000E11BE093D904A091D904A1303CF0E091B2
:10167000D904AEE0EA02F001EE5801C0E0E0E7BDB7
:10168000E091D904E03019F4A2EBB3E01CC0EEED18
:10169000F4E0FA93EA93E9ECF3E0FA93EA93E09149
:1016A000D9040E94C0250E941C2684E00E94ED22DD
:1016B0002896AEEDB4E00E944321A091D904AA304F
:1016C00024F4A1EAB2E00E945221E091D904F0E0B2
:1016D000E7FDFFEFEA8BFB8B5AC1E83099F5E12F6C
:1016E000A091DB04EA0FE093DB04A091DB04A030BF
:1016F00014F0A3332CF0E091DB04E11BE093DB0456
:10170000E091DB04EE0FE8BDEEEDF4E0FA93EA932E
:10171000E9ECF3E0FA93EA93E091DB040E94C02540
:101720000E941C2684E00E94ED222896AEEDB4E0D3
:101730000E944321E091DB04F0E0E7FDFFEFEC8B3A
:10174000FD8B25C1E93009F03EC0E12FA091DA04FC
:10175000EA0FE093DA04A091DA04A03014F0AB3081
:101760002CF0E091DA04E11BE093DA04E091DA0472
:10177000E03019F4A2EBB3E01CC0EEEDF4E0FA9314
:10178000EA93E9ECF3E0FA93EA93E091DA040E9439
:10179000C0250E941C2684E00E94ED222896AEED12
:1017A000B4E00E944321A091DA04AA3024F4A1EA13
:1017B000B2E00E945221E091DA04F0E0E7FDFFEF91
:1017C000EE8BFF8BE4C0EA3079F5E12FA091EF04B6
:1017D000EA0FE093EF04A091EF04A13014F0A930D8
:1017E0002CF0E091EF04E11BE093EF04EEEDF4E068
:1017F000FA93EA93EFE8F2E0FA93EA93E091EF04C8
:101800000E94C0250E941C2684E00E94ED2228969A
:10181000AEEDB4E00E944321E091EF04F0E0E7FD7B
:10182000FFEFE88FF98FB3C0EB3009F0B0C0EA8D5D
:10183000FB8D3097B1F00E940F21ADECB3E00E9418
:101840005221C5DA35DBE03061F401E00E940F215E
:10185000ADEDB3E00E945221ACEDB5E00E94D32380
:1018600049CC0E940F21AEEEB3E00E945221AFDAC4
:10187000E0E0E093B904A091B904A031C0F4E09194
:10188000B904AFE6B3E0F0E0EE0FFF1FAE0FBF1FED
:10189000E091B904F0E0E753FB4FE081F0E0ED9315
:1018A000FC93E091B904EF5FE093B904E4CF0E94A8
:1018B0000F21AEEFB3E00E94522189DAE0E0E0931D
:1018C000B904A091B904A031E0F4E091B904F0E0CA
:1018D000E753FB4F0080E091B904AFE6B3E0F0E0DE
:1018E000EE0FFF1FAE0FBF1F0E941426A02DB0E009
:1018F000EA17FB0731F4E091B904EF5FE093B90414
:10190000E0CFA091B904A03109F09FCFE0E0E093CF
:10191000B904A091B904A03108F5B0E0A05FBF4FB1
:101920000E943726AE2FE091B904F0E0E753FB4F59
:10193000E081EA1769F0A091B904B0E0A05FBF4F61
:10194000E091B904F0E0E753FB4FE0810E944B26A1
:10195000E091B904EF5FE093B904DBCF0E940F215F
:10196000AFE0B4E00E945221A0E1B0E00E9437262F
:10197000E03019F0E1E0F0E002C0E0E0F0E0EA8FF2
:10198000FB8FACEDB5E00E94D32301E0B3CB359BD8
:1019900002C0339902C0E1E001C0E0E03E2F003018
:1019A00019F0ACE2B1E01EC0329B02C0349902C013
:1019B000A1EE17C0A091BC04A03021F4303011F08A
:1019C000203009F402C0ACE00CC0A091BC04A130EE
:1019D00021F4303011F0203009F402C0A4E601C037
:1019E000A6E9B0E00E94D323303029F0359B02C035
:1019F000339901C001C002C0E1E001C0E0E02E2F38
:101A000000E01D9996C1F501662777270E945A24A8
:101A1000DF01CB010E942923A1E8B4E085EB9FE31D
:101A20000E94E4247F936F93FF93EF93F301662763
:101A300077270E945A24DF01CB010E942923AF910E
:101A4000BF918F919F910E949424DF01CB01E0E030
:101A5000F0E068E671E40E94772509F008F40CC014
:101A60000E940F21A0E2B4E00E945221ACEDB5E04B
:101A70000E94D32301E03ECBA6E0B0E00E943726CF
:101A8000AE2FE091D904EA1721F0A6E0B0E00E9461
:101A90004B26A8E0B0E00E943726AE2FE091DB0491
:101AA000EA1721F0A8E0B0E00E944B26A7E0B0E0E2
:101AB0000E943726AE2FE091DA04EA1761F0A7E022
:101AC000B0E00E944B26E03031F0E150A5E0EA02A0
:101AD000F001E093BF04AAE0B0E00E943726AE2FE9
:101AE000E091EF04EA1721F0AAE0B0E00E944B2653
:101AF000AFE0B0E00E943726AE2FE091C104EA17B4
:101B000021F0AFE0B0E00E944B26ADE0B0E00E94D3
:101B10003726AE2FE091F204EA1721F0ADE0B0E0F5
:101B20000E944B26AEE0B0E00E943726AE2FE09137
:101B3000DD04EA1721F0AEE0B0E00E944B26ACE0F5
:101B4000B0E00E943726AE2FE091F104EA1719F1B8
:101B5000ACE0B0E00E944B26E1E0E093B904A09134
:101B6000B904A33398F4E091B904AFE4B4E0F0E031
:101B7000EE0FFF1FAE0FBF1FE0E0F0E0ED93FC9310
:101B8000E091B904EF5FE093B904E9CFE0E0E093BE
:101B9000C404E093BE04A0E0B0E00E9433266E16B9
:101BA0007F06D1F4A2E0B0E00E943326AE16BF0655
:101BB00099F4A9E0B0E00E943726AE2FE091DC0452
:101BC000EA1751F4ABE0B0E00E943726AE2FE09167
:101BD000F004EA1709F49AC0A9E0B0E00E943726A1
:101BE000AE2FE091DC04EA1749F4ABE0B0E00E94CC
:101BF0003726AE2FE091F004EA17C9F1E091DC043A
:101C00000E94C0250E945A24A0E0B0E080E29FE339
:101C10000E94E424A0E0B0E080E09FE30E949424CE
:101C2000A7ECB4E00E942124EC93E091F0040E9420
:101C3000C0250E945A24A0E0B0E080E29FE30E9409
:101C4000E424A0E0B0E080E09FE30E949424DF0160
:101C5000CB01E091C704FF27662777270E945A240B
:101C60000E949424A8ECB4E00E942124EC93A9E003
:101C7000B0E00E943726AE2FE091DC04EA1721F095
:101C8000A9E0B0E00E944B26ABE0B0E00E9437260E
:101C9000AE2FE091F004EA1721F0ABE0B0E00E9433
:101CA0004B26A0E0B0E00E9433266E167F06C1F0FE
:101CB000F301A0E0B0E00E944326662777270E9448
:101CC0005A24A0E0B4E284E799E40E943225A0E01F
:101CD000B0E080E09FE30E9494240E9421244F0101
:101CE000A2E0B0E00E943326AE16BF0629F0F5014F
:101CF000A2E0B0E00E944326E8EAF0E0FA93EA931B
:101D0000A0E0B0E0F8D80E941C0412C0E0E0E0932C
:101D1000C604A8ECB0E00E94D3230E940F21E8EA99
:101D2000F0E0FA93EA93A0E0B0E0E5D80E94B703B0
:101D300001C0E0C90E946B26E4960895E3E0E093B9
:101D4000B904E091DA04E03021F1E091BF04E093BE
:101D5000B300E091B904E150E093B904EF5FC1F042
:101D6000E3E8E093B000E6E0E093B100ABE4B0E07C
:101D70000E94D323E0E0E093B000E093B100E09153
:101D8000B904E03021F0ABE4B0E00E94D323E1CF0E
:101D900023C0E091D904E030F9F0E091B904E150BA
:101DA000E093B904EF5F89F0EFE7E7BDABE4B0E0A3
:101DB0000E94D323E9EBE7BDE091B904E03021F0C4
:101DC000ABE4B0E00E94D323E8CFE091D904AEE0C9
:101DD000EA02F001EE58E7BDE0E0E093B704E093DB
:101DE000B8040895A797D15086E291E0A1E0B0E051
:101DF000ECE5F1E00E94712630E020E050E040E0A8
:101E0000229A2A9AA4E0B0E00E943326309721F06B
:101E1000EF3FAFEFFA0779F4A0E0B0E00E9433267D
:101E2000B39740F0A0E0B0E00E943326E83EA3E084
:101E3000FA0708F001C006C0A4E0B0E0EFEDF7E05B
:101E40000E944326A4E0B0E00E943326E0934B04B6
:101E5000F0934C04A0E0B0E00E943326DF01B3977A
:101E600028F0FD01E83EA3E0FA0708F0B3C0A0E0C7
:101E7000B0E00E9433263F01A2E0B0E00E9433268A
:101E8000E436A0E0FA0720F0E53FA1E0FA0708F009
:101E900005C0A2E0B0E00E9433265F01A6E0B0E0FA
:101EA0000E943726E03014F0EB300CF006C0A6E0BC
:101EB000B0E00E943726E093D904A7E0B0E00E948A
:101EC0003726E03014F0EB300CF006C0A7E0B0E0AD
:101ED0000E943726E093DA04AFE0B0E00E94372694
:101EE000E13010F0E53108F006C0AFE0B0E00E944C
:101EF0003726E093C104A9E0B0E00E9437261E2EE9
:101F0000E0305CF0E3364CF4ABE0B0E00E94372602
:101F10000E2EE0E7E1190E160CF006C0A9E0B0E0C5
:101F20000E943726E093DC04AAE0B0E00E94372646
:101F3000E13014F0E9300CF006C0AAE0B0E00E94F5
:101F40003726E093EF04ABE0B0E00E943726EA309A
:101F50006CF0E3365CF40E2EA9E0B0E00E94372668
:101F6000A0E70E942F26EA1B0E160CF006C0ABE07D
:101F7000B0E00E943726E093F004ACE0B0E00E94AD
:101F80003726E03014F0E6300CF006C0ACE0B0E0EC
:101F90000E943726E093F104ADE0B0E00E943726BE
:101FA000E13014F0EB300CF006C0ADE0B0E00E9480
:101FB0003726E093F204AEE0B0E00E943726E0302E
:101FC00014F0EF310CF006C0AEE0B0E00E9437260E
:101FD000E093DD0440904B0450904C04E091C10428
:101FE000F0E0E055FF4F1491A091C104A23050F0F1
:101FF000E091C104E150F0E0E055FF4FE491E11BB6
:10200000EE0F01C0ECE30E2FF301662777270E9445
:102010005A24A0E0B4E284E799E40E943225A0E0CB
:10202000B0E080E09FE30E9494240E9421244F01AD
:10203000E091DC040E94C0250E945A24A0E0B0E098
:1020400080E29FE30E94E424A0E0B0E080E09FE310
:102050000E949424A7ECB4E00E942124EC93E09128
:10206000F0040E94C0250E945A24A0E0B0E080E263
:102070009FE30E94E424A0E0B0E080E09FE30E94A0
:102080009424DF01CB01E091C704FF27662777275F
:102090000E945A240E949424A8ECB4E00E942124B7
:1020A000EC93E0E0E0937E00E0E4E0937C00E5E880
:1020B000E0937A00E0E0E0937B004092B504509218
:1020C000B6045E98569A5D98559A2B98239A2D9A45
:1020D0002598459A3D98439A3B98429A3A98449A53
:1020E0003C98A0E10E9465210E940F21E8EAF0E0FF
:1020F000FA93EA93A0E0B0E00E947B07E0E7F0E00B
:10210000FA93EA93A1E0B0E00E947B07E8E7F0E0F1
:10211000FA93EA93A2E0B0E00E947B07E0E8F0E0E7
:10212000FA93EA93A3E0B0E00E947B07E8E8F0E0CE
:10213000FA93EA93A4E0B0E00E947B07E0E9F0E0C4
:10214000FA93EA93A5E0B0E00E947B07E8E9F0E0AB
:10215000FA93EA93A6E0B0E00E947B07E0EAF0E0A1
:10216000FA93EA93A7E0B0E00E947B07E3EAE4BDBC
:10217000E2E0E5BDA091D904A1303CF0E091D904A2
:10218000AEE0EA02F001EE5801C0E0E0E7BDE0E0B9
:10219000E093B600E091DA04E030B9F0E150A5E058
:1021A000EA02F001E093BF04E093B300E3E8E093B8
:1021B000B000E5E0E093B100A8E2B0E00E94D323D4
:1021C000E0E0E093B000E093B100A8E0B0E00E944E
:1021D0003726E03014F0E3330CF007C0A8E0B0E09D
:1021E0000E943726E093DB044AC00E940F21AFE231
:1021F000B4E00E945221E0E0E093B904A091B90458
:10220000A536B8F5E091B904E8BDE695E093DB04A6
:10221000EEEDF4E0FA93EA93E9ECF3E0FA93EA9353
:10222000E091DB040E94C0250E941C2684E00E94ED
:10223000ED222896E7E0EA93A1E00E94FE20AEEDB1
:10224000B4E00E944321AAEFB0E00E94D323A09102
:10225000B904A43619F4E0E0E093B9041D9903C071
:10226000E5E6E093B904E091B904EE5FE093B904C8
:10227000C5CFE091DB04A8E0B0E00E944B26E091DE
:10228000DB04EE0FE8BDA0914D04B0914E04A237DF
:10229000E5E7BE0720F0A091C304AE3210F40C9421
:1022A000C1200E940F2144245524E1E0E093B904A9
:1022B000A091B904A131D8F4E091B904F0E00F0184
:1022C000ED50FB4FA081B0E0A7FDBFEFF001EC5F48
:1022D000FA4FE081F0E0E7FDFFEFEA0FFB1F4E0E43
:1022E0005F1EE091B904EF5FE093B904E1CFF20122
:1022F000EE0FFF1FE63EAEE0FA0709F0FFCFA4E0C5
:10230000B0E00E94332631960E944326A4E0B0E05C
:102310000E943326BF010F01F196E131A8E0FA07D0
:1023200080F0F001EB5BF740E135A1E0FA0748F4FB
:10233000DB011197E091B504F091B604EA17FB07B1
:1023400099F0AEEEB1E00E943C03ADE3B4E00E9430
:102350005221A8EEB1E00E943C03A4E0B0E0E2E22A
:10236000F8EC0E944326FFCFA0914D04B0914E049B
:10237000A033E5E7BE0720F0A091C304AD3208F416
:10238000FFCFA0910705E0910805AE0FA938A9F489
:10239000A0910905E0910A05AE0FAC3971F4A09146
:1023A000F504E091FA04AE0FA03939F4A091FB04D2
:1023B000E091FC04AE0FAE3D11F00C94C120A09151
:1023C0004B04B0914C04A03DE7E0BE0720F0A131E2
:1023D000E9E0BE0710F00C94C120A0E1B0E00E943B
:1023E0003726E13010F0E53008F00CC00E940F21D4
:1023F000AAE4B4E00E9452210E94E7060E94580716
:10240000E030A1F30E940F21A3EFB4E00E9443212A
:10241000A5E2B0E00E94D323A4E0B5E00E944321EE
:10242000A4EEB3E00E94D323E0E0E093B904E0918E
:10243000C304A091B904AE1760F4A0914D04B0910B
:102440004E040E943C03E091B904EF5FE093B904AD
:10245000EECF0E940F21A3E5B4E00E945221E0914B
:10246000B504F091B604E55DF7402F01E6E3F1E035
:10247000E419F5092F01EE0FFF1F329738F0F20132
:102480000E94B125E13BA4E0FA0708F0FFCFEEED92
:10249000F4E0FA93EA93EFE8F2E0FA93EA93F201B8
:1024A000662777270E941C2684E00E94ED2228964A
:1024B000E7E0EA93A1E00E94FE20AEEDB4E00E94C6
:1024C0004321AFEDB3E00E94D323E0E0E093B904F1
:1024D000E091C304A091B904AE1760F4A0914D043B
:1024E000B0914E040E943C03E091B904EF5FE09389
:1024F000B904EECFF8940E941C04E091C204E030CD
:1025000011F00C94BF1FE0E0E093B904A091B9046E
:10251000AE3008F00CC1E091B904A091BA04EA0F02
:10252000E093BB04EFEFF1E0EA19FB09E093450407
:10253000F0934604E0917A00E064E0937A00E09141
:102540007A00E074E1F7A0914504B09146040E943E
:102550003C032A98D5010E943C032A9A000085E09A
:1025600090E00197F1F7E091BB04E150E093BB04E8
:10257000E03039F00000000085E090E00197F1F7CD
:10258000F2CFE0E0E4BDE5BDE0917A00E064E093E5
:102590007A00E0917A00E074E1F7E0917800F09140
:1025A0007900E0933704F0933804E0917A00E06416
:1025B000E0937A00E0917A00E074E1F7E09178002E
:1025C000F0917900E0933904F0933A04E0917A00B5
:1025D000E064E0937A00E0917A00E074E1F7E09142
:1025E0007800F0917900E0933B04F0933C04E09193
:1025F0007A00E064E0937A00E0917A00E074E1F719
:10260000E0917800F0917900E0933D04F0933E046E
:10261000E0917A00E064E0937A00E0917A00E0745F
:10262000E1F7E0917800F0917900E0933F04F093B6
:102630004004E3EAE4BDE2E0E5BDE091B904AFE6C1
:10264000B3E0F0E0EE0FFF1FEA0FFB1FA09137048D
:10265000B0913804A083B183E091B904E25FAFE6A2
:10266000B3E0F0E0EE0FFF1FEA0FFB1FA09139046B
:10267000B0913A04A083B183E091B904E45EAFE67F
:10268000B3E0F0E0EE0FFF1FEA0FFB1FA0913B0449
:10269000B0913C04A083B183E091B904E65DAFE65C
:1026A000B3E0F0E0EE0FFF1FEA0FFB1FA0913D0427
:1026B000B0913E04A083B183E091B904E85CAFE639
:1026C000B3E0F0E0EE0FFF1FEA0FFB1FA0913F0405
:1026D000B0914004A083B183A091B904AD3008F556
:1026E000A091BA04E3E7EA1BA091B904EA1BE093C6
:1026F000BB04000085E090E00197F1F7E091BB0496
:10270000E150E093BB04E03039F00000000085E0C8
:1027100090E00197F1F7F2CFD401A454B3400E94A6
:102720003C03E091B904EF5FE093B904EFCEEFE52D
:10273000FCE0E0933704F0933804FE01EA5DFE4FBD
:10274000E081E03051F0E0913704F0913804E05539
:10275000FB4FE0933704F0933804A091C004A130FC
:1027600051F4E0913704F0913804E85AFD4FE093BA
:102770003704F0933804A091C004A23051F4E091E2
:102780003704F0913804EC5EFA4FE0933704F0938D
:102790003804E0913704F0913804E815F90558F44D
:1027A000A0913704B0913804F401EA1BFB0B369674
:1027B000DF010E943C03E1E4E0937C0044245524C3
:1027C000E091C704E093B904E091C804A091B90472
:1027D000AE1798F4E091B904AFE6B3E0F0E0EE0F85
:1027E000FF1FAE0FBF1F0E9414264E0E5F1EE0910A
:1027F000B904EF5FE093B904E7CF498E5A8E0C2CF1
:102800000D2879F0A98DBA8D88279927EB8DFC8D3D
:10281000662777270E94A025FD01BC010E94BB25E9
:102820002F01E98DFA8DEB8FFC8FE0E0E0934104FE
:10283000E09342040C2C0D2809F0A6C0E09151044D
:10284000F09152043097B9F5E0E0E093B904A0911B
:10285000B904A43178F5E091B904F0E0DE01A7589D
:10286000BF4FEE0FFF1FAE0FBF1FE0E0F0E0ED9394
:10287000FC93E091B904F0E0DE01AF5ABF4FEE0FD8
:10288000FF1FAE0FBF1FE0E0F0E0ED93FC93E0917F
:10289000B904F0E0DE019996EE0FFF1FAE0FBF1FE7
:1028A000E0E0F0E0ED93FC93E091B904EF5FE0939A
:1028B000B904CDCF50E0E1E0E093B904A091B904B0
:1028C000A63008F5E091B904AFE4B4E0F0E0EE0F13
:1028D000FF1FAE0FBF1F0E941426309771F4E091C6
:1028E000B904AFE4B4E0F0E0EE0FFF1FEA0FFB1F06
:1028F00040825182E6E0E093B904E091B904EF5FD1
:10290000E093B904DBCFE0915904F0915A04309779
:1029100071F1A0915104B091520488279927E09158
:102920005304F0915404662777270E94A025E09174
:102930005504F0915604662777270E94A025E09160
:102940005704F0915804662777270E94A025E0914C
:102950005904F0915A04662777270E94A025E5E0E4
:10296000F0E060E070E00E94EC2531976F01E4E058
:10297000E093C404E0E0EA93A1E00E94FE20A3E615
:10298000B4E00E945221E4C64C145D0440F4D60128
:10299000A419B509E12FF0E00E94D92502C0E0E0BA
:1029A000F0E0E0934904F0934A04A091F204EBE0D4
:1029B000EA1BA091C604B0E0F0E0E7FDFFEFAE1720
:1029C000BF07ACF4E091C604E03059F0D201AA5B35
:1029D000BF4FE3E0E19FF001AE0FBF1FAC15BD0597
:1029E00030F0D201AC57BC4FAC15BD0540F4E091BE
:1029F0004904F0914A04E0934104F0934204E091C9
:102A00004904F0914A04309721F0E091C604EF5F49
:102A100001C0E0E0E093C604A091C604AB3018F01A
:102A2000EAE0E093C604D2015496AC15BD0520F44B
:102A3000E091C604E03009F462C3E0E0E0933704BB
:102A4000E0933804E0933904E0933A04E0933B04C4
:102A5000E0933C04E0934304E0934404E093450492
:102A6000E0934604E0934704E0934804E093B904FC
:102A7000A091B904AC3008F041C0E091B904AFE6D0
:102A8000B3E0F0E0EE0FFF1FAE0FBF1F0E94142651
:102A9000A0914304B0914404EA0FFB1FE093430468
:102AA000F0934404A091B904B0E0AA0FBB1FAD5647
:102AB000BC4F0E941426A0914504B0914604EA0F31
:102AC000FB1FE0934504F0934604A091B904B0E0E5
:102AD000AA0FBB1FA954BC4F0E941426A091470403
:102AE000B0914804EA0FFB1FE0934704F0934804B9
:102AF000E091B904EF5FE093B904BACFE0914304E9
:102B0000F0914404A9A1BAA1EA17FB0760F4A091CF
:102B10004304B0914404E9A1FAA1EA1BFB0BE09342
:102B20003704F0933804E0914504F0914604AF8DEA
:102B3000B8A1EA17FB0760F4A0914504B0914604E0
:102B4000EF8DF8A1EA1BFB0BE0933904F0933A04F4
:102B5000E0914704F0914804AD8DBE8DEA17FB0764
:102B600060F4A0914704B0914804ED8DFE8DEA1BFE
:102B7000FB0BE0933B04F0933C04E0913704F091AD
:102B800038043097A1F0A0913704B0913804AC3DDF
:102B9000E5E0BE0760F4E0913904F0913A04309723
:102BA00031F0E0913B04F0913C04309709F4D5C03A
:102BB000E22FF0E0DE01AF50BF4FEE0FFF1FEA0F34
:102BC000FB1FA0913704B0913804A083B183E22F9A
:102BD000F0E0DE01A753BF4FEE0FFF1FEA0FFB1F10
:102BE000A0913904B0913A04A083B183E22FF0E0C0
:102BF000DE01AF55BF4FEE0FFF1FEA0FFB1FA09185
:102C00003B04B0913C04A083B183E0E0E98BEA8B04
:102C1000EB8BEC8BED87EE87EF87E88BE987EA8714
:102C2000EB87EC87E093B904A091B904A43108F0D4
:102C300059C0E091B904F0E0DE01AF50BF4FEE0F94
:102C4000FF1FAE0FBF1F0E941426E0933704F093BE
:102C50003804309709F446C0E0913704F091380405
:102C6000A989BA898B899C89662777270E949B2529
:102C7000E98BFA8B6B8B7C8BE091B904F0E0DE0181
:102C8000A753BF4FEE0FFF1FAE0FBF1F0E941426AA
:102C9000AD85BE858F859889662777270E949B25FD
:102CA000ED87FE876F87788BE091B904F0E0DE0155
:102CB000AF55BF4FEE0FFF1FAE0FBF1F0E94142670
:102CC000A985BA858B859C85662777270E949B25D9
:102CD000E987FA876B877C87E091B904EF5FE0931F
:102CE000B904A2CFE091B904DE01AB5DBE4FEC9315
:102CF000A989BA898B899C89FF27662777270E9433
:102D0000EC25DE01A35EBE4FED93FC93E091B90488
:102D1000AD85BE858F859889FF27662777270E9416
:102D2000EC25DE01A55EBE4FED93FC93E091B90466
:102D3000A985BA858B859C85FF27662777270E9402
:102D4000EC25DE01A75EBE4FED93FC93233118F412
:102D5000E22FEF5F01C0E0E02E2FDE01AB5DBE4F42
:102D6000AC91A330C0F0DE01A35EBE4F0D90BC91CC
:102D7000A02D1C9780F0DE01A55EBE4F0D90BC918A
:102D8000A02D1C9740F0DE01A75EBE4F0D90BC91B8
:102D9000A02D1C9708F4A7C1E0914104F0914204D2
:102DA000309751F0DE01A35EBE4F0D90BC91A02D77
:102DB000AC3DE5E0BE0708F095C1FE01E75EFE4FC1
:102DC0000190F081E02D662777270E945A24DF01C9
:102DD000CB01FE01E55EFE4F0190F081E02D6627FC
:102DE00077270E945A240E943225ED8BFE8B6F8B31
:102DF000788FAD89BE898F89988DE0E0F0E068EC2E
:102E000072E40E94E424A5E4B4E00E942124ED933E
:102E1000FC93A0914504B0914604A436E0E0BE07BF
:102E200030F0E3E6F0E0E0934504F0934604E091EF
:102E3000C004E03009F040C0E1E0DE01AA5DBE4F11
:102E4000EC93FE01EE5DFE4FE081E03071F4E1E0D5
:102E5000DE01AE5DBE4FEC93E0E0EA93A0E00E949D
:102E6000FE20A4E0B3E00E944321EEEDF4E0FA93EB
:102E7000EA93E9ECF3E0FA93EA93E0914504F091E8
:102E80004604662777270E941C2684E00E94ED22D4
:102E90002896E3E0EA93A0E00E94FE20AEEDB4E0C5
:102EA0000E944321A0914504B09146041A9720F452
:102EB000A5E1B3E00E944321E091DD04E03009F098
:102EC00001C0E0E0E093C504FE01E55EFE4F019025
:102ED000F081E02D662777270E945A24DF01CB017D
:102EE000FE01E35EFE4F0190F081E02D662777271B
:102EF0000E945A240E943225DF01CB010E9429231F
:102F00007F936F93FF93EF93AD89BE898F89988DDF
:102F10000E942923AFE2BDED84E49FE30E94E424F4
:102F2000AF91BF918F919F910E9426260E948D2480
:102F30007F936F93FF93EF93EF8DF8A16627772729
:102F40000E945A24DF01CB01E9A1FAA16627772765
:102F50000E945A240E943225DF01CB010E942923BE
:102F6000AF91BF918F919F910E9426260E948D2440
:102F7000A6E6B6E686E29FE30E9494247F936F93D1
:102F8000FF93EF93E091C504FF27662777270E9400
:102F90005A24AFE8B2EC85EF9CE30E94E424AF91A1
:102FA000BF918F919F910E9426260E948D24ED8BC8
:102FB000FE8B6F8B788FA88DAA2372F431E0EDE23F
:102FC000E883ED89FE896F89788D0E94EE23ED8B71
:102FD000FE8B6F8B788F03C030E0EBE2E883E091EB
:102FE000DD04E03081F0A0914504B091460459978A
:102FF00050F0A0914504B0914604AA34E0E0BE0729
:1030000010F4303009F402C0E1E001C0E0E03E2FEE
:10301000E091C004E03009F065C0AD89BE898F89B8
:10302000988DE0E0F0E068EC72E40E94E424A5E40E
:10303000B4E00E942124ED93FC93A0914504B0914B
:103040004604A436E0E0BE0730F0E3E6F0E0E093AB
:103050004504F0934604E091DD04E03051F0303057
:1030600019F0A7E1B3E002C0AFE1B3E00E94432151
:1030700012C0A0914504B0914604E3E6F0E0EA1BDB
:10308000FB0BE0934504F0934604E0E2E883A7E2FB
:10309000B3E00E944321EEEDF4E0FA93EA93E8E90D
:1030A000F4E0FA93EA93EC810E94C0250E941C266A
:1030B000E0914504F0914604662777270E941C267C
:1030C00088E00E94ED222C96AEEDB4E00E944321F0
:1030D000A0914504B09146041A9720F4AFE2B3E002
:1030E0000E94432106C030E0E0E0DE01AA5DBE4F51
:1030F000EC93E0E0DE01AF5DBE4FEC9375C0FE01E6
:10310000EE5DFE4FE081E03021F0E091C004E03060
:1031100009F019C0DE01AF5DBE4FEC91EF5FEC939B
:10312000AE2FF3010E94B625B0E0EA17FB0758F472
:10313000E0E0DE01AF5DBE4FEC93DE01AE5DBE4F61
:10314000EC930E94B703E0E0E093B904A091B904C6
:10315000A43180F5E091B904F0E0DE01AF50BF4F3B
:10316000EE0FFF1FAE0FBF1FE0E0F0E0ED93FC930A
:10317000E091B904F0E0DE01A753BF4FEE0FFF1F4F
:10318000AE0FBF1FE0E0F0E0ED93FC93E091B904D7
:10319000F0E0DE01AF55BF4FEE0FFF1FAE0FBF1FB8
:1031A000E0E0F0E0ED93FC93E091B904EF5FE09391
:1031B000B904CCCF30E020E0E0E0DE01AB5DBE4FF3
:1031C000EC93DE01A35EBE4FED93EC93DE01A55EB2
:1031D000BE4FED93EC93DE01A75EBE4FED93EC93F3
:1031E000DE01AA5DBE4FEC93E0914104F0914204F0
:1031F000309781F0E091DA04E03061F0DE01A15E09
:10320000BE4F0D90BC91A02DA139E0E0BE0710F09B
:10321000303009F07BC0A0914104B0914204519735
:1032200030F4E0914104F0914204319701C0EFE0A5
:10323000E093C504E091BF04A091C504EA0FE093B8
:10324000C504A091C504AE3208F401C0EDE2E093DC
:10325000B300E3E8E093B000E091EF04E830B1F4AC
:10326000A0914104B0914204A135E0E0BE0710F006
:10327000E6E009C0A0914104B0914204519710F0DA
:10328000E5E001C0E4E0E093B1003FC0E130D1F1FE
:10329000E23011F4E5E037C0E33011F4E6E033C08A
:1032A000E43051F4A091B100A43011F4E5E001C084
:1032B000E4E0E093B10029C0E53051F4A091B10001
:1032C000A53011F4E6E001C0E5E0E093B1001DC0D7
:1032D000E63051F4A091B100A43011F4E6E001C051
:1032E000E4E0E093B10011C0E73079F4A091B100BF
:1032F000A43011F4E5E007C0A091B100A53011F4AD
:10330000E6E001C0E4E0E093B10005C0E0E0E09356
:10331000B000E093B100E0E0EA93A1E00E94FE205B
:10332000E0914104F0914204309709F42EC1E091FC
:10333000DA04E03021F4E091D904E03009F431C03E
:10334000303041F5DE01AC5DBE4FAC91AA3F30F4A8
:10335000FE01EC5DFE4FE081EF5F01C0E0E0DE01C9
:10336000AC5DBE4FEC93D301ECE2F1E00E94D925B5
:103370003196DE01AC5DBE4FAC91B0E00E941126EB
:10338000309739F4E7B5EF3711F0EFE701C0E9EB1B
:10339000E7BD07C0E091D904AEE0EA02F001EE58C3
:1033A000E7BDF601E419F509E0933904F0933A0416
:1033B000E12FA0913904B0913A04F0E0AE1BBF0BAD
:1033C000EAE0F0E00E94D9253196662777270E942F
:1033D0005A24DF01CB010E942923A0E0B0E080EC59
:1033E0009FE30E949424A5ECB4E00E942124EC9376
:1033F000E1E0E093B904E091C504A091B904EA17B3
:1034000010F0A83008F00AC0A091B9040E9423214E
:10341000E091B904EF5FE093B904EDCFA091C5044A
:10342000A83020F0A1E3B3E00E944321A091B904A9
:10343000E9E0EA1BE093B904E091B904E150E093BC
:10344000B904EF5F29F0A3E3B3E00E944321F4CF76
:10345000A0913904B0913A04E3E0F0E00E94D9254C
:10346000E0933904F0933A04A0913904B0913A04FE
:10347000A83EE3E0BE0730F0E7EEF3E0E093390466
:10348000F0933A04E42FF0E0DE019396EE0FFF1F75
:10349000EA0FFB1FA0913904B0913A04A083B183D5
:1034A000E0E0E0933904E0933A04E093B904A0919A
:1034B000B904A33018F5E091B904F0E0DE01939669
:1034C000EE0FFF1FAE0FBF1F0E941426E0933704BC
:1034D000F0933804309759F0A0913904B0913A0430
:1034E000EA0FFB1FE0933904F0933A0401C006C0D1
:1034F000E091B904EF5FE093B904D9CFE091B9044A
:10350000A0913904B0913A04F0E00E94D925E093EB
:103510003904F0933A04423018F4E42FEF5F01C00D
:10352000E0E04E2FEEEDF4E0FA93EA93EFE8F2E0FC
:10353000FA93EA93E0913904F0913A0466277727E9
:103540000E941C2684E00E94ED222896E8E0EA937F
:10355000A1E00E94FE20AEEDB4E00E944321A091C4
:103560003904B0913A041A9718F4A5E3B3E00AC0FD
:10357000A0913904B0913A04A436E0E0BE0720F4EB
:10358000A8E3B3E00E944321E3C0E091DA04E03015
:1035900021F4E091D904E03009F407C0E091D904A6
:1035A000AEE0EA02F001EE58E7BDE0E0E093B904D6
:1035B000A091B904A33098F4E091B904F0E0DE01E1
:1035C0009396EE0FFF1FAE0FBF1FE0E0F0E0ED930C
:1035D000FC93E091B904EF5FE093B904E9CF40E0D8
:1035E000E0E0DE01AC5DBE4FEC93E02FF0E0EC0DCF
:1035F000FD1D4E165F06C8F4AAE3B3E00E94432106
:10360000DE01A15EBE4F0D90BC91A02DA139E0E07E
:10361000BE0728F0E0E0E093B704E093B804E0E0F0
:10362000DE01AD5DBE4FEC938BC0E12FF0E0EC0D01
:10363000FD1D4E165F0608F478C0A7EBB4E0ED91CF
:10364000FD913196FE93EE93DE01AD5DBE4FAC91E0
:10365000AD3030F4FE01ED5DFE4FE081EF5F01C063
:10366000EDE0DE01AD5DBE4FEC93A091F204EDE024
:10367000EA1BDE01AD5DBE4FAC91B0E0F0E0E7FDCE
:10368000FFEFAE17BF070CF447C0D201AC19BD095C
:10369000E3E0F0E00E94D925E0934904F0934A0466
:1036A000A0914904B0914A04A83EE3E0BE0730F07F
:1036B000E7EEF3E0E0934904F0934A04EEEDF4E022
:1036C000FA93EA93EBEAF4E0FA93EA93E09149047F
:1036D000F0914A04662777270E941C2684E00E9406
:1036E000ED222896AEEDB4E00E944321A09149045A
:1036F000B0914A041A9718F4A6E4B3E00AC0A09166
:103700004904B0914A04A436E0E0BE0720F4A9E4DD
:10371000B3E00E94432108C0ABE4B3E00E94432120
:1037200084EF91E00197F1F70FC0A7E5B3E00E94A5
:103730004321A7EBB4E0ED91FD913196FE93EE931A
:1037400084EF91E00197F1F788EE93E00197F1F7AC
:10375000E091C004E03009F4EEC0A091C004A130B3
:10376000B1F5E2E0EA93A0E00E94FE20EEEDF4E085
:10377000FA93EA93EFE8F2E0FA93EA93F20166270C
:1037800077270E941C2684E00E94ED222896AEED49
:10379000B4E00E944321E0E1F7E24E165F0620F418
:1037A000A3E6B3E00E944321E8EEF3E04E165F0685
:1037B00020F4A5E6B3E00E944321E4E6F0E04E16D3
:1037C0005F0620F4A7E6B3E00E944321B4C0DE0107
:1037D000A35EBE4F0D90BC91A02DE9A1FAA1EA1BFA
:1037E000FB0BDF01EDE0F0E00E94D925E0934504FA
:1037F000F0934604EEEDF4E0FA93EA93EFE8F2E09A
:10380000FA93EA93E0914504F091460466277727FE
:103810000E941C2684E00E94ED222896E2E0EA93B2
:10382000A0E00E94FE20AEEDB4E00E944321A091F2
:103830004504B0914604A436E0E0BE0720F4A9E6B2
:10384000B3E00E944321DE01A55EBE4F0D90BC9106
:10385000A02DEF8DF8A1EA1BFB0BDF01EDE0F0E0FE
:103860000E94D925E0934504F0934604EEEDF4E080
:10387000FA93EA93EFE8F2E0FA93EA93E0914504D1
:10388000F0914604662777270E941C2684E00E9458
:10389000ED222896E7E0EA93A0E00E94FE20AEED3C
:1038A000B4E00E944321A0914504B0914604A4369F
:1038B000E0E0BE0720F4ABE6B3E00E944321DE0166
:1038C000A75EBE4F0D90BC91A02DED8DFE8DEA1B25
:1038D000FB0BDF01EDE0F0E00E94D925E093450409
:1038E000F0934604EEEDF4E0FA93EA93EFE8F2E0A9
:1038F000FA93EA93E0914504F0914604662777270E
:103900000E941C2684E00E94ED222896ECE0EA93B7
:10391000A0E00E94FE20AEEDB4E00E944321A09101
:103920004504B0914604A436E0E0BE0720F4ADE6BD
:10393000B3E00E944321E091F104E03069F0E091AE
:10394000C604E03031F0E0916304F09164043097F4
:1039500019F40C2C0D2809F48AC0E12FF0E0EC0DCD
:10396000FD1D4E165F0628F0A091BE04A43009F09C
:1039700063C0E091F104AAE0EA02F001E093C5041B
:10398000A091C404AE1720F4E091C404EF5F01C01D
:10399000E1E0E093C404AFE4B4E0F0E0EE0FFF1F19
:1039A000EA0FFB1F40825182E0E0ED83EE83EF835C
:1039B000E887E1E0E093B904E091C504A091B9047F
:1039C000EA1728F1E091B904AFE4B4E0F0E0EE0FBB
:1039D000FF1FAE0FBF1F0E941426E0933704F09321
:1039E0003804309769F0AD81BE818F819885662754
:1039F00077270E949B25ED83FE836F83788701C024
:103A000006C0E091B904EF5FE093B904D5CFA0916F
:103A1000B904A63068F0E091B904E150AD81BE81EF
:103A20008F819885FF27662777270E94EC256F01F5
:103A3000E0E0E093BE041AC0A091BE04A43020F4DC
:103A4000E091BE04EF5F01C0E4E0E093BE04FE013C
:103A5000EA5DFE4FE081E03049F4A091F104E6E236
:103A6000EA9FF001B596DF010E943C030FC0FE0102
:103A7000EA5DFE4FE081E03049F4A091F104E6E216
:103A8000EA9FF001B696DF010E943C03E091C60474
:103A9000E03021F4E091BE04E03009F01EC1E0E026
:103AA000E0933704E0933804E0933904E0933A0458
:103AB000E0933B04E0933C04E98BEA8BEB8BEC8BCB
:103AC000ED87EE87EF87E88BE987EA87EB87EC875E
:103AD000E093B904A091B904AC3008F041C0E09182
:103AE000B904AFE6B3E0F0E0EE0FFF1FAE0FBF1F6B
:103AF0000E941426A0913704B0913804EA0FFB1FEE
:103B0000E0933704F0933804A091B904B0E0AA0F11
:103B1000BB1FAD56BC4F0E941426A0913904B09132
:103B20003A04EA0FFB1FE0933904F0933A04A091A2
:103B3000B904B0E0AA0FBB1FA954BC4F0E941426C1
:103B4000A0913B04B0913C04EA0FFB1FE0933B04BF
:103B5000F0933C04E091B904EF5FE093B904BACF6D
:103B6000E52FF0E0DE01A758BF4FEE0FFF1FEA0F71
:103B7000FB1FA0913704B0913804A083B183E52FD7
:103B8000F0E0DE01AF5ABF4FEE0FFF1FEA0FFB1F41
:103B9000A0913904B0913A04A083B183E52FF0E0FD
:103BA000DE019996EE0FFF1FEA0FFB1FA0913B0469
:103BB000B0913C04A083B183E0E0E093B904A0910C
:103BC000B904A43108F058C0E091B904F0E0DE0176
:103BD000A758BF4FEE0FFF1FAE0FBF1F0E94142646
:103BE000E0933704F0933804309709F445C0E0912E
:103BF0003704F0913804A989BA898B899C89662792
:103C000077270E949B25E98BFA8B6B8B7C8BE0914D
:103C1000B904F0E0DE01AF5ABF4FEE0FFF1FAE0F49
:103C2000BF1F0E941426AD85BE858F8598896627A3
:103C300077270E949B25ED87FE876F87788BE09121
:103C4000B904F0E0DE019996EE0FFF1FAE0FBF1F23
:103C50000E941426A985BA858B859C8566277727BF
:103C60000E949B25E987FA876B877C87E091B904DE
:103C7000EF5FE093B904A3CFE091B904E03061F1C4
:103C8000A989BA898B899C89FF27662777270E9493
:103C9000EC25E9A3FAA3E091B904AD85BE858F8533
:103CA0009889FF27662777270E94EC25EF8FF8A3D6
:103CB000E091B904A985BA858B859C85FF27662785
:103CC00077270E94EC25ED8FFE8F533118F4E52FF6
:103CD000EF5F01C0E0E05E2F0AC0FE01EA5DFE4F2B
:103CE000E081E03021F48CE197E00197F1F7359B1A
:103CF00002C0339901C1E091DA04E03031F0E0E034
:103D0000E093B000E093B10009C0E091D904E03045
:103D100029F0AEE0EA02F001EE58E7BD0E940F2163
:103D2000A2ECB4E00E94522144245524E1E0E09347
:103D3000B904A091B904A131D8F4E091B904F0E03C
:103D40000F01ED50FB4FA081B0E0A7FDBFEFF001E8
:103D5000EC5FFA4FE081F0E0E7FDFFEFEA0FFB1FB9
:103D60004E0E5F1EE091B904EF5FE093B904E1CF1E
:103D7000F201A3E0B0E00E94CB25E935A6E1FA0705
:103D800009F0FFC1A091B504B091B604AD30E9E0EF
:103D9000BE0790F4D196A031E8E0BE0768F0A0918C
:103DA000B504B091B604E2E00E94D325E05AFF408A
:103DB000E737A2E0FA0708F0E4C1A0914D04B09102
:103DC0004E04AA33E5E7BE0720F0A091C304AF324A
:103DD00008F4D7C1E0E0E093B904A091B904A93098
:103DE00008F044C0339904C0A091C104A43108F084
:103DF00008C0E091C104EF5FE093C104E1E0E0930B
:103E0000B904359904C0A091C104A23008F408C0D7
:103E1000E091C104E150E093C104E1E0E093B90412
:103E2000EEEDF4E0FA93EA93E9ECF3E0FA93EA9327
:103E3000E091C104FF27662777270E941C2684E0B3
:103E40000E94ED222896E7E0EA93A1E00E94FE207E
:103E5000AEEDB4E00E944321AFEAB0E00E94D3236C
:103E6000E091B904EF5FE093B904B7CFE091C104EA
:103E7000F0E0E055FF4F1491A091C104A23050F042
:103E8000E091C104E150F0E0E055FF4FE491E11B07
:103E9000EE0F01C0ECE30E2FE1E0E093B904A09136
:103EA000B904A33398F4E091B904AFE4B4E0F0E0CE
:103EB000EE0FFF1FAE0FBF1FE0E0F0E0ED93FC93AD
:103EC000E091B904EF5FE093B904E9CFE0E0E0935B
:103ED000C404E093C604DE01AD5DBE4FEC93E093F5
:103EE000BE04DE01AA5DBE4FEC93DE01AE5DBE4FA7
:103EF000EC9395D10E94B703349923C0E0E0E0939E
:103F0000B000E093B100A091C004A23020F4E09191
:103F1000C004EF5F01C0E0E0E093C0040E94B7037B
:103F2000E0E0DE01AD5DBE4FEC93DE01AF5DBE4F64
:103F3000EC93DE01AE5DBE4FEC93A8ECB0E00E94C6
:103F4000D323DE01A15EBE4F0D90BC91A02DA139FF
:103F5000E0E0BE0738F4A7EBB4E0ED91FD913196B7
:103F6000FE93EE93A091B704B091B804E2E00E94F2
:103F7000D3256E167F0610F40E949E0E0EC0E1E45B
:103F8000E0937C00A6E9B0E00E94D323E0E0EA934E
:103F9000A1E034D1A1EDB4E085D11D990FC00E94FC
:103FA0009907E0E0DE01AE5DBE4FEC93DE01AD5D52
:103FB000BE4FEC93DE01AA5DBE4FEC93FE01EA5DBD
:103FC000FE4FE081E03059F0DE01A15EBE4F0D9062
:103FD000BC91A02DA239E0E0BE0708F07AC0E091C4
:103FE0007A00E064E0937A00E0917A00E074E1F70F
:103FF000E0917800F0917900DE01A15EBE4FED9373
:10400000FC93662777270E945A24A2EBBEE28EE833
:104010009EE30E94E424A3E3B3E383E590E40E94DB
:104020009424DE01A15EBE4F0E942124ED93FC93F7
:10403000DE01A15EBE4F0D90BC91A02DA139E0E044
:10404000BE0758F4E0E0E093B000E093B100EA93DB
:10405000A1E0D4D0ADEDB4E025D1EEEDF4E0FA93DB
:10406000EA93E9EEF4E0FA93EA93DE01AD5DBE4F28
:104070000D90BC91A02DEAE0F0E00E94D9256627C2
:1040800077270E941C26DE01A95DBE4F0D90BC91D2
:10409000A02DEAE0F0E00E941126662777270E9413
:1040A0001C2688E00E94ED222C96ECE0EA93A1E029
:1040B000A5D0AEEDB4E0E7D0DE01A15EBE4F0D901D
:1040C000BC91A02DA436E0E0BE0718F4A1EAB2E04E
:1040D000E9D0E0E4E0937C0032990FC00E941C0418
:1040E000E0E0DE01AD5DBE4FEC93DE01AE5DBE4FA4
:1040F000EC93DE01AA5DBE4FEC93E981FA816B81FE
:104100007C81EF5FFF4F6F4F7F4FE983FA836B83B3
:104110007C83E091C204E03019F0EDE5F0E001C0ED
:10412000F301E0933704F0933804A981BA818B81BD
:104130009C81662777270E94EC25E030A3E0FA07F0
:10414000A0E06A07A0E07A07D0F0A4E0B0E00E9407
:10415000332631960E944326ABE4B4E0ED91FD9105
:104160003196FE93EE93E0E0E983EA83EB83EC8300
:10417000A5EBB4E0ED91FD913196FE93EE930C9496
:104180007D12A796DF5FFFCFAA93E881E07111F05F
:104190005A9A01C05A98E881E07211F05B9A01C006
:1041A0005B98E881E07411F05C9A01C05C98E8814A
:1041B000E07811F0289A01C0289881E28A95F1F7F9
:1041C000599A81E28A95F1F7599881E28A95F1F737
:1041D000B6C0AA93A881D8DFE881E295E883A881D8
:1041E000D3DF8AEF90E00197F1F7A9C0AA93A981E4
:1041F000F0DF589AA881EDDF58980FC0AA93E881A4
:10420000F0E0EB5EFA4FE081A981AE0FE2DFE981D9
:10421000E0931905E881E0931A0522960895A2E03B
:10422000D8DFA3E0B0E00E94D323ACE0D2DFA1E06E
:10423000D0DFA3E0B0E00E94D323E0E0E0931A05D2
:10424000E09319050895AA93A881AA3031F0E0916E
:104250001B05A0911905AE1760F0E0E0EA93A0916C
:104260001A05AF5FA0931A05C9DFA881AA3009F427
:1042700066C0E0911905EF5FE0931905589AA8818F
:10428000A8DF58985CC0BA93AA931A93A981BA81FF
:10429000ED91A983BA831E2FE03019F0A12FD3DF4F
:1042A000F5CF10C0BA93AA931A93E981FA81319697
:1042B000E983FA833197E4911E2FE03019F0A12FA2
:1042C000C2DFF3CF188123960895AA93529A539A86
:1042D000549A209A519A509A579A599858985F9898
:1042E000E881E0931B05E058E0931705E881E0546E
:1042F000E0931805A4E1B0E00E94D323A0E344DFDB
:1043000084EF91E00197F1F7A0E33EDF84EF91E0C5
:104310000197F1F7A0E338DF84EF91E00197F1F71F
:10432000A0E232DF84EF91E00197F1F7A8E251DFDC
:10433000A4E04FDFA5E84DDFA6E04BDF70DF21965C
:104340000895BA93AA931A930A93AA81BB811296ED
:104350000E941426309759F1AA81BB8114960E94BD
:1043600014268F01309761F00230E0E01E0798F0CC
:10437000F80131978F01AA81BB811496ED93FC93CC
:10438000AA81BB811296ED91FD913196FE93EE9339
:104390003197AC81A083AA81BB810E941426FF23A0
:1043A0002AF0ED91FD913196FE93EE9306C0AA811D
:1043B000BB81EFEFFFEFED93FC9319810881259608
:1043C0000895BA93AA9324970E94622610E0AA85C2
:1043D000BB85E0E0F0E0ED93FC93E889F989319644
:1043E000E88BF98B3197E4913E2FE03009F4EDC072
:1043F000E12FE03059F4353211F411E006C03A9360
:10440000AB85BC85ED85FE850995DEC0E130A9F45C
:10441000353239F43A93AB85BC85ED85FE85099537
:10442000D2C012E020E000E03B3211F42BE2CCC01D
:10443000303211F420E2C8C002C0E23031F430332F
:1044400019F4006115E0C0C003C0E53009F0BCC03C
:10445000E32FE33669F4EE85FF853497EE87FF8717
:10446000A481AA93AB85BC85ED85FE850995ABC07B
:10447000E337E1F4EE85FF853497EE87FF87AE855D
:10448000BF8514960E941426EE83FF83AE81BF8100
:10449000ED91AE83BF833E2FE03039F03A93AB8588
:1044A000BC85ED85FE850995F1CF8DC0E037F1F42F
:1044B000EE85FF853497EE87FF87AE85BF8514961E
:1044C0000E941426EE83FF83EE81FF813196EE83F6
:1044D000FF833197E4913E2FE03039F03A93AB857A
:1044E000BC85ED85FE850995EFCF6DC0E43611F0F2
:1044F000E93611F4016002C0E53719F4E6ECF0E0AA
:1045000009C0E83511F4026003C0E83709F05BC068
:10451000E0EDF0E0EE83FF8300FF1AC0EE85FF853B
:104520003497EE87FF87AE85BF8514964D915C91D9
:1045300055232AF4FA010E94A525AF012DE220306F
:1045400031F02A93AB85BC85ED85FE8509950AC0BF
:10455000EE85FF853497EE87FF87AE85BF8514967D
:104560004D915C9130E3EE81FF810E941826E8872F
:10457000F987EE81FF813296EE83FF83E885F98526
:104580004E175F0730F03F5FA885B9854A1B5B0B6C
:10459000F5CF04FD06C0313320F4A885B985119705
:1045A00071F400613A3328F001FF02C0395F01C0A5
:1045B000395D3A93AB85BC85ED85FE850995A88567
:1045C000B985129778F610E008CFAA85BB850E94BE
:1045D00014260E94692662960895FF92F82E269767
:1045E0000E946426DE011C960E9497250E941426D4
:1045F000309719F4EFEFFFEF27C0DE0116960E9407
:1046000097258D01DE011C960E9497250E94142695
:10461000EE83FF83E0E0E887E987DE011A960E94D7
:1046200097250E941426FA93EA931A930A93E1EAD3
:10463000F1E2FA93EA93DE011A96C3DE9F01AE819E
:10464000BF81E0E0EC93F9010E946B262A96FF906F
:1046500008950E94212624971A930A93AE81BF8160
:10466000888599850E945C262CF0EFEFFFEF6FE7BD
:104670007FEF95C0EE81FF81688579850E941C26B9
:10468000ADB7BEB711971F930F930E94DD230F9113
:104690001F91EE83FF8368877987AE81BF8188850C
:1046A0009985E3EFF4E065E37FE30E94772560F40A
:1046B000EE81FF81688579850E949424EE83FF83D3
:1046C0006887798701501040EE81FF816885798580
:1046D000A0E0B0E080E89FE30E948D247F936F9379
:1046E000FF93EF93EE81FF8168857985A0E0B0E0CC
:1046F00080E89FE30E949424AF91BF918F919F9196
:104700000E943225EE83FF8368877987AE81BF815F
:10471000888599850E94E424EA83FB836C837D83EA
:10472000A6E2B2E485E69FE30E94E424DF01CB0128
:10473000EEE4F1E164E570E40E9426260E948D24F7
:10474000AE81BF81888599850E94E4247F936F9311
:10475000FF93EF93EA81FB816C817D81ADE4B1E150
:1047600084ED9FE30E948D24AF91BF918F919F9123
:104770000E9432257F936F93FF93EF93F8010E947D
:10478000C6250E945A24A8E1B2E781E39FE30E9474
:10479000E424AF91BF918F919F910E94942419813D
:1047A00008812A960895109639F088E893E10197D8
:1047B000F1F7A8951197C9F70895E991F9916991D1
:1047C000799177FB660F771F88277E57880B7D933B
:1047D0008C937EE7769567950EF00895309760404C
:1047E000704009F070580895552342F4503811F480
:1047F000E0FF04C03196691F791F6BF050E857271E
:1048000011F45F93CFC05F3F31F0660F000C5795F6
:104810006795752F08955F9300200AF0CFC0C8C038
:1048200050E8192E1522880F991F9527550F879547
:1048300050E8072E0522660F771F7527550F6795DD
:104840000895689401C0E8945F93F2DF703818F01F
:104850007F3F08F4A7C056E1571BAAF45195583082
:104860000EF4593030F0EFEFFFEF6FEF7FE777F99D
:104870001AC077275523B9F0EE0FFF1F661F771F69
:104880005A95D1F710C07727583028F0EF2FF62F20
:10489000672F5850F9CF552331F076956795F795E6
:1048A000E7955A95D1F700200AF453D15F91089506
:1048B000689401C0E894309760407040B1F00024E3
:1048C00026F0772312F4009444D1172E7EE11120B4
:1048D00032F07A95EE0FFF1F661F111CF9CFEF2FF4
:1048E000F62F612D5F938ADF5F9108954F93AF019B
:1048F000FD01DA01AB01BC01CA01402D012C142ECF
:104900004F910895EA0FFB1F681F0895E095F095F9
:104910006095EF5FFF4F6F4F08955F9381DF903891
:1049200071F150E8152604C05F937ADF903839F1B1
:10493000703821F1572F591B2BF112F4D7DFFACF22
:10494000583118F0AA27BB278827583028F0AB2FFA
:10495000B82F88275850F9CF552329F08695B79559
:10496000A7955A95D9F7502D512572F0CBDF38F421
:104970006795F795E795739513F420C0B7DF3EDF91
:104980005F910895D8F7FBCFEA1BFB0B680B51F042
:1049900010F40094BBDF662392F3EE0FFF1F661F37
:1049A0007A95CBF7EE27FF27662777275F91089543
:1049B000EFEFFFEF6FE77FEF5F910895EFEFFFEF0E
:1049C0006FE77FE75F9108955F932ADF703851F3B7
:1049D000903841F301240894791F23F41CF300203C
:1049E0003AF3ECCF0F921F932F933F934F931127DE
:1049F00022279927689FA0018F9F302D410D591FB5
:104A00006B9F300D411D591F8E9F27D0BF9F25D012
:104A10006A9F23D0BE9F1DD0AF9F1BD0AE9F110DAC
:104A2000291F391F491F591FE32FF42F652F522FBC
:104A30004F913F912F911F910F9066232AF0550FB0
:104A4000EE1FFF1F661F02C073954BF2CDDE5F9114
:104A50000895100D211D391F02C0200D311D491F61
:104A6000591F08955F93DCDE703821F411200AF499
:104A70009FCFA4CF903809F495CF01240894970BC9
:104A80001BF4D4F30020F3CF792F1F932F933F9380
:104A90004F9311241127222733274427552790E2CB
:104AA000AE17BF078607410730F0AE1BBF0B860B62
:104AB000410B089401C08894551F221F331F111CFD
:104AC000AA1FBB1F881F441F9A9551F7F901612D3A
:104AD0004F913F912F911F91662332F0550FEE1F9A
:104AE000FF1F661F7A9543F27FDE5F910895992339
:104AF0009AF0772342F0971748F029F4AE17BF07D2
:104B0000860720F031F0989488940895989408943A
:104B100008951894889408957723C2F7971798F307
:104B2000A9F7EA17FB07680788F399F3ECCF00248D
:104B3000AF0DB01D0895EA0FFB1F681F791F089580
:104B4000AE0FBF1F861F971F0895F195E195F040A6
:104B50000895F09560957095E195FF4F6F4F7F4FE9
:104B60000895EE0FFF1FEE0FFF1F0895F695E795CE
:104B7000F695E795089576956795F795E7950895E5
:104B8000FE2FFF0FFF0B6F2F7F2F08956F2F660FE4
:104B9000660B762F0895FA9FF02DEB9FF00DEA9F9C
:104BA000E02DF10D08956E2F6A9FF0016B9FF00DBF
:104BB00008950024112490E1AA0FBB1F001C111CB2
:104BC0000E1A1F0A18F40E0E1F1E01C0A1609A953E
:104BD00099F7FD01D00108953F934F935F9300240F
:104BE00011244427552730E2AA0FBB1F881F991FA5
:104BF000001C111C441F551F0E1A1F0A460B570B91
:104C000028F40E0E1F1E461F571F01C0A1603A95C3
:104C100059F7FD01BC01D001CA015F914F913F914D
:104C20000895C7DFFD010895ED91FC911197089556
:104C30000590F491E02D08957A936A93FA93EA939C
:104C400008959A938A93BA93AA930895182E862F5B
:104C5000612D192E972F712D1B2EBF2FF12D1A2E7E
:104C6000AE2FE12D0895119602D0FE2F1197F999DC
:104C7000FECFFF93FFB7F894A1BDB2BDF89AE0B59F
:104C8000FFBFFF91089507D01196EF93EF2F03D048
:104C9000EF9111970895F99B02C0A895FCCF9FB79B
:104CA000F894A1BDB2BDF89A80B5E81719F0E0BD3F
:104CB000FA9AF99A9FBF089500240A160B0608066F
:104CC000090608955A934A933A932A931A930A939A
:104CD00008955D814C813B812A8119810881089565
:104CE0009927AC0FBD1F05900D920197E1F708952C
:00000001FF
