:0C0000000C94CD010C9400000C94000046
:10000C000C9400000C9400000C9400000C94000064
:10001C000C9400000C9400000C9400000C94000054
:10002C000C9400000C9400000C9400000C94000044
:10003C000C9400000C9400000C9400000C94000034
:10004C000C9400000C9400000C9400000C94000024
:10005C000C9400000C9400000C940000080C1E1F63
:10006C001E0C0800000000000000031F0000000030
:10007C0000031F1F00000000031F1F1F00000003D0
:10008C001F1F1F1F0000031F1F1F1F1F00031F1F09
:10009C001F1F1F1F031F1F1F1F1F1F1F00CDAF96EA
:1000AC008273645546382E241E1915120F0C09063E
:1000BC0003001027E80364000A000100001000018F
:1000CC0010000100C9000000A000027A000000002E
:1000DC0012000100310000000500000005000000C6
:1000EC0007002A0003000400202046656C657A4A4C
:1000FC006F6F202050492020000020202044454DC7
:10010C004F2076312E353020202000008300040053
:10011C0005000600A3000200000000009101A101EF
:10012C00B101C101D101E101F10101021102210270
:10013C0020202020202020202020202020202020B3
:10014C0000532575442575204625752050257500CE
:10015C00202020202044656C61793A20202020202A
:10016C00002020436F696C204572726F7220212031
:10017C002000257520284155544F2900257520282D
:10018C002B257529004672657175656E6379202083
:10019C00202020200050756C7365205769647468AA
:1001AC00202020200044656C617920202020202014
:1001BC002020202000496E7465672E5720202020B7
:1001CC00202020200047726F756E64202020202094
:1001DC0020202020005370656564202020202020E2
:1001EC0020202020004261636B4C696768742020DA
:1001FC002020202000436F6E7472617374202020C5
:10020C002020202000566F6C756D6520202020204A
:10021C002020202000546F6E6520202020202020DC
:10022C0020202020004F464600415554002B002B27
:10023C0025750025752020002575200020202050D4
:10024C0072657373204F4B2021202020002020202A
:10025C002044454D4F2021212120202020002052D8
:10026C00656D61696E696E67205573653A20004251
:10027C00616C616E63696E67202000FF005F202057
:10028C002020202020202020002120202020202081
:10029C002D2575002120202020202020202020002A
:1002AC002575202020202020202020202000202008
:1002BC0053656E73697469766974793A20200043CA
:1002CC006F696C204572726F7220004C6F77204200
:1002DC00617474657279002025752E25750080C0B7
:1002EC000000000006000800D00002000404D60044
:1002FC0001006F04D80001007004DA0001007104E1
:10030C00DC0001007204DE0001007304E000010057
:10031C007804E20001007904E40001007A04E600AC
:10032C0001007B04E80001007C04EA0001008E045B
:10033C00EC0001008F04EE0001009004F0000100BD
:10034C009104F20011009204F4001100A3040601C0
:10035C000400B80424010200000387020200020317
:10036C004B01030004034A01020007034B010C007C
:10037C0009038902030015034A01020018034B010B
:10038C000C001A03A0020400BC04EA020000F8945A
:10039C00EE27EFBBF1E0F5BFE5BFF8E1A895A4B7F8
:1003AC00A77FA4BFF0936000E0936000E0EFF2E061
:1003BC0085919591009761F0A591B5910590159057
:1003CC00BF01F00105900D920197E1F7FB01F0CF11
:1003DC00EFEFEDBFE8E0EEBFC0E0D3E00C94230BF1
:1003EC00BA93AA93E881F9813697E883F9830000E0
:1003FC0084E090E00197F1F7E881E17021F085E06D
:10040C0090E00197F1F7E881E27021F08AE090E04A
:10041C000197F1F7E881E47021F084E190E0019715
:10042C00F1F7E881E87021F088E290E00197F1F7AC
:10043C00E881E07121F080E590E00197F1F7E88127
:10044C00E07221F080EA90E00197F1F7E881E07426
:10045C0021F080E491E00197F1F7E881E07821F058
:10046C0080E892E00197F1F7E981E17021F080E0FA
:10047C0095E00197F1F7E981E27021F080E09AE0D4
:10048C000197F1F7E981E47021F080E094E10197A4
:10049C00F1F7E981E87021F080E098E20197F1F73B
:1004AC00E981E07121F080E090E50197F1F7E981B5
:1004BC00E07221F080E090EA0197F1F7E981E074B5
:1004CC0041F080E090EA0197F1F780E090EA019723
:1004DC00F1F722960895E0E0EA93A0E00E947A14E6
:1004EC00ACE3B1E00E94CE14E0E0EA93A0E00E94FD
:1004FC007A14EDE7F4E0FA93EA93EDE4F1E0FA9381
:10050C00EA93E0917104FF27662777270E949E18D3
:10051C00E0917C040E9467180E949E18F4016627E3
:10052C0077270E949E18F601662777270E949E184F
:10053C0080E10E9469166496ADE7B4E00E94BF1496
:10054C000895E0E0E093B000E093B1000E948B14BA
:10055C00ACE5B1E00E94CE1444245524E1E0E093D4
:10056C006C04A0916C04A13188F4E0916C04F0E06F
:10057C00EE56FB4FE081F0E0E7FDFFEF4E0E5F1E05
:10058C00E0916C04EF5FE0936C04EBCFE1E0E0935F
:10059C006C04A0916C04A13188F4E0916C04F0E03F
:1005AC00ED55FB4FE081F0E0E7FDFFEF4E0E5F1ED7
:1005BC00E0916C04EF5FE0936C04EBCFF2010E94CE
:1005CC006218E83DADE1FA0709F00895A091020424
:1005DC00B0910304A63DE9E0BE0790F4D196A0319A
:1005EC00E8E0BE0768F0A0910204B0910304E2E0D9
:1005FC000E947A18E05AFF40E730A4E0FA0708F0AE
:10060C000895A0910404B0910504AB33E5E7BE074F
:10061C0020F0A0917304AF3208F40895E1E0E09368
:10062C006C04A0916C04AF3008F080C1E0917A00AA
:10063C00E064E0937A00E0917A00E071E1F3E091FC
:10064C007A00E061E0937A002A98D601C9DE2A9AF2
:10065C00E0916C04E0936E040000000000000000C8
:10066C0085E090E00197F1F7E0916E04E150E093A2
:10067C006E04E03039F00000000085E090E0019756
:10068C00F1F7F2CFE0E0E4BDE5BDE0917A00E06483
:10069C00E0937A00E0917A00E071E1F3E0917A0066
:1006AC00E061E0937A00E0917800F0917900E093BA
:1006BC00F003F093F103E0917A00E064E0937A00A8
:1006CC00E0917A00E071E1F3E0917A00E061E0936F
:1006DC007A00E0917800F0917900E093F203F093C6
:1006EC00F303E0917A00E064E0937A00E0917A0001
:1006FC00E071E1F3E0917A00E061E0937A00E0913F
:10070C007800F0917900E093F403F093F503E09115
:10071C007A00E064E0937A00E0917A00E071E1F312
:10072C00E0917A00E061E0937A00E0917800F0913A
:10073C007900E093F603F093F703E0917A00E0641C
:10074C00E0937A00E0917A00E071E1F3E0917A00B5
:10075C00E061E0937A00E0917800F0917900E09309
:10076C00F803F093F903E0917A00E064E0937A00E7
:10077C00E0917A00E071E1F3E0917A00E061E093BE
:10078C007A00E0917800F0917900E093FA03F0930D
:10079C00FB03E0917A00E064E0937A00E0917A0048
:1007AC00E071E1F3E0917A00E061E0937A00E0918E
:1007BC007800F0917900E093FC03F093FD03E3EAF9
:1007CC00E4BDE2E0E5BDE0916C04A6E2B3E0F0E04C
:1007DC00EE0FFF1FEA0FFB1FA091F003B091F10386
:1007EC00A083B183E0916C04E25FA6E2B3E0F0E099
:1007FC00EE0FFF1FEA0FFB1FA091F203B091F30362
:10080C00A083B183E0916C04E45EA6E2B3E0F0E077
:10081C00EE0FFF1FEA0FFB1FA091F403B091F5033D
:10082C00A083B183E0916C04E65DA6E2B3E0F0E056
:10083C00EE0FFF1FEA0FFB1FA091F603B091F70319
:10084C00A083B183E0916C04E85CA6E2B3E0F0E035
:10085C00EE0FFF1FEA0FFB1FA091F803B091F903F5
:10086C00A083B183E0916C04EA5BA6E2B3E0F0E014
:10087C00EE0FFF1FEA0FFB1FA091FA03B091FB03D1
:10088C00A083B183E0916C04EC5AA6E2B3E0F0E0F3
:10089C00EE0FFF1FEA0FFB1FA091FC03B091FD03AD
:1008AC00A083B183F501662777270E941517DF0116
:1008BC00CB01E0E0F0E064E873E40E94A3180E942E
:1008CC0048177F936F93FF93EF93E0916C04FF278E
:1008DC00662777270E941517ADECBCEC8CEC9FE3D8
:1008EC000E949F17AF91BF918F919F910E94A31867
:1008FC000E944817DF01CB01F601662777270E947B
:10090C0015170E94A3180E944817A0E0B0E080E0E1
:10091C009FE30E944F170E94DC16DF010E94F60134
:10092C00E0916C04EF5FE0936C047BCEE0E0E0932D
:10093C006D04E4E0E0936C04A0916C04A33608F021
:10094C005CC0E0916C04E250A6E2B3E0F0E0EE0F84
:10095C00FF1FAE0FBF1F0E949618DF017F97F0F1AB
:10096C00FD01E039A1E0FA07C8F5E0916C04A6E2BC
:10097C00B3E0F0E0EE0FFF1FAE0FBF1F0D901C9009
:10098C00E0916C04E150A6E2B3E0F0E0EE0FFF1F43
:10099C00AE0FBF1F0E949618D001AE1BBF0B1B974A
:1009AC00E8F0E0916C04E150A6E2B3E0F0E0EE0F69
:1009BC00FF1FAE0FBF1F0D901C90E0916C04E25016
:1009CC00A6E2B3E0F0E0EE0FFF1FAE0FBF1F0E94D8
:1009DC009618D001AE1BBF0B1B9708F408C0E09112
:1009EC006C04E250E0936D04E4E6E0936C04E09157
:1009FC006C04EF5FE0936C049FCFE0916D04E030EA
:100A0C0069F4E1E0E0937204E0E0EA93A1E00E9473
:100A1C007A14ADE6B1E00E94CE14B6C0E0E0E093EB
:100A2C007204E0916D04FF27662777270E94151743
:100A3C00ADECBCEC8CEC9FE30E949F17ADECBCECD6
:100A4C008CE690E40E944F17A5E7B4E00E94DC16F8
:100A5C00EC93E0917C04E030C9F4E3E0EA93A1E08C
:100A6C000E947A14EDE7F4E0FA93EA93EEE7F1E0F2
:100A7C00FA93EA93E0917504FF27662777270E9483
:100A8C009E1884E00E94691628961EC0E4E0EA9342
:100A9C00A1E00E947A14EDE7F4E0FA93EA93E8E817
:100AAC00F1E0FA93EA93E0917504FF276627772724
:100ABC000E949E18E0917C040E9467180E949E1868
:100ACC0088E00E9469162C96ADE7B4E00E94BF1432
:100ADC00E0916D04FF27662777270E9415177F93F7
:100AEC006F93FF93EF93E0917C040E9467180E9430
:100AFC001517DF01CB01EDECFCEC6CEC7FE30E94F5
:100B0C00ED17AF91BF918F919F910E944F17A0E06D
:100B1C00B0E080E09FE30E944F17ADE6B4E00E9486
:100B2C00DC16EC93E0E0E093EE03E093EF03E1E0FE
:100B3C00E0936C04A0916C04A33398F4E0916C04E2
:100B4C00A6E0B4E0F0E0EE0FFF1FAE0FBF1FE0E039
:100B5C00F0E0ED93FC93E0916C04EF5FE0936C0498
:100B6C00E9CFE0E0E0937404E0937704AEE0B0E00A
:100B7C000E94B418A0917104EA1731F0E09171044D
:100B8C00AEE0B0E00E94C818AAE8B2E00E94A51638
:100B9C000E948B14A0DC0895A89784E1A4E1B0E036
:100BAC00E8E2F1E00E94E7180E94DB1801E030E077
:100BBC0020E08C829D82FE013696C082D182E0912B
:100BCC007C04F0E0E7FDFFEFE887F987E0918F0404
:100BDC00F0E0E7FDFFEFEA87FB87E0919004F0E09F
:100BEC00E7FDFFEFEC87FD87E0919104F0E0E7FD76
:100BFC00FFEFEE87FF87E0917904F0E0E7FDFFEF70
:100C0C00E88BF98BE0917A04F0E0E7FDFFEFEA8BDB
:100C1C00FB8BE0917B04F0E0E7FDFFEFEC8BFD8BB1
:100C2C00E0918E04F0E0E7FDFFEFEE8BFF8BE0E050
:100C3C00E093B000E093B1000E948B14442455243F
:100C4C00E1E0E0936C04A0916C04A13188F4E09194
:100C5C006C04F0E0EE56FB4FE081F0E0E7FDFFEFB7
:100C6C004E0E5F1EE0916C04EF5FE0936C04EBCFD3
:100C7C00E1E0E0936C04A0916C04A13188F4E09164
:100C8C006C04F0E0ED55FB4FE081F0E0E7FDFFEF89
:100C9C004E0E5F1EE0916C04EF5FE0936C04EBCFA3
:100CAC00F201A3E0B0E00E947218E236A6E1FA0766
:100CBC0009F0FFCFA4E0B0E00E94B018BF010F0113
:100CCC00F196E131A8E0FA0780F0F001E05DF74021
:100CDC00E430A2E0FA0748F4DB01E0910204F09161
:100CEC000304AE1BBF0B119709F0FFCFA0910404B6
:100CFC00B0910504A831E9E7BE0720F0A091730478
:100D0C00A83208F4FFCF329910C0A0916F04A9301B
:100D1C0038F4E0916F04EF5FE0936F04E1E003C0FF
:100D2C00E0E0E0936F04E0937004349911C0A0915B
:100D3C006F04A13038F0E0916F04E150E0936F0440
:100D4C00E0E004C0E9E0E0936F04E1E0E0937004BC
:100D5C00329B05C0349B03C0003009F49FC0E0E017
:100D6C00EA93A09170040E947A14A0E00E949F1450
:100D7C00E0E0EA93A0917004E1E0EA1BAE2F0E9440
:100D8C007A14ABE4B1E00E94CE14E0E0E0936C0482
:100D9C00A0916C04A23008F081C0E0916F04EA0FBE
:100DAC00A0917004EA1BE0937504E1E0EA93A09132
:100DBC006C040E947A14E0917504F0E0DE01589600
:100DCC00EE0FFF1FAE0FBF1F0E949618DF010E948F
:100DDC00CE14EDE0EA93A0916C040E947A14A091D9
:100DEC007504A43021F0A63011F0A83069F4E0911C
:100DFC007504F0E0DE011496EE0FFF1FAE0FBF1F5F
:100E0C000E949618309709F005C0A1E3B2E00E9449
:100E1C00CE143EC0A0917504A23069F4E091750423
:100E2C00F0E0DE011496EE0FFF1FAE0FBF1F0E9405
:100E3C009618309709F005C0A5E3B2E00E94CE14D5
:100E4C0027C0A0917504A23021F4A9E3B2E00E945E
:100E5C00CE14EDE7F4E0FA93EA93E9E5F1E0FA93C6
:100E6C00EA93E0917504F0E0DE011896EE0FFF1F97
:100E7C00AE0FBF1F0E949618662777270E949E18F8
:100E8C0084E00E9469162896ADE7B4E00E94BF1476
:100E9C00E0916C04EF5FE0936C047ACF359B02C059
:100EAC00339958C2EDE0EA93A09170040E947A1431
:100EBC00359902C0EFEF01C0E1E01E2FE0916F0405
:100ECC00E030C9F5E12FF0E0E7FDFFEF8E0E9F1E3D
:100EDC00E2E3F0E08E169F0628F0E4EFF1E0E8156F
:100EEC00F90540F4E12FD401F0E0E7FDFFEFAE1B74
:100EFC00BF0B4D01EDE7F4E0FA93EA93E9E5F1E07D
:100F0C00FA93EA93F401662777270E949E1884E0EF
:100F1C000E9469162896ADE7B4E00E94BF14E4E67F
:100F2C00F0E08E169F0620F4ABE4B1E00E94CE14E4
:100F3C008C829D820FC2E130B1F5A5E01A02F0015E
:100F4C00F0E0E7FDFFEFCE0EDF1EE4E6F0E0CE169C
:100F5C00DF0628F0ECE2F1E0EC15FD0550F4A5E01D
:100F6C001A02F001D601F0E0E7FDFFEFAE1BBF0B5C
:100F7C006D01EDE7F4E0FA93EA93E9E5F1E0FA9319
:100F8C00EA93F601662777270E949E1884E00E9458
:100F9C0069162896ADE7B4E00E94BF14FE013696A0
:100FAC00C082D182D7C1E23009F041C0E12FEE0FEF
:100FBC00A0917C04EA0FE0937C04A0917C04A03007
:100FCC0014F0A3333CF0E12FEE0FA0917C04AE1B88
:100FDC00A0937C04E0917C04E03019F4A5E3B2E02A
:100FEC001CC0EDE7F4E0FA93EA93EBE3F2E0FA933A
:100FFC00EA93E0917C040E9467180E949E1884E09A
:10100C000E9469162896ADE7B4E00E94BF14A09127
:10101C007C04AA3024F4ABE4B1E00E94CE14E0913D
:10102C007C04F0E0E7FDFFEFE887F98793C1E3303C
:10103C0091F5E12FEE0FA0918F04EA0FE0938F044E
:10104C00A0918F04AA3014F0A3343CF0E12FEE0FE2
:10105C00A0918F04AE1BA0938F04EDE7F4E0FA93FC
:10106C00EA93E9E5F1E0FA93EA93E0918F040E94A8
:10107C0067180E949E1884E00E9469162896ADE7B6
:10108C00B4E00E94BF14E0918F04F0E0E7FDFFEFA5
:10109C00EA87FB875FC1E430C1F5E12FA091900492
:1010AC00EA0FE0939004A0919004A03014F0A630C5
:1010BC002CF0E0919004E11BE0939004E0919004FB
:1010CC00E03029F4A1E3B2E00E94CE1416C0EDE7A3
:1010DC00F4E0FA93EA93EFE3F2E0FA93EA93E09107
:1010EC0090040E9467180E949E1884E00E94691662
:1010FC002896ADE7B4E00E94BF14E0919004F0E0B4
:10110C00E7FDFFEFEC87FD8725C1E53079F5E12F91
:10111C00A0919104EA0FE0939104A0919104A13065
:10112C0014F0A6302CF0E0919104E11BE0939104B3
:10113C00EDE7F4E0FA93EA93E9E5F1E0FA93EA9348
:10114C00E09191040E9467180E949E1884E00E940E
:10115C0069162896ADE7B4E00E94BF14E0919104A3
:10116C00F0E0E7FDFFEFEE87FF87F4C0E63009F013
:10117C004BC0E12FA0917904EA0FE0937904A09180
:10118C007904A03014F0AB302CF0E0917904E11B21
:10119C00E0937904A0917904A1303CF0E0917904BA
:1011AC00AEE0EA02F001EE5801C0E0E0E7BDE091EC
:1011BC007904E03019F4A1E3B2E01CC0EDE7F4E0EF
:1011CC00FA93EA93E4E4F2E0FA93EA93E091790477
:1011DC000E9467180E949E1884E00E946916289647
:1011EC00ADE7B4E00E94BF14A0917904AA3024F4B6
:1011FC00ABE4B1E00E94CE14E0917904F0E0E7FD9D
:10120C00FFEFE88BF98BA6C0E73099F5E12FA091A1
:10121C007A04EA0FE0937A04A0917A04A03014F0D7
:10122C00A3332CF0E0917A04E11BE0937A04E09173
:10123C007A04EE0FE8BDEDE7F4E0FA93EA93E4E408
:10124C00F2E0FA93EA93E0917A040E9467180E9404
:10125C009E1884E00E9469162896ADE7B4E00E94BF
:10126C00BF14E0917A04F0E0E7FDFFEFEA8BFB8B13
:10127C0071C0E83009F03EC0E12FA0917B04EA0F69
:10128C00E0937B04A0917B04A03014F0AB302CF0E5
:10129C00E0917B04E11BE0937B04E0917B04E03064
:1012AC0019F4A1E3B2E01CC0EDE7F4E0FA93EA9381
:1012BC00E4E4F2E0FA93EA93E0917B040E9467186D
:1012CC000E949E1884E00E9469162896ADE7B4E04F
:1012DC000E94BF14A0917B04AA3024F4ABE4B1E0CB
:1012EC000E94CE14E0917B04F0E0E7FDFFEFEC8B65
:1012FC00FD8B30C0E93071F5E12FA0918E04EA0F1F
:10130C00E0938E04A0918E04A13014F0A9302CF03F
:10131C00E0918E04E11BE0938E04EDE7F4E0FA9388
:10132C00EA93E9E5F1E0FA93EA93E0918E040E94E6
:10133C0067180E949E1884E00E9469162896ADE7F3
:10134C00B4E00E94BF14E0918E04F0E0E7FDFFEFE3
:10135C00EE8BFF8B359B02C0339902C0E1E001C0DC
:10136C00E0E03E2F003019F0ACE2B1E013C0329B4C
:10137C0002C0349902C0A1EE0CC0A0916F04A03041
:10138C0021F4303011F0203009F402C0AFE001C07C
:10139C00A6E9B0E00E94A516303029F0359B02C0BA
:1013AC00339901C001C002C0E1E001C0E0E02E2F82
:1013BC0000E01D99F3C0A6E0B0E00E94B418AE2F77
:1013CC00E0917904EA1721F0A6E0B0E00E94C81879
:1013DC00A8E0B0E00E94B418AE2FE0917A04EA17AE
:1013EC0021F0A8E0B0E00E94C818A7E0B0E00E948D
:1013FC00B418AE2FE0917B04EA1751F0A7E0B0E0EF
:10140C000E94C818E150A5E0EA02F001E0937604CE
:10141C00AAE0B0E00E94B418AE2FE0918E04EA1757
:10142C0021F0AAE0B0E00E94C818AEE0B0E00E9443
:10143C00B418AE2FE0917104EA1721F0AEE0B0E0E1
:10144C000E94C818ADE0B0E00E94B418AE2FE09135
:10145C009104EA1721F0ADE0B0E00E94C818ACE0AE
:10146C00B0E00E94B418AE2FE0919004EA1709F195
:10147C00ACE0B0E00E94C818E1E0E0936C04A091ED
:10148C006C04A33398F4E0916C04A6E0B4E0F0E0B3
:10149C00EE0FFF1FAE0FBF1FE0E0F0E0ED93FC93EB
:1014AC00E0916C04EF5FE0936C04E9CFE0E0E09333
:1014BC007404A0E0B0E00E94B0188E169F06D1F420
:1014CC00A2E0B0E00E94B018CE16DF0699F4A9E0B5
:1014DC00B0E00E94B418AE2FE0917C04EA1751F4EE
:1014EC00ABE0B0E00E94B418AE2FE0918F04EA1785
:1014FC0009F448C0A0E0B0E00E94B0188E169F0618
:10150C00C1F0F401A0E0B0E00E94C0186627772774
:10151C000E941517A0E0B4E284E799E40E94ED174D
:10152C00A0E0B0E080E09FE30E944F170E94DC1621
:10153C005F01A2E0B0E00E94B018CE16DF0629F0E1
:10154C00F601A2E0B0E00E94C018A9E0B0E00E9451
:10155C00B418AE2FE0917C04EA1721F0A9E0B0E0BA
:10156C000E94C818ABE0B0E00E94B418AE2FE09116
:10157C008F04EA1721F0ABE0B0E00E94C8180E947B
:10158C00A70209C0E0E0E0937704A8ECB0E00E9469
:10159C00A5160E948B140E94710201C0B4CB0E944C
:1015AC00E218AC960895BA93AA931A930A93EA8117
:1015BC00EE0FEE0FEE0FE0640E2F10E0183068F413
:1015CC000A930395ED81FE813196ED83FE8331976D
:1015DC00A4910E9472141F5FF1CF19810881269685
:1015EC000895E0917B04E03021F1E0917604E093E2
:1015FC00B300E0E0E0936C04A0916C04A330C8F459
:10160C00ABE4B0E00E94A516E3E8E093B000E6E09E
:10161C00E093B100ABE4B0E00E94A516E0E0E093EB
:10162C00B000E093B100E0916C04EF5FE0936C04C8
:10163C00E3CFE0E0E0937804089500E036E950E071
:10164C00229A2A9AA4E0B0E00E94B018309721F0B8
:10165C00EF3FAFEFFA0779F4A0E0B0E00E94B018CA
:10166C00F29740F0A0E0B0E00E94B018E53FA1E096
:10167C00FA0708F001C006C0A4E0B0E0EFEDF7E017
:10168C000E94C018A4E0B0E00E94B018E0930204DD
:10169C00F0930304A0E0B0E00E94B018DF01F297D1
:1016AC0028F0FD01E53FA1E0FA0708F08FC0A0E0AB
:1016BC00B0E00E94B0184F01A2E0B0E00E94B01858
:1016CC00E436A0E0FA0720F0ED32A1E0FA0708F0CA
:1016DC0005C0A2E0B0E00E94B0186F01A6E0B0E037
:1016EC000E94B418E03014F0EB300CF006C0A6E009
:1016FC00B0E00E94B418E0937904A7E0B0E00E9437
:10170C00B418E03014F0EB300CF006C0A7E0B0E0F9
:10171C000E94B418E0937B04AEE0B0E00E94B418D1
:10172C00E13010F0E53108F006C0AEE0B0E00E9408
:10173C00B418E0937104A9E0B0E00E94B418E03052
:10174C0014F0E3330CF006C0A9E0B0E00E94B4182A
:10175C00E0937C04AAE0B0E00E94B418E13014F0ED
:10176C00E9300CF006C0AAE0B0E00E94B418E09397
:10177C008E04ABE0B0E00E94B418EA3014F0E3340D
:10178C000CF006C0ABE0B0E00E94B418E0938F04FC
:10179C00ACE0B0E00E94B418E03014F0E6300CF08D
:1017AC0006C0ACE0B0E00E94B418E0939004ADE049
:1017BC00B0E00E94B418E13014F0E6300CF006C032
:1017CC00ADE0B0E00E94B418E0939104E091710494
:1017DC00F0E0E855FF4F1491A0917104A23050F045
:1017EC00E0917104E150F0E0E855FF4FE491E11B0A
:1017FC00EE0F01C0ECE32E2FF401662777270E9431
:10180C001517A0E0B4E284E799E40E94ED17A0E07C
:10181C00B0E080E09FE30E944F170E94DC165F014E
:10182C00E0E0E0937E00E0E4E0937C00E5E8E09308
:10183C007A00E0E0E0937B005E98569A5D98559AAA
:10184C002B98239A2D9A2598459A3D98439A3B9824
:10185C00429A3A98449A3C98A0E10E94E1140E9462
:10186C008B14E8E6F0E0FA93EA93A0E0B0E09BDE9C
:10187C00E0E7F0E0FA93EA93A1E0B0E094DEE8E769
:10188C00F0E0FA93EA93A2E0B0E08DDEE0E8F0E05D
:10189C00FA93EA93A3E0B0E086DEE8E8F0E0FA938E
:1018AC00EA93A4E0B0E07FDEE0E9F0E0FA93EA939B
:1018BC00A5E0B0E078DEE8E9F0E0FA93EA93A6E080
:1018CC00B0E071DEE0EAF0E0FA93EA93A7E0B0E072
:1018DC006ADEE0E0E093B600E0917B04E150A5E025
:1018EC00EA02F001E0937604E3EAE4BDE2E0E5BD50
:1018FC00A0917904A1303CF0E0917904AEE0EA02C9
:10190C00F001EE5801C0E0E0E7BDA8E0B0E00E94B5
:10191C00B418E03014F0E3330CF007C0A8E0B0E0EA
:10192C000E94B418E0937A044AC00E948B14A8E475
:10193C00B2E00E94CE14E0E0E0936C04A0916C0441
:10194C00A536B8F5E0916C04E8BDE695E0937A0411
:10195C00EDE7F4E0FA93EA93E4E4F2E0FA93EA9325
:10196C00E0917A040E9467180E949E1884E00E94FD
:10197C0069162896E7E0EA93A1E00E947A14ADE795
:10198C00B4E00E94BF14AAEFB0E00E94A516A0918B
:10199C006C04A43619F4E0E0E0936C041D9903C0C8
:1019AC00E5E6E0936C04E0916C04EE5FE0936C046C
:1019BC00C5CFE0917A04A8E0B0E00E94C818E0918D
:1019CC007A04EE0FE8BDA0910404B0910504A2378F
:1019DC00E5E7BE0720F0A0917304AE3210F40C942E
:1019EC003F140E948B1444245524E1E0E0936C04D2
:1019FC00A0916C04A13188F4E0916C04F0E0EE56F7
:101A0C00FB4FE081F0E0E7FDFFEF4E0E5F1EE09133
:101A1C006C04EF5FE0936C04EBCFE1E0E0936C04BB
:101A2C00A0916C04A13188F4E0916C04F0E0ED55C8
:101A3C00FB4FE081F0E0E7FDFFEF4E0E5F1EE09103
:101A4C006C04EF5FE0936C04EBCFF201EE0FFF1F21
:101A5C00EC3EAEE0FA0709F0FFCFA4E0B0E00E9444
:101A6C00B01831960E94C018A4E0B0E00E94B018E3
:101A7C00BF010F01F196E131A8E0FA0780F0F00107
:101A8C00EB5BF740E931A2E0FA0748F4DB01E091A7
:101A9C000204F0910304AE1BBF0B119799F0A0EF59
:101AAC00B1E00E94F601A9E5B2E00E94CE14A9EEC5
:101ABC00B1E00E94F601A4E0B0E0E2E2F8EC0E9492
:101ACC00C018FFCFA0910404B0910504A033E5E742
:101ADC00BE0720F0A0917304AD3208F4FFCFA091A3
:101AEC00A604E091A704AE0FA938A9F4A091A8040C
:101AFC00E091A904AE0FAC3971F4A0919404E0917B
:101B0C009904AE0FA03939F4A0919A04E0919B048A
:101B1C00AE0FAE3D11F00C943F14A0910204B091A5
:101B2C000304A03DE7E0BE0720F0A73FE9E0BE07B5
:101B3C0010F00C943F140E948B14A2E9B4E00E94A4
:101B4C00BF14A1E3B0E00E94A516A3EAB4E00E9482
:101B5C00BF14A5EEB3E00E94A516E0E0E0936C0480
:101B6C00E0917304A0916C04AE1760F4A09104048E
:101B7C00B09105040E94F601E0916C04EF5FE093D4
:101B8C006C04EECF0E948B14AAE6B2E00E94CE1435
:101B9C00A0910204B0910304E4EFF1E0EA1BFB0B0B
:101BAC00E152F84F2F01EE0FFF1F329738F0F20180
:101BBC000E946218E13DA7E0FA0708F0FFCFEDE7BD
:101BCC00F4E0FA93EA93E9E5F1E0FA93EA93F2018F
:101BDC00662777270E949E1884E00E946916289633
:101BEC00E7E0EA93A1E00E947A14ADE7B4E00E942A
:101BFC00BF14ADEDB3E00E94A516E0E0E0936C04D9
:101C0C00E0917304A0916C04AE1760F4A0910404ED
:101C1C00B09105040E94F601E0916C04EF5FE09333
:101C2C006C04EECFF8940E94A702E0917204E030AD
:101C3C0009F034C5E0E0E0936C04A0916C04AE3084
:101C4C0008F0CFC0E0917A00E064E0937A00E09174
:101C5C007A00E071E1F3E0917A00E061E0937A00C0
:101C6C002A98D6010E94F6012A9AE0916C04A09160
:101C7C006D04EA0FE0936E04000085E090E001979C
:101C8C00F1F7E0916E04E150E0936E04E03039F02E
:101C9C000000000085E090E00197F1F7F2CFE0E062
:101CAC00E4BDE5BDE0917A00E064E0937A00E09158
:101CBC007A00E071E1F3E0917A00E061E0937A0060
:101CCC00E0917800F0917900E093F003F093F10348
:101CDC00E0917A00E064E0937A00E0917A00E071A0
:101CEC00E1F3E0917A00E061E0937A00E091780012
:101CFC00F0917900E093F203F093F303E0917A0012
:101D0C00E064E0937A00E0917A00E071E1F3E09115
:101D1C007A00E061E0937A00E0917800F09179002C
:101D2C00E093F403F093F503E3EAE4BDE2E0E5BDF0
:101D3C00E0916C04A6E2B3E0F0E0EE0FFF1FEA0FB7
:101D4C00FB1FA091F003B091F103A083B183E0914C
:101D5C006C04E25FA6E2B3E0F0E0EE0FFF1FEA0FC7
:101D6C00FB1FA091F203B091F303A083B183E09128
:101D7C006C04E45EA6E2B3E0F0E0EE0FFF1FEA0FA6
:101D8C00FB1FA091F403B091F503A083B183A09144
:101D9C006D04EEEBEA1BA0916C04EA1BE0936E045D
:101DAC00000085E090E00197F1F7E0916E04E150BE
:101DBC00E0936E04E03039F00000000085E090E024
:101DCC000197F1F7F2CFF501EF58F140EC19FD094D
:101DDC00DF010E94F601E0916C04EF5FE0936C046C
:101DEC002CCFE1E4E0937C0044245524E0918F0453
:101DFC000E9467180E941517DF01CB01EDECFCEC7B
:101E0C006CEC7FE30E94ED17A0E0B0E080E09FE374
:101E1C000E944F17A5E7B4E00E94DC16EC93E0E0BB
:101E2C00E0936C04E0917504A0916C04AE1798F4E7
:101E3C00E0916C04A6E2B3E0F0E0EE0FFF1FAE0FF2
:101E4C00BF1F0E9496184E0E5F1EE0916C04EF5F50
:101E5C00E0936C04E7CFE0E0E093FA03E093FB033C
:101E6C00E091EE03F091EF03309709F082C0E1E0CE
:101E7C00E0936C04A0916C04A63008F5E0916C041E
:101E8C00A6E0B4E0F0E0EE0FFF1FAE0FBF1F0E9404
:101E9C009618309771F4E0916C04A6E0B4E0F0E091
:101EAC00EE0FFF1FEA0FFB1F40825182E6E0E0932A
:101EBC006C04E0916C04EF5FE0936C04DBCFE09179
:101ECC001004F0911104309709F446C0E091080415
:101EDC00F0910904662777270E941517DF01CB01C3
:101EEC00E0910A04F0910B04662777270E941517DE
:101EFC000E944F17DF01CB01E0910C04F0910D040F
:101F0C00662777270E9415170E944F17DF01CB0118
:101F1C00E0910E04F0910F04662777270E941517A5
:101F2C000E944F17DF01CB01E0911004F0911104D6
:101F3C00662777270E9415170E944F17DF01CB01E8
:101F4C00E0E0F0E060EA70E40E94ED17AEEEB3E082
:101F5C000E94DC16ED93FC93E4E0E0937404E0E063
:101F6C00EA93A1E00E947A14ABE7B2E00E94CE148F
:101F7C00DBC1E091EE03F091EF034E165F0658F4CF
:101F8C00A091EE03B091EF03A419B509E12FF0E095
:101F9C000E94801802C0E0E0F0E0E0930004F093AF
:101FAC000104A0919104E6E0EA1BA0917704B0E053
:101FBC00F0E0E7FDFFEFAE17BF0774F4D201949683
:101FCC00E3E0E19FF001AE0FBF1FE091EE03F09153
:101FDC00EF03EA17FB0740F0E0910004F0910104D5
:101FEC00E093FA03F093FB03E0910004F0910104F9
:101FFC00309721F0E0917704EF5F01C0E0E0E093CF
:10200C007704A0917704A63018F0E5E0E09377040C
:10201C00E091FA03F091FB03309731F0E0917B04EF
:10202C00E03011F0313908F47CC0A091FA03B09182
:10203C00FB03519730F4E091FA03F091FB033197D5
:10204C0001C0EFE0E0937504E0917604A091750473
:10205C00EA0FE0937504A0917504AE3208F401C048
:10206C00EDE2E093B300E3E8E093B000E0918E047E
:10207C00E13009F452C0E23011F4E5E04FC0E33036
:10208C0011F4E6E04BC0E43051F4A091B100A4305F
:10209C0011F4E5E001C0E4E0E093B10041C0E530AB
:1020AC0051F4A091B100A53011F4E6E001C0E5E0D7
:1020BC00E093B10035C0E63051F4A091B100A430EA
:1020CC0011F4E6E001C0E4E0E093B10029C0E73090
:1020DC0081F4A091B100A43011F4E5E007C0A09107
:1020EC00B100A53011F4E6E001C0E4E0E093B100EA
:1020FC0017C0E830A9F4A091FA03B091FB03A13505
:10210C00E0E0BE0710F0E6E009C0A091FA03B09140
:10211C00FB03519710F0E5E001C0E4E0E093B1005F
:10212C0009C0E091B100E03029F0E0E0E093B000AC
:10213C00E093B100E0E0EA93A1E00E947A14E09110
:10214C00FA03F091FB03309709F48EC0E1E0E093C1
:10215C006C04E091FA03F091FB03A0916C04B0E0E5
:10216C00EA17FB0720F0A0916C04A83008F00AC015
:10217C00A0916C040E949F14E0916C04EF5FE093BB
:10218C006C04E7CFA091FA03B091FB03189720F0F1
:10219C00A0E0B3E00E94BF14A0916C04E9E0EA1B3C
:1021AC00E0937504E0E0E0936C04E0917504A09179
:1021BC006C04AE1750F4A2E0B3E00E94BF14E0919F
:1021CC006C04EF5FE0936C04F0CFA091EE03B09140
:1021DC00EF03A419B509E3E0F0E00E948018E09346
:1021EC00F203F093F303A091F203B091F303A83E32
:1021FC00E3E0BE0730F0E7EEF3E0E093F203F09398
:10220C00F303EDE7F4E0FA93EA93E9E5F1E0FA93EE
:10221C00EA93E091F203F091F303662777270E948B
:10222C009E1884E00E9469162896E8E0EA93A1E0E3
:10223C000E947A14ADE7B4E00E94BF14A091F2039F
:10224C00B091F3031A9718F4A4E0B3E00AC0A0917C
:10225C00F203B091F303A436E0E0BE0720F4A7E04C
:10226C00B3E00E94BF1460C0E22FA091EE03B091C6
:10227C00EF03F0E0EA0FFB1F4E165F0650F4A9E0E7
:10228C00B3E00E94BF14313918F0E0E0E093780419
:10229C004BC0A0917804A530F0F1A091EE03B09161
:1022AC00EF03F201EA1BFB0BDF01E3E0F0E00E941D
:1022BC008018E0930004F0930104EDE7F4E0FA9346
:1022CC00EA93E5E9F2E0FA93EA93E0910004F091E5
:1022DC000104662777270E949E1884E00E946916E5
:1022EC002896ADE7B4E00E94BF14A0910004B09111
:1022FC0001041A9718F4A5E1B3E00AC0A0910004F8
:10230C00B0910104A436E0E0BE0720F4A8E1B3E0EC
:10231C000E94BF1404C0AAE1B3E00E94BF14E09174
:10232C007804EF5FE09378040030D1F0E0E0EA93BA
:10233C00A0E00E947A14EDE7F4E0FA93EA93ECEA59
:10234C00F2E0FA93EA93F201662777270E949E182F
:10235C0084E00E9469162896ADE7B4E00E94BF1491
:10236C00E0919004E03051F0E0917704E03031F4EA
:10237C00E091EE03F091EF03309709F496C0E12F52
:10238C00A091EE03B091EF03F0E0EA0FFB1F4E16A5
:10239C005F0618F0543009F081C0E0919004AAE077
:1023AC00EA02F001E0937504A0917404AE1720F4D6
:1023BC00E0917404EF5F01C0E1E0E0937404A6E0E7
:1023CC00B4E0F0E0EE0FFF1FEA0FFB1F40825182DA
:1023DC00E0E0E093B404E093B504E093B604E0933A
:1023EC00B704E1E0E0936C04E0917504A0916C04F7
:1023FC00EA17B0F1E0916C04A6E0B4E0F0E0EE0F67
:10240C00FF1FAE0FBF1F0E949618309711F1E0917D
:10241C006C04A6E0B4E0F0E0EE0FFF1FAE0FBF1FA0
:10242C000E949618A091B404B091B5048091B604A2
:10243C009091B704662777270E9415170E944F17B3
:10244C00E093B404F093B5046093B6047093B704AE
:10245C0001C006C0E0916C04EF5FE0936C04C4CF44
:10246C00A0916C04A630C0F0E0916C04E150A091F6
:10247C00B404B091B5048091B6049091B704FF27D1
:10248C00662777270E9415170E94ED17AEEEB3E072
:10249C000E94DC16ED93FC9350E007C0543018F406
:1024AC00E52FEF5F01C0E4E05E2F359B02C033994E
:1024BC00D5C0E0E0E093B000E093B1000E948B1433
:1024CC00AAEBB2E00E94CE1444245524E1E0E09340
:1024DC006C04A0916C04A13188F4E0916C04F0E0E0
:1024EC00EE56FB4FE081F0E0E7FDFFEF4E0E5F1E76
:1024FC00E0916C04EF5FE0936C04EBCFE1E0E093D0
:10250C006C04A0916C04A13188F4E0916C04F0E0AF
:10251C00ED55FB4FE081F0E0E7FDFFEF4E0E5F1E47
:10252C00E0916C04EF5FE0936C04EBCFF201A3E05D
:10253C00B0E00E947218E236A6E1FA0709F099C1E0
:10254C00A0910204B0910304A53DE9E0BE0790F40C
:10255C00D196A031E8E0BE0768F0A0910204B091DA
:10256C000304E2E00E947A18E05AFF40E730A4E04E
:10257C00FA0708F07EC1A0910404B0910504AA33B7
:10258C00E5E7BE0720F0A0917304AF3208F471C1E7
:10259C00E0E0E0936C04A0916C04A93008F042C018
:1025AC00339904C0A0917104A43108F008C0E091E3
:1025BC007104EF5FE0937104E1E0E0936C043599F2
:1025CC0004C0A0917104A23008F408C0E091710419
:1025DC00E150E0937104E1E0E0936C04EDE7F4E08A
:1025EC00FA93EA93E4E4F2E0FA93EA93E09171044B
:1025FC00FF27662777270E949E1884E00E946916A1
:10260C002896E7E0EA93A1E06FD1ADE7B4E0B1D151
:10261C00AFEAB0E00E94A516E0916C04EF5FE09386
:10262C006C04B9CFE0917104F0E0E855FF4F1491C0
:10263C00A0917104A23050F0E0917104E150F0E0EF
:10264C00E855FF4FE491E11BEE0F01C0ECE32E2F98
:10265C00E0E0E093770459D10E947102349910C0E4
:10266C00E0E0E093B000E093B100E1E0E01B0E2F5E
:10267C00003011F40E947102A8ECB0E00E94A51683
:10268C00313928F4E0917804EF5FE0937804A0915D
:10269C007804A53610F00E94F70A0EC0E1E4E0932E
:1026AC007C00A6E9B0E00E94A516E0E0EA93A1E068
:1026BC001BD1ABECB2E06CD1E0917A00E064E0931A
:1026CC007A00E0917A00E071E1F3E0917A00E06148
:1026DC00E0937A00E0917800F0917900E093FE03AA
:1026EC00F093FF03E0E4E0937C00E091FE03F091B3
:1026FC00FF03662777270E941517DF01CB01E0E067
:10270C00F0E060E172E40E94ED17AAE9B9E989E909
:10271C009EE30E944F17A0E0B0E080E291E40E949B
:10272C009F17AAE9B9E989E99EE30E944F17AEEF1A
:10273C00B3E00E94DC16ED93FC933091FE03A09164
:10274C00FE03B091FF03A139E0E0BE0758F4E0E0CE
:10275C00E093B000E093B100EA93A1E0C5D0A7EDFF
:10276C00B2E016D1A091FE03B091FF03EAE0F0E0D5
:10277C000E948018E093F003F093F103A091FE0304
:10278C00B091FF03EAE0F0E00E949318E093F203AB
:10279C00F093F303EDE7F4E0FA93EA93E3EEF2E05F
:1027AC00FA93EA93E091F003F091F103662777270F
:1027BC000E949E18E091F203F091F30366277727AD
:1027CC000E949E1888E00E9469162C96EBE0EA9312
:1027DC00A1E08AD0ADE7B4E0CCD0343618F4ABE449
:1027EC00B1E0D6D01D9902C00E94D205329902C028
:1027FC000E94A702E091B804F091B9046091BA0468
:10280C007091BB04A0E0B0E080E89FE30E944F17FA
:10281C00E093B804F093B9046093BA047093BB04CA
:10282C00A091B804B091B9048091BA049091BB0402
:10283C00E0E0F0E563E478E40E94321809F008F473
:10284C0016C0E093B804E093B904E093BA04E093A3
:10285C00BB04A4E0B0E00E94B01831960E94C018EE
:10286C00A2E0B4E0ED91FD913196FE93EE930C94C1
:10287C001B0EFFCFAA93E881E07111F05A9A01C0A8
:10288C005A98E881E07211F05B9A01C05B98E8817C
:10289C00E07411F05C9A01C05C98E881E07811F06A
:1028AC00289A01C0289881E28A95F1F7599A81E219
:1028BC008A95F1F7599881E28A95F1F7B6C0AA93F7
:1028CC00A881D8DFE881E295E883A881D3DF8AEF7D
:1028DC0090E00197F1F7A9C0AA93A981F0DF589A6B
:1028EC00A881EDDF58980FC0AA93E881F0E0E4547A
:1028FC00FB4FE081A981AE0FE2DFE981E093C004D8
:10290C00E881E093C10422960895A2E0D8DFA3E009
:10291C00B0E00E94A516ACE0D2DFA1E0D0DFA3E0CE
:10292C00B0E00E94A516E0E0E093C104E093C0047F
:10293C000895AA93A881AA3031F0E091C204A09125
:10294C00C004AE1760F0E0E0EA93A091C104AF5F61
:10295C00A093C104C9DFA881AA3009F466C0E09134
:10296C00C004EF5FE093C004589AA881A8DF589880
:10297C005CC0BA93AA931A93A981BA81ED91A983E9
:10298C00BA831E2FE03019F0A12FD3DFF5CF10C082
:10299C00BA93AA931A93E981FA813196E983FA835F
:1029AC003197E4911E2FE03019F0A12FC2DFF3CF45
:1029BC00188123960895AA93529A539A549A209A5E
:1029CC00519A509A579A599858985F98E881E09381
:1029DC00C204E058E093BE04E881E054E093BF04E5
:1029EC00A4E1B0E00E94A516A0E344DF84EF91E0DF
:1029FC000197F1F7A0E33EDF84EF91E00197F1F747
:102A0C00A0E338DF84EF91E00197F1F7A0E232DF29
:102A1C0084EF91E00197F1F7A8E251DFA4E04FDFDA
:102A2C00A5E84DDFA6E04BDF70DF21960895BA9341
:102A3C00AA931A930A93AA81BB8112960E949618A4
:102A4C00309759F1AA81BB8114960E9496188F0178
:102A5C00309761F00230E0E01E0798F0F8013197F2
:102A6C008F01AA81BB811496ED93FC93AA81BB8143
:102A7C001296ED91FD913196FE93EE933197AC81C8
:102A8C00A083AA81BB810E949618FF232AF0ED91A6
:102A9C00FD913196FE93EE9306C0AA81BB81EFEFB8
:102AAC00FFEFED93FC931981088125960895BA9355
:102ABC00AA9324970E94D91810E0AA85BB85E0E060
:102ACC00F0E0ED93FC93E889F9893196E88BF98B6A
:102ADC003197E4913E2FE03009F4EDC0E12FE03066
:102AEC0059F4353211F411E006C03A93AB85BC852C
:102AFC00ED85FE850995DEC0E130A9F4353239F457
:102B0C003A93AB85BC85ED85FE850995D2C012E064
:102B1C0020E000E03B3211F42BE2CCC0303211F457
:102B2C0020E2C8C002C0E23031F4303319F4006145
:102B3C0015E0C0C003C0E53009F0BCC0E32FE3369C
:102B4C0069F4EE85FF853497EE87FF87A481AA93FD
:102B5C00AB85BC85ED85FE850995ABC0E337E1F40B
:102B6C00EE85FF853497EE87FF87AE85BF8514967B
:102B7C000E949618EE83FF83AE81BF81ED91AE83E8
:102B8C00BF833E2FE03039F03A93AB85BC85ED85A1
:102B9C00FE850995F1CF8DC0E037F1F4EE85FF8508
:102BAC003497EE87FF87AE85BF8514960E949618E2
:102BBC00EE83FF83EE81FF813196EE83FF833197A5
:102BCC00E4913E2FE03039F03A93AB85BC85ED852E
:102BDC00FE850995EFCF6DC0E43611F0E93611F49E
:102BEC00016002C0E53719F4EEEBF0E009C0E835FE
:102BFC0011F4026003C0E83709F05BC0E8ECF0E0C8
:102C0C00EE83FF8300FF1AC0EE85FF853497EE87B5
:102C1C00FF87AE85BF8514964D915C9155232AF4A0
:102C2C00FA010E945618AF012DE2203031F02A93A0
:102C3C00AB85BC85ED85FE8509950AC0EE85FF85C3
:102C4C003497EE87FF87AE85BF8514964D915C91C6
:102C5C0030E3EE81FF810E949A18E887F987EE81B4
:102C6C00FF813296EE83FF83E885F9854E175F0767
:102C7C0030F03F5FA885B9854A1B5B0BF5CF04FD8F
:102C8C0006C0313320F4A885B985119771F4006121
:102C9C003A3328F001FF02C0395F01C0395D3A9325
:102CAC00AB85BC85ED85FE850995A885B985129700
:102CBC0078F610E008CFAA85BB850E9496180E9472
:102CCC00E01862960895FF92F82E26970E94DB1862
:102CDC00DE011C960E9452180E949618309719F427
:102CEC00EFEFFFEF27C0DE0116960E9452188D0100
:102CFC00DE011C960E9452180E949618EE83FF83E8
:102D0C00E0E0E887E987DE011A960E9452180E94DB
:102D1C009618FA93EA931A930A93EDE1F5E1FA9374
:102D2C00EA93DE011A96C3DE9F01AE81BF81E0E01B
:102D3C00EC93F9010E94E2182A96FF9008951096E0
:102D4C0039F088E893E10197F1F7A8951197C9F745
:102D5C000895552342F4503811F4E0FF04C0319625
:102D6C00691F791F6BF050E8572711F45F93CFC0A0
:102D7C005F3F31F0660F000C57956795752F0895DE
:102D8C005F9300200AF0CFC0C8C050E8192E15225E
:102D9C00880F991F9527550F879550E8072E052208
:102DAC00660F771F7527550F67950895689401C0B6
:102DBC00E8945F93F2DF703818F07F3F08F4A7C0F7
:102DCC0056E1571BAAF4519558300EF4593030F097
:102DDC00EFEFFFEF6FEF7FE777F91AC077275523F7
:102DEC00B9F0EE0FFF1F661F771F5A95D1F710C071
:102DFC007727583028F0EF2FF62F672F5850F9CF40
:102E0C00552331F076956795F795E7955A95D1F757
:102E1C0000200AF449D15F910895689401C0E894A8
:102E2C00309760407040B1F0002426F0772312F404
:102E3C0000943AD1172E7EE1112032F07A95EE0FE4
:102E4C00FF1F661F111CF9CFEF2FF62F612D5F931B
:102E5C008ADF5F9108954F93AF01FD01DA01AB0159
:102E6C00BC01CA01402D012C142E4F910895EA0F7C
:102E7C00FB1F681F0895E095F0956095EF5FFF4F7D
:102E8C006F4F08955F9381DF903871F150E81526EC
:102E9C0004C05F937ADF903839F1703821F1572FE5
:102EAC00591B2BF112F4D7DFFACF583118F0AA279F
:102EBC00BB278827583028F0AB2FB82F88275850BD
:102ECC00F9CF552329F08695B795A7955A95D9F73B
:102EDC00502D512572F0CBDF38F46795F795E795B7
:102EEC00739513F420C0B7DF3EDF5F910895D8F7D8
:102EFC00FBCFEA1BFB0B680B51F010F40094BBDF0B
:102F0C00662392F3EE0FFF1F661F7A95CBF7EE2721
:102F1C00FF27662777275F910895EFEFFFEF6FE7A5
:102F2C007FEF5F910895EFEFFFEF6FE77FE75F9122
:102F3C0008955F932ADF703851F3903841F30124E0
:102F4C000894791F23F41CF300203AF3ECCF0F9272
:102F5C001F932F933F934F93112722279927689FF5
:102F6C00A0018F9F302D410D591F6B9F300D411DBE
:102F7C00591F8E9F27D0BF9F25D06A9F23D0BE9FFD
:102F8C001DD0AF9F1BD0AE9F110D291F391F491F9C
:102F9C00591FE32FF42F652F522F4F913F912F91F3
:102FAC001F910F9066232AF0550FEE1FFF1F661F0F
:102FBC0002C073954BF2CDDE5F910895100D211D6B
:102FCC00391F02C0200D311D491F591F08955F93F1
:102FDC00DCDE703821F411200AF49FCFA4CF903896
:102FEC0009F495CF01240894970B1BF4D4F300201B
:102FFC00F3CF792F1F932F933F934F9311241127C6
:10300C00222733274427552790E2AE17BF078607A0
:10301C00410730F0AE1BBF0B860B410B089401C06F
:10302C008894551F221F331F111CAA1FBB1F881FFA
:10303C00441F9A9551F7F901612D4F913F912F91B2
:10304C001F91662332F0550FEE1FFF1F661F7A95F6
:10305C0043F27FDE5F91089599239AF0772342F033
:10306C00971748F029F4AE17BF07860720F031F008
:10307C009894889408959894089408951894889432
:10308C0008957723C2F7971798F3A9F7EA17FB0768
:10309C00680788F399F3ECCF0024AF0DB01D0895A9
:1030AC00F195E195F0400895F09560957095E19556
:1030BC00FF4F6F4F7F4F0895EE0FFF1FEE0FFF1F57
:1030CC000895FE2FFF0FFF0B6F2F7F2F08956F2F8B
:1030DC00660F660B762F0895FA9FF02DEB9FF00D7F
:1030EC00EA9FE02DF10D08956E2F6A9FF0016B9F02
:1030FC00F00D08950024112490E1AA0FBB1F001CB1
:10310C00111C0E1A1F0A18F40E0E1F1E01C0A1600E
:10311C009A9599F7FD01D0010895ECDFFD01089512
:10312C00ED91FC91119708950590F491E02D08957F
:10313C007A936A93FA93EA930895182E862F612D49
:10314C00192E972F712D1B2EBF2FF12D1A2EAE2F4E
:10315C00E12D0895119602D0FE2F1197F999FECF0B
:10316C00FF93FFB7F894A1BDB2BDF89AE0B5FFBFCD
:10317C00FF91089507D01196EF93EF2F03D0EF91A5
:10318C0011970895F99B02C0A895FCCF9FB7F894AE
:10319C00A1BDB2BDF89A80B5E81719F0E0BDFA9A56
:1031AC00F99A9FBF08955A934A933A932A931A9384
:1031BC000A9308955D814C813B812A811981088194
:1031CC000895AC0FBD1F05900D928A95E1F70895F7
:00000001FF
